:020000040800F2
:100000000813002081030008494E00084D2B00080A
:10001000454E00085D1300087552000800000000FE
:10002000000000000000000000000000C102000805
:1000300061130008000000001D030008E5500008DF
:100040009B0300089B0300089B0300089B03000818
:100050009B0300089B0300089B0300089B03000808
:100060009B0300089B0300089B0300089B030008F8
:100070009B0300089B0300089B0300089B030008E8
:100080009B030008000000009B0300089B0300087E
:100090009B0300089B0300089B0300089B030008C8
:1000A0009B030008995100089B0300089B0300086C
:1000B0009B0300089B0300089B0300089B030008A8
:1000C0009B0300089B0300089B0300089B03000898
:1000D0009B0300089B0300089B0300089B03000888
:1000E0009B0300089B0300089B0300089B03000878
:1000F0009B0300089B0300089B030008000000000E
:10010000000000009B030008000000009B030008A3
:100110009B030008000000009B0300089B030008ED
:100120009B0300089B0300089B0300089B03000837
:100130009B03000800000000000000009B03000873
:100140009B0300089B030008000000000000000063
:10015000000000000000000000000000000000009F
:100160000000000000000000000000009B030008E9
:100170009B030008000000000000000000000000D9
:10018000000000009B0300080000000000000000C9
:10019000000000000000000000000000000000005F
:1001A00000000000000000009B0300089B03000803
:1001B0009B0300089B0300089B030008000000004D
:1001C000000000009B030008000000000000000089
:1001D0009B0300089B03000800F002F800F060F8A1
:1001E0000AA090E8000C82448344AAF10107DA4592
:1001F00001D100F055F8AFF2090EBAE80F0013F084
:10020000010F18BFFB1A43F0010318471C6C0000D4
:100210003C6C00000A444FF0000C10F8013B13F056
:10022000070408BF10F8014B1D1108BF10F8015B4F
:10023000641E05D010F8016B641E01F8016BF9D142
:1002400013F0080F1EBF10F8014BAD1C0C1B09D199
:100250006D1E58BF01F801CBFAD505E014F8016B0B
:1002600001F8016B6D1EF9D59142D6D3704700009D
:100270000023002400250026103A28BF78C1FBD8AF
:10028000520728BF30C148BF0B6070471FB506F04A
:10029000C1FC9DE8030000F029FE1FBD10B510BD94
:1002A00000F0B6FE1146FFF7F1FF05F021FC00F06B
:1002B000EDFE03B4FFF7F2FF03BC00F025FF0000E2
:1002C0002C4B19680868B0E8F04F80F30988BFF339
:1002D0006F8F4FF0000080F311887047000000001E
:1002E00008480068006880F308884FF0000080F339
:1002F000148862B661B6BFF34F8FBFF36F8F00DF14
:1003000000BF00BF08ED00E0DFF80C00016841F419
:1003100070010160704700BF88ED00E0EFF30980D5
:10032000BFF36F8F134B1A681EF0100F08BF20ED3C
:10033000108A20E9F04F106009B44FF0500080F3AC
:100340001188BFF34F8FBFF36F8F05F059FC4FF04B
:10035000000080F3118809BC19680868B0E8F04F04
:100360001EF0100F08BFB0EC108A80F30988BFF3AD
:100370006F8F704714000020EFF305807047000076
:100380000948804709480047FEE7FEE7FEE7FEE729
:10039000FEE7FEE7FEE7FEE7FEE7FEE70448054965
:1003A000054A064B7047000085510008D901000836
:1003B0000807002008130020080F0020080F002065
:1003C00070B405880E884468D1F804C05368B542FB
:1003D00008D140884988884201BF11888D425188E0
:1003E000884203D070BC6FF00200704705FB00F13B
:1003F000880827D094ED001ADCED000A94ED010A7C
:10040000DCED011A31EE201AD4ED020A70EE211A49
:100410009CED020A83ED001AC3ED011A94ED031A54
:10042000DCED031A30EE800A401E71EE210A83EDE6
:10043000020A04F11004C3ED030A03F110030CF1E6
:10044000100CD7D111F0030030D0B0F1004F30D2F2
:1004500000282BDD211F1B1FACF1040210F0010F3F
:100460000AD091ED010AD2ED010A091D121D30EEEC
:10047000200A83ED010A1B1D400817D091ED010AE7
:10048000D2ED010A401E30EE200A83ED010A91ED03
:10049000020AD2ED020A01F1080102F1080230EE6F
:1004A000200A83ED020A03F10803E7D170BC0020A3
:1004B0007047B4EC010A401EFCEC010A30EE200A41
:1004C000A3EC010AF5D1F1E7018042804360704757
:1004D0002DE9F34F84B0049840680090486801907B
:1004E0000498B0F800E04588DFEDFE0A0020029095
:1004F000B0EE600AAE4506D108884988884204BF3C
:100500007146864504D06FF0020006B0BDE8F08F5A
:1005100001985FEA010C18BFB7EE001A3DD000BF8A
:10052000BEEB0C0117D0B1F1004F80F01F82002903
:1005300011DD021F11F0010F1CBFC2ED010A121DD7
:100540004B1006D0C2ED010AC2ED020A08325B1E52
:10055000F8D100EB8100BCF10102A0EC011A19D026
:10056000B2F1004F80F00882002A13DD031F12F061
:10057000010F1CBFC3ED010A1B1D511008D000BFA5
:10058000C3ED010AC3ED020A491E03F10803F7D1C6
:1005900000EB8200BCF1010CC2D14FF000080395C2
:1005A000002D14BFB0EE602A002000F0BF8100BF14
:1005B000009908FB05F001EB800B0199DBED002AA7
:1005C00001EB80000346F0EE421AC64552D9AEEB6D
:1005D0000802ABEB850112F0010F17D001EB85018A
:1005E00091ED000AB5EEC00AF1EE10FA07DDB4EEA7
:1005F000E10AF1EE10FA09DDF0EE401A06E0B1EE84
:10060000400AF4EEC01AF1EE10FAF5D3521031D0D0
:1006100001EB850C9CED000AB5EEC00AF1EE10FA74
:1006200005DDB4EEE10AF1EE10FA09DD06E0B1EE07
:10063000400AF4EEC01AF1EE10FA01D2F0EE401AC0
:1006400001EBC50191ED000AB5EEC00AF1EE10FA1A
:1006500005DDB4EEE10AF1EE10FA09DD06E0B1EED7
:10066000400AF4EEC01AF1EE10FA01D2F0EE401A90
:10067000521ECDD1F5EEC01AF1EE10FA00F07381E2
:10068000F5EEC02A0126F1EE10FA0099D4BFB1EEC2
:10069000620AB0EE620AB4EE610AF1EE10FA1CBF13
:1006A000AEEB0802B2F1010C47D005FB08F201EBFA
:1006B000820292ED001A00BFB0EE410A05FB06F47B
:1006C000B5EEC00A00EB8404F1EE10FACCBFF0EEF8
:1006D000400AF1EE400AF4EE610AF1EE10FA28D178
:1006E000B5EB080C11D0BCF1004F7DD2BCF1000F6E
:1006F0000BDD00BF92ED000AD1ED000ABCF1010C48
:10070000E2EC010AA1EC010AF4D129000ED0B1F10A
:10071000004F6AD2002909DD94ED000AD0ED000AED
:10072000491EE4EC010AA0EC010AF5D10120029077
:100730000BE0761CBCF1010CBED10298012804D05C
:10074000F5EEC02AF1EE10FA7ED09BED000AB5EB73
:1007500008009A465946064622D0B0F1004F74D29E
:1007600000281DDD091F10F0010F06D0F0EE400A31
:1007700080EEA01A81ED011A091D401010D000BFB3
:10078000D1ED010A401E80EE801A81ED011A91ED33
:10079000021AC1EE000AC1ED020A01F10801EFD10F
:1007A000280026D0B0F1004F7ED2002821DDAAF12A
:1007B000040110F0010F06D0D1ED010A80EE801A7D
:1007C00081ED011A091D401013D000BFD1ED010ABF
:1007D000401E80EE801A81ED011AD1ED020A80EEF2
:1007E000801A81ED021A01E0CBE0D6E001F10801A8
:1007F000ECD1DDE900124FF000095FEA0E0773D07B
:10080000C14504BF01EB860102EB850274D091ED76
:10081000000ADC465046331E35D01C46B6F1004F68
:100820007ED2002C2FDD0B1FABF1040C16F0010F54
:100830000FD0F0EE400ADCED011AB0EE601A00EEC7
:10084000E11A83ED011A01E08DE0B1E01B1D0CF10E
:10085000040C741015D000BFD3ED010A9CED011AF1
:1008600040EE410AC3ED010AD3ED020A9CED021AE3
:100870000CF1080C40EE410AC3ED020A0833641E75
:10088000EAD101EB86012B0036D0B3F1004F72D2D2
:10089000002B31DDA2F1040CAAF1040013F0010FCA
:1008A0000CD0DCED010A00E08BE090ED011A001D98
:1008B00040EE410ACCED010A0CF1040C5C1019D099
:1008C000DCED010A90ED011A40EE410ACCED010A7F
:1008D000DCED020A90ED021A083040EE410ACCED40
:1008E000020A03E0000000000DE005E0641E0CF1C8
:1008F000080CE5D102EB830201EB88017F1E09F1B0
:1009000001097FF47DAF009808F10108001D0090F7
:100910000398401E03907FF44BAE0299012900E03A
:1009200058E004BF06B0BDE8F08F00BFB5EEC00AC6
:10093000F1EE10FA7FF4E9AD04990EFB05F3002BFC
:100940004A684FF000010BD902EB810C9CED000AC4
:10095000B5EEC00AF1EE10FA02D1491C8B42F3D871
:100960008B427FF4D2AD6FF00400CEE5E0EC010ADB
:10097000491EFBD1EFE538E0E0EC010A521EFBD145
:1009800008E692ED000AD1ED000ABCF1010CE2ECA0
:10099000010AA1EC010AF4D1B7E694ED000AD0ED0A
:1009A000000A491EE4EC010AA0EC010AF5D1BDE6FB
:1009B000D1ED000A401E80EE801AA1EC011AF7D199
:1009C000EEE6D3ED000A401E80EE801AA3EC011A79
:1009D000F7D10EE7BCEC011AD1ED000A5B1E40EE28
:1009E000410AE1EC010AF5D14DE7B0EC011AD2ED74
:1009F000000A5B1E40EE410AE2EC010AF5D17BE7FA
:100A00002DE9F04F82B04668536801930588478806
:100A10004B88002000900888874201BFB2F800C0D0
:100A20006545528893421EBF6FF0020002B0BDE8D8
:100A3000F08F9FED412A4FEA970EC7F3400B00BF9E
:100A4000DDE9000202EB800A4A6898464FF000098F
:100A5000B0EE420AB4465FEA0E0025D092ED001ACD
:100A6000DCED001A02EB8302DCED010A01EE810AE3
:100A700092ED001A02EB8302401ED2ED001A02EB47
:100A8000830200EE810A9CED021ADCED030A0004E9
:100A90000CF1100C000C01EE210A92ED001A02EB91
:100AA000830200EE810AD9D117F0030026D0ACF101
:100AB0000404A2EB830210F0010F08D002EB8302C2
:100AC000D4ED010A92ED001A241D00EE810A5FEABE
:100AD0000B0013D002EB830CD4ED010A9CED001A3D
:100AE00002EBC302401E00EE810AD4ED020A92ED31
:100AF000001A04F1080400EE810AEBD109F10100AB
:100B0000AAEC010A1FFA80F9486800EB8902A8F1F3
:100B100001001FFA80F8B8F1000F99D1009806EB98
:100B20008706184480B20090681E05042D0C87D1FA
:100B300002B00020BDE8F08F0000000070B405880E
:100B40000E884468D1F804C05368B54208D1408883
:100B50004988884201BF11888D425188884203D05C
:100B600070BC6FF00200704705FB00F1880827D0C9
:100B700094ED001ADCED000A94ED010ADCED011A97
:100B800031EE601AD4ED020A70EE611A9CED020A91
:100B900083ED001AC3ED011A94ED031ADCED031A7C
:100BA00030EEC00A401E71EE610A83ED020A04F1C4
:100BB0001004C3ED030A03F110030CF1100CD7D19C
:100BC00011F0030030D0B0F1004F30D200282BDDFF
:100BD000211F1B1FACF1040210F0010F0AD091ED90
:100BE000010AD2ED010A091D121D30EE600A83EDE3
:100BF000010A1B1D400817D091ED010AD2ED010A30
:100C0000401E30EE600A83ED010A91ED020AD2ED3A
:100C1000020A01F1080102F1080230EE600A83EDD8
:100C2000020A03F10803E7D170BC00207047B4EC5E
:100C3000010A401EFCEC010A30EE600AA3EC010A36
:100C4000F5D1F1E72DE9F04F02884768B0F802804E
:100C50004888D1F8049082B04FF0000A16468242CC
:100C600007BF098888456FF0020002B018BFBDE8D1
:100C7000F08F4FEA980B02EB42000190C8F340005E
:100C8000CDF8000009EB8A01BBF1000F33D00198C9
:100C900001EB820C01EB80043B46E64601EBC2050A
:100CA0004FEA0B0093ED000A401E81ED000A93ED20
:100CB000010A01EB02118CED000A93ED020A0CEB24
:100CC000021C85ED000A93ED030A05EB021584ED85
:100CD000000A04EB021403F11003E3D10EEB8200CF
:100CE00000EB820000EB8201ABF10100504307EB07
:100CF0000B1701EB001118F0030C21D03B1FA1EBE7
:100D000082011CF0010F06D093ED010A01EB820174
:100D10001B1D81ED000A009880B100BF93ED010A10
:100D200001EB820401EBC20184ED000A93ED020A9B
:100D3000401E81ED000A03F10803EFD107EB8C0799
:100D40000AF101001FFA80FA701E0604360C99D1D0
:100D500002B00020BDE8F08F70B5064600F0AAF89A
:100D6000056806F10B0020F00704B4429CBF002088
:100D700070BD2B466A68BAB11068A04210D304F166
:100D8000080188423CBF5068586007D35168101969
:100D900041601168091B016058601460101D70BD2E
:100DA00013465268002AE7D12146284600F08AF807
:100DB0000028DED170BD10B5203AC0F00B80B1E83C
:100DC0001850203AA0E81850B1E81850A0E8185080
:100DD000BFF4F5AF5FEA027C24BFB1E81850A0E889
:100DE000185044BF18C918C0BDE810405FEA827CA3
:100DF00024BF51F8043B40F8043B08BF7047D207BA
:100E000028BF31F8023B48BF11F8012B28BF20F85A
:100E1000023B48BF00F8012B70474FF00002042945
:100E2000C0F0128010F0030C00F01B80CCF1040C19
:100E3000BCF1020F18BF00F8012BA8BF20F8022B4D
:100E4000A1EB0C0100F00DB85FEAC17C24BF00F8F3
:100E5000012B00F8012B48BF00F8012B70474FF021
:100E6000000200B5134694469646203922BFA0E8FA
:100E70000C50A0E80C50B1F12001BFF4F7AF090706
:100E800028BFA0E80C5048BF0CC05DF804EB8900F7
:100E900028BF40F8042B08BF704748BF20F8022B3A
:100EA00011F0804F18BF00F8012B70477047704752
:100EB0007047000000487047B00600207047704738
:100EC0007047704738B504460A4600206946AFF3BC
:100ED0000080002808BF38BD02460099204600F077
:100EE00075F8012038BD012000F08AB8F8B5AFF3DD
:100EF0000080054600200C46102000BF0646A819B9
:100F0000A0420DD9324669460020AFF300800700A9
:100F100008BF00F075F80098A04218BF0546C41934
:100F2000FFF7C8FF05600746F01D20F007004619CF
:100F3000284600F00AF8B44208BFF8BDA21B3146AB
:100F40003868BDE8F84000F041B800210160C0E910
:100F5000011070471020704770B50446051FFFF759
:100F6000A9FF0068002C14BF446870BD002C18BF96
:100F7000AC423CBF20466468F8D301680A18AA4214
:100F800018BF456003D12A680546114401602868EE
:100F90004119A1421CBF6C6070BD61686960216825
:100FA0000844286070BD10B500F00CF8006810BD52
:100FB00010B5044600F006F8046010BD0048704704
:100FC000A806002000487047A80600200346406895
:100FD0008C46002818BF88423CBF03464068F8D3BF
:100FE00018681844884207D00CF1030020F007006D
:100FF000001D411A521A0146081D0A60FFF7ACBFD6
:1010000010B500F059F8BDE8104000F048B870473E
:101010007546FFF7D3FFAE4605006946534620F0FC
:101020000700854618B020B5FFF7B8F9BDE82040A5
:101030004FF000064FF000074FF000084FF0000B94
:1010400021F00701AC46ACE8C009ACE8C009ACE847
:10105000C009ACE8C0098D46704700001FB584B0D8
:1010600000200A9C06AB04AA02A90094AFF30080FA
:1010700018B1DDE9020108B010BD0348204000F0BE
:1010800013F800200146F6E70000207C10B5044666
:10109000AFF300802046BDE81040FFF70AB90028F2
:1010A00001D000F031B8704710B500F04DF8BDE840
:1010B0001040FFF7F4BF000010B5012805D0002153
:1010C00003A000F027F8012010BD09A1F8E70000F7
:1010D00053494752544D454D3A204F7574206F6621
:1010E0002068656170206D656D6F72790000000089
:1010F0003A2048656170206D656D6F727920636F6D
:10110000727275707465640001491820ABBEFEE709
:101110002600020070B505460C460A2000E06D1C52
:1011200000F068F835B128780028F8D102E0641C96
:1011300000F060F814B120780028F8D1BDE87040C4
:101140000A2000F057B8000010B5022803D0410172
:1011500003D50DA112E0002010BD010101D50FA1A2
:101160000CE0C10001D511A108E0810001D512A158
:1011700004E0400001D513A100E0002115A0FFF715
:10118000C9FF012010BD0000496E76616C696420C2
:101190004F7065726174696F6E0000004469766912
:1011A0006465204279205A65726F00004F7665723F
:1011B000666C6F7700000000556E646572666C6F38
:1011C00077000000496E657861637420526573751D
:1011D0006C7400005349474650453A204172697487
:1011E000686D6574696320657863657074696F6E96
:1011F0003A20000008B569468DF800000320ABBE18
:1012000008BDD2ED020A92ED021AB6EE000A00EE17
:10121000C10AD2ED030A92ED031A00EEC10AD0ED25
:10122000000A20EE200AD2ED010A92ED021A60EEC9
:10123000810A92ED001AD2ED031A41EE610A90ED97
:10124000011A00EE810AD2ED010A92ED031A60EE56
:10125000810A92ED001AD2ED021A41EE210A90EDB8
:10126000021A00EE810AF0EE000A20EE200A81ED5B
:10127000000A92ED010AD2ED020A20EE200AD2ED18
:10128000000A92ED031A00EE810AD0ED000A60EE2A
:10129000200A92ED011AD2ED011AB6EE000A01EE13
:1012A000610AD2ED031A92ED032AB0EE401A01EE64
:1012B000C21AD0ED011AB0EE600A01EE210AD2ED99
:1012C000020A92ED031A60EE810A92ED001AD2ED45
:1012D000011A41EE610A90ED021A00EE810AF0EE69
:1012E000000A20EE200A81ED010A92ED010AD2EDFA
:1012F000030A20EE200AD2ED000A92ED021A00EE57
:10130000C10AD0ED000A20EE200AD2ED020A92EDC9
:10131000031A60EE810A92ED001AD2ED011A41EE35
:10132000210A90ED011A00EE810A92ED011AD2ED28
:10133000011AF6EE000A41EE610A92ED021AD2EDB0
:10134000021A41EE610A90ED021A00EE810AF0EEF7
:10135000000A20EE200A81ED020A704700BFFEE776
:101360007047D2ED020A92ED021AB6EE000A00EEC4
:10137000C10AD2ED030A92ED031A00EEC10AD0EDC4
:10138000000A20EE200AD2ED010A92ED021A60EE68
:10139000810A92ED001AD2ED031A41EE210A90ED76
:1013A000011A00EE810AD2ED010A92ED031A60EEF5
:1013B000810A92ED001AD2ED021A41EE610A90ED17
:1013C000021A00EE810AF0EE000A20EE200A81EDFA
:1013D000000A92ED010AD2ED020A20EE200AD2EDB7
:1013E000000A92ED031A00EEC10AD0ED000A60EE89
:1013F000200A92ED011AD2ED011AB6EE000A01EEB2
:10140000610AD2ED031A92ED032AB0EE401A01EE02
:10141000C21AD0ED011AB0EE600A01EE210AD2ED37
:10142000020A92ED031A60EE810A92ED001AD2EDE3
:10143000011A41EE210A90ED021A00EE810AF0EE47
:10144000000A20EE200A81ED010A92ED010AD2ED98
:10145000030A20EE200AD2ED000A92ED021A00EEF5
:10146000810AD0ED000A20EE200AD2ED020A92EDA8
:10147000031A60EE810A92ED001AD2ED011A41EED4
:10148000610A90ED011A00EE810A92ED011AD2ED87
:10149000011AF6EE000A41EE610A92ED021AD2ED4F
:1014A000021A41EE610A90ED021A00EE810AF0EE96
:1014B000000A20EE200A81ED020A704772B600BFD2
:1014C000FEE7000070B5044600F0FCF8064625462D
:1014D000681C10B104480068054400BF00F0F2F831
:1014E000801BA842FAD370BD0C00002078B50246DC
:1014F0000B460021CAE001268E401D6805EA06045D
:10150000002C73D01D7905F00305012D04D01D7941
:1015100005F00305022D13D190684E000325B54058
:10152000A8434E00DD68B54028439060506801250F
:101530008D40A8431D79C5F300158D4028435060A8
:101540001D7905F00305032D09D0D0684E00032551
:10155000B540A8434E009D68B5402843D0601D7932
:1015600005F00305022D13D1CE0802F1200555F830
:1015700026004D07EE0E0F25B540A8434E07F60E88
:101580001D69B5402843CE0802F1200545F8260024
:1015900010684E000325B540A8431D7905F00305EA
:1015A0004E00B540284310605D6805F44035002DBD
:1015B0006BD000BF384D2D6E45F00105364E3566B7
:1015C00035462D6E05F00105009500BF00BF4FEABE
:1015D000B6358E0855F826008D072E0F0F25B5401D
:1015E000A843B2F1904F02D100251AE04DE02B4DF7
:1015F000AA4201D1012514E0294DAA4201D10225B8
:101600000FE0284DAA4201D103250AE0264DAA4247
:1016100001D1042505E0254DAA4201D1052500E0B0
:1016200006258E07360FB5402843214D8E0845F814
:101630002600204D2868A0435D6805F4801505B19B
:1016400020431C4D28602D1D2868A0435D6805F4CB
:10165000001505B12043174D2D1D2860154D2D1F78
:101660002868A0435D6805F4003505B12043114D9D
:101670002D1F28602D1F2868A0435D6805F4803564
:1016800005B120430B4D083D2860491C1D68CD4025
:10169000002D7FF430AF78BD0010024000040048F8
:1016A00000080048000C00480010004800140048E2
:1016B00008000140080401400AB1816100E0816234
:1016C00070470000014800687047000004000020D7
:1016D00003480068034909680844014908607047E5
:1016E000040000200C00002010B50024032000F0AE
:1016F000D1F80F2000F008F808B1012401E000F053
:1017000051F8204610BD0000F0B587B00446002611
:10171000002700BF1E48006E40F400601C490866A8
:101720000846006E00F40060009000BF00BF01A9F1
:1017300002A800F06BFA00F091FA06461548B6FBD5
:10174000F0F0471E14481549086040F2E73113488D
:10175000C160476000210161816000F0B7FF05466C
:1017600095B90E4800F0EAFF05466DB9192000F062
:101770003FF8102C07D200222146192000F04CF827
:101780000748046000E00125284607B0F0BD0000CE
:101790000010024040420F00002C01404402002093
:1017A0000800002008B500BF1048006E40F001009E
:1017B0000E4908660846006E00F00100009000BF68
:1017C00000BF00BF0846806D40F080508865084625
:1017D000806D00F08050009000BF00BF00220F21FC
:1017E000901E00F019F800F0F5F808BD0010024056
:1017F0000146084600280DDB00BF00BF00F01F03B4
:1018000001229A4043099B0003F1E023C3F8002121
:1018100000BF00BF00BF70472DE9F05F80460D4656
:10182000164603F03DFD074639462A46334601F089
:101830000700C0F1070ABAF1040F02D94FF0040AF9
:1018400001E0C0F1070AD14600F1040ABAF1070F1E
:1018500002D24FF0000A01E0A0F1030AD4464FF093
:10186000010A0AFA09FAAAF1010A0AEA020A0AFABC
:101870000CFA4FF0010B0BFA0CFBABF1010B0BEA6E
:10188000030B4AEA0B042146404603F011FDBDE874
:10189000F09F000000BF00F00702064B19684FF6EA
:1018A000FF031940044B0B4343EA0221014B19602B
:1018B00000BF70470CED00E00000FA0502468ABB4D
:1018C0004148006800F4C060B0F5806F2BD13E48FD
:1018D0008030006820F480703B4BC3F880001846CD
:1018E000006820F4C06040F4007018603748006859
:1018F00032235843364BB0FBF3F0411C00E0491E45
:101900003148406900F48060B0F5806F01D1002952
:10191000F5D12D48406900F48060B0F5806F51D159
:101920000320704708E028488030006820F4807069
:10193000254BC3F8800045E0B2F5007F3AD122483C
:10194000006800F4C060B0F5806F2AD11E48803076
:10195000006840F480701C4BC3F880001846006893
:1019600020F4C06040F4007018601848006832230A
:101970005843174BB0FBF3F0411C00E0491E1248DE
:10198000406900F48060B0F5806F01D10029F5D185
:101990000D48406900F48060B0F5806F12D10320DB
:1019A000BFE709488030006840F48070064BC3F8F8
:1019B000800007E00448006820F4C06040F48060C4
:1019C000014B18600020ACE70070004010000020C0
:1019D00040420F000348806840F48040014988601D
:1019E00070470000007000402DE9F04104460D46AC
:1019F0004FF0000814B90120BDE8F0817D4800686F
:101A000000F00F00A8420ED27A48006820F00F00C4
:101A10002843784908600846006800F00F00A84293
:101A200001D00120E8E7207800F00100002864D010
:101A30006068032823D17048006800F0007008B97E
:101A40000120D9E703F002FA06466C48864237D9EE
:101A50006948806800F0F00030B1207800F00200A2
:101A600002282DD1A06858BB6348806820F0F000A0
:101A700040F08000604988604FF0800820E0606896
:101A8000022806D15C48006800F4003040B901200B
:101A9000B2E75948006800F4806008B90120ABE75C
:101AA00000F0EEF806465548864209D9524880684B
:101AB00020F0F00040F080004F4988604FF080082F
:101AC0004D48806820F00300616808434A498860F7
:101AD000FFF7F8FD074608E0FFF7F4FDC01B41F2F1
:101AE0008831884201D9032086E74348806800F0A6
:101AF0000C006168B0EB810FEED1207800F002009D
:101B0000022820D1207800F00400042805D13A48AA
:101B1000806840F4E06038498860207800F0080070
:101B2000082807D13448806820F4605040F4E06011
:101B3000314988603048806820F0F000A16808438F
:101B40002D49886008E0B8F1800F05D12A488068E7
:101B500020F0F000284988602648006800F00F0057
:101B6000A84219D92348006820F00F0028432149D2
:101B70000860FFF7A7FD074608E0FFF7A3FDC01BBD
:101B800041F28831884201D9032035E719480068BD
:101B900000F00F00A842F0D1207800F004000428E3
:101BA00007D11548806820F4E060E16808431249D5
:101BB0008860207800F00800082808D10E48806866
:101BC00020F46050216940EAC1000B49886000F0B0
:101BD00057F809498968C1F30311094A515C01F0BA
:101BE0001F01C8400749086007480068FFF78CFDDF
:101BF00002E70000002002400010024000B4C404CC
:101C00004E6D000810000020080000200F22026026
:101C10000D4A926802F0030242600B4A926802F099
:101C2000F0028260084A926802F4E062C260064AEA
:101C3000926802F46052D2080261044A126802F00B
:101C40000F020A60704700000010024000200240AE
:101C500001480068704700001000002000B5FFF741
:101C6000F7FF05498968C1F3C221044A515C01F0BC
:101C70001F01C84000BD0000001002405E6D00085A
:101C800070B5224DAD6805F00C05042D01D120483A
:101C90003AE01E4DAD6805F00C05082D01D11C4839
:101CA00032E01A4DAD6805F00C050C2D2BD1174D07
:101CB000ED6805F00304154DED68C5F303156A1CC6
:101CC000022C0CD0032C09D1114DB5FBF2F50F4EAF
:101CD000F668C6F3062605FB06F10AE000BF0C4DC8
:101CE000B5FBF2F5094EF668C6F3062605FB06F1CC
:101CF00000BF00BF054DED68C5F341656D1C6B006D
:101D0000B1FBF3F000E0002070BD000000100240C5
:101D10000024F4002DE9F843044614B90120BDE87D
:101D2000F883207800F00100002865D0FC48806826
:101D300000F00C07FA48C06800F003060C2F01D130
:101D4000032E01D0082F0AD1F548006800F40030B6
:101D5000002851D0606800284ED10120DFE700BF85
:101D60006068B0F5803F06D1ED48006840F48030EF
:101D7000EB4908601AE06068B0F5A02F0BD1E84885
:101D8000006840F48020E64908600846006840F496
:101D9000803008600AE0E248006820F48030E049C2
:101DA00008600846006820F48020086000BF606872
:101DB00088B1FFF787FC054606E0FFF783FC401B70
:101DC000642801D90320AAE7D548006800F4003050
:101DD0000028F2D010E0FFF775FC054606E0FFF79B
:101DE00071FC401B642801D9032098E7CC480068A7
:101DF00000F400300028F2D1207800F00200022820
:101E000060D1C748806800F00C07C548C06800F082
:101E100003060C2F01D1022E01D0042F18D1C04887
:101E2000006800F4806018B1E06808B9012076E726
:101E3000BB48406820F0FE40217C40EA0160B84980
:101E40004860B8480068FFF75FFC18B3012066E7F8
:101E5000E06800B3B248006840F48070B0490860A0
:101E6000FFF730FC054606E0FFF72CFC401B02287C
:101E700001D9032053E7AA48006800F480600028D5
:101E8000F2D0A748406820F0FE40217C40EA016083
:101E9000A349486016E0A248006820F48070A04979
:101EA0000860FFF70FFC054606E0FFF70BFC401B40
:101EB000022801D9032032E79948006800F48060C5
:101EC0000028F2D1207800F00800082836D1606997
:101ED000D0B193489430006840F001009049C1F8B7
:101EE0009400FFF7EFFB054606E0FFF7EBFB401B16
:101EF000022801D9032012E789489430006800F0D5
:101F000002000028F1D019E085489430006820F0E4
:101F100001008349C1F89400FFF7D4FB054606E0B1
:101F2000FFF7D0FB401B022801D90320F7E67C48CD
:101F30009430006800F002000028F1D1207800F011
:101F40000400042872D14FF000087548806D01210B
:101F500021EA107078B100BF7148806D40F0805068
:101F60006F4988650846806D00F08050009000BF82
:101F700000BF4FF001086C48006800F48070B0B9F1
:101F80006948006840F4807067490860FFF79AFB71
:101F9000054606E0FFF796FB401B022801D9032007
:101FA000BDE66148006800F480700028F2D000BFF0
:101FB000A068012808D15A489030006840F001001C
:101FC0005749C1F8900021E0A06805280FD1544876
:101FD0009030006840F004005149C1F89000084674
:101FE000D0F8900040F00100C1F890000EE04C489D
:101FF0009030006820F001004949C1F8900008467F
:10200000D0F8900020F00400C1F8900000BFA06854
:10201000A8B1FFF757FB054609E0FFF753FB401B4C
:1020200041F28831884202D9032078E625E03C4815
:102030009030006800F002000028EED013E0FFF7B7
:1020400041FB054608E0FFF73DFB401B41F28831AC
:10205000884201D9032062E631489030006800F0E0
:1020600002000028EFD1B8F1010F05D12C48806D96
:1020700020F080502A49886500BF207800F02000B9
:10208000202836D1A069D0B125489830006840F0AA
:1020900001002349C1F89800FFF714FB054606E04C
:1020A000FFF710FB401B022801D9032037E61C482C
:1020B0009830006800F002000028F1D019E01848BC
:1020C0009830006820F001001549C1F89800FFF72A
:1020D000F9FA054606E0FFF7F5FA401B022801D998
:1020E00003201CE60E489830006800F0020000282B
:1020F000F1D1E069002860D00948806800F00C0048
:102100000C287AD0E069022858D10548006820F0F0
:10211000807003490860FFF7D5FA05460DE000001E
:10212000001002400800002000700040FFF7CAFACB
:10213000401B022801D90320F1E54A48006800F05D
:1021400000700028F2D1D4E90810401E41EA0011C5
:10215000A06A41EA0021208E0122C2EB500041EA30
:1021600040513420005DC2EB500041EA40612C2018
:10217000005D41EAC0603B49C9683B4A11400843E1
:102180003849C8600846006840F08070086008461A
:10219000C06840F08070C860FFF794FA054606E01A
:1021A000FFF790FA401B022801D90320B7E52D481C
:1021B000006800F000700028F2D051E02948006863
:1021C00020F0807027490860FFF77CFA054606E09A
:1021D000FFF778FA401B022801D903209FE5214828
:1021E000006800F000700028F2D11E48C0681F4946
:1021F00008401C49C86033E0FFE7E069012800D1CE
:102200008DE51848C66806F00301206A814225D191
:1022100006F0F001606A401EB1EB001F1ED106F40B
:10222000FE41A06AB1EB002F18D106F078412C20B6
:10223000005DB1EBC06F11D106F4C001208E012208
:10224000C2EB5000B1EB405F08D106F0C061342012
:10225000005DC2EB5000B1EB406F01D001205EE5A4
:1022600000205CE5001002400C809F01FCFFEEFEA8
:1022700070B504460CB9012070BD606A38B9606859
:10228000B0F5827F00D105E00021E16102E000218C
:10229000216161610021A16294F85D0028B90020EC
:1022A00084F85C00204600F061F8022084F85D00AC
:1022B0002068006820F0400021680860E068B0F500
:1022C000E06F01D9002501E04FF48055E068B0F5DA
:1022D000706F05D0E068B0F5E06F01D00021A16219
:1022E000A08800F48270218901F404410843217C14
:1022F00001F002010843217D01F001010843218B17
:1023000001F400710843217F01F0380108432021C6
:10231000095D01F080010843218D01F4005108435B
:10232000216808600421A06901EA104094F8241093
:1023300001F01001084394F8341001F0080108433B
:10234000A18901F47061084305F4805108432168B4
:1023500048602068C06920F400602168C8610020DE
:102360002066012084F85D00002085E710B586B066
:102370000446142101A8FEF772FD1849206888421E
:1023800029D100BF1648006E40F4805014490866F9
:102390000846006E00F48050009000BF00BF00BFF0
:1023A0000846C06C40F00100C8640846C06C00F0EC
:1023B0000100009000BF00BFE020019002200290C9
:1023C00000200390032004900520059001A94FF000
:1023D0009040FFF78BF806B010BD000000300140C0
:1023E000001002402DE9FE4F04460F4690461D4660
:1023F0000C9E01200090FFF765F9824694F85DB0CD
:1024000060680190A9460295BBF1010F0BD00198BD
:10241000B0F5827F04D1A06810B9BBF1040F02D0DF
:102420000220BDE8FE8F1FB1B8F1000F00D00DB93A
:102430000120F6E700BF94F85C00012801D10220DA
:10244000EFE7012084F85C0000BF94F85D000428E9
:1024500002D0052084F85D0000202066C4F840808A
:10246000A4F84650A4F84450A763E587A587E06424
:102470002065E068B0F5E06F02D80298012806D91F
:102480002068406820F480502168486005E020689A
:10249000406840F48050216848602068006800F07F
:1024A0004000402805D02068006840F040002168C6
:1024B0000860E068B0F5E06F56D9606810B1B9F116
:1024C000010F09D1A06B00882168C860A06B801C37
:1024D000A063E08F401EE0873EE02068806800F047
:1024E0000200022810D1E08F70B1009801280BD1B2
:1024F000A06B00882168C860A06B801CA063E08F7F
:10250000401EE087002000902068806800F00100F5
:1025100080B1B4F8460068B12068C068216C0880BA
:10252000206C801C2064B4F84600401EA4F84600CD
:1025300001200090FFF7C6F8A0EB0A00B0420BD3D1
:10254000701C48B1012084F85D0000BF002084F8B1
:102550005C0000BF032064E7E08F0028BDD1B4F821
:1025600046000028B9D18DE0606810B1B9F1010FC3
:1025700017D1E08F01280AD9A06B00882168C860B4
:10258000A06B801CA063E08F801EE08709E0A06B39
:10259000007821680873A06B401CA063E08F401E88
:1025A000E08768E02068806800F0020002281ED101
:1025B000E08FE0B10098012819D1E08F01280AD9F5
:1025C000A06B00882168C860A06B801CA063E08FAE
:1025D000801EE08709E0A06B007821680873A06B7B
:1025E000401CA063E08F401EE08700200090206820
:1025F000806800F0010058B3B4F8460040B3B4F866
:102600004600012816D92068C068216C0880206C1B
:10261000801C2064B4F84600801EA4F84600B4F87C
:102620004600012812D82068406840F48050216894
:1026300048600BE02068007B216C0870206C401C17
:102640002064B4F84600401EA4F846000120009023
:10265000FFF738F8A0EB0A00B04201D3701C00B9B4
:102660004EB9012084F85D0000BF002084F85C00B2
:1026700000BF0320D5E6E08F002893D1B4F84600D0
:1026800000288FD152463146204602F011FC40B15D
:102690002020206600BF002084F85C0000BF0120DD
:1026A000BFE6012084F85D0000BF002084F85C00D4
:1026B00000BF206E08B10120B3E60020B1E67047EC
:1026C00070477047704770477047704710B50446B1
:1026D0000CB9012010BD94F83D0028B9002084F801
:1026E0003C00204600F029F8022084F83D00211D1E
:1026F000206802F059FD012084F8480000BF84F8EA
:102700003E0001213F200155402001554120015547
:10271000422001554320015500BF00BF012084F82D
:10272000440045200155462001554720015500BF72
:10273000012084F83D000020CCE77047014691F865
:102740003D00012801D001207047022081F83D00A2
:102750000868C06840F001000B68D860184B086832
:10276000984213D00868B0F1804F0FD0154B08681D
:1027700098420BD0144B0868984207D0134B086856
:10278000984203D0124B0868984210D108688068BC
:10279000104B00EA0302062A0FD0B2F5803F0CD09E
:1027A0000868006840F001000B68186005E00868E0
:1027B000006840F001000B6818600020C4E70000CA
:1027C000002C01400004004000080040003401409B
:1027D0000040014007000100704770B504462068C2
:1027E000C6682068056905F00200022819D106F0C4
:1027F0000200022815D1401F2168086101202077BE
:102800002068806900F0030018B12046FFF7E4FF5C
:1028100005E0204600F0F1F8204600F0EFF8002037
:10282000207705F00400042819D106F004000428DC
:1028300015D1C04321680861022020772068806993
:1028400000F4407018B12046FFF7C6FF05E02046AF
:1028500000F0D3F8204600F0D1F80020207705F0F2
:102860000800082819D106F00800082815D1C0432F
:1028700021680861042020772068C06900F0030007
:1028800018B12046FFF7A8FF05E0204600F0B5F894
:10289000204600F0B3F80020207705F01000102843
:1028A00019D106F01000102815D1C0432168086125
:1028B000082020772068C06900F4407018B12046D5
:1028C000FFF78AFF05E0204600F097F8204600F069
:1028D00095F80020207705F0010048B106F00100CE
:1028E00030B16FF0010021680861204600F088F8DF
:1028F00005F08000802804D005F40050B0F5005F9A
:102900000AD106F08000802806D16FF402502168B9
:1029100008612046FFF7D4FE05F48070B0F5807F93
:102920000AD106F08000802806D16FF480702168FB
:1029300008612046FFF7C3FE05F04000402809D19A
:1029400006F04000402805D1C043216808612046B8
:1029500000F062F805F02000202809D106F02000E0
:10296000202805D1C043216808612046FFF7A9FE51
:1029700005F48010B0F5801F0BD106F48010B0F57F
:10298000801F06D16FF48010216808612046FFF790
:102990009AFE05F40010B0F5001F0BD106F40010EC
:1029A000B0F5001F06D16FF40010216808612046C1
:1029B000FFF788FE05F48000B0F5800F0BD106F418
:1029C0008000B0F5800F06D16FF4800021680861A7
:1029D0002046FFF779FE05F40000B0F5000F0BD19B
:1029E00006F40000B0F5000F06D16FF40000216876
:1029F00008612046FFF769FE70BD70477047000010
:102A000010B5044603492068884201D1FEF760FEF4
:102A100010BD0000002C01407047000070B5044656
:102A200000202074A37B484D2D8803FB05F26168CC
:102A3000D4F8F400FEF7BFF9A27B434B1B8802FBDE
:102A400003F16068FEF70BFAA27B3F4B1B885A43E9
:102A5000A37B02FB03F1D4F81801FEF700FA227BF6
:102A6000394B1B885A43A37B02FB03F1D4F80C01BA
:102A7000FEF7F5F9002031E0D4F8F41001EB800105
:102A800091ED000AB5EEC00AF1EE10FA24D0D4F8A8
:102A9000F41001EB800191ED000A227CD4F8F410CF
:102AA00001EB820181ED000A227C616A8854A169F0
:102AB00001EB800191ED000A6169095C227B237CB6
:102AC00012FB0311491ED4F80C2102EB810181EDA8
:102AD000000A217C491C2174411CC8B2A17B81429F
:102AE000CADC002011E0626A125CE16901EB82013C
:102AF00091ED000A227C00FB0202D4F8181101EBD0
:102B0000820181ED000A411CC8B2217C8142EADCCD
:102B1000207CA4F87800217B7A200153207BA4F844
:102B20008000217C82200153207CA4F89000217C2D
:102B300092200153207BA4F89800217C9A20015315
:102B4000207CA4F8480070BD0801002000BFFEE70B
:102B500010B5002210214FF09040FEF7ADFDFE4968
:102B6000752000F02AFA012210214FF09040FEF764
:102B7000A3FD002210214FF09040FEF79DFDF520AF
:102B800000F028FA0122F449752000F003FA01222E
:102B900010214FF09040FEF78FFD002210214FF0E2
:102BA0009040FEF789FDEC49752000F006FA0122FD
:102BB00010214FF09040FEF77FFD002210214FF0D2
:102BC0009040FEF779FD0021762000F013FA0122F3
:102BD00010214FF09040FEF76FFD002210214FF0C2
:102BE0009040FEF769FD0121762000F003FA0122F2
:102BF00010214FF09040FEF75FFD6420FEF762FC6D
:102C0000D548007847287CD1002210214FF0904011
:102C1000FEF752FD0121762000F0ECF9012210218F
:102C20004FF09040FEF748FD002210214FF09040F9
:102C3000FEF742FD02217A2000F0DCF9012210218A
:102C40004FF09040FEF738FD002210214FF09040E9
:102C5000FEF732FD0021762000F0CCF90122102190
:102C60004FF09040FEF728FD002210214FF09040D9
:102C7000FEF722FD4021162000F0BCF901221021B0
:102C80004FF09040FEF718FD002210214FF09040C9
:102C9000FEF712FDB049652000F08FF901221021E6
:102CA0004FF09040FEF708FD002210214FF09040B9
:102CB000FEF702FD0021652000F09CF901221021A1
:102CC0004FF09040FEF7F8FC002210214FF09040AA
:102CD000FEF7F2FC0021602000F08CF901221021A7
:102CE0004FF09040FEF7E8FC002210214FF090409A
:102CF000FEF7E2FC0221612000F07CF901221021A4
:102D000000E041E14FF09040FEF7D6FC0022102198
:102D10004FF09040FEF7D0FC8F480178652000F01E
:102D200069F9012210214FF09040FEF7C5FC002206
:102D300010214FF09040FEF7BFFC63215F2000F0B0
:102D400059F9012210214FF09040FEF7B5FC002206
:102D500010214FF09040FEF7AFFC0021762000F0EC
:102D600049F9012210214FF09040FEF7A5FC002206
:102D700010214FF09040FEF79FFC3621142000F008
:102D800039F9012210214FF09040FEF795FC002206
:102D900010214FF09040FEF78FFC0021762000F0CC
:102DA00029F9012210214FF09040FEF785FC002206
:102DB00010214FF09040FEF77FFC6749652000F03E
:102DC000FCF8012210214FF09040FEF775FC62489C
:102DD000007840F0040060490870002210214FF094
:102DE0009040FEF769FC5C480178652000F002F92C
:102DF000012210214FF09040FEF75EFC002002F00F
:102E0000CBFC002210214FF09040FEF755FC002132
:102E1000762000F0EFF8012210214FF09040FEF7ED
:102E20004BFC002210214FF09040FEF745FC4A4930
:102E3000502000F0C2F8012210214FF09040FEF720
:102E40003BFC45480078444908700846007840F04B
:102E500005000870002210214FF09040FEF72CFC76
:102E60003D480178502000F0C5F8012210214FF0B4
:102E70009040FEF721FC002002F0BCFC0022102153
:102E80004FF09040FEF718FC0021762000F0B2F8D9
:102E9000012210214FF09040FEF70EFC002210217D
:102EA0004FF09040FEF708FC2B494F2000F085F8CA
:102EB000012210214FF09040FEF7FEFB26480078DB
:102EC000254908700846007840F005000870002287
:102ED00010214FF09040FEF7EFFB1F4801784F2084
:102EE00000F088F8012210214FF09040FEF7E4FB3B
:102EF000002210214FF09040FEF7DEFB00217620EB
:102F000000F078F8012210214FF09040FEF7D4FB3A
:102F1000002210214FF09040FEF7CEFB0E494E20CC
:102F200000F04BF8012210214FF09040FEF7C4FB57
:102F30000948007820F0200007490870084600780A
:102F400040F00C0008700846007840F0030008705C
:102F50000022102102E00000680000204FF09040A5
:102F6000FEF7AAFB094801784E2000F043F8012241
:102F700010214FF09040FEF79FFB0120FEF7A2FAD0
:102F800001200349087010BD0020FCE76800002004
:102F9000690000202DE9F04107460C461546002641
:102FA00000BF06E0207800F015F82070641C701C4B
:102FB000C6B2AE42F6DBBDE8F08170B504460D4600
:102FC000FF2644F0800000F005F8304600F002F8DB
:102FD000287070BD01B582B00520012301AA02A9A5
:102FE00000900348FFF7FEF99DF804000EBD0000B5
:102FF000E001002070B505460C462846FFF7EAFFC1
:103000002046FFF7E7FF70BD10B586B0834802F099
:1030100041FC834A07CA03AB07C39FED820A82487B
:1030200080ED000A814890ED000A7F48D0ED000A4B
:1030300030EE200A7D4880ED000A9FED7D0A7D4834
:1030400080ED100A754890ED000A7A4880ED070A75
:10305000724890ED010A774880ED080A6F4890EDBC
:10306000020A744880ED090A6C4890ED030A714821
:1030700080ED040A694890ED040A6E4880ED050A67
:10308000664890ED050A6B4880ED060A90ED091A36
:10309000F0EE410A90ED071AB0EE410A02F03EFA56
:1030A000B1EE400ADFED640A20EE200ADFED630A8C
:1030B00080EE201A5F4880ED1A1A90ED091AF0EEA2
:1030C000410A90ED081AB0EE410A02F027FADFED4E
:1030D0005A0A20EE200ADFED590A80EE201A5548E0
:1030E00080ED1B1A90ED093AF0EE432A90ED083A74
:1030F000B0EE432A90ED073AF0EE431A90ED063A0F
:10310000B0EE431A90ED053AF0EE430A90ED043A22
:10311000B0EE430A444890ED003A00F0FDFA45490C
:103120004748D0E91534026DC06D81E81C00C860C5
:103130000A4644314348FEF764F83E4A02F1500122
:103140004148FEF75EF83B4A02F15C013F48FEF75A
:1031500058F8384A694603A8FEF703F9002039E019
:1031600034491C3101EB800191ED000A694601EB05
:103170008001D1ED000A30EE600A2B49D1ED000A42
:1031800060EE200A2B4991ED100A274991ED001AB3
:1031900030EE011A80EE810A2649283101EB8001C8
:1031A000D1ED000A234991ED101A60EE810A91EDEC
:1031B000101A1D49D1ED001A31EE211AC0EE811A04
:1031C00030EE210A1B49283101EB800181ED000A14
:1031D000411CC8B20328C3DB164A02F13401A1F135
:1031E0000C00FEF70EF81A4890ED6A0A114880EDBF
:1031F0001E0A174890ED690A0E4880ED1D0A144812
:1032000090ED680A0B4880ED1C0A114890ED6B0A9E
:10321000084880ED1F0A06B010BD000080030020A2
:103220008C6D00086F12833AF8000020FC0000202B
:103230000AD7233CB403002000003443DB0F49408D
:1032400038050020686D0008746D0008806D000866
:103250003804002010B5044654F8EC0F90ED000A35
:10326000834880ED000A206890ED010A814880EDD6
:10327000000A206890ED020A7F4880ED000A54F8A9
:10328000EC0990ED030A7D4880ED000A7848D0ED06
:10329000000A60EEA00A774890ED001AD0ED001AFF
:1032A00041EE210A744890ED001AD0ED001A41EE6B
:1032B000210A724890ED001AD0ED001A41EE210A61
:1032C000B0EE600A02F0F6FB6D4880ED000A0020C7
:1032D00012E0D4F8EC1001EB800191ED000A68498E
:1032E000D1ED000A20EE200AD4F8EC1001EB8001A9
:1032F00081ED000A411CC8B20428EADB614890ED68
:103300006F0A5C48D0ED000A20EE200AF0EE000AB9
:1033100080EE201AF834A06880ED041A594890ED28
:103320006F0A5548D0ED000A20EE200AF0EE000AA0
:1033300080EE201AA06880ED051A524890ED6F0AC1
:103340004B48D0ED000AF1EE600A20EE200AF0EEC4
:10335000000A80EE201AA06880ED0A1A494890ED14
:103360006F0A4648D0ED000A20EE200AF0EE000A6F
:1033700080EE201AA06880ED0B1A424890ED6F0A8B
:103380003E48D0ED000AF1EE600A20EE200AF0EE91
:10339000000A80EE201AA06880ED101A394890EDDE
:1033A0006F0A3348D0ED000AF1EE600A20EE200AE1
:1033B000F0EE000A80EE201AA06880ED111A314864
:1033C00090ED6F0A2C48D0ED000A20EE200AF0EEB6
:1033D000000A80EE201AA06880ED161A294890EDA8
:1033E0006F0A2448D0ED000AF1EE600A20EE200AB0
:1033F000F0EE000A80EE201AA06880ED171A20680F
:1034000090ED1C0A1F48D0ED740A80EE201A206847
:1034100080ED1C1A206890ED230A1A48D0ED740A3A
:1034200080EE201A206880ED231A54F8F80990EDF8
:103430001C0ADFED150AB4EEE00AF1EE10FA05DD24
:103440009FED110AD4F8F80080ED1C0AD4F8F800BA
:1034500090ED230ADFED0C0AB4EEE00AF1EE10FA6B
:1034600005DD9FED090AD4F8F80080ED230A10BDB0
:10347000AC010020B0010020B4010020B801002000
:10348000BC0100203804002000401C4610B52DED82
:10349000068BF0EE408AB0EE60AAB0EE419AB0EE34
:1034A000618AF0EE429A01203A4908700846C0ED60
:1034B0006C8A80ED6DAA80ED6E9A9FED370A80EDE3
:1034C000730A002081F838010A46C2F84001C2F8A8
:1034D00044010021C2F84811C2F84C11B7EE000AAD
:1034E000B4EEC08AF1EE10FA03DDB7EE000AB0EEDA
:1034F000408A284880ED748AC0ED649A0323002234
:103500000621001D00F0A6FE244B01221146A3F166
:103510000800FCF7D9FFB7EE000A1E48D0F8EC000F
:1035200080ED000A9FED1E0A1A48D0F8EC0080EDED
:10353000010A9FED1B0A1748D0F8EC0080ED020A43
:103540009FED170A1348D0F8EC0080ED030A1549E7
:103550001048C0F8D0101449C0F8D4101349C0F86E
:10356000D8101349C0F8DC10012180F82E1080F823
:103570002F1001469022D1F804010E49FDF71BFCE3
:1035800004499022D1F8FC000B49FDF714FCBDEC76
:10359000068B10BD3804002077CC2B3200060020AB
:1035A00000000000BD35000855320008F135000864
:1035B0004D3D0008986D00080C01002010B5044630
:1035C00054F8F81F90220748FDF7F5FB48220648FB
:1035D000616AFDF7F0FB6169F83C48220348FDF79A
:1035E000EAFB10BD0C010020180600206006002038
:1035F00010B5044654F8EC0F90ED000AF0EE000A06
:1036000020EE200A3F4880ED000A206890ED010A74
:10361000F0EE000A20EE200A3B4880ED000A206808
:1036200090ED020AF0EE000A20EE200A374880ED05
:10363000000A206890ED030AF0EE000A20EE200A4E
:10364000334880ED000A14F8DE2C324B1B885A43B5
:1036500014F8E03C02FB03F1206AFDF700FC2B4864
:1036600090ED000AB1EE400A206A80ED000A284879
:1036700090ED000A206A80ED010A224890ED000AD0
:10368000B1EE400A206A80ED020A1F4890ED000A60
:10369000206A80ED030A1C4890ED000A206A80ED44
:1036A000060A184890ED000A206A80ED070A1848BB
:1036B00090ED000A206A80ED080A144890ED000A97
:1036C000206A80ED090A0F4890ED000A206A80ED1B
:1036D0000C0A0D4890ED000AB1EE400A206A80ED18
:1036E0000D0A0A4890ED000AB1EE400A206A80ED0A
:1036F0000E0A074890ED000A206AEC3C80ED0F0AA4
:1037000010BD0000C0010020C4010020C80100203D
:10371000CC0100200801002010B52DED088BB0EE83
:1037200040AAF0EE60AAB0EE41BAF0EE618AB0EEC7
:10373000429AF0EE629AB0EE438AFE48007858B999
:103740009FEDFD2AF7EE001A9FEDFC1ADFEDFC0A53
:10375000B2EE040AFFF79AFEF64880ED6F8A90ED0C
:10376000580A3AEE400A80ED5B0A90ED590A3AEEAB
:10377000C00A80ED5C0A90ED5A0A3BEE400A80EDEB
:103780005D0A90ED5B0AF6EE000A20EE200A20EEBC
:10379000080AEC4880ED000AE64890ED5C0AF6EE77
:1037A000000A20EE200A20EE080AE74880ED000A11
:1037B000E04890ED5D0AF6EE000A20EE200A20EEC9
:1037C000080AE24880ED000ADA499022D1F80401A3
:1037D000DF49FDF7F0FADB4890ED000AB1EE400A50
:1037E000D448D0F8040180ED010AD74890ED000AD2
:1037F000B1EE400ACF48D0F8040180ED020AD34868
:1038000090ED000AB1EE400ACA48D0F8040180EDFC
:10381000030ACC4890ED000AC648D0F8040180EDB8
:10382000060ACA4890ED000AC248D0F8040180EDAB
:10383000080AC54890ED000AB1EE400ABD48D0F82C
:10384000040180ED090AC04890ED000AB948D0F89B
:10385000040180ED0C0ABD4890ED000AB1EE400A6B
:10386000B448D0F8040180ED0D0AB64890ED000A86
:10387000B048D0F8040180ED0F0AB44890ED000A7A
:10388000AC48D0F8040180ED120AAF4890ED000A70
:10389000A848D0F8040180ED130AAA4890ED000A68
:1038A000B1EE400AA348D0F8040180ED140AA14803
:1038B000D0F84811D0F84C0100235940584001433A
:1038C00006D19C48C0ED5E8A80ED5F9AC0ED609A9B
:1038D000984890ED5E0AD0ED640A60EE200A90ED03
:1038E0006F0A90ED641A30EE011A80EE810AD0ED75
:1038F0006F0A90ED641A70EE810A90ED6F1A21EE56
:10390000281AC1EE201A30EE210A80ED5E0A90EDF1
:103910005F0AD0ED640A60EE200A90ED6F0A90ED28
:10392000641A30EE011A80EE810AD0ED6F0A90ED34
:10393000641A70EE810A90ED6F1A21EE091AC1EE39
:10394000201A30EE210A80ED5F0A90ED600AD0ED7A
:10395000640A20EE200AD0ED6F0A90ED641A30EE72
:10396000811AC0EE010A90ED6F0A90ED641A30EEF4
:10397000010A90ED6F1A21EE291AC1EE001A30EEFD
:10398000A10A80ED600AD0ED5E0A60EEA00A90ED1B
:103990005F1AD0ED5F1A41EE210A90ED601AD0ED6A
:1039A000601A41EE210AB0EE600A02F083F869481D
:1039B00080ED000A002011E0674901EB800191EDE4
:1039C000000A6449D1ED000A20EE200A59498968AD
:1039D00001EB800181ED000A411CC8B20328EBDB3A
:1039E0005448D0ED5B0A60EEA00A90ED5C1AD0ED71
:1039F0005C1A41EE210A90ED5D1AD0ED5D1A41EEA0
:103A0000210AB0EE600A02F055F8F7EE000A80EEE7
:103A1000801A484880ED651A4E4890ED000AF7EE8E
:103A2000000A80EE801A434880ED661A90ED650A20
:103A3000DFED4A0AB4EEE00AF1EE10FA16D290ED8C
:103A4000660ADFED470AB4EEE00AF1EE10FA0DDD8A
:103A500090ED660ADFED430AB4EEE00AF1EE10FAEB
:103A600004D20120334981F8390103E000203149B3
:103A700081F839012F4890ED6C0AD0ED6F0A20EEE5
:103A8000200AD0F8180180ED000A2A4890ED6C0A4F
:103A9000D0ED6F0A20EE200AD0F8180180ED070A59
:103AA000244890ED6C0AD0ED6F0A20EE200AD0F881
:103AB000180180ED0E0A1F4890ED6C0AD0ED6F0AD8
:103AC00020EE200AD0F8180180ED150A194890ED73
:103AD0006D0AD0ED6F0A20EE200AD0F8180180EDB3
:103AE0001C0A144890ED6D0AD0ED6F0A20EE200AF2
:103AF000D0F8180180ED230A0E4890ED6E0AD0F838
:103B00001C0180ED000A0B4890ED6E0AD0F81C01F4
:103B100080ED040A074890ED6E0AD0F81C0180ED94
:103B2000080A0448001D01F015F80248406890EDAD
:103B3000000A19E038040020000000008096184BAD
:103B40006F12833A9C010020A0010020A4010020F4
:103B5000986D0008A8010020B00500209A99993EB0
:103B6000CDCC1441CDCC2441734880ED540A40683B
:103B700090ED010A704880ED550A406890ED020A08
:103B80006D4880ED560A406890ED030A6A4880ED62
:103B9000570A406890ED040A674880ED580A40686B
:103BA00090ED050A644880ED590A1FED1D0A80ED6D
:103BB0005A0A90ED561A21EE011AD0ED571A90EDDF
:103BC000572A01EE821AF7EE001AB8EE002A42EEEA
:103BD000011AF0EE610A90ED541AD0ED571A21EE59
:103BE000211AD0ED551A90ED562A01EE821AF0EE08
:103BF000001A21EE211AB0EE410A01F08FFCDFED30
:103C00004F0A20EE200A4C4880ED6A0A90ED551AC2
:103C100021EE011AD0ED561A90ED562A01EE821AC5
:103C2000F7EE001AB8EE002A42EE011AF0EE610A31
:103C300090ED541AD0ED551A21EE211AD0ED561AF6
:103C400090ED572A01EE821AF0EE001A21EE211AA9
:103C5000B0EE410A01F062FCDFED380A20EE200AE6
:103C6000354880ED690AD0ED550A90ED571A60EE9F
:103C7000810A90ED541AD0ED561A41EE610AB8EE61
:103C8000001A60EE810AB0EE600A01F0B1FBDFEDD0
:103C90002B0A20EE200A284880ED680A90ED6A0A77
:103CA000D0ED760A30EE600ADFED250AB4EEE00AC8
:103CB000F1EE10FA07DDB0F8D401401E00B21E4943
:103CC000A1F8D40114E01C4890ED6A0AD0ED760A00
:103CD00030EE600ADFED1B0AB4EEE00AF1EE10FAF6
:103CE00006D2B0F8D401401C00B21349A1F8D401A7
:103CF000114890ED6A0AB0F9D40100EE900AF8EE8E
:103D0000E00A9FED111A01EE200A0B4880ED6B0AC4
:103D100090ED6A0A80ED760AD0F84821D0F84C017F
:103D2000521C40F100000449C1F84821C1F84C017F
:103D3000BDEC088B10BD000038040020E12E654268
:103D400000003443000034C30000B44370B52DEDCF
:103D5000028B044604F1800104F17800FCF772FF45
:103D600084F8C800B4F87800A4F8A8005A20015BD1
:103D7000AA20015304F1A80204F1580104F17800CB
:103D8000FCF73EFE84F8C800B4F8A800A4F8B00020
:103D90008220015BB220015304F1B00204F18001E2
:103DA00004F1A800FCF72CFE84F8C800B4F89000D9
:103DB000A4F8A0009220015BA220015304F1A0020C
:103DC00004F1900104F1B000FCF7FAFA84F8C8009D
:103DD00004F1B00104F1A000FCF77AFBAC342077C9
:103DE000206C90ED000AFE4880ED000A206C90EDFA
:103DF000010AFC4880ED000A206C90ED020AFA48A6
:103E000080ED000A206C90ED030AF84880ED000A6E
:103E100034F8340CA081AC3C0121BA200153F148A4
:103E200090ED000AF148D0ED000A20EE200AEC489F
:103E3000D0ED000AEC4890ED001A00EEC10AF0EE59
:103E4000000A20EE200AD4F82C0180ED000AE44894
:103E500090ED000AE348D0ED000A20EE200AE24887
:103E6000D0ED000AE14890ED001A00EE810AF0EE74
:103E7000000A20EE200AD4F82C0180ED010AD8486F
:103E800090ED000A20EE000AD648D0ED000A90ED31
:103E9000001A00EEC10AD448D0ED000A90ED001AD5
:103EA00000EEC10AD148D0ED000A90ED001A00EEF4
:103EB000810AD4F82C0180ED020A002512E0D4F822
:103EC0002C0100EB850090ED000AB0EEC00AB0EEC8
:103ED000408A01F001FAC64800EB850080ED000A37
:103EE000681CC5B2032DEADBB4F84800A4F8C00092
:103EF0000121C220015304F1C00204F1B80104F110
:103F00004800FCF71BFE84F8C800B4F8C000A4F811
:103F1000A8000121AA20015304F1A80204F1C00164
:103F200004F1B000FCF76CFDB8342074012020804F
:103F30002189B83CBA20015304F1B80104F1C00052
:103F4000FCF780FE84F8C800A94A3C3204F1A801BD
:103F500004F1B800FCF754FD84F8C800A54890EDC2
:103F6000720AD0ED730AB6EE001A60EE810AB4EE62
:103F7000E00AF1EE10FA03D201209E4981F83801DF
:103F80009C4890ED720AD0ED730AB4EEE00AF1EEAF
:103F900010FA46DD90F83801002842D0954890F894
:103FA000390168B19348D0F84011D0F84401491C58
:103FB00040F100008F4AC2F84011C2F8440105E008
:103FC00000208C4AC2F84001C2F844018948D0F868
:103FD0004031D0F844210020D3F13201904106D283
:103FE0000020844981F8380184F82C004AE0237BC2
:103FF000814D2D8803FB05F2D4E93A01FCF7DBFE85
:10400000237B7D4D2D886B43257B03FB05F2D4E993
:104010003E01FCF7D0FE012084F82C00BDEC028BA1
:1040200070BD744890ED720AD0ED730A9FED731A5B
:1040300060EE810AB4EEE00AF1EE10FA14DD90F8B9
:10404000380188B16B4890ED730AD0ED720A30EEFA
:10405000600AD0ED730A9FED6A1A60EE810A80EE65
:10406000201A80ED671A04E0B7EE000A614880ED7F
:10407000670A00215F4AC2F84011C2F844110020CB
:1040800084F82C00B4F85800A4F8A8008220015B42
:10409000AA20015304F1A80204F1800104F15800A0
:1040A000FCF7AEFC84F8C80004F1980204F1B001FA
:1040B00004F1A800FCF7A4FC84F8C800002012E07A
:1040C000D4F81C1101EB800191ED000A4949D1EDB2
:1040D000670A20EE200AD4F81C1101EB800181ED63
:1040E000000A411CC8B2B4F898109A22125B5143DE
:1040F0008142E5DC042025E000211FE0021F3C4B4B
:1041000003EB8202D2ED000A9FED3E1A80EE810A97
:1041100000EB40030B44D4F81C2102EB8302D2EDE8
:10412000000A20EE200A00EB40030B44D4F81C21C7
:1041300002EB830282ED000A4A1CD1B20329DDDBC7
:10414000411CC8B20628D7DBB4F89800A4F8B80020
:104150000121BA20015304F1B80204F1C00104F1B5
:104160009800FCF74DFC84F8C800224890F838010C
:10417000A0B3042058E0BC21095901EB800191ED66
:10418000000A1C49D1ED6F0A9FED1F1A60EE810AEB
:10419000B4EEE00AF1EE10FA0BDD91ED6F0ADFEDFF
:1041A0001A0A20EE200ABC21095901EB800181ED99
:1041B000000ABC21095901EB800191ED000A0D496B
:1041C000D1ED6F0A9FED111A60EE810AB4EEE00A9C
:1041D000F1EE10FA26D291ED6F0A19E026E0000008
:1041E000D0010020D4010020D8010020DC010020F3
:1041F000BC0500203804002008010020CDCCCC3DB7
:104200006666663FDA0FC93F0AD7233C0AD723BC4C
:104210005FED020A20EE200ABC21095901EB800162
:1042200081ED000A411CC8B20628A4DB9FED080AF4
:10423000BC20005980ED030A04F1300204F1B801FA
:1042400004F13800FCF7BCF884F8C80000BFE5E6CC
:10425000000000000FB583B00420FE49088008204C
:10426000FD490880DDE90310087303990598487338
:1042700003990698887300210398017406980290A8
:10428000FCF76AFD0399486106980290039840691B
:1042900001900299FCF7C1FDEE4800880699484359
:1042A0000290FCF759FD03998861EA480088069955
:1042B000484302900398806901900299FCF7CFFD72
:1042C000E4480088069948430290FCF745FD0399AD
:1042D000C861E04800880699484302900398C06985
:1042E00001900299FCF7BBFDDA4800880499484325
:1042F0000290FCF731FD03990862D64800880499C2
:10430000484302900398006A01900299FCF7A7FDC8
:1043100006980290FCF720FD0399486206980290E7
:104320000398406A01900299FCF777FDC94800881C
:10433000049948430290FCF70FFD03990860C548B3
:1043400000880499484302900398006801900299FC
:10435000FCF785FDBF480088069948430290FCF7AA
:10436000FBFC03994860BB480088069948430290CB
:104370000398406801900299FCF771FDB5480088E8
:10438000059948430290FCF7E7FC03998860B1481F
:10439000008805994843029003988068019002992B
:1043A000FCF75DFDAB480088049948430290FCF798
:1043B000D3FC0399C1F8E800A64800880499484353
:1043C00002900398D0F8E80001900299FCF747FDAD
:1043D0000398D0F8E80002900398007B0190012236
:1043E0000146DDE902303030FCF76EF8994800886C
:1043F000049948430290FCF7AFFC0399C1F8EC0024
:10440000944800880499484302900398D0F8EC003F
:1044100001900299FCF723FD0398D0F8EC0002907C
:104420000398007B019001220146DDE9023038301B
:10443000FCF74AF8059818B3864800880599484360
:104440000290FCF789FC0399C1F8F00081480088CC
:104450000599484302900398D0F8F0000190029922
:10446000FCF7FDFC0398D0F8F00002900398407B25
:10447000019001220146DDE902304030FCF724F8CA
:1044800074480088069948430290FCF765FC03993C
:10449000C1F8F4006F4800880699484302900398D9
:1044A000D0F8F40001900299FCF7D9FC0398D0F8F9
:1044B000F40002900398807B019001220146DDE91F
:1044C00002304830FCF700F86248008804994843FD
:1044D00048430290FCF740FC0399C1F8F8005D489E
:1044E000008804994843484302900398D0F8F800A4
:1044F00001900299FCF7B3FC0398D0F8F800029001
:104500000398007B01900398007B00900146DDE951
:1045100002305030019AFBF7D7FF4E4800880499CB
:10452000484348430290FCF717FC0399C1F8FC008C
:104530004848008804994843484302900398D0F8BB
:10454000FC0001900299FCF78AFC0398D0F8FC006B
:1045500002900398007B01900398007B0090014635
:10456000DDE902305830019AFBF7AEFF3948008888
:104570000499484348430290FCF7EEFB0399C1F8C5
:104580000001344800880499484348430290FCF7EE
:10459000E3FB0399C1F804012E48008804994843BD
:1045A000484302900398D0F8000101900299FCF76B
:1045B00056FC2848008804994843484302900398D1
:1045C000D0F8040101900299FCF749FC0398D0F857
:1045D000000102900398007B01900398007B0090FB
:1045E0000146DDE902306030019AFBF76DFF039868
:1045F000D0F8040102900398007B01900398007B9F
:1046000000900146DDE902306830019AFBF75CFF5B
:10461000059878B30F4800880499484305994843A2
:104620000290FCF799FB0399C1F80801094800883A
:10463000049948430599484302900398D0F808012B
:1046400001900299FCF70BFC0398D0F80801029046
:10465000039803E0080100200A010020407B01903C
:104660000398007B00900146DDE902307030019A2A
:10467000FBF72AFFB9480088069948430499484344
:104680000290FCF769FB0399C1F80C01B34800885C
:1046900004994843069948430290FCF75DFB03994F
:1046A000C1F81001AD480088069948430499484371
:1046B00002900398D0F80C0101900299FCF7CFFB0F
:1046C000A6480088049948430699484302900398F5
:1046D000D0F8100101900299FCF7C1FB0398D0F8C3
:1046E0000C0102900398007B01900398807B00905E
:1046F0000146DDE902307830019AFBF7E5FE0398C8
:10470000D0F8100102900398807B01900398007B01
:1047100000900146DDE902308030019AFBF7D4FEBB
:104720008E4800880499484348430290FCF714FBE4
:104730000399C1F814018948008804994843484303
:1047400002900398D0F8140101900299FCF787FBBE
:104750000398D0F8140102900398007B019003980D
:10476000007B00900146DDE902308830019AFBF7BA
:10477000ABFE7A4800880699484348430290FCF70C
:10478000EBFA0399C1F81801744800880699484368
:10479000484302900398D0F8180101900299FCF761
:1047A0005EFB0398D0F8180102900398807B01907B
:1047B0000398807B00900146DDE902309030019A39
:1047C000FBF782FE654800880499484306994843F0
:1047D0000290FCF7C1FA0399C1F81C015F480088F8
:1047E000049948430699484302900398D0F81C0165
:1047F00001900299FCF733FB0398D0F81C0102905A
:104800000398807B01900398007B00900146DDE9CE
:1048100002309830019AFBF757FE0398007B4F490E
:10482000098848430399097B48430290FCF794FAAE
:104830000399C1F820010398007B4849098848433F
:104840000399097B48430290FCF786FA0399C1F863
:1048500024010398007B4149098848430399097B57
:1048600048430290FCF778FA0399C1F828010398AD
:10487000007B3A49098848430290FCF76DFA039996
:10488000C1F82C010398007B344909884843029001
:10489000FCF762FA0399C1F830010398D0F82001BF
:1048A00002900398007B01900398007B00900146E2
:1048B000DDE90230A030019AFBF706FE0398D0F83C
:1048C000240102900398007B01900398007B0090E4
:1048D0000146DDE90230A830019AFBF7F5FD0398A7
:1048E000D0F8280102900398007B01900398007B88
:1048F00000900146DDE90230B030019AFBF7E4FD9B
:104900000398D0F82C0102900398007B01900122BB
:104910000146DDE90230B830FBF7D6FD0398D0F848
:10492000300102900398007B019001220146DDE9ED
:104930000230C030FBF7C8FD0021039880F8281032
:10494000039880F82910039880F82A10039880F8BB
:104950002B10039880F82C1007B000BD0801002030
:1049600070B50446E07B18B12046FEF757F811E019
:10497000A37B0E4D2D8803FB05F26168D4F8F4008B
:10498000FCF719FAA27B094B1B8802FB03F1606854
:10499000FCF765FA637B054D2D8803FB05F2A168E2
:1049A000D4F8F000FCF707FA70BD00000801002001
:1049B00010B5044694F82C0068BBB4F89800A4F82D
:1049C000A8007A20015BAA200153B4F8A800A4F83B
:1049D000B0005A20015BB220015304F1A80204F197
:1049E000780104F19800FCF70BF884F8C80004F192
:1049F000B00204F1580104F1A800FCF701F884F8B2
:104A0000C80004F1500204F1B00104F15800FCF7B1
:104A100095F884F8C80010BD10B5044694F8290034
:104A200068BB04F1680104F16000FCF70BF984F83D
:104A3000C80004F1580204F1500104F16000FBF7D2
:104A4000DFFF84F8C800B4F85800A4F8A8006A2072
:104A5000015BAA20015304F1A80204F1680104F1EA
:104A60005800FBF7CDFF84F8C80004F1580204F1A8
:104A7000880104F1A800FBF7A3FC84F8C80010BD6E
:104A800010B5044694F82A00002861D104F1800191
:104A900004F17800FCF7D6F884F8C800B4F8780080
:104AA000A4F8A8005A20015BAA20015304F1A8022F
:104AB00004F1580104F17800FBF7A2FF84F8C80064
:104AC000B4F8A800A4F8B0008220015BB220015322
:104AD00004F1B00204F1800104F1A800FBF790FF9B
:104AE00084F8C800B4F89000A4F8A0009220015BFC
:104AF000A220015304F1A00204F1900104F1B000DE
:104B0000FBF75EFC84F8C80004F1B00104F1A000DA
:104B1000FBF7DEFC84F8C800B4F85800A4F8A8003D
:104B20008220015BAA20015304F1A80204F1800154
:104B300004F15800FBF764FF84F8C80004F1980200
:104B400004F1B00104F1A800FBF75AFF84F8C80093
:104B500010BD000070B504462046FFF701FFD4F8F1
:104B6000CC0018B12046D4F8CC108847204600F07D
:104B700085F8D4F8D00018B12046D4F8D010884772
:104B80002046FFF749FFD4F8D40018B12046D4F8E6
:104B9000D4108847207C08B9E07BB8B92046FFF7DD
:104BA0006FFFD4F8D80018B12046D4F8D810884741
:104BB000204600F0A1F8D4F8DC0018B12046D4F863
:104BC000DC1088472046FFF7F3FE13E0237B2A4DD5
:104BD0002D8803FB05F2D4E93A01FCF7ECF8237BBE
:104BE000254D2D886B43257B03FB05F2D4E93E015F
:104BF000FCF7E1F8D4F8E00018B12046D4F8E01052
:104C00008847002022E0227B00FB0202D4F8F81043
:104C100001EB820191ED000A216A01EB8001D1EDE7
:104C2000000AB4EEE00AF1EE10FA0DD2216A01EBAF
:104C3000800191ED000A227B00FB0202D4F8F810FB
:104C400001EB820181ED000A411CC8B2217B814247
:104C5000D9DC237B084D2D8803FB05F2D4F8E8103E
:104C60002068FCF7A8F8D4F8E40018B12046D4F87E
:104C7000E4108847206870BD0801002010B5044684
:104C800094F8280060BB607B00282ADD207BA4F814
:104C9000B8000121BA20015304F1B80204F1300137
:104CA00004F16000FBF7ACFE84F8C800207BA4F898
:104CB000C0000121C220015304F1C00204F14001EF
:104CC00004F17000FBF79CFE84F8C80004F1380280
:104CD00004F1C00104F1B800FBF772FB84F8C800CE
:104CE00009E004F1380204F1300104F16000FBF73F
:104CF00087FE84F8C80010BD10B5044694F82B0058
:104D0000E0BBB4F87800A4F8B8000121BA20015340
:104D100004F1B80204F1380104F17800FBF770FEE9
:104D200084F8C800B4F84800A4F8C0000121C220EB
:104D3000015304F1C00204F1B80104F14800FBF78B
:104D4000FDFE84F8C800B4F89800A4F8B80001216A
:104D5000BA20015304F1B80204F1C00104F1980033
:104D6000FBF74EFE84F8C80004F1300204F1B801EC
:104D700004F13800FBF724FB84F8C80010BD0000E4
:104D800000B587B0142102A8FCF769F800BF1748E6
:104D9000C06C40F020001549C8640846C06C00F0A3
:104DA0002000019000BF00BF00BF0846C06C40F06B
:104DB0000100C8640846C06C00F00100019000BF0B
:104DC00000BF012210214FF09040FCF775FC10202D
:104DD00002900120039004900220059002A94FF058
:104DE0009040FCF783FB07B000BD000000100240BC
:104DF00010B51248124908604FF4827048600021D3
:104E00000F4881604FF4E061C160002101614161A0
:104E10004FF4007181611821C1610021016241627A
:104E200081620721C1620021016308214163FDF70E
:104E30001FFA08B1FCF742FB10BD00000030014032
:104E4000E001002000BFFEE700BFFEE770B5164D91
:104E5000ED6805F00304144DED68C5F303156B1CF4
:104E6000022C0CD0032C09D1104DB5FBF3F50E4EDE
:104E7000F668C6F3062605FB06F10AE000BF0B4DF7
:104E8000B5FBF3F5084EF668C6F3062605FB06F1FA
:104E900000BF00BF044DED68C5F341656D1C6A009D
:104EA000B1FBF2F070BD0000001002400024F400DD
:104EB000F8B504460E461546334600224FF4C0515D
:104EC0002046009500F026F828B1206E40F0200022
:104ED00020660320F8BD334600228021204600953D
:104EE00000F094F828B1206E40F0200020660320E6
:104EF000F0E7334600224FF4C0612046009500F0F1
:104F000009F828B1206E40F0200020660320E1E778
:104F10000020DFE72DE9FC5F04460D4616461F46DC
:104F2000DDF8309000200090FCF7CCFBA0EB0900EE
:104F3000A7EB0008FCF7C6FB8246206800F10C0BCB
:104F400031480068C0EBC00000EB8000000D00FBA2
:104F500008F0019050E0B5F5C06F05D126B99BF877
:104F6000000000909DF80000781C002844D0FCF759
:104F7000A9FBA0EB0A00404502D2B8F1000F34D1E2
:104F80002068406820F0E000216848606068B0F563
:104F9000827F0DD1A068B0F5004F03D0A068B0F5B6
:104FA000806F05D12068006820F04000216808600B
:104FB000A06AB0F5005F0DD100BF2068006820F442
:104FC0000050216808602068006840F400502168A3
:104FD000086000BF012084F85D0000BF002084F855
:104FE0005C0000BF0320BDE8FC9F019808B94FF0AA
:104FF00000080198401E0190206880682840B04257
:10500000A9D10020EFE70000100000202DE9F84FA3
:1050100004460D4690461E46DDF82890FCF752FBEC
:10502000A0EB0900371AFCF74DFB82462C480068BC
:10503000C0F3CB307843009045E0701C002842D08C
:10504000FCF740FBA0EB0A00B84200D2A7BB2068E7
:10505000406820F0E000216848606068B0F5827F19
:105060000DD1A068B0F5004F03D0A068B0F5806FF7
:1050700005D12068006820F0400021680860A06A1F
:10508000B0F5005F0DD100BF2068006820F400502B
:10509000216808602068006840F4005021680860BA
:1050A00000BF012084F85D0000BF002084F85C0090
:1050B00000BF0320BDE8F88FFFE7009800B9002784
:1050C0000098401E0090206880682840A84201D1C6
:1050D000012000E000204045AFD10020EAE70000B9
:1050E0001000002010B500BF502080F31188BFF3DE
:1050F0004F8FBFF36F8F00BF00F0C8FD18B14FF0A6
:1051000080500449086000BF002080F3118800BF70
:1051100010BD000004ED00E000B593B0382105A8F3
:10512000FBF79DFE14216846FBF799FE0020FCF773
:10513000C5FB02200590C001089040200990022084
:105140000C9002210D9104210E9155210F91022105
:1051500010911191129105A8FCF7DCFD08B1FCF744
:10516000ADF90F20009003200190002002900390E1
:10517000049004216846FCF737FC08B1FCF79EF95F
:1051800013B000BD0348006840F470000149086096
:105190007047000088ED00E010B50248FDF71DFBE8
:1051A00010BD00004402002010B502682A4B98424E
:1051B0000BD0B0F1804F08D0284B984205D0284B37
:1051C000984202D0274B984203D122F070024B68DC
:1051D0001A43214B984214D0B0F1804F11D01F4B8D
:1051E00098420ED01E4B98420BD01E4B984208D0CE
:1051F0001D4B984205D01D4B984202D01C4B984243
:1052000003D122F44072CB681A4322F080034C6928
:1052100043EA040202608B68C3620B6883620E4B30
:1052200098420BD00F4B984208D00F4B984205D0B4
:105230000E4B984202D00E4B984201D10B6903638A
:1052400001234361036903F001031BB1036923F0E8
:105250000103036110BD0000002C01400004004068
:10526000000800400034014000400140004401407B
:105270000048014000BFFEE74100080218BF0420BB
:105280000A0E18BF40F001004FF07F4232EA0101E0
:1052900008BF40F00200012808BF05207047000049
:1052A00002480068C0F30220704700000CED00E0E7
:1052B00010B5002804DB0A07130E054A135406E054
:1052C0000A07140E034A00F00F031B1FD45410BD2D
:1052D00000E400E018ED00E010B510EE104A4FF0C9
:1052E0001A402DED028B00EB4400B0F1C85F4AD8A4
:1052F0004FF0FC40B0EB440F22D2B0EEC00AF7EE04
:10530000000A30EEC00AF6EE000A20EE208A18EEFF
:10531000100A00F035FC00EE100A14F0004F1DBF1B
:105320009FED281ADFED280AB1EE400A9FED271AFB
:1053300008BFF0EE410AF8EE001A20EE210A05E05F
:1053400020EE008A9FED221ADFED220ADFED221AFD
:105350009FED222A70EEC00A20EE080A08EE212AEC
:10536000DFED1F1A48EE021A9FED1E2A08EE212AD1
:10537000DFED1D1A48EE021ABDEC028B40EE610A09
:1053800030EE810A10BD4FF0CC40B0EB440F82BF2D
:105390009FED160ABDEC028B10BD4FF07F40B0EBC5
:1053A000440F05D2BDEC028BBDE8104000F0DEB921
:1053B0000120FBF7FDFDBDEC028BBDE8104000F0C5
:1053C000DBB900000000494022AA7D3A000000003D
:1053D0000000C93F22AAFD3924FE1C3DC78AD83CE3
:1053E0001E67383D1B93993DAFAA2A3EDB0FC93F8C
:1053F00010B54FF00E402DED028BB0EE408A18EE46
:10540000104A00EB4400B0F1506F4AD84FF0FC4016
:10541000B0EB440F22D2B0EEC80AF7EE000A30EE2D
:10542000C00AF6EE000A60EE208A18EE900A00F03C
:10543000A7FB01EE100A14F0004F1DBFDFED2D0A8F
:105440009FED2D0AB1EE411ADFED2C0A08BF9FED4A
:105450002C0AF8EE001A21EE218A05E0DFED290A78
:1054600068EE088AB0EE600A9FED271ADFED271A72
:1054700030EE080A48EE811A9FED251A08EEA11AAF
:10548000DFED241A48EE811A9FED231A08EEA11AC7
:1054900068EE281ABDEC028B01EE810A30EE200A7C
:1054A00010BD4FF0E440B0EB440F0CD918EE100AD9
:1054B000FFF7E2FE042808BF00F066F9B0EE480AE4
:1054C000BDEC028B10BD4FF07F40B0EB440F07D214
:1054D000B0EE480ABDEC028BBDE8104000F046B9C2
:1054E0000120FBF765FDBDEC028BBDE8104000F02C
:1054F00043B900000000C9BF22AAFDB90000C93F9E
:1055000022AAFD390000000024FE1C3DC78AD83CB9
:105510001E67383D1B93993DAFAA2A3E10EE100A34
:1055200010B510EE901A4FF0684202EB40032DEDDB
:10553000028BB3F1654F3CBF02EB4102B2F1654F04
:105540007CD200BFC0F3C753C1F3C7529A1A1B2ABB
:1055500009DD10F0004F14BF9FED6E0A9FED6E0A3B
:10556000BDEC028B10BD12F11A0F1BDA11F0004FC7
:1055700009D010F0004F0CBF9FED680A9FED680A3C
:10558000BDEC028B10BD80EE208A18EE100AFFF7EA
:1055900073FE042808BF00F0F7F8B0EE480ABDEC2F
:1055A000028B10BD4200B2EB410F37D910F0004F13
:1055B00019BFDFED5C1A9FED5C1ADFED5C1A9FED01
:1055C0005C1AB0EE602A0A46F1EE400A80F0004113
:1055D000B0EE420A10460A1A5200B2F1807F34D26D
:1055E000484010F0004FDFED532A9FED533A1DBFA6
:1055F000BEEE002A71EEE21A31EE431AB6EE002A30
:1056000004BF71EEA21A31EE031AF0EE402A42EE08
:10561000602A40EE020A82EEA02A18E011F0004F44
:1056200004BF9FED461AF0EE411AD4D010F0004F9F
:105630001CBFDFED431A9FED431A00E026E004BFD4
:10564000DFED411A9FED411AC5E780EE202A22EED8
:10565000020ADFED3F0ADFED3F2ABDEC028B40EE90
:10566000202ADFED3D0A40EE220ADFED3C2A40EE23
:10567000202ADFED3B0A40EE220A22EE000A00EE6D
:10568000201A31EE020A30EE210A10BD4FF07F429F
:10569000B2EB400F28BFB2EB410F05D2BDEC028B3D
:1056A000BDE8104000F065B840EA01035B0008BFA8
:1056B00041F0FF410BD0B2EB400F08BFB2EB410FFE
:1056C00008D120F0804000EE100A21F0804100EE69
:1056D000901A37E7B2EB400F12BF5FEA410240F089
:1056E000FF4001F000413FF42DAF4A0092EA400331
:1056F0003FF528AF002AACBF9FED1A1A9FED1A1A8A
:1057000020EE010A60EE810A10EE100A10EE901AE7
:1057100018E70000DB0FC9BFDB0FC93FDB0F4940B3
:10572000DB0F49C00000C9BF22AAFDB90000C93F74
:1057300022AAFD390060ED3EC30ACE37000000000A
:10574000000049C022AA7DBA0000494022AA7D3A41
:105750002DAD65BD8FB8D53D0FB511BE61C84C3EAE
:10576000A8AAAABE0000804F0000802F30EE000AD9
:10577000704730EE200A7047DFED020A80EEA00A83
:1057800070470000000000009FED020A20EE000AB2
:105790007047000000000010B8B101280FD00228A7
:1057A00007D0032817D19FED0E0A0E4981ED000A9C
:1057B00011E09FED0D0A0B4981ED000A0BE09FED12
:1057C0000B0A084981ED000A05E09FED090A054929
:1057D00081ED000A00BF00BF024991ED000A704749
:1057E000000080385000002000000039000080399F
:1057F0000000003A082835D2DFE800F02E28221CED
:1058000016100A049FED1A0A1A4981ED000A29E0D0
:105810009FED190A174981ED000A23E09FED170A51
:10582000144981ED000A1DE09FED150A114981ED33
:10583000000A17E09FED130A0E4981ED000A11E0FE
:105840009FED110A0B4981ED000A0BE09FED0F0A55
:10585000084981ED000A05E09FED0D0A054981ED3B
:10586000000A00BF00BF034991ED000A7047000025
:105870000000F2395400002000007A3A0000FA3AA1
:1058800000007A3B0000FA3B00007A3C0000FA3C42
:1058900058A08B3A1FB50446002210214FF09040CB
:1058A000FBF70AFF9F20FDF795FB062258491F20B2
:1058B000FDF770FB012210214FF09040FBF7FCFE3A
:1058C000002210214FF09040FBF7F6FEA520FDF7D7
:1058D00081FB06224F492520FDF75CFB01221021A8
:1058E0004FF09040FBF7E8FE494840784849097876
:1058F00040EA012000B2ADF808004548C0784449AC
:10590000897840EA012000B2ADF80A0040484079A9
:105910003F49097940EA012000B2ADF80C003D484A
:1059200040783C49097840EA012000B2ADF8000017
:105930003848C0783749897840EA012000B2ADF88C
:105940000200344840793349097940EA012000B225
:10595000ADF80400BDF9080000EE100AB8EEC00A68
:105960002D48D0ED000A20EE200A2C48D0ED000A88
:1059700020EE200A84ED000ABDF90A0000EE100AAC
:10598000B8EEC00A2448D0ED000A20EE200A2348D1
:10599000D0ED000A20EE200A84ED010ABDF90C00CA
:1059A00000EE100AB8EEC00A1B48D0ED000A20EE47
:1059B000200A1A48D0ED000A20EE200A84ED020ADF
:1059C000BDF9000000EE100AB8EEC00A1448D0ED90
:1059D000000A20EE200A84ED030ABDF9020000EE61
:1059E000100AB8EEC00A0E48D0ED000A20EE200AD8
:1059F00084ED040ABDF9040000EE100AB8EEC00AF6
:105A00000748D0ED000A20EE200A84ED050A1FBDEC
:105A10005C000020620000205000002058000020A0
:105A20005400002010B52DED068B82B004460020F6
:105A30000190002210214FF09040FBF73DFE9D2089
:105A4000FDF7C8FA022201A91D20FDF7A3FA0122E1
:105A500010214FF09040FBF72FFE9DF805109DF8A8
:105A6000042041EA022108B200F0FCFC41EC1A0BD0
:105A70009FED0C0B53EC102B00F0D2FA41EC190BFC
:105A80009FED0A0B53EC102B00F0A4F941EC180B1E
:105A900000F084FC00B22080002002B0BDEC068B38
:105AA00010BD00008FC2F5285C8F60400000000030
:105AB00000003940F0EE400AF6EE001A60EEA11A3E
:105AC000B0EE611AB0EE600A10EE100A0749A1EBC1
:105AD000600000EE100A21EE002AF7EE081A42EEEE
