:020000040800F2
:10000000E817002039030008632300081F210008B7
:100010006123000893050008192A00080000000069
:10002000000000000000000000000000790200084D
:100030004106000800000000D50200086D230008FA
:100040005303000853030008530300085303000838
:100050005303000853030008530300085303000828
:1000600053030008530300085303000895050008D4
:10007000A1050008AD050008B9050008C505000880
:10008000D1050008000000005303000853030008D6
:1000900053030008530300085303000853030008E8
:1000A00053030008112400085303000853030008F9
:1000B00053030008530300085303000853030008C8
:1000C00053030008530300085303000853030008B8
:1000D00053030008012A00080D2A000853030008F2
:1000E0005303000853030008530300085303000898
:1000F00053030008530300085303000800000000E6
:100100000000000053030008000000005303000833
:1001100053030008000000005303000853030008C5
:100120005303000853030008530300085303000857
:100130005303000800000000000000005303000803
:1001400053030008530300080000000000000000F3
:10015000000000000000000000000000000000009F
:100160000000000000000000000000005303000831
:100170005303000800000000000000000000000021
:100180000000000053030008000000000000000011
:10019000000000000000000000000000000000005F
:1001A0000000000000000000530300085303000893
:1001B0005303000853030008530300080000000025
:1001C00000000000530300080000000000000000D1
:1001D000530300085303000800F002F800F03CF855
:1001E0000AA090E8000C82448344AAF10107DA4592
:1001F00001D100F031F8AFF2090EBAE80F0013F0A8
:10020000010F18BFFB1A43F001031847C03200006A
:10021000E0320000103A24BF78C878C1FAD85207FB
:1002200024BF30C830C144BF04680C607047000070
:100230000023002400250026103A28BF78C1FBD8EF
:10024000520728BF30C148BF0B6070471FB503F08D
:1002500007F91FBD10B510BD00F061F91146FFF799
:10026000F5FF02F0EAFB00F07FF903B4FFF7F2FFBD
:1002700003BC00F087F900002C4B19680868B0E84F
:10028000F04F80F30988BFF36F8F4FF0000080F3C9
:10029000118870470000000008480068006880F37B
:1002A00008884FF0000080F3148862B661B6BFF38F
:1002B0004F8FBFF36F8F00DF00BF00BF08ED00E07E
:1002C000DFF80C00016841F470010160704700BF65
:1002D00088ED00E0EFF30980BFF36F8F134B1A68CE
:1002E0001EF0100F08BF20ED108A20E9F04F1060BB
:1002F00009B44FF0500080F31188BFF34F8FBFF364
:100300006F8F02F011FF4FF0000080F3118809BCDD
:1003100019680868B0E8F04F1EF0100F08BFB0EC85
:10032000108A80F30988BFF36F8F70471400002094
:10033000EFF30580704700000948804709480047EF
:10034000FEE7FEE7FEE7FEE7FEE7FEE7FEE7FEE785
:10035000FEE7FEE704480549054A064B70470000E2
:1003600001240008D9010008E8110020E817002046
:10037000E8130020E813002053EA020C00F0698023
:100380002DE9F04B4FF00006002B1FBFB3FA83F5A9
:1003900003FA05F424FA05F65E4012BF1643B2FADA
:1003A00082F502FA05F4C5F120051EBF22FA05FC0C
:1003B00044EA0C04203556EA044C4FEA144418BFB2
:1003C000641C4FF000084FF00009904271EB030CE1
:1003D00039D3002919BFB1FA81F701FA07F6B0FA4B
:1003E00080F700FA07F6C7F120071EBF20FA07FCC6
:1003F00046EA0C062037B6FBF4FCA7EB0507103FD6
:1004000007F01F0BCBF120060CFA0BFB2CFA06F6BB
:1004100044BFB3460026202FA4BF5E464FF0000B1A
:100420005BEA060C08BF4FF0010B19EB0B09ABFBA5
:10043000027C48EB0608C01B06FB02CC0BFB03CC7E
:1004400071EB0C01C1E70B46024641464846BDE848
:10045000F08B13B54FF000004FF00001AFF30080B8
:10046000BDE81C40704710B5203AC0F00B80B1E8E1
:100470001850203AA0E81850B1E81850A0E81850D9
:10048000BFF4F5AF5FEA027C24BFB1E81850A0E8E2
:10049000185044BF18C918C0BDE810405FEA827CFC
:1004A00024BF51F8043B40F8043B08BF7047D20713
:1004B00028BF31F8023B48BF11F8012B28BF20F8B4
:1004C000023B48BF00F8012B70474FF0000200B517
:1004D000134694469646203922BFA0E80C50A0E867
:1004E0000C50B1F12001BFF4F7AF090728BFA0E815
:1004F0000C5048BF0CC05DF804EB890028BF40F8E1
:10050000042B08BF704748BF20F8022B11F0804F22
:1005100018BF00F8012B7047704770477047754649
:1005200000F02CF8AE4605006946534620F007005F
:10053000854618B020B5FFF70DFFBDE820404FF00D
:1005400000064FF000074FF000084FF0000B21F0BD
:100550000701AC46ACE8C009ACE8C009ACE8C0098A
:10056000ACE8C0098D46704710B50446AFF3008073
:100570002046BDE81040FFF778BE000000487047F5
:100580008411002001491820ABBEFEE726000200BE
:100590007047FEE7014800F0C7B80000C80200201D
:1005A000014800F0C1B8000028030020014800F015
:1005B000BBB8000088030020014800F0B5B8000077
:1005C000E8030020014800F0AFB80000E000002080
:1005D000014800F0A9B80000400100200D49026860
:1005E0008A4201D20C4901E00B492031D2B21423D6
:1005F000083AB2FBF3F2436C02F01F0223F003034C
:100600001944816404498031C1640121914001652C
:100610007047000008040240000802400179074AC0
:1006200002EB81024265054A4432491E826501F0AF
:100630001F0201219140C16570470000FC08024083
:10064000704772B6FEE710B590F825300021012200
:10065000022B03D00421C163012122E003681C683E
:1006600024F00E041C60836C1C6824F480741C60ED
:1006700003681C6824F001041C6090F84430046C8A
:1006800003F01F0302FA03F36360D0E913345C60E4
:10069000436D33B11C6824F480741C60D0E91634B7
:1006A0005C6080F82520002280F82420084610BDD8
:1006B00070B590F82520002401212346022A07D096
:1006C0000422C26380F8251080F82430012429E038
:1006D0000268156825F00E0515600268156825F09A
:1006E00001051560826C156825F48075156090F819
:1006F0004420056C02F01F0201FA02F26A60D0E9A0
:1007000013255560426D32B1156825F4807515606A
:10071000D0E91625556080F8251080F82430816BCB
:1007200001B18847204670BDF0B4016C0C680168C7
:100730000D6890F8442002F01F06042202FA06F326
:10074000234211D06B070FD50B689B0603D40B68AF
:1007500023F004030B6090F8441001F01F018A405D
:10076000016C4A60016B1DE0022303FA06F7274281
:100770004FF0000C4FF0010218D0AF0716D50C68EF
:10078000A40605D40C6824F00A040C6080F8252027
:1007900090F8441001F01F018B40016C4B6080F811
:1007A00024C0C16A00291AD0F0BC08470823B3400E
:1007B000234214D02B0712D50B6823F00E030B60D5
:1007C00090F84410036C01F01F0102FA01F1596026
:1007D000C26380F8252080F824C0416BE2E7F0BCBA
:1007E0007047000070B504000CD02B4A216814201B
:1007F000914209D2294A0A44B2FBF0F080006064B9
:1008000027480AE0012070BD234A52420A44B2FB45
:10081000F0F080006064204808382064022084F8EA
:1008200025000A6847F6F0708243D4E902031843B2
:10083000D4E904352B431843A3691843E3691843EB
:10084000236A1843104308602046FFF7C7FEA068DC
:100850000025B0F5804F00D16560A16C207908605B
:10086000D4E9130141606068401E032808D820467F
:10087000FFF7D4FE606D0560D4E91601416002E027
:100880006565A565E565E563012084F8250084F8C4
:100890002450002070BD000008040240F8FFFDBF96
:1008A000000002402DE9F04FDFF8209200230126DE
:1008B0000324A9F1040B85B00F2709F1040AABF159
:1008C000040EFAE006FA03F52A407CD091F804C041
:1008D0000CF0030CBCF1010F02D0BCF1020F26D1C9
:1008E000D0F808C0CDF800C04FEA430C04FA0CF869
:1008F000CDF810C0DDF800C02CEA080CCDF800C01F
:10090000D1F80C80DDF810C008FA0CF8DDF800C052
:1009100048EA0C08C0F80880D0F804C02CEA050C9E
:100920000D79C5F300159D4045EA0C0545600D792C
:10093000ED43AD070ED0C5684FEA430804FA08FC42
:1009400025EA0C05D1F808C00CFA08FC4CEA050CA5
:10095000C0F80CC00D7905F00305022D16D1DD0895
:1009600000EB850CCDF808C0DCF820805D074FEA6D
:10097000D56C07FA0CF528EA05080D6905FA0CF59F
:10098000DDF808C045EA0805CCF8205005684FEAB4
:10099000430CCDF808C004FA0CFC25EA0C0591F8CC
:1009A00004C00CF00308DDF808C008FA0CF848EAA7
:1009B0000508C0F800804D6815F4403F7CD0444DD8
:1009C000D5F860C000E077E04CF0010CC5F860C0DD
:1009D0002D6E23F0030C05F0010500953D4D654497
:1009E0000295AD684FEA837C4FEA1C7807FA08FC51
:1009F00025EA0C05B0F1904F06D0DFF8DCC0604569
:100A000005D14FF0010C20E04FF0000C1DE0DFF8A5
:100A1000CCC0604502D14FF0020C16E0DFF8C0C038
:100A2000604502D14FF0030C0FE0DFF8B8C060451D
:100A300002D14FF0040C08E0DFF8ACC0604502D1F1
:100A40004FF0050C01E04FF0060C0CFA08FC4CEAE4
:100A5000050C029DC5F808C0D9F80050CC46D1F865
:100A6000048095435FEAC82800D51543CCF80050B0
:100A7000DAF80050D446D1F8048095435FEA88281C
:100A800000D51543CCF80050DBF80050DC46D1F817
:100A9000048095435FEA883800D51543CCF80050B0
:100AA000DEF80050F446D1F8048095435FEAC83878
:100AB00000D51543CCF800505B1C0A6832FA03F5E8
:100AC0007FF400AF05B0BDE8F08F000008040140DE
:100AD00000100240000001400004004800080048E7
:100AE000000C004800100048001400480AB1816161
:100AF00070478162704700000148806870470000BD
:100B000004000020024881684268114481607047F7
:100B10000400002010B50024032000F09BF80F20F3
:100B200000F008F808B1012401E000F047F8204681
:100B300010BD000030B505461B4887B0016E41F47A
:100B400000610166006E06A900F40060009001A833
:100B500000F020FB00F050FB1449154AB0FBF1F106
:100B60001448491E0260416040F2E7320021C0E9AA
:100B70000321816000F05FFE040012D10D4800F0F7
:100B80008DFE04000DD1192000F036F8102D07D28B
:100B900000222946192000F03DF80748056000E0D2
:100BA000012407B0204630BD0010024040420F0033
:100BB000002C014048040020040000200D4808B526
:100BC000016E41F001010166016E01F00101009129
:100BD000816D41F080518165806D002200F0805070
:100BE00000900F21901E00F015F8BDE8084000F0BD
:100BF000A1B8000000100240002809DB00F01F022D
:100C0000012191404009800000F1E020C0F800116E
:100C100070470000F0B40E4B1B680C46C3F3022370
:100C2000C3F10705042D00D90425191D072901D298
:100C3000002300E0DB1E012606FA05F1491E2140D3
:100C400099409E40761E16403143F0BC01F0E5BE4F
:100C50000CED00E0064900F0070208684FF6FF03BC
:100C6000184040EA0220034A104308607047000021
:100C70000CED00E00000FA052B492C4B0A683221EC
:100C80004A432B4940B1B0F5007F086829D020F4D1
:100C9000C06040F480602CE00868C0F34120022866
:100CA00004D051F8800F20F4807022E0D1F8800049
:100CB00020F48070C1F88000086820F4C06040F41F
:100CC00000700860B2FBF3F0401C00E0401E4A696F
:100CD000520501D50028F9D1486940050AD50320FD
:100CE0007047C0F34120022806D051F8800F40F42D
:100CF0008070086000207047D1F8800040F4807058
:100D0000C1F88000086820F4C06040F400700860FA
:100D1000B2FBF3F0401C00E0401E4A695205DBD5EF
:100D20000028F9D1D8E700001000002040420F0051
:100D3000007000400248816841F480418160704742
:100D4000007000402DE9F8430446006800269D4DE0
:100D500000035ED5A86D0027C00008D4A86D40F040
:100D60008050A865A86D012700F080500090DFF842
:100D70005892D9F8001041F48071C9F80010FFF7BB
:100D8000BBFE804606E000BFFFF7B6FEA0EB080002
:100D900002282BD8D9F80000C005F5D5D5F8900069
:100DA00010F4407014D0216C814211D0D5F890001D
:100DB000D5F8901020F4407041F48031C5F89010BF
:100DC000D5F8901021F48031C5F89010C5F8900046
:100DD000C00711D0FFF790FE804641F2883907E046
:100DE000FFF78AFEA0EB0801494501D903260BE075
:100DF000D5F890008007F3D5D5F89000216C20F449
:100E000040700843C5F890001FB1A86D20F08050D5
:100E1000A8652078C00707D0D5F88800616820F061
:100E200003000843C5F888002078800707D5D5F867
:100E30008800A16820F00C000843C5F888002078DD
:100E4000400707D5D5F88800E16820F03000084356
:100E5000C5F888002078000707D5D5F888002169F3
:100E600020F0C0000843C5F888002078800607D528
:100E7000D5F88800616920F440600843C5F888000F
:100E80002078400607D5D5F88800A16920F44050A5
:100E90000843C5F888002078000607D5D5F88800F3
:100EA000E16920F440400843C5F888002088C00567
:100EB00007D5D5F88800216A20F440300843C5F8EA
:100EC00088002088800507D5D5F88800616A20F45D
:100ED00040200843C5F88800208840050FD5D5F884
:100EE0008800A16A20F440100843C5F88800A06A71
:100EF000B0F5801F03D1E86840F48010E8602088D6
:100F000000050FD5D5F88800E16A20F440000843B9
:100F1000C5F88800E06AB0F5800F03D1E86840F4B6
:100F20008010E8602088C0040FD5D5F88800216BB8
:100F300020F040700843C5F88800206BB0F1807F36
:100F400003D1E86840F48010E86020884FF0006129
:100F500080040ED5D5F88800626B20F04060104305
:100F6000C5F88800606B884203D1E86840F48010BF
:100F7000E860208840040ED5D5F88800A26B20F0E8
:100F800040601043C5F88800A06B884203D1E86830
:100F900040F48010E860208800040FD5D5F8880060
:100FA000E16B20F040500843C5F88800E06BB0F1D9
:100FB000805F03D1E86840F48030E8603046BDE8E7
:100FC000F883000000100240007000402DE9F04757
:100FD0000E4605004FF0000725D0DFF89C81D8F8B9
:100FE000000000F00F00B0420CD2D8F8001021F041
:100FF0000F013143C8F80010D8F8000000F00F00CE
:10100000B04210D129685D4CC80741F2883A52D0ED
:101010006868DFF86C91032808D00228206826D081
:101020004005002825DB0120BDE8F087206880010D
:10103000F9D5E068E068534BC0F30310401CB3FBE4
:10104000F0F0E268C2F306225043E268C2F3416264
:10105000521C5200B0FBF2F0484515D9A06810F0C0
:10106000F00F0AD088070FD5A86830B10CE08003D4
:10107000D7E700F0D3F8484506D9A06820F0F00083
:1010800040F08000A0608027A068696820F003001D
:101090000843A060FFF730FD814605E0FFF72CFD17
:1010A000A0EB090151453AD8A068696800F00C002E
:1010B000B0EB810FF2D12868810714D5400703D522
:1010C000A06840F4E060A0602878000705D5A0681B
:1010D00020F4605040F4E060A060A068A96820F0AF
:1010E000F000084304E0802F03D1A06820F0F00056
:1010F000A060D8F80010404601F00F01B14216D9A7
:10110000016821F00F0131430160FFF7F5FC07464C
:1011100007E000BFFFF7F0FCC11B514501D90320D8
:1011200082E7D8F8000000F00F00B042F2D1287832
:10113000400705D5A068E96820F4E0600843A06096
:101140002878000706D5A068296920F4605040EA95
:10115000C100A06000F062F8A1680B4AC1F303115E
:10116000515C01F01F01C840084908600848006848
:10117000BDE8F047FFF7DEBC00200240001002404F
:1011800000B4C4040024F400A834000810000020B7
:10119000040000200F2202600C4A936803F003034E
:1011A0004360936803F0F0038360936803F4E063A3
:1011B000C36092684FF4E06303EAD202026104481C
:1011C000006800F00F000860704700000010024047
:1011D000002002400548064900688968054AC1F3B5
:1011E0000221515C01F01F01C8407047100000202F
:1011F00000100240B83400080548064900688968B4
:10120000054AC1F3C221515C01F01F01C84070477B
:101210001000002000100240B8340008134988680C
:10122000C0F381021248012A0AD08A68C2F38102FF
:10123000022A05D08A68C2F38102032A01D0002065
:101240007047CA6802F00303CA68C2F30312521C53
:10125000B0FBF2F0CA68C968C2F306225043C1F37A
:101260004161491C4900B0FBF1F070470010024099
:101270000024F4002DE9F84304007AD02078F84DDA
:10128000C00747D0A868E96800F00C0001F003012E
:101290000C2802D0082817D001E0032914D0606878
:1012A000B0F5803F17D0B0F5A02F286817D020F4F4
:1012B00080302860286820F4802028606068E0B1D1
:1012C000FFF71AFC064614E02868800322D5606800
:1012D0000028D2D01EE0286840F48030EDE740F4CA
:1012E00080202860F7E700BFFFF706FC801B64281A
:1012F00070D828688003F7D50CE0FFF7FDFB0646A1
:1013000005E000BFFFF7F8FB801B6428F0D82868D1
:101310008003F7D4207880074CD5A868E96800F0EE
:101320000C0001F003010C2802D004280DD001E0CC
:1013300002290AD0E068002828682BD040F4807089
:101340002860FFF7D9FB064619E02868400502D55A
:10135000E068002891D06868217C20F0FE4040EAD7
:1013600001606860BF480068FFF7E4FB002800D117
:1013700020E072E1FFF7C0FB801B0228B8D8286884
:101380004005F7D56868217C20F0FE4040EA016006
:1013900068600FE020F480702860FFF7ADFB064620
:1013A00005E000BFFFF7A8FB801B0228A0D8286833
:1013B0004005F7D42078000729D560690028D5F8C2
:1013C000940013D040F00100C5F89400FFF794FB9F
:1013D000064606E090E000BFFFF78EFB801B022868
:1013E00086D8D5F894008007F6D510E020F00100EB
:1013F000C5F89400FFF780FB064604E0FFF77CFB8E
:10140000801B022878D8D5F894008007F6D420787D
:10141000400761D5A86D0026C00008D4A86D40F033
:101420008050A865A86D012600F0805000908E487D
:101430000168C90511D40168804641F480710160DA
:10144000FFF75AFB074604E0FFF756FBC01B0228D4
:1014500052D8D8F80000C005F6D5A068012815D0EC
:101460000528D5F8900016D020F00100C5F89000AE
:10147000D5F8900020F00400C5F89000A06841F273
:101480008838B8B1FFF738FB07460EE0D5F8900072
:1014900040F00100F0E740F00400C5F89000F5E7E7
:1014A000FFF72AFBC11B414526D8D5F890008007DD
:1014B000F6D50CE0FFF720FB074604E0FFF71CFB26
:1014C000C11B414518D8D5F890008007F6D41EB14D
:1014D000A86D20F08050A8652078800629D5A069E5
:1014E0000028D5F8980013D040F00100C5F8980006
:1014F000FFF702FB064606E075E000BFFFF7FCFAC7
:10150000801B02286FD8D5F898008007F6D510E028
:1015100020F00100C5F89800FFF7EEFA064604E057
:10152000FFF7EAFA801B02285DD8D5F898008007FB
:10153000F6D4E069F0B3A968C1F3810103295DD055
:101540000228286820F08070286003D0FFF7D4FAC2
:1015500004464BE0FFF7D0FA064604E0FFF7CCFA6A
:10156000801B02283FD828688001F7D4F4E90801DD
:101570006FF00F0202EB01110843218A520449085F
:1015800002EB4151A26841EA02210843217D4FF05C
:101590007E42490802EB41610843217B40EAC16079
:1015A000E968324A11400843E860286840F08070DA
:1015B000286000E05EE0E86840F08070E860FFF7D7
:1015C0009BFA044605E000BFFFF796FA001B0228CD
:1015D00009D828688001F7D54CE000BFFFF78CFAE6
:1015E000001B022802D90320BDE8F8832868800187
:1015F000F4D4E8681E490840E8603BE00128F3D0D5
:10160000E868226A00F00301914226D1616A00F085
:10161000F0020901103991421FD1A26A00F4FE4183
:10162000B1EB022F19D194F82C2000F07841B1EBE6
:10163000C26F12D1218E00F4C00249084905A1F5FC
:101640000011914209D194F8341000F0C0604908AB
:101650004906A1F1007181420CD00120C4E70000CD
:101660000010024004000020007000400C809F0128
:10167000FCFFEEFE0020B7E770B5040009D0606AF9
:10168000002540B125616561A56294F85D0040B117
:101690000CE0012070BD6068B0F5827FF4D0E56198
:1016A000F2E784F85C50204600F05CF8022084F8F1
:1016B0005D002068016821F040010160E1684FF49D
:1016C000E062914201D9002001E04FF48050B1F571
:1016D000706F02D0914200D0A562A188228901F4E6
:1016E000827102F404421143227C02F0020211438F
:1016F000227D02F001021143228B02F40072114399
:10170000227F02F03802114394F8202002F0800278
:101710001143228D02F40052114322681160A16925
:10172000042202EA114194F8242000F4805002F0CF
:101730001002114394F8342002F008021143A289E8
:1017400002F4706211430143206841602068C1695E
:1017500021F40061C1612566012084F85D0000204C
:1017600070BD0000F0B587B0064614216846FEF74C
:10177000ACFE2949306888424BD12848016E41F4BB
:1017800080510166016E01F480510591C16C41F0F8
:101790000101C164C06C002400F001000590E0204C
:1017A00000900220CDE901040520CDE903406946FF
:1017B0004FF09040FFF776F81A4D194880272860BF
:1017C0000A20C5E90104C5E903476C61AC61EC611D
:1017D00028462C62FFF706F808B1FEF732FFB56520
:1017E000AE62104D0E486035143028600B206860E2
:1017F00005F10801102081E891006C61AC61EC6199
:1018000028462C62FEF7EEFF08B1FEF71AFF756559
:10181000AE6207B0F0BD0000003001400010024091
:1018200058000240E0000020704770477047704742
:1018300070477047704710B5040003D094F83D001E
:1018400010B107E0012010BD002084F83C002046C4
:1018500000F022F8022084F83D00211D206800F0ED
:10186000DDFD012084F8480084F83E0084F83F0044
:1018700084F8400084F8410084F8420084F8430072
:1018800084F8440084F8450084F8460084F8470052
:1018900084F83D00002010BD7047000090F83D1016
:1018A000012901D001207047022180F83D10016814
:1018B000CA6842F00102CA600068104988420ED02E
:1018C000B0F1804F0BD00E49884208D00D498842B4
:1018D00005D00D49884202D00C49884207D1816861
:1018E0000B4A1140062906D0B1F5803F03D00168AC
:1018F00041F001010160002070470000002C014010
:101900000004004000080040003401400040014055
:101910000700010070472DE9F04104460068C668E1
:1019200005694FF00007A90713D5B10711D5F91EB6
:10193000016101202077206880698007204602D05D
:10194000FFF7E8FF04E000F0B7F8204600F0B5F834
:101950002777680716D5700714D521686FF0040043
:101960000861022020772068806910F4407F2046BB
:1019700002D0FFF7CFFF04E000F09EF8204600F011
:101980009CF82777280715D5300713D521686FF005
:1019900008000861042020772068C069800720467D
:1019A00002D0FFF7B7FF04E000F086F8204600F011
:1019B00084F82777E80616D5F00614D521686FF06D
:1019C00010000861082020772068C06910F4407F6B
:1019D000204602D0FFF79EFF04E000F06DF820469D
:1019E00000F06BF82777E80708D0F00706D02168E9
:1019F0006FF001000861204600F060F8280601D46D
:101A0000A80408D5300606D521686FF40250086195
:101A10002046FFF70AFFE80508D5300606D52168FD
:101A20006FF4807008612046FFF7FEFE680608D557
:101A3000700606D521686FF040000861204600F06E
:101A400047F8A80608D5B00606D521686FF0200033
:101A500008612046FFF7EAFEE80208D5F00206D545
:101A600021686FF4801008612046FFF7E1FEA802AC
:101A700008D5B00206D521686FF400100861204631
:101A8000FFF7D5FE680208D5700206D521686FF40D
:101A9000800008612046FFF7CCFE28020AD53002FC
:101AA00008D521686FF4000008612046BDE8F041C8
:101AB000FFF7C0BEBDE8F08170477047006803497A
:101AC000884201D1FFF71EB870470000002C01408A
:101AD000704790F88410012918D0012180F88410F3
:101AE0002421C0F8881001680A680B6823F00103FC
:101AF0000B6022F000510022426603681960202129
:101B0000C0F8881080F88420104670470220704783
:101B10007047704770B5044690F8840001281DD0C6
:101B2000012084F884002420C4F888002068056817
:101B3000026822F0010202602068826822F060627E
:101B40000A438260204600F0C7FC20680560202020
:101B5000C4F88800002084F8840070BD022070BDA5
:101B600070B5044690F8840001281DD0012084F847
:101B700084002420C4F8880020680568026822F0E8
:101B8000010202602068826822F060420A4382609B
:101B9000204600F0A1FC206805602020C4F88800E1
:101BA000002084F8840070BD022070BD704770472B
:101BB000704700002DE9F04103680446D8691968B0
:101BC0009A6840F60F0528424FF000054FF00206D4
:101BD0000AD187067ED501F0200702F0805C57EA23
:101BE0000C0777D0616F42E1B64FDFF8DCC21740D7
:101BF00001EA0C0C57EA0C0C6CD05FEAC07C0CD0EC
:101C00005FEAC15C09D54FF0010CC3F820C0D4F8DD
:101C1000903043F00103C4F89030830709D5D3070F
:101C200007D023681E62D4F8903043F00403C4F850
:101C3000903043070AD5D30708D0266804233362BF
:101C4000D4F8903043F00203C4F8903003070CD569
:101C500001F020033B4308D0266808233362D4F800
:101C6000903043F00803C4F8903003050BD54B01C6
:101C700009D526684FF400633362D4F8903043F0FE
:101C80002003C4F89030D4F89030002B3DD080066B
:101C900009D501F0200002F08051084303D0616FA4
:101CA00009B120468847D4F8900021688968490620
:101CB00002D410F0280F2AD0204600F0F3FC206850
:101CC000806840061ED52068083050E8001F21F0CB
:101CD000400100E021E040E80012002AF3D1D4F8EE
:101CE000800078B179498163D4F88000FEF7E0FC88
:101CF00000280AD0D4F88000816B00E02046BDE8BF
:101D0000F04108472046FFF753FFBDE8F081204629
:101D1000FFF74EFFC4F89050F7E7D4F86CC02027C7
:101D2000BCF1010F7ED15FEAC06C7BD55FEAC16C6C
:101D300078D51020186220688068400651D5D4F804
:101D400080100A6850680004000C3ED0B4F85C3083
:101D500083423AD9A4F85E000868006880062CD453
:101D6000216851E8000F20F4807041E80002002A49
:101D7000F6D12068083050E8001F21F0010140E84A
:101D80000012002AF5D12068083050E8001F21F029
:101D9000400140E80012002AF5D1C4F88C70E566D5
:101DA000216851E8000F20F0100041E80002002AED
:101DB000F6D1D4F88000FEF746FC2667B4F85C0044
:101DC000B4F85E10401A81B207E0B4F85C108142AA
:101DD0009BD11068800698D526672046FFF798FEAD
:101DE00093E7B4F85C00B4F85E10401A81B2B4F81E
:101DF0005E00002889D0002987D0226852E8000FB1
:101E000020F4907042E80003002BF6D12D4BDB4309
:101E10002068083050E8002F1A4040E8002CBCF140
:101E2000000F00E00EE0F3D1C4F88C70E566656742
:101E3000206850E8002F22F0100240E80023002B19
:101E4000F6D1C9E7C60209D5560207D54FF480106E
:101E500018622046BDE8F041FFF7A9BE03060AD587
:101E600001F0800302F40002134304D0A16F0029A3
:101E70007FF444AF49E7420611D54A060FD5204604
:101E8000016851E8002F22F0400241E80023002BB6
:101E9000F6D1C0F88870856700F040F935E7020296
:101EA00006D54A0004D52046BDE8F041FFF77EBEC6
:101EB000C00195D5002993DA2046BDE8F041FFF72F
:101EC00028BE000001000010200100049126000837
:101ED00010B5040003D0D4F8880010B107E0012049
:101EE00010BD002084F88400204600F027F824204C
:101EF000C4F888002068016821F001010160A06A2F
:101F000010B1204600F00AFB204600F0F5FB012846
:101F1000E6D02068416821F49041416020688168E2
:101F200021F02A0181602068016841F0010101600F
:101F30002046BDE8104000F055BB00002DE9F04FF1
:101F400097B00446142111A8FEF7BFFA4421684651
:101F5000FEF7BBFA6A4920686A4F022600254FF057
:101F600007094FF0904B4FF010084FF0800A88425D
:101F700069D10120CDE900056846FEF7E3FE08B10E
:101F8000FEF75FFB386E40F480403866386E00F430
:101F900080401690F86C40F00400F864F86C00F093
:101FA00004001690F86C40F00100F864F86CCDE97C
:101FB000126500F00100CDF844801495CDE915902C
:101FC0004F4611A95048FEF76DFC4FF48060CDE9F3
:101FD0001265CDE91457119011A95846FEF762FC1D
:101FE0004B4E4A48574630601820C6E90105C6E9FD
:101FF000035A7561B561F56130463562FEF7F2FB53
:1020000008B1FEF71EFBC4F88060B462404E3F4842
:10201000603614303060C6E903577561B561F5610B
:1020200019203562C6E901083046FEF7DBFB08B12E
:10203000FEF707FBE667002205212520B462FEF7C4
:10204000E9FD252057E03349884256D1684600967D
:102050000295FEF777FE08B1FEF7F3FAB86D40F48B
:102060000030B865B86D00F400301690F86C40F0A0
:102070000100F864F86CCDE9126500F001001690DB
:102080000C20CDE91459119011A95846FEF70AFC0D
:102090001F4E1E48C036283030601A20C6E90105A0
:1020A000C6E9035A7561B561F56157463046356238
:1020B000FEF798FB08B1FEF7C4FAC4F88060B4627A
:1020C0001248154E3C303060C6E903577561B56162
:1020D000F5611B203562C6E901083046FEF782FB38
:1020E00008B1FEF7AEFAE667002205212620B462A9
:1020F000FEF790FD2620FEF77FFD17B0BDE8F08FBC
:10210000003801400010024000080048080002406A
:10211000C802002000440040E80300207047FEE7AA
:10212000214808B5816C41F004018164816C01F0A3
:1021300004010091816C41F001018164806C0022F6
:1021400000F00100009005210B20FEF763FD0B203D
:10215000FEF752FD002205210C20FEF75BFD0C204E
:10216000FEF74AFD002205210D20FEF753FD0D204C
:10217000FEF742FD002205210E20FEF74BFD0E204A
:10218000FEF73AFD002205210F20FEF743FD0F2048
:10219000FEF732FD002205211020FEF73BFDBDE8D1
:1021A00008401020FEF728BD0010024000B585B0A1
:1021B000142206496846FEF756F90021684600F0E9
:1021C00061FC0349086005B000BD00006C340008E4
:1021D0000000002010B586B014216846FEF775F99E
:1021E0001648C16C41F02001C164C16C01F02001AE
:1021F0000591C16C41F00101C164C16C01F00101A4
:102200000591C16C41F00401C164C06C4FF0904471
:1022100000F004000590012210212046FEF766FC24
:1022200010200121CDE900010220CDE9021069460C
:102230002046FEF737FB06B010BD0000001002403C
:10224000124810B5104901604FF4827141600021BD
:102250004FF4E062C0E902120222026101224261EF
:10226000520282611822C0E9072107224162C0E9B7
:102270000A1201634163FFF7FFF9002803D0BDE8AC
:102280001040FEF7DEB910BD003001407C00002098
:10229000184810B5164901604FF4E1314160002142
:1022A00081600C22C160C0E904128161C1610162D8
:1022B00041628162FFF70CFE08B1FEF7C2F900210E
:1022C0000C48FFF74DFC08B1FEF7BBF900210948A7
:1022D000FFF720FC08B1FEF7B4F90648FFF7F9FB59
:1022E000002803D0BDE81040FEF7ABB910BD0000D8
:1022F00000380140A0010020184810B516490160BF
:102300004FF4E1314160002181600C22C160C0E9DD
:1023100004128161C161016241628162FFF7D8FDEF
:1023200008B1FEF78EF900210C48FFF719FC08B13F
:10233000FEF787F900210948FFF7ECFB08B1FEF72B
:1023400080F90648FFF7C5FB002803D0BDE8104020
:10235000FEF777B910BD00000044004034020020B1
:10236000FEE7FEE7012000F081FBFBE710B55020FF
:1023700080F31188BFF34F8FBFF36F8F00F0A8FF7A
:1023800018B104494FF080500860002080F3118894
:1023900010BD000004ED00E010B594B0382168468F
:1023A000FEF793F814210EA8FEF78FF80020FEF731
:1023B00063FC012000904FF4A0200324042101902D
:1023C000CDE9084102205521CDE90A1007900C9073
:1023D0000D906846FEF74EFF08B172B6FEE70F207B
:1023E000CDE90E04002010901190129004210EA847
:1023F000FEF7ECFD002801D072B6FEE714B010BD68
:102400000248016841F470010160704788ED00E006
:102410000148FFF780BA0000480400202DE9F0438E
:102420000268264B264D274E274C4FF08049984294
:1024300007D0484505D0A84203D0B04201D0A04201
:1024400003D122F070074A683A43204FDFF880C07A
:10245000DFF8808098420DD048450BD0A84209D0C3
:10246000B04207D0A04205D0B84203D0604501D0A9
:10247000404503D122F44075CA682A434D6922F0D1
:1024800080022A4302608A68C2620A6882629842B5
:1024900007D0A04205D0B84203D0604501D04045E6
:1024A00001D109690163012141610169C90703D0B3
:1024B000016921F001010161BDE8F083002C0140B8
:1024C000000400400008004000340140004001408A
:1024D000004401400048014030B5416EB9B1026886
:1024E00091689268C1F342610B4B520F9C5CE5000E
:1024F00003F10804A25CB5FBF2F2A0F86A205A5C72
:10250000615CD200B2FBF1F1A0F8681030BD01218E
:10251000A0F86A10F8E700009834000890F8281036
:10252000090706D501684A68836B22F400421A4302
:102530004A6090F82810C90706D001684A68C36A43
:1025400022F400321A434A6090F82810890706D511
:1025500001684A68036B22F480321A434A6090F89B
:102560002810490706D501684A68436B22F4802287
:102570001A434A6090F82810C90606D501688A688F
:10258000C36B22F480521A438A6090F8281089069F
:1025900006D501688A68036C22F400521A438A60E7
:1025A00090F82810490611D501684A68436C22F456
:1025B00080121A434A60416CB1F5801F06D1016850
:1025C0004A68836C22F4C0021A434A6090F82810CB
:1025D000090606D501684A68C06C22F4002202434D
:1025E0004A6070472DE9F84300260446C0F8906021
:1025F000FEF782FA8046206800684FF02005000749
:102600006FF07E4713D543460022290420460097E9
:1026100000F0ACF958B1216851E8000F20F08000BB
:1026200041E80002002AF6D1C4F8885021E0206871
:102630000068400722D5434600224FF4800120461F
:10264000009700F093F9C8B1216851E8000F20F419
:10265000907041E80002002AF6D12068083050E866
:10266000001F21F0010140E80012002AF5D1C4F852
:102670008C5084F884600320BDE8F883C4F8885047
:10268000C4F88C5044F86C6F666026760020F3E73F
:1026900010B5806A0021A0F85E10A0F85610FFF770
:1026A00087FA10BD10B5026852E8001F21F490713E
:1026B00042E80013002BF6D10E4B0268083252E8B4
:1026C000001F194042E80014002CF6D1C16E012908
:1026D00008D1016851E8002F22F0100241E80023E0
:1026E000002BF6D12021C0F88C100021C166416773
:1026F00010BD0000FEFFFFEF2DE9F0410446016828
:1027000080682269E3691043626900251A43104317
:10271000DFF82CC20A688B4B1A4002430A6020681B
:102720004168E26821F44051114341602168A06989
:10273000614501D0226A10438A68834B1A400243E4
:102740008A602068C16A626A21F00F011143C16288
:102750007E4923687E488B420DD1D0F8880010F066
:10276000030006D0012855D0022842D003283FD1CB
:1027700052E001203DE077498B420BD1D0F8880030
:1027800010F00C0035D0042833D0082840D00C2895
:102790002ED141E070498B420BD1D0F8880010F067
:1027A000300026D0102835D0202831D030281FD135
:1027B00032E06A498B420BD1D0F8880010F0C0009B
:1027C00017D0402826D0802822D0C02810D123E05E
:1027D00063450DD1D0F8880010F4406009D0B0F501
:1027E000806F17D0B0F5006F12D0B0F5406F13D0E6
:1027F00010205B495B4F00264FF4004263453BD1FC
:1028000060B1022813D004280BD0082872D10DE043
:102810000220EEE70420ECE70820EAE7FEF7DAFC06
:1028200001E0FEF7FBFC010001D17CE01146606A8B
:1028300037F810206768B1FBF2F007EB47038342DB
:1028400070D8B0EB073F6DD8002308461946FDF756
:1028500093FD090241EA10610202780810187141E3
:102860003A460023FDF788FD3F4AA0F540719142AA
:1028700058D82168C86056E0E3694FF6EF78934274
:102880002CD109284ED2DFE800F00508114D0D4D7E
:102890004D4D1000FEF79EFC01E0FEF7ADFC01007F
:1028A00004D140E0FEF7BAFCF9E71146606A37F858
:1028B0001000B1FBF0F04100606801EB5001B1FB8A
:1028C000F0F0A0F1100141452CD84FF6F071014015
:1028D000C0F3420001432068C16024E0092821D2EE
:1028E000DFE800F0050912200E2020201100FEF77D
:1028F00071FC02E016E0FEF77FFC010004D112E05B
:10290000FEF78CFCF9E71146606A37F81000B1FB5E
:10291000F0F1606801EB5001B1FBF0F0A0F11001A3
:1029200041450AD901250120A4F86A0024F8680F5E
:102930002846E6602661BDE8F08180B299E7000094
:1029400000800040F369FFCFFFF4FF110038014021
:10295000001002400044004000480040004C00408D
:102960000024F40080340008FFFC0F002DE9F0473C
:10297000994617460D4604464FF00008089E33E07E
:10298000701C31D0FEF7B8F8A0EB0900B04218D89F
:10299000BEB120680168490726D5802D24D0402D7E
:1029A00022D0C169C94309070DD408250562204614
:1029B000FFF778FEC4F8905084F884800120BDE8C9
:1029C000F0870320FBE7C069C04300050CD42168F1
:1029D0004FF4006008622046FFF764FE2020C4F830
:1029E000900084F88480ECE72068C06935EA000034
:1029F00004D00020B842C3D00020E0E70120F9E76E
:102A00000148FFF7D7B80000A00100200148FFF7F8
:102A1000D1B8000034020020FEE70907090E0028A3
:102A200004DB00F1E02080F80014704700F00F0094
:102A300000F1E02080F8141D7047FEF76BF8FFF7F7
:102A4000ABFCFFF7C7FBFFF76BFBFFF721FCFFF7C2
:102A500053FCFFF7F5FBFFF7A9FB00F00EF8FEE7CC
:102A600001460020842900D0C81C704710B500B969
:102A7000012000F0F7FA002010BD10B500F018FB9F
:102A8000002010BD3EB504460D46B0F90800FFF722
:102A9000E7FF02A9CDE90001208A2B4682B2D4E9E2
:102AA000001000F0E9FB012801D000203EBD029893
:102AB0003EBD00002DE9F041184C0F460546E66882
:102AC0002068001D00F010FA38B9206890F82C102A
:102AD00001208840216981432161681C07D137B1F9
:102AE0002168BDE8F0410E48091D00F036BA2068A3
:102AF0003544B5424560216805D2A06BBDE8F04180
:102B0000091D00F012BA606B091D00F00EFAA06AF0
:102B1000854200D2A562BDE8F081000014000020CB
:102B2000700500202DE9F041054600F023FA2E4CF7
:102B3000A068401CA06020682C4F10B1606940B3B1
:102B40002DE02560A068012829D1002606EB86002B
:102B500007EB800000F0DBF9761C072EF6D3234844
:102B60008C3000F0D4F92148A03000F0D0F91F4893
:102B7000B43000F0CCF91D48C83000F0C8F91B484B
:102B8000DC3000F0C4F919488C3060631430A06365
:102B900005E02068E96AC06A884200D82560606A5A
:102BA000401C6062E96A012022698840104320616C
:102BB00001EB810007EB8000291D00F0CEF900F049
:102BC000F9F9606900280CD02068E96AC06A884277
:102BD00007D207494FF080500860BFF34F8FBFF313
:102BE0006F8FBDE8F08100001400002094040020E5
:102BF00004ED00E010B50446006B00F0EFF920464C
:102C0000BDE8104000F0EAB910484FF440614207B7
:102C100006D0C01D0D4920F00700411AC1F54061E2
:102C20000B4A00230144C2E900030839183A21F095
:102C3000070111604B600B600B1AC0E90013936031
:102C40004FF0004053605061704700008405002041
:102C500068000020144E154CA6F1C8074FF08058AC
:102C6000DFF84C9012E000BF00F084F9F068C5680E
:102C7000281D00F039F9A068401EA0606068401E61
:102C8000606000F097F92846FFF7B4FF60680028FD
:102C9000EAD138680128F9D9C9F80080BFF34F8F0D
:102CA000BFF36F8FF2E700005C05002014000020E6
:102CB00004ED00E02DE9F0479A46DDE909848146FC
:102CC0006FF00303206B03EB82021044089E20F098
:102CD0000707780707D0502080F31188BFF34F8F84
:102CE000BFF36F8FFEE7002561B1002023180A5C57
:102CF00083F834200A5C12B1401C1028F6D384F803
:102D0000435001E084F83450072E00D30626E662D3
:102D1000C4E91165201D00F005F904F1180000F068
:102D200001F92461C6F107006462A061E56484F8DA
:102D3000505052464946384600F0C0F82060B8F17D
:102D4000000F01D0C8F80040BDE8F08730B5114948
:102D500000E011460A688242FBD34B685C1884424B
:102D600003D1406818444860084643681C189442E0
:102D700009D1084C183C2468A24209D052681A4470
:102D800042600A6812680260814200D0086030BD6B
:102D90000460F9E7680000200648416B096829B122
:102DA000416BC968C9684968816270474FF0FF315B
:102DB000FAE700001400002008484068401C4FF06B
:102DC000500080F3118804D0BFF34F8FBFF36F8F93
:102DD000FEE7BFF34F8FBFF36F8FFEE77000002059
:102DE0002DE9F0410546002700F096F9324E306893
:102DF00008B9FFF709FF706905424ED1C5B3083520
:102E000068070ED005F00700C0F108000544680708
:102E100007D0502080F31188BFF34F8FBFF36F8F1F
:102E2000FEE72DB37068854237D823481830014635
:102E30000C6801E020460C466168A94202D2216874
:102E40000029F7D131688C4227D0076821680160DA
:102E500060680837411B10290FD96019420708D054
:102E6000502080F31188BFF34F8FBFF36F8FFEE7C1
:102E700013E041606560FFF769FF61687068401AA0
:102E80007060B268904200D2B06070690143002067
:102E9000C4E90001F068401CF06000F07FFA780798
:102EA00007D0502080F31188BFF34F8FBFF36F8F8F
:102EB000FEE73846BDE8F0815000002010B5031F42
:102EC0004FF080741C601B1F21F001011960191F55
:102ED000044B0B6014390A60091F6FF0020244387A
:102EE0000A6010BDB92D0008D0E9013201699A606D
:102EF000D0E901235A604A68824201D182684A605F
:102F0000002202610868401E08600868704700F1EE
:102F100008014FF0FF32C0E90112C16001610021D8
:102F20000160704700210161704730B50B685A1C81
:102F300002D000F1080202E0026904E0224654686F
:102F400025689D42FAD953684B6099608A60516048
:102F500008610168491C016030BD42684A6093689D
:102F60008B6093685960916008610168491C016039
:102F700070470000502080F31188BFF34F8FBFF3DC
:102F80006F8F0A494868401C486001280CD10848E6
:102F9000006810F0FF0F07D0502080F31188BFF3B6
:102FA0004F8FBFF36F8FFEE7704700007000002067
:102FB00004ED00E00849486828B1401E486001D18E
:102FC00080F311887047502080F31188BFF34F8F32
:102FD000BFF36F8FFEE700007000002070B500287F
:102FE0002AD0164DA0F1080460686969084207D12B
:102FF000502080F31188BFF34F8FBFF36F8FFEE730
:1030000022683AB1502080F31188BFF34F8FBFF38D
:103010006F8FFEE78843606000F07EF86068696843
:10302000084468602046FFF791FE2869401C28612B
:10303000BDE8704000F0B2B970BD00005000002043
:103040004FF0E02000210161816105494FF47A725F
:103050000968B1FBF2F1491E416107210161704726
:103060001000002010B5020014D00F48006B38B1DA
:10307000502080F31188BFF34F8FBFF36F8FFEE7AF
:1030800000F04AF800211046FFF714FD00F086F921
:10309000002807D105494FF080500860BFF34F8FDB
:1030A000BFF36F8F10BD00001400002004ED00E09E
:1030B0001CB515480024CDE900402346802213A109
:1030C000144800F0D9F8012809D0401C1AD150202A
:1030D00080F31188BFF34F8FBFF36F8FFEE750204F
:1030E00080F31188BFF34F8FBFF36F8F06484FF007
:1030F000FF312C38816201214161C460BDE81C4070
:1031000000F040B81CBD00004000002049444C4580
:1031100000000000552C00080248016B491C0163A7
:1031200070470000140000201448016B11B1012108
:10313000C16170470021C1610169B1FA81F1C1F13A
:103140001F0101EB81020E4951F822306BB101EBF6
:10315000820101F108034A6852684A609A4201D12B
:1031600052684A60D16801607047502080F311882E
:10317000BFF34F8FBFF36F8FFEE7000014000020F6
:10318000940400201CB537480168374A914207D1A2
:10319000502080F31188BFF34F8FBFF36F8FFEE78E
:1031A00000683149491E884207D1502080F31188B8
:1031B000BFF34F8FBFF36F8FFEE72C490878019064
:1031C000FF20087008788DF800009DF800009DF839
:1031D000002000F0F000904207D0502080F31188CA
:1031E000BFF34F8FBFF36F8FFEE79DF80000204CB9
:1031F00000F0500020700720A06005E09DF800203E
:1032000052008DF80020401E9DF800201206F5D4D3
:10321000A060032807D0502080F31188BFF34F8FA0
:10322000BFF36F8FFEE74FF44070A0600198087005
:103230000C482030016841F470010160016841F0E0
:1032400070410160FFF7FCFE00206060FDF738F878
:103250000848016841F040410160FDF71DF8002079
:103260001CBD000000ED00E071C20F4100E400E071
:103270007000002034EF00E02DE9FF5F8346DDE9B8
:103280000E87994616468A469000FFF7A9FD05006D
:103290001AD05420FFF7A4FD040012D025630021AA
:1032A000CDE90241CDE900874B46324651465846AA
:1032B000FFF700FD2046FFF735FC012004B0BDE814
:1032C000F09F2846FFF78AFE4FF0FF30F6E7000038
:1032D0002DE9F0412F4C0026206B28B1A069401C3D
:1032E000A0613046BDE8F081E5686D1CE56013D152
:1032F000606B006838B1502080F31188BFF34F8FA6
:10330000BFF36F8FFEE7606BA16B6163A063206A00
:10331000401C2062FFF740FDA06ADFF87C808542F8
:1033200009D3606B0068A0B1606BC068C76878683B
:10333000854211D2A0622068C06A00EB800158F873
:103340002100012800D90126E0690028C9D0012602
:10335000C7E74FF0FF30EDE7381DFFF7C5FDB86A4E
:1033600018B107F11800FFF7BFFDF96A01202269C3
:1033700088401043206101EB810108EB8100391D79
:10338000FFF7EBFDF86A2168C96A8842C9D30126B4
:10339000C7E7000014000020940400202DE9F04746
:1033A0002C4D00242746286B38B1FFF7E3FD286B2E
:1033B000401E2863286B40B146E0502080F31188FE
:1033C000BFF34F8FBFF36F8FFEE7A968224E012036
:1033D000D1B3A6F1B40980463068E8B1F068C4689A
:1033E00004F11800FFF780FD201DFFF77DFDE06A66
:1033F0002A6908FA00F11143296100EB800109EB09
:103400008100211DFFF7A9FDE06A2968C96A884289
:10341000E2D3C5F81C80DFE70CB1FFF7BDFCAC6957
:1034200044B14646FFF754FF00B1EE61641EF9D186
:103430000020A861E86938B1084901273807086009
:10344000BFF34F8FBFF36F8FFFF7B4FD3846BDE872
:10345000F0870000140000204805002004ED00E083
:103460004FF04070E1EE100A70470000C0340008D1
:10347000652300080000000000000000800000003C
:10348000010002000400060008000A000C00100001
:10349000200040008000000101010103070100003D
:1034A00008040204080101010000000000000000FF
:1034B00001020304060708090000000001020304DA
:1034C00064656661756C745461736B00EC3400085C
:1034D000000000207C00000014020008683500088D
:1034E0007C0000206C170000300200080000000083
:1034F0001000000001000000000000000024F400A3
:1035000000000000000000000000000000000000BB
:1035100000000000000000000000000000000000AB
:10352000000000000000000000000000000000009B
:10353000000000000000000000000000000000008B
:10354000000000000000000000000000000000007B
:10355000000000000000000000000000000000006B
:08356000AAAAAAAA00000000BB
:04000005080001D915
:00000001FF
