:020000040800F2
:10000000B80E0020AD020008294800088D23000822
:1000100025480008850E0008554B00080000000028
:10002000000000000000000000000000ED010008DA
:10003000A90F00080000000049020008C54A000896
:10004000C7020008C7020008C7020008C70200086C
:10005000C7020008C7020008C7020008C70200085C
:10006000C7020008C7020008C7020008C70200084C
:10007000C7020008C7020008C7020008C70200083C
:10008000C702000800000000C7020008C7020008FD
:10009000C7020008C7020008C7020008C70200081C
:1000A000C7020008C7020008C7020008C70200080C
:1000B000C7020008C7020008C7020008C7020008FC
:1000C000C7020008C7020008C7020008C7020008EC
:1000D000C7020008C7020008C7020008C7020008DC
:1000E000C7020008C7020008C7020008C7020008CC
:1000F000C7020008C7020008C7020008000000008D
:1001000000000000C702000800000000C70200084D
:10011000C702000800000000C7020008C70200086C
:10012000C7020008C7020008C7020008C70200088B
:10013000C70200080000000000000000C70200081D
:10014000C7020008C702000800000000000000000D
:10015000000000000000000000000000000000009F
:10016000000000000000000000000000C7020008BE
:10017000C7020008000000000000000000000000AE
:1001800000000000C702000800000000000000009E
:10019000000000000000000000000000000000005F
:1001A0000000000000000000C7020008C7020008AD
:1001B000C7020008C7020008C702000800000000CC
:1001C00000000000C702000800000000000000005E
:1001D000C7020008C7020008DFF80CD000F068FD75
:1001E000004800470D540008B80E00202C4B196839
:1001F0000868B0E8F04F80F30988BFF36F8F4FF0C5
:10020000000080F311887047000000000848006873
:10021000006880F308884FF0000080F3148862B60D
:1002200061B6BFF34F8FBFF36F8F00DF00BF00BF1A
:1002300008ED00E0DFF80C00016841F47001016096
:10024000704700BF88ED00E0EFF30980BFF36F8FC8
:10025000134B1A681EF0100F08BF20ED108A20E91A
:10026000F04F106009B44FF0500080F31188BFF3D5
:100270004F8FBFF36F8F05F0A1F94FF0000080F3AF
:10028000118809BC19680868B0E8F04F1EF0100F1B
:1002900008BFB0EC108A80F30988BFF36F8F7047F6
:1002A00010000020EFF305807047000006488047EB
:1002B00006480047FEE7FEE7FEE7FEE7FEE7FEE74B
:1002C000FEE7FEE7FEE7FEE7414B0008D901000824
:1002D00070B405880E884468D1F804C05368B542EC
:1002E00008D140884988884201BF11888D425188D1
:1002F000884203D070BC6FF00200704705FB00F12C
:10030000880827D094ED001ADCED000A94ED010A6C
:10031000DCED011A31EE201AD4ED020A70EE211A3A
:100320009CED020A83ED001AC3ED011A94ED031A45
:10033000DCED031A30EE800A401E71EE210A83EDD7
:10034000020A04F11004C3ED030A03F110030CF1D7
:10035000100CD7D111F0030030D0B0F1004F30D2E3
:1003600000282BDD211F1B1FACF1040210F0010F30
:100370000AD091ED010AD2ED010A091D121D30EEDD
:10038000200A83ED010A1B1D400817D091ED010AD8
:10039000D2ED010A401E30EE200A83ED010A91EDF4
:1003A000020AD2ED020A01F1080102F1080230EE60
:1003B000200A83ED020A03F10803E7D170BC002094
:1003C0007047B4EC010A401EFCEC010A30EE200A32
:1003D000A3EC010AF5D1F1E7018042804360704748
:1003E0002DE9F34F84B0049840680090486801906C
:1003F0000498B0F800E04588DFEDFE0A0020029086
:10040000B0EE600AAE4506D108884988884204BF2C
:100410007146864504D06FF0020006B0BDE8F08F4B
:1004200001985FEA010C18BFB7EE001A3DD000BF7B
:10043000BEEB0C0117D0B1F1004F80F01F820029F4
:1004400011DD021F11F0010F1CBFC2ED010A121DC8
:100450004B1006D0C2ED010AC2ED020A08325B1E43
:10046000F8D100EB8100BCF10102A0EC011A19D017
:10047000B2F1004F80F00882002A13DD031F12F052
:10048000010F1CBFC3ED010A1B1D511008D000BF96
:10049000C3ED010AC3ED020A491E03F10803F7D1B7
:1004A00000EB8200BCF1010CC2D14FF000080395B3
:1004B000002D14BFB0EE602A002000F0BF8100BF05
:1004C000009908FB05F001EB800B0199DBED002A98
:1004D00001EB80000346F0EE421AC64552D9AEEB5E
:1004E0000802ABEB850112F0010F17D001EB85017B
:1004F00091ED000AB5EEC00AF1EE10FA07DDB4EE98
:10050000E10AF1EE10FA09DDF0EE401A06E0B1EE74
:10051000400AF4EEC01AF1EE10FAF5D3521031D0C1
:1005200001EB850C9CED000AB5EEC00AF1EE10FA65
:1005300005DDB4EEE10AF1EE10FA09DD06E0B1EEF8
:10054000400AF4EEC01AF1EE10FA01D2F0EE401AB1
:1005500001EBC50191ED000AB5EEC00AF1EE10FA0B
:1005600005DDB4EEE10AF1EE10FA09DD06E0B1EEC8
:10057000400AF4EEC01AF1EE10FA01D2F0EE401A81
:10058000521ECDD1F5EEC01AF1EE10FA00F07381D3
:10059000F5EEC02A0126F1EE10FA0099D4BFB1EEB3
:1005A000620AB0EE620AB4EE610AF1EE10FA1CBF04
:1005B000AEEB0802B2F1010C47D005FB08F201EBEB
:1005C000820292ED001A00BFB0EE410A05FB06F46C
:1005D000B5EEC00A00EB8404F1EE10FACCBFF0EEE9
:1005E000400AF1EE400AF4EE610AF1EE10FA28D169
:1005F000B5EB080C11D0BCF1004F7DD2BCF1000F5F
:100600000BDD00BF92ED000AD1ED000ABCF1010C38
:10061000E2EC010AA1EC010AF4D129000ED0B1F1FB
:10062000004F6AD2002909DD94ED000AD0ED000ADE
:10063000491EE4EC010AA0EC010AF5D10120029068
:100640000BE0761CBCF1010CBED10298012804D04D
:10065000F5EEC02AF1EE10FA7ED09BED000AB5EB64
:1006600008009A465946064622D0B0F1004F74D28F
:1006700000281DDD091F10F0010F06D0F0EE400A22
:1006800080EEA01A81ED011A091D401010D000BFA4
:10069000D1ED010A401E80EE801A81ED011A91ED24
:1006A000021AC1EE000AC1ED020A01F10801EFD100
:1006B000280026D0B0F1004F7ED2002821DDAAF11B
:1006C000040110F0010F06D0D1ED010A80EE801A6E
:1006D00081ED011A091D401013D000BFD1ED010AB0
:1006E000401E80EE801A81ED011AD1ED020A80EEE3
:1006F000801A81ED021A01E0CBE0D6E001F1080199
:10070000ECD1DDE900124FF000095FEA0E0773D06B
:10071000C14504BF01EB860102EB850274D091ED67
:10072000000ADC465046331E35D01C46B6F1004F59
:100730007ED2002C2FDD0B1FABF1040C16F0010F45
:100740000FD0F0EE400ADCED011AB0EE601A00EEB8
:10075000E11A83ED011A01E08DE0B1E01B1D0CF1FF
:10076000040C741015D000BFD3ED010A9CED011AE2
:1007700040EE410AC3ED010AD3ED020A9CED021AD4
:100780000CF1080C40EE410AC3ED020A0833641E66
:10079000EAD101EB86012B0036D0B3F1004F72D2C3
:1007A000002B31DDA2F1040CAAF1040013F0010FBB
:1007B0000CD0DCED010A00E08BE090ED011A001D89
:1007C00040EE410ACCED010A0CF1040C5C1019D08A
:1007D000DCED010A90ED011A40EE410ACCED010A70
:1007E000DCED020A90ED021A083040EE410ACCED31
:1007F000020A03E0000000000DE005E0641E0CF1B9
:10080000080CE5D102EB830201EB88017F1E09F1A0
:1008100001097FF47DAF009808F10108001D0090E8
:100820000398401E03907FF44BAE0299012900E02B
:1008300058E004BF06B0BDE8F08F00BFB5EEC00AB7
:10084000F1EE10FA7FF4E9AD04990EFB05F3002BED
:100850004A684FF000010BD902EB810C9CED000AB5
:10086000B5EEC00AF1EE10FA02D1491C8B42F3D862
:100870008B427FF4D2AD6FF00400CEE5E0EC010ACC
:10088000491EFBD1EFE538E0E0EC010A521EFBD136
:1008900008E692ED000AD1ED000ABCF1010CE2EC91
:1008A000010AA1EC010AF4D1B7E694ED000AD0EDFB
:1008B000000A491EE4EC010AA0EC010AF5D1BDE6EC
:1008C000D1ED000A401E80EE801AA1EC011AF7D18A
:1008D000EEE6D3ED000A401E80EE801AA3EC011A6A
:1008E000F7D10EE7BCEC011AD1ED000A5B1E40EE19
:1008F000410AE1EC010AF5D14DE7B0EC011AD2ED65
:10090000000A5B1E40EE410AE2EC010AF5D17BE7EA
:100910002DE9F04F82B046685368019305884788F7
:100920004B88002000900888874201BFB2F800C0C1
:100930006545528893421EBF6FF0020002B0BDE8C9
:10094000F08F9FED412A4FEA970EC7F3400B00BF8F
:10095000DDE9000202EB800A4A6898464FF0000980
:10096000B0EE420AB4465FEA0E0025D092ED001ABE
:10097000DCED001A02EB8302DCED010A01EE810AD4
:1009800092ED001A02EB8302401ED2ED001A02EB38
:10099000830200EE810A9CED021ADCED030A0004DA
:1009A0000CF1100C000C01EE210A92ED001A02EB82
:1009B000830200EE810AD9D117F0030026D0ACF1F2
:1009C0000404A2EB830210F0010F08D002EB8302B3
:1009D000D4ED010A92ED001A241D00EE810A5FEAAF
:1009E0000B0013D002EB830CD4ED010A9CED001A2E
:1009F00002EBC302401E00EE810AD4ED020A92ED22
:100A0000001A04F1080400EE810AEBD109F101009B
:100A1000AAEC010A1FFA80F9486800EB8902A8F1E4
:100A200001001FFA80F8B8F1000F99D1009806EB89
:100A30008706184480B20090681E05042D0C87D1EB
:100A400002B00020BDE8F08F0000000070B40588FF
:100A50000E884468D1F804C05368B54208D1408874
:100A60004988884201BF11888D425188884203D04D
:100A700070BC6FF00200704705FB00F1880827D0BA
:100A800094ED001ADCED000A94ED010ADCED011A88
:100A900031EE601AD4ED020A70EE611A9CED020A82
:100AA00083ED001AC3ED011A94ED031ADCED031A6D
:100AB00030EEC00A401E71EE610A83ED020A04F1B5
:100AC0001004C3ED030A03F110030CF1100CD7D18D
:100AD00011F0030030D0B0F1004F30D200282BDDF0
:100AE000211F1B1FACF1040210F0010F0AD091ED81
:100AF000010AD2ED010A091D121D30EE600A83EDD4
:100B0000010A1B1D400817D091ED010AD2ED010A20
:100B1000401E30EE600A83ED010A91ED020AD2ED2B
:100B2000020A01F1080102F1080230EE600A83EDC9
:100B3000020A03F10803E7D170BC00207047B4EC4F
:100B4000010A401EFCEC010A30EE600AA3EC010A27
:100B5000F5D1F1E72DE9F04F02884768B0F802803F
:100B60004888D1F8049082B04FF0000A16468242BD
:100B700007BF098888456FF0020002B018BFBDE8C2
:100B8000F08F4FEA980B02EB42000190C8F340004F
:100B9000CDF8000009EB8A01BBF1000F33D00198BA
:100BA00001EB820C01EB80043B46E64601EBC205FB
:100BB0004FEA0B0093ED000A401E81ED000A93ED11
:100BC000010A01EB02118CED000A93ED020A0CEB15
:100BD000021C85ED000A93ED030A05EB021584ED76
:100BE000000A04EB021403F11003E3D10EEB8200C0
:100BF00000EB820000EB8201ABF10100504307EBF8
:100C00000B1701EB001118F0030C21D03B1FA1EBD7
:100C100082011CF0010F06D093ED010A01EB820165
:100C20001B1D81ED000A009880B100BF93ED010A01
:100C300001EB820401EBC20184ED000A93ED020A8C
:100C4000401E81ED000A03F10803EFD107EB8C078A
:100C50000AF101001FFA80FA701E0604360C99D1C1
:100C600002B00020BDE8F08F40EA01039B0703D0EB
:100C700009E008C9121F08C0042AFAD203E011F8DB
:100C8000013B00F8013B521EF9D27047D2B201E09D
:100C900000F8012B491EFBD270470022F6E710B581
:100CA00013460A4604461946FFF7F0FF204610BDDA
:100CB000064C074D06E0E06840F0010394E80700A9
:100CC00098471034AC42F6D3FFF78AFABC580008B4
:100CD000DC58000870B58C1810F8015B15F007039C
:100CE00001D110F8013B2A1106D110F8012B03E0C5
:100CF00010F8016B01F8016B5B1EF9D12B0705D4CD
:100D00000023521E0DD401F8013BFAE710F8013B15
:100D1000CB1A921C03E013F8015B01F8015B521E31
:100D2000F9D5A142D8D3002070BDD2ED020A92EDD0
:100D3000021AB6EE000A00EEC10AD2ED030A92EDE5
:100D4000031A00EEC10AD0ED000A20EE200AD2ED0F
:100D5000010A92ED021A60EE810A92ED001AD2EDBC
:100D6000031A41EE610A90ED011A00EE810AD2EDFC
:100D7000010A92ED031A60EE810A92ED001AD2ED9B
:100D8000021A41EE210A90ED021A00EE810AF0EEFD
:100D9000000A20EE200A81ED000A92ED010AD2ED50
:100DA000020A20EE200AD2ED000A92ED031A00EEAC
:100DB000810AD0ED000A60EE200A92ED011AD2ED10
:100DC000011AB6EE000A01EE610AD2ED031A92EDA5
:100DD000032AB0EE401A01EEC21AD0ED011AB0EEAD
:100DE000600A01EE210AD2ED020A92ED031A60EECA
:100DF000810A92ED001AD2ED011A41EE610A90EDDE
:100E0000021A00EE810AF0EE000A20EE200A81EDBF
:100E1000010A92ED010AD2ED030A20EE200AD2ED7A
:100E2000000A92ED021A00EEC10AD0ED000A20EE8F
:100E3000200AD2ED020A92ED031A60EE810A92EDC9
:100E4000001AD2ED011A41EE210A90ED011A00EECE
:100E5000810A92ED011AD2ED011AF6EE000A41EE76
:100E6000610A92ED021AD2ED021A41EE610A90ED8A
:100E7000021A00EE810AF0EE000A20EE200A81ED4F
:100E8000020A704700BFFEE708B5084840680090B6
:100E9000074900980968884204D206480068401C47
:100EA0000449086002490098086008BD001000E08D
:100EB000800000207C0000200C494868F0EE400AC9
:100EC00000BF0A494968091A01EE101AF8EE411AE2
:100ED000074991ED001AB8EE411A20EE811AF4EE9E
:100EE000C11AF1EE10FAECD370470000001000E0D8
:100EF0007000002010B52DED028B82B004460E4824
:100F00004068019020680199081A00EE100AF8EE76
:100F1000400A0A4890ED000AB8EE400A80EE801AB6
:100F2000B0EE418A01982060FFF7AEFFB0EE480AAC
:100F300002B0BDEC028B10BD001000E0700000207C
:100F40001249096841F08071104A11600021104A6D
:100F500051601146096841F0010111600D4941439A
:100F60000D4A1160114609684FF47A72B1FBF2F133
:100F70000A4A116008490968064AB1FBF2F1084AB9
:100F800011600021074A116070470000FCED00E08D
:100F9000001000E040420F007000002074000020AC
:100FA000780000207C0000207047D2ED020A92ED0C
:100FB000021AB6EE000A00EEC10AD2ED030A92ED63
:100FC000031A00EEC10AD0ED000A20EE200AD2ED8D
:100FD000010A92ED021A60EE810A92ED001AD2ED3A
:100FE000031A41EE210A90ED011A00EE810AD2EDBA
:100FF000010A92ED031A60EE810A92ED001AD2ED19
:10100000021A41EE610A90ED021A00EE810AF0EE3A
:10101000000A20EE200A81ED000A92ED010AD2EDCD
:10102000020A20EE200AD2ED000A92ED031A00EE29
:10103000C10AD0ED000A60EE200A92ED011AD2ED4D
:10104000011AB6EE000A01EE610AD2ED031A92ED22
:10105000032AB0EE401A01EEC21AD0ED011AB0EE2A
:10106000600A01EE210AD2ED020A92ED031A60EE47
:10107000810A92ED001AD2ED011A41EE210A90ED9B
:10108000021A00EE810AF0EE000A20EE200A81ED3D
:10109000010A92ED010AD2ED030A20EE200AD2EDF8
:1010A000000A92ED021A00EE810AD0ED000A20EE4D
:1010B000200AD2ED020A92ED031A60EE810A92ED47
:1010C000001AD2ED011A41EE610A90ED011A00EE0C
:1010D000810A92ED011AD2ED011AF6EE000A41EEF4
:1010E000610A92ED021AD2ED021A41EE610A90ED08
:1010F000021A00EE810AF0EE000A20EE200A81EDCD
:10110000020A704772B600BFFEE7000070B50446E1
:1011100000F0FCF806462546681C10B1044800683B
:10112000054400BF00F0F2F8801BA842FAD370BD5E
:101130000800002078B502460B460021CAE00126CF
:101140008E401D6805EA0604002C73D01D7905F059
:101150000305012D04D01D7905F00305022D13D1DF
:1011600090684E000325B540A8434E00DD68B540A9
:1011700028439060506801258D40A8431D79C5F330
:1011800000158D40284350601D7905F00305032D9F
:1011900009D0D0684E000325B540A8434E009D6895
:1011A000B5402843D0601D7905F00305022D13D109
:1011B000CE0802F1200555F826004D07EE0E0F254A
:1011C000B540A8434E07F60E1D69B5402843CE082A
:1011D00002F1200545F8260010684E000325B540B1
:1011E000A8431D7905F003054E00B5402843106063
:1011F0005D6805F44035002D6BD000BF384D2D6E75
:1012000045F00105364E356635462D6E05F0010573
:10121000009500BF00BF4FEAB6358E0855F826008E
:101220008D072E0F0F25B540A843B2F1904F02D184
:1012300000251AE04DE02B4DAA4201D1012514E012
:10124000294DAA4201D102250FE0284DAA4201D121
:1012500003250AE0264DAA4201D1042505E0254DCB
:10126000AA4201D1052500E006258E07360FB540BC
:101270002843214D8E0845F82600204D2868A043BC
:101280005D6805F4801505B120431C4D28602D1DB7
:101290002868A0435D6805F4001505B12043174D8B
:1012A0002D1D2860154D2D1F2868A0435D6805F48D
:1012B000003505B12043114D2D1F28602D1F2868D2
:1012C000A0435D6805F4803505B120430B4D083D12
:1012D0002860491C1D68CD40002D7FF430AF78BDDB
:1012E000001002400004004800080048000C0048BC
:1012F00000100048001400480800014008040140A4
:101300000AB1816100E08162704700000148006815
:101310007047000000000020034800680349096886
:1013200008440149086070470000002008000020C0
:1013300010B50024032000F09BF80F2000F008F8FF
:1013400008B1012401E000F02FF8204610BD000094
:1013500070B50446002511480068D8B10F480068F0
:101360004FF47A71B1FBF0F00D490968B1FBF0F66A
:10137000304600F058FF58B9102C07D20022214601
:10138000501E00F037F80748046004E0012502E031
:10139000012500E00125284670BD0000080000205E
:1013A0000C0000200400002008B500BF1048006EAB
:1013B00040F001000E4908660846006E00F001008A
:1013C000009000BF00BF00BF0846806D40F0805015
:1013D00088650846806D00F08050009000BF00BF17
:1013E00000220F21901E00F005F800F0E1F808BD82
:1013F000001002402DE9F05F80460D46164603F0CE
:10140000BFFB074639462A46334601F00700C0F1C4
:10141000070ABAF1040F02D94FF0040A01E0C0F143
:10142000070AD14600F1040ABAF1070F02D24FF0C1
:10143000000A01E0A0F1030AD4464FF0010A0AFABB
:1014400009FAAAF1010A0AEA020A0AFA0CFA4FF0AA
:10145000010B0BFA0CFBABF1010B0BEA030B4AEA95
:101460000B042146404603F093FBBDE8F09F0000CB
:1014700000BF00F00702064B19684FF6FF03194042
:10148000044B0B4343EA0221014B196000BF704734
:101490000CED00E00000FA0502468ABB41480068F6
:1014A00000F4C060B0F5806F2BD13E4880300068FA
:1014B00020F480703B4BC3F880001846006820F48D
:1014C000C06040F400701860374800683223584309
:1014D000364BB0FBF3F0411C00E0491E3148406937
:1014E00000F48060B0F5806F01D10029F5D12D485E
:1014F000406900F48060B0F5806F51D103207047DF
:1015000008E028488030006820F48070254BC3F83C
:10151000800045E0B2F5007F3AD12248006800F42F
:10152000C060B0F5806F2AD11E488030006840F45A
:1015300080701C4BC3F880001846006820F4C0601F
:1015400040F4007018601848006832235843174B65
:10155000B0FBF3F0411C00E0491E1248406900F462
:101560008060B0F5806F01D10029F5D10D48406948
:1015700000F48060B0F5806F12D10320BFE7094806
:101580008030006840F48070064BC3F8800007E0AC
:101590000448006820F4C06040F48060014B18608B
:1015A0000020ACE7007000400C00002040420F001B
:1015B0000348806840F4804001498860704700001B
:1015C000007000402DE9F04104460D464FF0000840
:1015D00014B90120BDE8F0817D48006800F00F00DB
:1015E000A8420ED27A48006820F00F0028437849BC
:1015F00008600846006800F00F00A84201D00120F2
:10160000E8E7207800F00100002864D06068032833
:1016100023D17048006800F0007008B90120D9E7B4
:1016200003F004F906466C48864237D96948806859
:1016300000F0F00030B1207800F0020002282DD137
:10164000A06858BB6348806820F0F00040F080003C
:10165000604988604FF0800820E06068022806D169
:101660005C48006800F4003040B90120B2E75948F6
:10167000006800F4806008B90120ABE700F0B4F81E
:1016800006465548864209D95248806820F0F00045
:1016900040F080004F4988604FF080084D488068D6
:1016A00020F00300616808434A498860FFF72EFE76
:1016B000074608E0FFF72AFEC01B41F28831884246
:1016C00001D9032086E74348806800F00C00616878
:1016D000B0EB810FEED1207800F00200022820D17B
:1016E000207800F00400042805D13A48806840F4CE
:1016F000E06038498860207800F00800082807D1A9
:101700003448806820F4605040F4E06031498860DB
:101710003048806820F0F000A16808432D498860B7
:1017200008E0B8F1800F05D12A48806820F0F00069
:10173000284988602648006800F00F00A84219D99F
:101740002348006820F00F00284321490860FFF774
:10175000DDFD074608E0FFF7D9FDC01B41F28831E7
:10176000884201D9032035E71948006800F00F00CE
:10177000A842F0D1207800F00400042807D11548D1
:10178000806820F4E060E1680843124988602078AE
:1017900000F00800082808D10E48806820F4605046
:1017A000216940EAC1000B49886000F01DF8094931
:1017B0008968C1F30311094A515C01F01F01C84057
:1017C0000749086007480068FFF7C2FD02E700000C
:1017D000002002400010024000B4C404E457000896
:1017E0000C0000200400002070B5224DAD6805F00B
:1017F0000C05042D01D120483AE01E4DAD6805F0DE
:101800000C05082D01D11C4832E01A4DAD6805F0D9
:101810000C050C2D2BD1174DED6805F00304154D6B
:10182000ED68C5F303156A1C022C0CD0032C09D1FA
:10183000114DB5FBF2F50F4EF668C6F3062605FB13
:1018400006F10AE000BF0C4DB5FBF2F5094EF66853
:10185000C6F3062605FB06F100BF00BF054DED6887
:10186000C5F341656D1C6B00B1FBF3F000E0002097
:1018700070BD0000001002400024F4002DE9F84380
:10188000044614B90120BDE8F883207800F0010077
:10189000002865D0FC48806800F00C07FA48C06852
:1018A00000F003060C2F01D1032E01D0082F0AD11E
:1018B000F548006800F40030002851D06068002826
:1018C0004ED10120DFE700BF6068B0F5803F06D150
:1018D000ED48006840F48030EB4908601AE0606829
:1018E000B0F5A02F0BD1E848006840F48020E6490D
:1018F00008600846006840F4803008600AE0E2486A
:10190000006820F48030E04908600846006820F450
:101910008020086000BF606888B1FFF7F7FC0546CB
:1019200006E0FFF7F3FC401B642801D90320AAE777
:10193000D548006800F400300028F2D010E0FFF72E
:10194000E5FC054606E0FFF7E1FC401B642801D9F1
:10195000032098E7CC48006800F400300028F2D15A
:10196000207800F00200022860D1C748806800F0AB
:101970000C07C548C06800F003060C2F01D1022EE9
:1019800001D0042F18D1C048006800F4806018B15D
:10199000E06808B9012076E7BB48406820F0FE40C7
:1019A000217C40EA0160B8494860B8480068FFF708
:1019B000CFFC18B3012066E7E06800B3B2480068C6
:1019C00040F48070B0490860FFF7A0FC054606E0CF
:1019D000FFF79CFC401B022801D9032053E7AA48CB
:1019E000006800F480600028F2D0A748406820F02A
:1019F000FE40217C40EA0160A349486016E0A2480D
:101A0000006820F48070A0490860FFF77FFC05465D
:101A100006E0FFF77BFC401B022801D9032032E7D8
:101A20009948006800F480600028F2D1207800F026
:101A30000800082836D16069D0B193489430006816
:101A400040F001009049C1F89400FFF75FFC0546A3
:101A500006E0FFF75BFC401B022801D9032012E7D8
:101A600089489430006800F002000028F1D019E0A5
:101A700085489430006820F001008349C1F8940043
:101A8000FFF744FC054606E0FFF740FC401B022838
:101A900001D90320F7E67C489430006800F002008A
:101AA0000028F1D1207800F00400042872D14FF012
:101AB00000087548806D012121EA107078B100BFDF
:101AC0007148806D40F080506F4988650846806D90
:101AD00000F08050009000BF00BF4FF001086C483C
:101AE000006800F48070B0B96948006840F4807004
:101AF00067490860FFF70AFC054606E0FFF706FCA9
:101B0000401B022801D90320BDE66148006800F4AB
:101B100080700028F2D000BFA068012808D15A4880
:101B20009030006840F001005749C1F8900021E072
:101B3000A06805280FD154489030006840F0040098
:101B40005149C1F890000846D0F8900040F00100DB
:101B5000C1F890000EE04C489030006820F0010081
:101B60004949C1F890000846D0F8900020F00400E0
:101B7000C1F8900000BFA068A8B1FFF7C7FB0546F9
:101B800009E0FFF7C3FB401B41F28831884202D9CC
:101B9000032078E625E03C489030006800F0020021
:101BA0000028EED013E0FFF7B1FB054608E0FFF791
:101BB000ADFB401B41F28831884201D9032062E627
:101BC00031489030006800F002000028EFD1B8F1F1
:101BD000010F05D12C48806D20F080502A4988657E
:101BE00000BF207800F02000202836D1A069D0B1B5
:101BF00025489830006840F001002349C1F898005A
:101C0000FFF784FB054606E0FFF780FB401B022838
:101C100001D9032037E61C489830006800F0020024
:101C20000028F1D019E018489830006820F0010031
:101C30001549C1F89800FFF769FB054606E0FFF774
:101C400065FB401B022801D903201CE60E48983092
:101C5000006800F002000028F1D1E069002860D09F
:101C60000948806800F00C000C287AD0E06902284E
:101C700058D10548006820F0807003490860FFF7DC
:101C800045FB05460DE00000001002400400002066
:101C900000700040FFF73AFB401B022801D90320E7
:101CA000F1E54A48006800F000700028F2D1D4E95C
:101CB0000810401E41EA0011A06A41EA0021208E6E
:101CC0000122C2EB500041EA40513420005DC2EBDA
:101CD000500041EA40612C20005D41EAC0603B4970
:101CE000C9683B4A114008433849C8600846006843
:101CF00040F0807008600846C06840F08070C8609E
:101D0000FFF704FB054606E0FFF700FB401B022837
:101D100001D90320B7E52D48006800F000700028C5
:101D2000F2D051E02948006820F08070274908600F
:101D3000FFF7ECFA054606E0FFF7E8FA401B022839
:101D400001D903209FE52148006800F000700028B9
:101D5000F2D11E48C0681F4908401C49C86033E0E2
:101D6000FFE7E069012800D18DE51848C66806F054
:101D70000301206A814225D106F0F001606A401E0D
:101D8000B1EB001F1ED106F4FE41A06AB1EB002F9B
:101D900018D106F078412C20005DB1EBC06F11D155
:101DA00006F4C001208E0122C2EB5000B1EB405F6F
:101DB00008D106F0C0613420005DC2EB5000B1EBE9
:101DC000406F01D001205EE500205CE5001002407C
:101DD0000C809F01FCFFEEFE70B504460CB901209B
:101DE00070BD606A38B96068B0F5827F00D105E0E7
:101DF0000021E16102E00021216161610021A16215
:101E000094F85D0028B9002084F85C00204600F0BA
:101E100061F8022084F85D002068006820F040002E
:101E200021680860E068B0F5E06F01D9002501E0A5
:101E30004FF48055E068B0F5706F05D0E068B0F5FC
:101E4000E06F01D00021A162A08800F48270218996
:101E500001F404410843217C01F002010843217D83
:101E600001F001010843218B01F400710843217F37
:101E700001F0380108432021095D01F08001084389
:101E8000218D01F400510843216808600421A069F4
:101E900001EA104094F8241001F01001084394F86E
:101EA000341001F008010843A18901F4706108436E
:101EB00005F480510843216848602068C06920F417
:101EC00000602168C86100202066012084F85D0060
:101ED000002085E710B586B00446142101A8FEF75E
:101EE000DCFE18492068884229D100BF1648006EE0
:101EF00040F48050144908660846006E00F4805093
:101F0000009000BF00BF00BF0846C06C40F0010059
:101F1000C8640846C06C00F00100009000BF00BF1C
:101F2000E020019002200290002003900320049002
:101F30000520059001A94FF09040FFF7FBF806B08F
:101F400010BD000000300140001002402DE9FE4F9E
:101F500004460F4690461D460C9E01200090FFF758
:101F6000D5F9824694F85DB060680190A946029563
:101F7000BBF1010F0BD00198B0F5827F04D1A068AE
:101F800010B9BBF1040F02D00220BDE8FE8F1FB1D3
:101F9000B8F1000F00D00DB90120F6E700BF94F8AA
:101FA0005C00012801D10220EFE7012084F85C00E9
:101FB00000BF94F85D00042802D0052084F85D007D
:101FC00000202066C4F84080A4F84650A4F844508D
:101FD000A763E587A587E0642065E068B0F5E06F5A
:101FE00002D80298012806D92068406820F4805061
:101FF0002168486005E02068406840F4805021680E
:1020000048602068006800F04000402805D0206843
:10201000006840F0400021680860E068B0F5E06FBB
:1020200056D9606810B1B9F1010F09D1A06B0088D1
:102030002168C860A06B801CA063E08F401EE08711
:102040003EE02068806800F00200022810D1E08F96
:1020500070B1009801280BD1A06B00882168C8607E
:10206000A06B801CA063E08F401EE08700200090E2
:102070002068806800F0010080B1B4F8460068B1C3
:102080002068C068216C0880206C801C2064B4F833
:102090004600401EA4F8460001200090FFF736F9E4
:1020A000A0EB0A00B0420BD3701C48B1012084F8A9
:1020B0005D0000BF002084F85C0000BF032064E7DF
:1020C000E08F0028BDD1B4F846000028B9D18DE0DA
:1020D000606810B1B9F1010F17D1E08F01280AD95A
:1020E000A06B00882168C860A06B801CA063E08F93
:1020F000801EE08709E0A06B007821680873A06B60
:10210000401CA063E08F401EE08768E02068806884
:1021100000F0020002281ED1E08FE0B100980128F3
:1021200019D1E08F01280AD9A06B00882168C86006
:10213000A06B801CA063E08F801EE08709E0A06B8D
:10214000007821680873A06B401CA063E08F401EDC
:10215000E087002000902068806800F0010058B3FC
:10216000B4F8460040B3B4F84600012816D92068F8
:10217000C068216C0880206C801C2064B4F8460084
:10218000801EA4F84600B4F84600012812D8206842
:10219000406840F48050216848600BE02068007B74
:1021A000216C0870206C401C2064B4F84600401E6E
:1021B000A4F8460001200090FFF7A8F8A0EB0A0061
:1021C000B04201D3701C00B94EB9012084F85D0003
:1021D00000BF002084F85C0000BF0320D5E6E08F3C
:1021E000002893D1B4F8460000288FD152463146DA
:1021F000204602F04DFB40B12020206600BF0020A9
:1022000084F85C0000BF0120BFE6012084F85D0077
:1022100000BF002084F85C0000BF206E08B10120E0
:10222000B3E60020B1E670B504462546681EB0F15D
:10223000807F01D301200FE0681E4FF0E02148614C
:102240000F214FF0FF3002F0A3FC00204FF0E021FF
:10225000886107200861002070BD000070B5044649
:1022600000202074A37B484D2D8803FB05F2616894
:10227000D4F8F400FEF7F8FCA27B434B1B8802FB6A
:1022800003F16068FEF709FDA27B3F4B1B885A43B0
:10229000A37B02FB03F1D4F81801FEF7FEFC227BBE
:1022A000394B1B885A43A37B02FB03F1D4F80C0182
:1022B000FEF7F3FC002031E0D4F8F41001EB8001CC
:1022C00091ED000AB5EEC00AF1EE10FA24D0D4F870
:1022D000F41001EB800191ED000A227CD4F8F41097
:1022E00001EB820181ED000A227C616A8854A169B8
:1022F00001EB800191ED000A6169095C227B237C7E
:1023000012FB0311491ED4F80C2102EB810181ED6F
:10231000000A217C491C2174411CC8B2A17B814266
:10232000CADC002011E0626A125CE16901EB820103
:1023300091ED000A227C00FB0202D4F8181101EB97
:10234000820181ED000A411CC8B2217C8142EADC95
:10235000207CA4F87800217B7A200153207BA4F80C
:102360008000217C82200153207CA4F89000217CF5
:1023700092200153207BA4F89800217C9A200153DD
:10238000207CA4F8480070BD4C01002000BFFEE78F
:1023900010B5002210214FF09040FEF7B1FFFE492A
:1023A000752000F0FAFA012210214FF09040FEF75C
:1023B000A7FF002210214FF09040FEF7A1FFF5206B
:1023C00000F0F8FA0122F449752000F0D3FA012256
:1023D00010214FF09040FEF793FF002210214FF0A4
:1023E0009040FEF78DFFEC49752000F0D6FA0122EF
:1023F00010214FF09040FEF783FF002210214FF094
:102400009040FEF77DFF0021762000F0E3FA0122E4
:1024100010214FF09040FEF773FF002210214FF083
:102420009040FEF76DFF0121762000F0D3FA0122E3
:1024300010214FF09040FEF763FF6420FEF766FE28
:10244000D548007847287CD1002210214FF09040D9
:10245000FEF756FF0121762000F0BCFA0122102180
:102460004FF09040FEF74CFF002210214FF09040BB
:10247000FEF746FF02217A2000F0ACFA012210217B
:102480004FF09040FEF73CFF002210214FF09040AB
:10249000FEF736FF0021762000F09CFA0122102181
:1024A0004FF09040FEF72CFF002210214FF090409B
:1024B000FEF726FF4021162000F08CFA01221021A1
:1024C0004FF09040FEF71CFF002210214FF090408B
:1024D000FEF716FFB049652000F05FFA01221021D7
:1024E0004FF09040FEF70CFF002210214FF090407B
:1024F000FEF706FF0021652000F06CFA0122102192
:102500004FF09040FEF7FCFE002210214FF090406B
:10251000FEF7F6FE0021602000F05CFA0122102197
:102520004FF09040FEF7ECFE002210214FF090405B
:10253000FEF7E6FE0221612000F04CFA0122102194
:1025400000E011E24FF09040FEF7DAFE0022102189
:102550004FF09040FEF7D4FE8F480178652000F0E0
:1025600039FA012210214FF09040FEF7C9FE0022F7
:1025700010214FF09040FEF7C3FE63215F2000F072
:1025800029FA012210214FF09040FEF7B9FE0022F7
:1025900010214FF09040FEF7B3FE0021762000F0AE
:1025A00019FA012210214FF09040FEF7A9FE0022F7
:1025B00010214FF09040FEF7A3FE3621142000F0CA
:1025C00009FA012210214FF09040FEF799FE0022F7
:1025D00010214FF09040FEF793FE0021762000F08E
:1025E000F9F9012210214FF09040FEF789FE0022F8
:1025F00010214FF09040FEF783FE6749652000F000
:10260000CCF9012210214FF09040FEF779FE62488C
:10261000007840F0040060490870002210214FF05B
:102620009040FEF76DFE5C480178652000F0D2F91D
:10263000012210214FF09040FEF762FE002002F0D0
:1026400031FD002210214FF09040FEF759FE00218D
:10265000762000F0BFF9012210214FF09040FEF7E4
:102660004FFE002210214FF09040FEF749FE4A49EC
:10267000502000F092F9012210214FF09040FEF717
:102680003FFE45480078444908700846007840F00D
:1026900006000870002210214FF09040FEF730FE37
:1026A0003D480178502000F095F9012210214FF0AB
:1026B0009040FEF725FE002002F022FD00221021AE
:1026C0004FF09040FEF71CFE0021762000F082F9CA
:1026D000012210214FF09040FEF712FE002210213F
:1026E0004FF09040FEF70CFE2B494F2000F055F9BB
:1026F000012210214FF09040FEF702FE264800789C
:10270000254908700846007840F00600087000224D
:1027100010214FF09040FEF7F3FD1F4801784F2045
:1027200000F058F9012210214FF09040FEF7E8FD2B
:10273000002210214FF09040FEF7E2FD01217620AB
:1027400000F048F9012210214FF09040FEF7D8FD2B
:10275000002210214FF09040FEF7D2FDA0210B2067
:1027600000F038F9012210214FF09040FEF7C8FD2B
:10277000002210214FF09040FEF7C2FD0C210846C8
:1027800000F028F9012210214FF09040FEF7B8FD2B
:102790000022102102E00000640000204FF0904071
:1027A000FEF7AEFD90210D2000F014F9012210215A
:1027B0004FF09040FEF7A4FD002210214FF0904012
:1027C000FEF79EFD80210E2000F004F90122102169
:1027D0004FF09040FEF794FD002210214FF0904002
:1027E000FEF78EFD0221762000F0F4F80122102180
:1027F0004FF09040FEF784FD002210214FF09040F2
:10280000FEF77EFD1821032000F0E4F801221021DC
:102810004FF09040FEF774FD002210214FF09040E1
:10282000FEF76EFD9021042000F0D4F80122102163
:102830004FF09040FEF764FD002210214FF09040D1
:10284000FEF75EFD8021052000F0C4F80122102172
:102850004FF09040FEF754FD002210214FF09040C1
:10286000FEF74EFD0021762000F0B4F80122102181
:102870004FF09040FEF744FD002210214FF09040B1
:10288000FEF73EFD1221512000F0A4F80122102194
:102890004FF09040FEF734FD002210214FF09040A1
:1028A000FEF72EFD0521532000F094F8012210219F
:1028B0004FF09040FEF724FD002210214FF0904091
:1028C000FEF71EFD3321522000F084F80122102172
:1028D0004FF09040FEF714FD002210214FF0904081
:1028E000FEF70EFD0021762000F074F80122102181
:1028F0004FF09040FEF704FD002210214FF0904071
:10290000FEF7FEFC19494E2000F047F80122102185
:102910004FF09040FEF7F4FC1448007820F02000BF
:10292000124908700846007840F00C00087008460C
:10293000007840F003000870002210214FF0904012
:10294000FEF7DEFC094801784E2000F043F8012232
:1029500010214FF09040FEF7D3FC0120FEF7D6FB8C
:1029600001200349087010BD0020FCE7640000202E
:10297000650000202DE9F04107460C46154600266B
:1029800000BF06E0207800F015F82070641C701C71
:10299000C6B2AE42F6DBBDE8F08170B504460D4626
:1029A000FF2644F0800000F005F8304600F002F801
:1029B000287070BD01B582B00520012301AA02A9CB
:1029C00000900348FFF7C2FA9DF804000EBD000016
:1029D0003002002070B505460C462846FFF7EAFF96
:1029E0002046FFF7E7FF70BD10B586B0834802F0C0
:1029F000D7FB834A07CA03AB07C38248FEF77AFABC
:102A0000814880ED000A814890ED000A7E48D0EDB3
:102A1000000A30EE200A7D4880ED000A9FED7C0A16
:102A20007C4880ED100A754890ED000A794880EDE9
:102A3000070A724890ED010A764880ED080A6F484F
:102A400090ED020A734880ED090A6C4890ED030A84
:102A5000704880ED040A694890ED040A6D4880EDE5
:102A6000050A664890ED050A6A4880ED060A90ED71
:102A7000091AF0EE410A90ED071AB0EE410A02F091
:102A8000BDF9B1EE400ADFED640A20EE200ADFED69
:102A9000630A80EE201A5F4880ED1A1A90ED091A39
:102AA000F0EE410A90ED081AB0EE410A02F0A6F9E4
:102AB000DFED590A20EE200ADFED580A80EE201AD9
:102AC000544880ED1B1A90ED093AF0EE432A90ED40
:102AD000083AB0EE432A90ED073AF0EE431A90ED33
:102AE000063AB0EE431A90ED053AF0EE430A90ED47
:102AF000043AB0EE430A444890ED003A00F0FCFA84
:102B000044494748D0E91534026DC06D81E81C0086
:102B1000C8600A4644314348FEF707F93D4A02F1CE
:102B200050014148FEF701F93A4A02F15C013F4881
:102B3000FEF7FBF8374A694603A8FEF736FA00208D
:102B400039E034491C3101EB800191ED000A6946FE
:102B500001EB8001D1ED000A30EE600A2A49D1ED87
:102B6000000A60EE200A2B4991ED100A264991EDEA
:102B7000001A30EE011A80EE810A2649283101EB55
:102B80008001D1ED000A234991ED101A60EE810A0F
:102B900091ED101A1C49D1ED001A31EE211AC0EE48
:102BA000811A30EE210A1B49283101EB800181EDA9
:102BB000000A411CC8B20328C3DB164A02F13401E3
:102BC000A1F10C00FEF7B1F8194890ED6A0A11481E
:102BD00080ED1E0A164890ED690A0E4880ED1D0A28
:102BE000134890ED680A0B4880ED1C0A104890EDE0
:102BF0006B0A084880ED1F0A06B010BD8403002050
:102C000020580008380100203C010020400100202D
:102C10000AD7233CC403002000003443DB0F4940A3
:102C200048050020FC570008085800081458000800
:102C30004804002010B5044654F8EC0F90ED000A4B
:102C4000834880ED000A206890ED010A814880EDFC
:102C5000000A206890ED020A7F4880ED000A54F8CF
:102C6000EC0990ED030A7D4880ED000A7848D0ED2C
:102C7000000A60EEA00A774890ED001AD0ED001A25
:102C800041EE210A744890ED001AD0ED001A41EE91
:102C9000210A724890ED001AD0ED001A41EE210A87
:102CA000B0EE600A02F094FB6D4880ED000A00204F
:102CB00012E0D4F8EC1001EB800191ED000A6849B4
:102CC000D1ED000A20EE200AD4F8EC1001EB8001CF
:102CD00081ED000A411CC8B20428EADB614890ED8E
:102CE0006F0A5C48D0ED000A20EE200AF0EE000AE0
:102CF00080EE201AF834A06880ED041A594890ED4F
:102D00006F0A5548D0ED000A20EE200AF0EE000AC6
:102D100080EE201AA06880ED051A524890ED6F0AE7
:102D20004B48D0ED000AF1EE600A20EE200AF0EEEA
:102D3000000A80EE201AA06880ED0A1A494890ED3A
:102D40006F0A4648D0ED000A20EE200AF0EE000A95
:102D500080EE201AA06880ED0B1A424890ED6F0AB1
:102D60003E48D0ED000AF1EE600A20EE200AF0EEB7
:102D7000000A80EE201AA06880ED101A394890ED04
:102D80006F0A3348D0ED000AF1EE600A20EE200A07
:102D9000F0EE000A80EE201AA06880ED111A31488A
:102DA00090ED6F0A2C48D0ED000A20EE200AF0EEDC
:102DB000000A80EE201AA06880ED161A294890EDCE
:102DC0006F0A2448D0ED000AF1EE600A20EE200AD6
:102DD000F0EE000A80EE201AA06880ED171A206835
:102DE00090ED1C0A1F48D0ED740A80EE201A20686E
:102DF00080ED1C1A206890ED230A1A48D0ED740A61
:102E000080EE201A206880ED231A54F8F80990ED1E
:102E10001C0ADFED150AB4EEE00AF1EE10FA05DD4A
:102E20009FED110AD4F8F80080ED1C0AD4F8F800E0
:102E300090ED230ADFED0C0AB4EEE00AF1EE10FA91
:102E400005DD9FED090AD4F8F80080ED230A10BDD6
:102E5000F0010020F4010020F8010020FC01002016
:102E6000000200204804002000401C4610B52DED53
:102E7000068BF0EE408AB0EE60AAB0EE419AB0EE5A
:102E8000618AF0EE429A01203A4908700846C0ED86
:102E90006C8A80ED6DAA80ED6E9A9FED370A80ED09
:102EA000730A002081F838010A46C2F84001C2F8CE
:102EB00044010021C2F84811C2F84C11B7EE000AD3
:102EC000B4EEC08AF1EE10FA03DDB7EE000AB0EE00
:102ED000408A284880ED748AC0ED649A032300225A
:102EE0000621001D00F0A6FE244B01221146A3F18D
:102EF0000800FDF771FAB7EE000A1E48D0F8EC00A2
:102F000080ED000A9FED1E0A1A48D0F8EC0080ED13
:102F1000010A9FED1B0A1748D0F8EC0080ED020A69
:102F20009FED170A1348D0F8EC0080ED030A15490D
:102F30001048C0F8D0101449C0F8D4101349C0F894
:102F4000D8101349C0F8DC10012180F82E1080F849
:102F50002F1001469022D1F804010E49FDF784FE9E
:102F600004499022D1F8FC000B49FDF77DFEBDEC31
:102F7000068B10BD4804002077CC2B3210060020B1
:102F8000000000009D2F0008352C0008D12F0008FC
:102F90002D3700082C5800085001002010B50446B9
:102FA00054F8F81F90220748FDF75EFE48220648B5
:102FB000616AFDF759FE6169F83C48220348FDF754
:102FC00053FE10BD5001002028060020700600208E
:102FD00010B5044654F8EC0F90ED000AF0EE000A2C
:102FE00020EE200A3F4880ED000A206890ED010A9B
:102FF000F0EE000A20EE200A3B4880ED000A20682F
:1030000090ED020AF0EE000A20EE200A374880ED2B
:10301000000A206890ED030AF0EE000A20EE200A74
:10302000334880ED000A14F8DE2C324B1B885A43DB
:1030300014F8E03C02FB03F1206AFDF72EFE2B485A
:1030400090ED000AB1EE400A206A80ED000A28489F
:1030500090ED000A206A80ED010A224890ED000AF6
:10306000B1EE400A206A80ED020A1F4890ED000A86
:10307000206A80ED030A1C4890ED000A206A80ED6A
:10308000060A184890ED000A206A80ED070A1848E1
:1030900090ED000A206A80ED080A144890ED000ABD
:1030A000206A80ED090A0F4890ED000A206A80ED41
:1030B0000C0A0D4890ED000AB1EE400A206A80ED3E
:1030C0000D0A0A4890ED000AB1EE400A206A80ED30
:1030D0000E0A074890ED000A206AEC3C80ED0F0ACA
:1030E00010BD000004020020080200200C02002095
:1030F000100200204C01002010B52DED088BB0EE21
:1031000040AAF0EE60AAB0EE41BAF0EE618AB0EEED
:10311000429AF0EE629AB0EE438AFE48007858B9BF
:103120009FEDFD2AF7EE001A9FEDFC1ADFEDFC0A79
:10313000B2EE040AFFF79AFEF64880ED6F8A90ED32
:10314000580A3AEE400A80ED5B0A90ED590A3AEED1
:10315000C00A80ED5C0A90ED5A0A3BEE400A80ED11
:103160005D0A90ED5B0AF6EE000A20EE200A20EEE2
:10317000080AEC4880ED000AE64890ED5C0AF6EE9D
:10318000000A20EE200A20EE080AE74880ED000A37
:10319000E04890ED5D0AF6EE000A20EE200A20EEEF
:1031A000080AE24880ED000ADA499022D1F80401C9
:1031B000DF49FDF759FDDB4890ED000AB1EE400A0A
:1031C000D448D0F8040180ED010AD74890ED000AF8
:1031D000B1EE400ACF48D0F8040180ED020AD3488E
:1031E00090ED000AB1EE400ACA48D0F8040180ED23
:1031F000030ACC4890ED000AC648D0F8040180EDDF
:10320000060ACA4890ED000AC248D0F8040180EDD1
:10321000080AC54890ED000AB1EE400ABD48D0F852
:10322000040180ED090AC04890ED000AB948D0F8C1
:10323000040180ED0C0ABD4890ED000AB1EE400A91
:10324000B448D0F8040180ED0D0AB64890ED000AAC
:10325000B048D0F8040180ED0F0AB44890ED000AA0
:10326000AC48D0F8040180ED120AAF4890ED000A96
:10327000A848D0F8040180ED130AAA4890ED000A8E
:10328000B1EE400AA348D0F8040180ED140AA14829
:10329000D0F84811D0F84C01002359405840014360
:1032A00006D19C48C0ED5E8A80ED5F9AC0ED609AC1
:1032B000984890ED5E0AD0ED640A60EE200A90ED29
:1032C0006F0A90ED641A30EE011A80EE810AD0ED9B
:1032D0006F0A90ED641A70EE810A90ED6F1A21EE7C
:1032E000281AC1EE201A30EE210A80ED5E0A90ED18
:1032F0005F0AD0ED640A60EE200A90ED6F0A90ED4F
:10330000641A30EE011A80EE810AD0ED6F0A90ED5A
:10331000641A70EE810A90ED6F1A21EE091AC1EE5F
:10332000201A30EE210A80ED5F0A90ED600AD0EDA0
:10333000640A20EE200AD0ED6F0A90ED641A30EE98
:10334000811AC0EE010A90ED6F0A90ED641A30EE1A
:10335000010A90ED6F1A21EE291AC1EE001A30EE23
:10336000A10A80ED600AD0ED5E0A60EEA00A90ED41
:103370005F1AD0ED5F1A41EE210A90ED601AD0ED90
:10338000601A41EE210AB0EE600A02F021F86948A5
:1033900080ED000A002011E0674901EB800191ED0A
:1033A000000A6449D1ED000A20EE200A59498968D3
:1033B00001EB800181ED000A411CC8B20328EBDB60
:1033C0005448D0ED5B0A60EEA00A90ED5C1AD0ED97
:1033D0005C1A41EE210A90ED5D1AD0ED5D1A41EEC6
:1033E000210AB0EE600A01F0F3FFF7EE000A80EE6A
:1033F000801A484880ED651A4E4890ED000AF7EEB5
:10340000000A80EE801A434880ED661A90ED650A46
:10341000DFED4A0AB4EEE00AF1EE10FA16D290EDB2
:10342000660ADFED470AB4EEE00AF1EE10FA0DDDB0
:1034300090ED660ADFED430AB4EEE00AF1EE10FA11
:1034400004D20120334981F8390103E000203149D9
:1034500081F839012F4890ED6C0AD0ED6F0A20EE0B
:10346000200AD0F8180180ED000A2A4890ED6C0A75
:10347000D0ED6F0A20EE200AD0F8180180ED070A7F
:10348000244890ED6C0AD0ED6F0A20EE200AD0F8A7
:10349000180180ED0E0A1F4890ED6C0AD0ED6F0AFE
:1034A00020EE200AD0F8180180ED150A194890ED99
:1034B0006D0AD0ED6F0A20EE200AD0F8180180EDD9
:1034C0001C0A144890ED6D0AD0ED6F0A20EE200A18
:1034D000D0F8180180ED230A0E4890ED6E0AD0F85E
:1034E0001C0180ED000A0B4890ED6E0AD0F81C011B
:1034F00080ED040A074890ED6E0AD0F81C0180EDBB
:10350000080A0448001D01F015F80248406890EDD3
:10351000000A19E048040020000000008096184BC3
:103520006F12833AE0010020E4010020E80100204E
:103530002C580008EC010020C00500209A99993E03
:10354000CDCC1441CDCC2441734880ED540A406861
:1035500090ED010A704880ED550A406890ED020A2E
:103560006D4880ED560A406890ED030A6A4880ED88
:10357000570A406890ED040A674880ED580A406891
:1035800090ED050A644880ED590A1FED1D0A80ED93
:103590005A0A90ED561A21EE011AD0ED571A90ED05
:1035A000572A01EE821AF7EE001AB8EE002A42EE10
:1035B000011AF0EE610A90ED541AD0ED571A21EE7F
:1035C000211AD0ED551A90ED562A01EE821AF0EE2E
:1035D000001A21EE211AB0EE410A01F00FFCDFEDD6
:1035E0004F0A20EE200A4C4880ED6A0A90ED551AE9
:1035F00021EE011AD0ED561A90ED562A01EE821AEC
:10360000F7EE001AB8EE002A42EE011AF0EE610A57
:1036100090ED541AD0ED551A21EE211AD0ED561A1C
:1036200090ED572A01EE821AF0EE001A21EE211ACF
:10363000B0EE410A01F0E2FBDFED380A20EE200A8D
:10364000354880ED690AD0ED550A90ED571A60EEC5
:10365000810A90ED541AD0ED561A41EE610AB8EE87
:10366000001A60EE810AB0EE600A01F031FBDFED76
:103670002B0A20EE200A284880ED680A90ED6A0A9D
:10368000D0ED760A30EE600ADFED250AB4EEE00AEE
:10369000F1EE10FA07DDB0F8D401401E00B21E4969
:1036A000A1F8D40114E01C4890ED6A0AD0ED760A26
:1036B00030EE600ADFED1B0AB4EEE00AF1EE10FA1C
:1036C00006D2B0F8D401401C00B21349A1F8D401CD
:1036D000114890ED6A0AB0F9D40100EE900AF8EEB4
:1036E000E00A9FED111A01EE200A0B4880ED6B0AEB
:1036F00090ED6A0A80ED760AD0F84821D0F84C01A6
:10370000521C40F100000449C1F84821C1F84C01A5
:10371000BDEC088B10BD000048040020E12E65427E
:1037200000003443000034C30000B44370B52DEDF5
:10373000028B044604F1800104F17800FDF70AFAD7
:1037400084F8C800B4F87800A4F8A8005A20015BF7
:10375000AA20015304F1A80204F1580104F17800F1
:10376000FDF7D6F884F8C800B4F8A800A4F8B000B3
:103770008220015BB220015304F1B00204F1800108
:1037800004F1A800FDF7C4F884F8C800B4F890006C
:10379000A4F8A0009220015BA220015304F1A00232
:1037A00004F1900104F1B000FCF792FD84F8C80028
:1037B00004F1B00104F1A000FCF712FEAC34207754
:1037C000206C90ED000AFE4880ED000A206C90ED20
:1037D000010AFC4880ED000A206C90ED020AFA48CC
:1037E00080ED000A206C90ED030AF84880ED000A95
:1037F00034F8340CA081AC3C0121BA200153F148CB
:1038000090ED000AF148D0ED000A20EE200AEC48C5
:10381000D0ED000AEC4890ED001A00EEC10AF0EE7F
:10382000000A20EE200AD4F82C0180ED000AE448BA
:1038300090ED000AE348D0ED000A20EE200AE248AD
:10384000D0ED000AE14890ED001A00EE810AF0EE9A
:10385000000A20EE200AD4F82C0180ED010AD84895
:1038600090ED000A20EE000AD648D0ED000A90ED57
:10387000001A00EEC10AD448D0ED000A90ED001AFB
:1038800000EEC10AD148D0ED000A90ED001A00EE1A
:10389000810AD4F82C0180ED020A002512E0D4F848
:1038A0002C0100EB850090ED000AB0EEC00AB0EEEE
:1038B000408A01F081F9C64800EB850080ED000ADE
:1038C000681CC5B2032DEADBB4F84800A4F8C000B8
:1038D0000121C220015304F1C00204F1B80104F136
:1038E0004800FDF7B3F884F8C800B4F8C000A4F8A5
:1038F000A8000121AA20015304F1A80204F1C0018B
:1039000004F1B000FDF704F8B834207401202080E1
:103910002189B83CBA20015304F1B80104F1C00078
:10392000FDF718F984F8C800A94A3C3204F1A8014F
:1039300004F1B800FCF7ECFF84F8C800A54890ED4E
:10394000720AD0ED730AB6EE001A60EE810AB4EE88
:10395000E00AF1EE10FA03D201209E4981F8380105
:103960009C4890ED720AD0ED730AB4EEE00AF1EED5
:1039700010FA46DD90F83801002842D0954890F8BA
:10398000390168B19348D0F84011D0F84401491C7E
:1039900040F100008F4AC2F84011C2F8440105E02E
:1039A00000208C4AC2F84001C2F844018948D0F88E
:1039B0004031D0F844210020D3F13201904106D2A9
:1039C0000020844981F8380184F82C004AE0237BE8
:1039D000814D2D8803FB05F2D4E93A01FDF744F946
:1039E000237B7D4D2D886B43257B03FB05F2D4E9BA
:1039F0003E01FDF739F9012084F82C00BDEC028B63
:103A000070BD744890ED720AD0ED730A9FED731A81
:103A100060EE810AB4EEE00AF1EE10FA14DD90F8DF
:103A2000380188B16B4890ED730AD0ED720A30EE20
:103A3000600AD0ED730A9FED6A1A60EE810A80EE8B
:103A4000201A80ED671A04E0B7EE000A614880EDA5
:103A5000670A00215F4AC2F84011C2F844110020F1
:103A600084F82C00B4F85800A4F8A8008220015B68
:103A7000AA20015304F1A80204F1800104F15800C6
:103A8000FCF746FF84F8C80004F1980204F1B00185
:103A900004F1A800FCF73CFF84F8C800002012E005
:103AA000D4F81C1101EB800191ED000A4949D1EDD8
:103AB000670A20EE200AD4F81C1101EB800181ED89
:103AC000000A411CC8B2B4F898109A22125B514304
:103AD0008142E5DC042025E000211FE0021F3C4B71
:103AE00003EB8202D2ED000A9FED3E1A80EE810ABE
:103AF00000EB40030B44D4F81C2102EB8302D2ED0F
:103B0000000A20EE200A00EB40030B44D4F81C21ED
:103B100002EB830282ED000A4A1CD1B20329DDDBED
:103B2000411CC8B20628D7DBB4F89800A4F8B80046
:103B30000121BA20015304F1B80204F1C00104F1DB
:103B40009800FCF7E5FE84F8C800224890F8380198
:103B5000A0B3042058E0BC21095901EB800191ED8C
:103B6000000A1C49D1ED6F0A9FED1F1A60EE810A11
:103B7000B4EEE00AF1EE10FA0BDD91ED6F0ADFED25
:103B80001A0A20EE200ABC21095901EB800181EDBF
:103B9000000ABC21095901EB800191ED000A0D4991
:103BA000D1ED6F0A9FED111A60EE810AB4EEE00AC2
:103BB000F1EE10FA26D291ED6F0A19E026E000002E
:103BC00014020020180200201C0200202002002005
:103BD000CC050020480400204C010020CDCCCC3D79
:103BE0006666663FDA0FC93F0AD7233C0AD723BC73
:103BF0005FED020A20EE200ABC21095901EB800189
:103C000081ED000A411CC8B20628A4DB9FED080A1A
:103C1000BC20005980ED030A04F1300204F1B80120
:103C200004F13800FCF754FB84F8C80000BFE5E657
:103C3000000000000FB583B00420FE490880082072
:103C4000FD490880DDE9031008730399059848735E
:103C500003990698887300210398017406980290CE
:103C600001F01CFC03994861069802900398406992
:103C700001900299FDF711F8EE4800880699484333
:103C8000029001F00BFC03998861EA4800880699CC
:103C9000484302900398806901900299FCF7FDFF68
:103CA000E448008806994843029001F0F7FB039925
:103CB000C861E04800880699484302900398C069AB
:103CC00001900299FCF7E9FFDA480088049948431B
:103CD000029001F0E3FB03990862D648008804993A
:103CE000484302900398006A01900299FCF7D5FFBF
:103CF0000698029001F0D2FB039948620698029060
:103D00000398406A01900299FCF7C7FFC9480088F0
:103D100004994843029001F0C1FB03990860C5482B
:103D20000088049948430290039800680190029922
:103D3000FCF7B3FFBF48008806994843029001F0A2
:103D4000ADFB03994860BB48008806994843029040
:103D50000398406801900299FCF79FFFB5480088DE
:103D600005994843029001F099FB03998860B14896
:103D70000088059948430290039880680190029951
:103D8000FCF78BFFAB48008804994843029001F090
:103D900085FB0399C1F8E800A648008804994843C8
:103DA00002900398D0F8E80001900299FCF775FFA3
:103DB0000398D0F8E80002900398007B019001225C
:103DC0000146DDE902303030FCF706FB99480088F7
:103DD00004994843029001F061FB0399C1F8EC009B
:103DE000944800880499484302900398D0F8EC0066
:103DF00001900299FCF751FF0398D0F8EC00029073
:103E00000398007B019001220146DDE90230383041
:103E1000FCF7E2FA059818B38648008805994843EC
:103E2000029001F03BFB0399C1F8F0008148008843
:103E30000599484302900398D0F8F0000190029948
:103E4000FCF72BFF0398D0F8F00002900398407B1A
:103E5000019001220146DDE902304030FCF7BCFA56
:103E60007448008806994843029001F017FB0399B3
:103E7000C1F8F4006F4800880699484302900398FF
:103E8000D0F8F40001900299FCF707FF0398D0F8EE
:103E9000F40002900398807B019001220146DDE945
:103EA00002304830FCF798FA624800880499484389
:103EB0004843029001F0F2FA0399C1F8F8005D4816
:103EC000008804994843484302900398D0F8F800CA
:103ED00001900299FCF7E1FE0398D0F8F8000290F7
:103EE0000398007B01900398007B00900146DDE978
:103EF00002305030019AFCF76FFA4E48008804995E
:103F000048434843029001F0C9FA0399C1F8FC0004
:103F10004848008804994843484302900398D0F8E1
:103F2000FC0001900299FCF7B8FE0398D0F8FC0061
:103F300002900398007B01900398007B009001465B
:103F4000DDE902305830019AFCF746FA394800881A
:103F5000049948434843029001F0A0FA0399C1F83C
:103F6000000134480088049948434843029001F016
:103F700095FA0399C1F804012E4800880499484332
:103F8000484302900398D0F8000101900299FCF791
:103F900084FE2848008804994843484302900398C7
:103FA000D0F8040101900299FCF777FE0398D0F84D
:103FB000000102900398007B01900398007B009021
:103FC0000146DDE902306030019AFCF705FA0398FA
:103FD000D0F8040102900398007B01900398007BC5
:103FE00000900146DDE902306830019AFCF7F4F9EF
:103FF000059878B30F4800880499484305994843C9
:10400000029001F04BFA0399C1F8080109480088B1
:10401000049948430599484302900398D0F8080151
:1040200001900299FCF739FE0398D0F8080102903C
:10403000039803E04C0100204E010020407B0190DA
:104040000398007B00900146DDE902307030019A50
:10405000FCF7C2F9B94800880699484304994843D7
:10406000029001F01BFA0399C1F80C01B3480088D3
:104070000499484306994843029001F00FFA0399C6
:10408000C1F81001AD480088069948430499484397
:1040900002900398D0F80C0101900299FCF7FDFD05
:1040A000A64800880499484306994843029003981B
:1040B000D0F8100101900299FCF7EFFD0398D0F8B9
:1040C0000C0102900398007B01900398807B009084
:1040D0000146DDE902307830019AFCF77DF903985A
:1040E000D0F8100102900398807B01900398007B28
:1040F00000900146DDE902308030019AFCF76CF94E
:104100008E480088049948434843029001F0C6F95C
:104110000399C1F814018948008804994843484329
:1041200002900398D0F8140101900299FCF7B5FDB4
:104130000398D0F8140102900398007B0190039833
:10414000007B00900146DDE902308830019AFCF7DF
:1041500043F97A480088069948434843029001F0A1
:104160009DF90399C1F818017448008806994843DD
:10417000484302900398D0F8180101900299FCF787
:104180008CFD0398D0F8180102900398807B019071
:104190000398807B00900146DDE902309030019A5F
:1041A000FCF71AF965480088049948430699484382
:1041B000029001F073F90399C1F81C015F4800886F
:1041C000049948430699484302900398D0F81C018B
:1041D00001900299FCF761FD0398D0F81C01029050
:1041E0000398807B01900398007B00900146DDE9F5
:1041F00002309830019AFCF7EFF80398007B4F49A2
:10420000098848430399097B4843029001F046F925
:104210000399C1F820010398007B48490988484365
:104220000399097B4843029001F038F90399C1F8DA
:1042300024010398007B4149098848430399097B7D
:104240004843029001F02AF90399C1F82801039824
:10425000007B3A4909884843029001F01FF903990D
:10426000C1F82C010398007B344909884843029027
:1042700001F014F90399C1F830010398D0F8200136
:1042800002900398007B01900398007B0090014608
:10429000DDE90230A030019AFCF79EF80398D0F8CF
:1042A000240102900398007B01900398007B00900A
:1042B0000146DDE90230A830019AFCF78DF8039839
:1042C000D0F8280102900398007B01900398007BAE
:1042D00000900146DDE90230B030019AFCF77CF82D
:1042E0000398D0F82C0102900398007B01900122E2
:1042F0000146DDE90230B830FCF76EF80398D0F8DB
:10430000300102900398007B019001220146DDE913
:104310000230C030FCF760F80021039880F82810C4
:10432000039880F82910039880F82A10039880F8E1
:104330002B10039880F82C1007B000BD4C01002012
:1043400070B50446E07B18B12046FDF787FF11E009
:10435000A37B0E4D2D8803FB05F26168D4F8F400B1
:10436000FCF782FCA27B094B1B8802FB03F160680F
:10437000FCF793FC637B054D2D8803FB05F2A168D8
:10438000D4F8F000FCF770FC70BD00004C01002078
:1043900010B5044694F82C0068BBB4F89800A4F853
:1043A000A8007A20015BAA200153B4F8A800A4F861
:1043B000B0005A20015BB220015304F1A80204F1BD
:1043C000780104F19800FCF7A3FA84F8C80004F11E
:1043D000B00204F1580104F1A800FCF799FA84F83E
:1043E000C80004F1500204F1B00104F15800FCF7D8
:1043F0002DFB84F8C80010BD10B5044694F82900C0
:1044000068BB04F1680104F16000FCF7A3FB84F8C9
:10441000C80004F1580204F1500104F16000FCF7F7
:1044200077FA84F8C800B4F85800A4F8A8006A2005
:10443000015BAA20015304F1A80204F1680104F110
:104440005800FCF765FA84F8C80004F1580204F13A
:10445000880104F1A800FBF73BFF84F8C80010BDF9
:1044600010B5044694F82A00002861D104F18001B7
:1044700004F17800FCF76EFB84F8C800B4F878000B
:10448000A4F8A8005A20015BAA20015304F1A80255
:1044900004F1580104F17800FCF73AFA84F8C800F6
:1044A000B4F8A800A4F8B0008220015BB220015348
:1044B00004F1B00204F1800104F1A800FCF728FA2D
:1044C00084F8C800B4F89000A4F8A0009220015B22
:1044D000A220015304F1A00204F1900104F1B00004
:1044E000FBF7F6FE84F8C80004F1B00104F1A00067
:1044F000FBF776FF84F8C800B4F85800A4F8A800C9
:104500008220015BAA20015304F1A80204F180017A
:1045100004F15800FCF7FCF984F8C80004F1980293
:1045200004F1B00104F1A800FCF7F2F984F8C80026
:1045300010BD000070B504462046FFF701FFD4F817
:10454000CC0018B12046D4F8CC108847204600F0A3
:1045500085F8D4F8D00018B12046D4F8D010884798
:104560002046FFF749FFD4F8D40018B12046D4F80C
:10457000D4108847207C08B9E07BB8B92046FFF703
:104580006FFFD4F8D80018B12046D4F8D810884767
:10459000204600F0A1F8D4F8DC0018B12046D4F889
:1045A000DC1088472046FFF7F3FE13E0237B2A4DFB
:1045B0002D8803FB05F2D4E93A01FCF755FB237B78
:1045C000254D2D886B43257B03FB05F2D4E93E0185
:1045D000FCF74AFBD4F8E00018B12046D4F8E0100C
:1045E0008847002022E0227B00FB0202D4F8F8106A
:1045F00001EB820191ED000A216A01EB8001D1ED0E
:10460000000AB4EEE00AF1EE10FA0DD2216A01EBD5
:10461000800191ED000A227B00FB0202D4F8F81021
:1046200001EB820181ED000A411CC8B2217B81426D
:10463000D9DC237B084D2D8803FB05F2D4F8E81064
:104640002068FCF711FBD4F8E40018B12046D4F838
:10465000E4108847206870BD4C01002010B5044666
:1046600094F8280060BB607B00282ADD207BA4F83A
:10467000B8000121BA20015304F1B80204F130015D
:1046800004F16000FCF744F984F8C800207BA4F82A
:10469000C0000121C220015304F1C00204F1400115
:1046A00004F17000FCF734F984F8C80004F1380212
:1046B00004F1C00104F1B800FBF70AFE84F8C80059
:1046C00009E004F1380204F1300104F16000FCF764
:1046D0001FF984F8C80010BD10B5044694F82B00EB
:1046E000E0BBB4F87800A4F8B8000121BA20015367
:1046F00004F1B80204F1380104F17800FCF708F97C
:1047000084F8C800B4F84800A4F8C0000121C22011
:10471000015304F1C00204F1B80104F14800FCF7B0
:1047200095F984F8C800B4F89800A4F8B8000121FD
:10473000BA20015304F1B80204F1C00104F1980059
:10474000FCF7E6F884F8C80004F1300204F1B8017F
:1047500004F13800FBF7BCFD84F8C80010BD000070
:1047600000B587B0142102A8FCF797FA00BF1748DC
:10477000C06C40F020001549C8640846C06C00F0C9
:104780002000019000BF00BF00BF0846C06C40F091
:104790000100C8640846C06C00F00100019000BF31
:1047A00000BF012210214FF09040FCF7A9FD10201E
:1047B00002900120039004900220059002A94FF07E
:1047C0009040FCF7B7FC07B000BD000000100240AD
:1047D00010B51248124908604FF4827048600021F9
:1047E0000F4881604FF4E061C160002101614161C7
:1047F0004FF4007181611821C161002101624162A1
:1048000081620721C1620021016308214163FDF734
:10481000E3FA08B1FCF776FC10BD0000003001405F
:104820003002002000BFFEE700BFFEE770B5164D66
:10483000ED6805F00304144DED68C5F303156B1C1A
:10484000022C0CD0032C09D1104DB5FBF3F50E4E04
:10485000F668C6F3062605FB06F10AE000BF0B4D1D
:10486000B5FBF3F5084EF668C6F3062605FB06F120
:1048700000BF00BF044DED68C5F341656D1C6A00C3
:10488000B1FBF2F070BD0000001002400024F40003
:10489000F8B504460E461546334600224FF4C05183
:1048A0002046009500F026F828B1206E40F0200048
:1048B00020660320F8BD3346002280212046009563
:1048C00000F094F828B1206E40F02000206603200C
:1048D000F0E7334600224FF4C0612046009500F017
:1048E00009F828B1206E40F0200020660320E1E79F
:1048F0000020DFE72DE9FC5F04460D4616461F4603
:10490000DDF8309000200090FCF700FDA0EB0900DE
:10491000A7EB0008FCF7FAFC8246206800F10C0BBC
:1049200031480068C0EBC00000EB8000000D00FBC8
:1049300008F0019050E0B5F5C06F05D126B99BF89D
:10494000000000909DF80000781C002844D0FCF77F
:10495000DDFCA0EB0A00404502D2B8F1000F34D1D3
:104960002068406820F0E000216848606068B0F589
:10497000827F0DD1A068B0F5004F03D0A068B0F5DC
:10498000806F05D12068006820F040002168086031
:10499000A06AB0F5005F0DD100BF2068006820F468
:1049A0000050216808602068006840F400502168C9
:1049B000086000BF012084F85D0000BF002084F87B
:1049C0005C0000BF0320BDE8FC9F019808B94FF0D0
:1049D00000080198401E0190206880682840B0427D
:1049E000A9D10020EFE700000C0000202DE9F84FCE
:1049F00004460D4690461E46DDF82890FCF786FCDE
:104A0000A0EB0900371AFCF781FC82462C480068AD
:104A1000C0F3CB307843009045E0701C002842D0B2
:104A2000FCF774FCA0EB0A00B84200D2A7BB2068D8
:104A3000406820F0E000216848606068B0F5827F3F
:104A40000DD1A068B0F5004F03D0A068B0F5806F1D
:104A500005D12068006820F0400021680860A06A45
:104A6000B0F5005F0DD100BF2068006820F4005051
:104A7000216808602068006840F4005021680860E0
:104A800000BF012084F85D0000BF002084F85C00B6
:104A900000BF0320BDE8F88FFFE7009800B90027AA
:104AA0000098401E0090206880682840A84201D1EC
:104AB000012000E000204045AFD10020EAE70000DF
:104AC0000C00002010B5FCF727FC00F0D7FD0128F2
:104AD00001D000F0B9FD10BD00B593B0382105A894
:104AE000FCF7DBF814216846FCF7D7F80020FCF748
:104AF000D3FC012005900004069002200C900321B5
:104B00000D9104210E9155210F91022110911191C7
:104B1000129105A8FCF7B2FE08B1FCF7F3FA0F20DA
:104B20000090032001900020029003900490042143
:104B30006846FCF747FD08B1FCF7E4FA13B000BD86
:104B40000348006840F470000149086070470000A5
:104B500088ED00E000BFFEE74100080218BF042016
:104B60000A0E18BF40F001004FF07F4232EA010107
:104B700008BF40F00200012808BF05207047000070
:104B800002480068C0F30220704700000CED00E00E
:104B900010B5002804DB0A07130E054A135406E07B
:104BA0000A07140E034A00F00F031B1FD45410BD54
:104BB00000E400E018ED00E010B510EE104A4FF0F0
:104BC0001A402DED028B00EB4400B0F1C85F4AD8CB
:104BD0004FF0FC40B0EB440F22D2B0EEC00AF7EE2B
:104BE000000A30EEC00AF6EE000A20EE208A18EE27
:104BF000100A00F0A3FC00EE100A14F0004F1DBFD5
:104C00009FED281ADFED280AB1EE400A9FED271A22
:104C100008BFF0EE410AF8EE001A20EE210A05E086
:104C200020EE008A9FED221ADFED220ADFED221A24
:104C30009FED222A70EEC00A20EE080A08EE212A13
:104C4000DFED1F1A48EE021A9FED1E2A08EE212AF8
:104C5000DFED1D1A48EE021ABDEC028B40EE610A30
:104C600030EE810A10BD4FF0CC40B0EB440F82BF54
:104C70009FED160ABDEC028B10BD4FF07F40B0EBEC
:104C8000440F05D2BDEC028BBDE8104000F0DEB948
:104C9000012000F001FABDEC028BBDE8104000F0ED
:104CA000DBB900000000494022AA7D3A0000000064
:104CB0000000C93F22AAFD3924FE1C3DC78AD83C0A
:104CC0001E67383D1B93993DAFAA2A3EDB0FC93FB3
:104CD00010B54FF00E402DED028BB0EE408A18EE6D
:104CE000104A00EB4400B0F1506F4AD84FF0FC403E
:104CF000B0EB440F22D2B0EEC80AF7EE000A30EE55
:104D0000C00AF6EE000A60EE208A18EE900A00F063
:104D100015FC01EE100A14F0004F1DBFDFED2D0A47
:104D20009FED2D0AB1EE411ADFED2C0A08BF9FED71
:104D30002C0AF8EE001A21EE218A05E0DFED290A9F
:104D400068EE088AB0EE600A9FED271ADFED271A99
:104D500030EE080A48EE811A9FED251A08EEA11AD6
:104D6000DFED241A48EE811A9FED231A08EEA11AEE
:104D700068EE281ABDEC028B01EE810A30EE200AA3
:104D800010BD4FF0E440B0EB440F0CD918EE100A00
:104D9000FFF7E2FE042808BF00F066F9B0EE480A0B
:104DA000BDEC028B10BD4FF07F40B0EB440F07D23B
:104DB000B0EE480ABDEC028BBDE8104000F046B9E9
:104DC000012000F069F9BDEC028BBDE8104000F055
:104DD00043B900000000C9BF22AAFDB90000C93FC5
:104DE00022AAFD390000000024FE1C3DC78AD83CE1
:104DF0001E67383D1B93993DAFAA2A3E10EE100A5C
:104E000010B510EE901A4FF0684202EB40032DED02
:104E1000028BB3F1654F3CBF02EB4102B2F1654F2B
:104E20007CD200BFC0F3C753C1F3C7529A1A1B2AE2
:104E300009DD10F0004F14BF9FED6E0A9FED6E0A62
:104E4000BDEC028B10BD12F11A0F1BDA11F0004FEE
:104E500009D010F0004F0CBF9FED680A9FED680A63
:104E6000BDEC028B10BD80EE208A18EE100AFFF711
:104E700073FE042808BF00F0F7F8B0EE480ABDEC56
:104E8000028B10BD4200B2EB410F37D910F0004F3A
:104E900019BFDFED5C1A9FED5C1ADFED5C1A9FED28
:104EA0005C1AB0EE602A0A46F1EE400A80F000413A
:104EB000B0EE420A10460A1A5200B2F1807F34D294
:104EC000484010F0004FDFED532A9FED533A1DBFCD
:104ED000BEEE002A71EEE21A31EE431AB6EE002A57
:104EE00004BF71EEA21A31EE031AF0EE402A42EE30
:104EF000602A40EE020A82EEA02A18E011F0004F6C
:104F000004BF9FED461AF0EE411AD4D010F0004FC6
:104F10001CBFDFED431A9FED431A00E026E004BFFB
:104F2000DFED411A9FED411AC5E780EE202A22EEFF
:104F3000020ADFED3F0ADFED3F2ABDEC028B40EEB7
:104F4000202ADFED3D0A40EE220ADFED3C2A40EE4A
:104F5000202ADFED3B0A40EE220A22EE000A00EE94
:104F6000201A31EE020A30EE210A10BD4FF07F42C6
:104F7000B2EB400F28BFB2EB410F05D2BDEC028B64
:104F8000BDE8104000F065B840EA01035B0008BFCF
:104F900041F0FF410BD0B2EB400F08BFB2EB410F25
:104FA00008D120F0804000EE100A21F0804100EE90
:104FB000901A37E7B2EB400F12BF5FEA410240F0B0
:104FC000FF4001F000413FF42DAF4A0092EA400358
:104FD0003FF528AF002AACBF9FED1A1A9FED1A1AB1
:104FE00020EE010A60EE810A10EE100A10EE901A0F
:104FF00018E70000DB0FC9BFDB0FC93FDB0F4940DB
:10500000DB0F49C00000C9BF22AAFDB90000C93F9B
:1050100022AAFD390060ED3EC30ACE370000000031
:10502000000049C022AA7DBA0000494022AA7D3A68
:105030002DAD65BD8FB8D53D0FB511BE61C84C3ED5
:10504000A8AAAABE0000804F0000802F30EE000A00
:10505000704730EE200A7047DFED020A80EEA00AAA
:1050600070470000000000009FED020A20EE000AD9
:10507000704700000000001002E008C8121F08C1BD
:10508000002AFAD170477047002001E001C1121FC9
:10509000002AFBD1704700000149086070470000FA
:1050A0002C020020B8B101280FD0022807D0032815
:1050B00017D19FED0E0A0E4981ED000A11E09FED18
:1050C0000D0A0B4981ED000A0BE09FED0B0A084920
:1050D00081ED000A05E09FED090A054981ED000A0E
:1050E00000BF00BF024991ED000A70470000803800
:1050F0004C00002000000039000080397DE8FA39BA
:10510000082835D2DFE800F02E28221C16100A04E9
:105110009FED1A0A1A4981ED000A29E09FED190A4C
:10512000174981ED000A23E09FED170A144981ED2C
:10513000000A1DE09FED150A114981ED000A17E0F4
:105140009FED130A0E4981ED000A11E09FED110A4F
:105150000B4981ED000A0BE09FED0F0A084981ED34
:10516000000A05E09FED0D0A054981ED000A00BF28
:1051700000BF034991ED000A704700000000F239BA
:105180005000002000007A3A0000FA3A00007A3B12
:105190000000FA3B00007A3C0000FA3C58A08B3A31
:1051A0001FB50446002210214FF09040FCF7A8F8EC
:1051B0009F20FDF7FFFB06227F491F20FDF7DAFB4A
:1051C000012210214FF09040FCF79AF800221021A4
:1051D0004FF09040FCF794F8A520FDF7EBFB06227A
:1051E00076492520FDF7C6FB012210214FF09040A3
:1051F000FCF786F8704840786F49097840EA01204A
:1052000000B2ADF808006C48C0786B49897840EA74
:10521000012000B2ADF80A00674840796649097973
:1052200040EA012000B2ADF80C00644840786349C0
:10523000097840EA012000B2ADF800005F48C0786C
:105240005E49897840EA012000B2ADF802005B486F
:1052500040795A49097940EA012000B2ADF80400CA
:1052600057480078F0B3BDF9080000EE100AB8EE18
:10527000C00A5448D0ED000A20EE200A5248D0ED72
:10528000000A20EE200AD4ED080A20EE200A84ED60
:10529000000ABDF90A0000EE100AB8EEC00A49483B
:1052A000D0ED000A20EE200A4748D0ED000A20EE9B
:1052B000200AD4ED080A20EE200A84ED010ABDF987
:1052C0000C0000EE100AB8EEC00A3E48D0ED000A0D
:1052D00020EE200A3C48D0ED000A20EE200AD4ED52
:1052E000080A00E004E020EE200A84ED020A35E01E
:1052F000BDF9080000EE100AB8EEC00A3148D0ED42
:10530000000A20EE200A3048D0ED000A20EE200AE4
:1053100084ED000ABDF90A0000EE100AB8EEC00ADA
:105320002848D0ED000A20EE200A2748D0ED000AD8
:1053300020EE200A84ED010ABDF90C0000EE100AEF
:10534000B8EEC00A1F48D0ED000A20EE200A1E4821
:10535000D0ED000A20EE200A84ED020A94ED090A3D
:10536000BDF9000000EE900AF8EEE00A174890ED53
:10537000001A10EE810A84ED030A94ED0A0ABDF9C1
:10538000020000EE900AF8EEE00A104890ED001AD4
:1053900010EE810A84ED040A94ED0B0ABDF90400B5
:1053A00000EE900AF8EEE00A084890ED001A10EEC0
:1053B000810A84ED050A1FBD580000205E00002010
:1053C000360100204C000020540000205000002036
:1053D000F0EE400AF6EE001A60EEA11AB0EE611A85
:1053E000B0EE600A10EE100A0749A1EB600000EE73
:1053F000100A21EE002AF7EE081A42EE401A61EE7A
:10540000801AB0EE610A7047865A375FFBF790FF4B
:10541000FFF762FBFFF7A4F9FFF7DAF9AA20FBF721
:105420008FFDFCF7B5FF6420FBF770FE9FED130ABC
:10543000134880ED090A9FED130A80ED0A0A9FEDDB
:10544000120A80ED0B0A9FED110A80ED080A012077
:105450000F4908706420FBF759FE0EE00D480078F4
:1054600010B9FCF795FF04E00A48007808B1FDF791
:10547000BBFA9FED090AFBF71FFDEFE74CAA223CA0
:105480008403002000F981BC7DAC103C0F8C813F6F
:1054900036010020650000206F12833AF0B50B3012
:1054A000154D20F007010024144A0FE003688B42D9
:1054B0000BD38B4205D95E1A43184768C3E90067CE
:1054C00000E04368136002C004E0021D1068002879
:1054D000ECD12046002802D1286808B10020F0BD98
:1054E000064A07481060074A121A22F00702C0E96C
:1054F000002401202860D7E7280200202402002091
:10550000BC060020B80A00200A490968096809B9E0
:10551000012100E0002121B14FF0FF31064A116066
:1055200006E004490968C968C868034A416811600F
:1055300070470000140000204000002010B500EE6D
:10554000100A2DED028BB1EEC08A18EE100A20F081
:105550000040C0F1FF40C00F0AD010EE100A20F04A
:105560000040C0F1FF40C00F04BF0120FFF794FDD1
:1055700018EE100ABDEC028B10BD01460A69D1E994
:1055800001309860D1E9010358605068884201D128
:1055900088685060002008611068401E1060106824
:1055A000704742684A6093688B6093685960916065
:1055B000086103685B1C0360704700001D480068B9
:1055C00018B101201C49086032E000201A49086027
:1055D0001A480068B0FA80F0C0F11F0101EB8100A9
:1055E000174A52F8200008B1012000E0002050B90D
:1055F00000BF502080F31188BFF34F8FBFF36F8F30
:1056000000BF00BFFEE701EB81020D4B03EB820000
:1056100042685268426000F108024368934202D136
:105620004268526842604268D268064B1A6000BF06
:1056300070470000480000203400002028000020AF
:10564000940200201000002010B500BF502080F30D
:105650001188BFF34F8FBFF36F8F00BF00F01EF8AC
:1056600018B14FF080500449086000BF002080F35B
:10567000118800BF10BD000004ED00E00549096875
:1056800009B9012005E00449096809B9022000E0D0
:10569000002070472C000020480000202DE9F04138
:1056A0004FF000084448006800287CD14348006857
:1056B000451C4248056015BB41480068006808B9B0
:1056C000012000E0002050B900BF502080F3118875
:1056D000BFF34F8FBFF36F8F00BF00BFFEE73848A7
:1056E0000768384800683649086036480760364819
:1056F0000068401C34490860FFF706FF00BF3348CC
:10570000006885423CD300BF2D480068006808B996
:10571000012000E0002020B14FF0FF302B4908604D
:105720002DE027480068C068C4686668B54202D2A8
:105730002648066023E0201DFFF71FFFA06A18B16E
:1057400004F11800FFF719FF94F82C10012088408D
:105750001F49096808431E490860E16A01EB81019D
:105760001C4A02EB8100211DFFF71BFF1A49E06A6A
:105770000968C96A8842C7D34FF00108C4E700BF6F
:1057800015480068C06A00EB8000124951F82000FB
:10579000012801D94FF001081048006808B14FF006
:1057A000010805E0FFE70E480068401C0C4908604E
:1057B0004046BDE8F08100004800002024000020A1
:1057C00014000020180000203800002040000020B5
:1057D0002800002094020020100000203400002047
:1057E000300000200000000000000000010203045F
:1057F0000607080900000000010203040000803FC2
:105800000000000000000000000000000000803FD9
:105810000000000000000000000000000000803FC9
:10582000000000000000000066881C410000803F6E
:105830000000000000000000000000000000000068
:1058400000000000000000000000803F0000000099
:105850000000000000000000000000000000000048
:10586000000000000000803F000000000000000079
:105870000000000000000000000000000000000028
:105880000000803F00000000000000000000000059
:105890000000000000000000000000000000803F49
:1058A00000000000000000000000000000000000F8
:1058B00000000000000000000000803FDC580008ED
:1058C0000000002030020000D40C00081C59000821
:1058D00030020020880C000088500008413210423D
:1058E00001033D24F4000D6223DB793E3333034290
:1058F000C3F51C41C3803F000D766F12033ACDCC37
:10590000CC3D0AD7233C5320422C50C34788091270
:0C5910000409531C110B1AC8421C015062
:04000005080001D915
:00000001FF
