:020000040800F2
:10000000B8170020ED010008E5550008AD2F0008E5
:10001000E15500086D110008375E0008000000007F
:10002000000000000000000000000000D55800089B
:10003000551200080000000039560008D758000883
:10004000070200080702000807020008070200086C
:10005000070200080702000807020008070200085C
:10006000070200080702000807020008070200084C
:10007000070200080702000807020008070200083C
:10008000070200080000000007020008070200083D
:10009000070200080702000807020008070200081C
:1000A000070200080702000807020008070200080C
:1000B0005559000807020008070200080702000857
:1000C00007020008070200080702000807020008EC
:1000D00007020008070200080702000807020008DC
:1000E00007020008070200080702000807020008CC
:1000F00007020008070200080702000800000000CD
:1001000000000000070200080000000007020008CD
:1001100007020008000000000702000807020008AC
:10012000070200080702000807020008070200088B
:10013000070200080000000000000000070200089D
:10014000070200080702000800000000000000008D
:10015000000000000000000000000000000000009F
:10016000000000000000000000000000070200087E
:10017000070200080000000000000000000000006E
:10018000000000000702000800000000000000005E
:10019000000000000000000000000000000000005F
:1001A000000000000000000007020008070200082D
:1001B000070200080702000807020008000000000C
:1001C000000000000702000800000000000000001E
:1001D0000702000807020008DFF80CD000F0DCFE80
:1001E0000048004711680008B817002006488047FB
:1001F00006480047FEE7FEE7FEE7FEE7FEE7FEE70C
:10020000FEE7FEE7FEE7FEE741590008D9010008D6
:1002100070B405880E884468D1F804C05368B542AC
:1002200008D140884988884201BF11888D42518891
:10023000884203D070BC6FF00200704705FB00F1EC
:10024000880827D094ED001ADCED000A94ED010A2D
:10025000DCED011A31EE201AD4ED020A70EE211AFB
:100260009CED020A83ED001AC3ED011A94ED031A06
:10027000DCED031A30EE800A401E71EE210A83ED98
:10028000020A04F11004C3ED030A03F110030CF198
:10029000100CD7D111F0030030D0B0F1004F30D2A4
:1002A00000282BDD211F1B1FACF1040210F0010FF1
:1002B0000AD091ED010AD2ED010A091D121D30EE9E
:1002C000200A83ED010A1B1D400817D091ED010A99
:1002D000D2ED010A401E30EE200A83ED010A91EDB5
:1002E000020AD2ED020A01F1080102F1080230EE21
:1002F000200A83ED020A03F10803E7D170BC002055
:100300007047B4EC010A401EFCEC010A30EE200AF2
:10031000A3EC010AF5D1F1E7018042804360704708
:100320002DE9F34F84B0049840680090486801902C
:100330000498B0F800E04588DFEDFE0A0020029046
:10034000B0EE600AAE4506D108884988884204BFED
:100350007146864504D06FF0020006B0BDE8F08F0C
:1003600001985FEA010C18BFB7EE001A3DD000BF3C
:10037000BEEB0C0117D0B1F1004F80F01F820029B5
:1003800011DD021F11F0010F1CBFC2ED010A121D89
:100390004B1006D0C2ED010AC2ED020A08325B1E04
:1003A000F8D100EB8100BCF10102A0EC011A19D0D8
:1003B000B2F1004F80F00882002A13DD031F12F013
:1003C000010F1CBFC3ED010A1B1D511008D000BF57
:1003D000C3ED010AC3ED020A491E03F10803F7D178
:1003E00000EB8200BCF1010CC2D14FF00008039574
:1003F000002D14BFB0EE602A002000F0BF8100BFC6
:10040000009908FB05F001EB800B0199DBED002A58
:1004100001EB80000346F0EE421AC64552D9AEEB1E
:100420000802ABEB850112F0010F17D001EB85013B
:1004300091ED000AB5EEC00AF1EE10FA07DDB4EE58
:10044000E10AF1EE10FA09DDF0EE401A06E0B1EE35
:10045000400AF4EEC01AF1EE10FAF5D3521031D082
:1004600001EB850C9CED000AB5EEC00AF1EE10FA26
:1004700005DDB4EEE10AF1EE10FA09DD06E0B1EEB9
:10048000400AF4EEC01AF1EE10FA01D2F0EE401A72
:1004900001EBC50191ED000AB5EEC00AF1EE10FACC
:1004A00005DDB4EEE10AF1EE10FA09DD06E0B1EE89
:1004B000400AF4EEC01AF1EE10FA01D2F0EE401A42
:1004C000521ECDD1F5EEC01AF1EE10FA00F0738194
:1004D000F5EEC02A0126F1EE10FA0099D4BFB1EE74
:1004E000620AB0EE620AB4EE610AF1EE10FA1CBFC5
:1004F000AEEB0802B2F1010C47D005FB08F201EBAC
:10050000820292ED001A00BFB0EE410A05FB06F42C
:10051000B5EEC00A00EB8404F1EE10FACCBFF0EEA9
:10052000400AF1EE400AF4EE610AF1EE10FA28D129
:10053000B5EB080C11D0BCF1004F7DD2BCF1000F1F
:100540000BDD00BF92ED000AD1ED000ABCF1010CF9
:10055000E2EC010AA1EC010AF4D129000ED0B1F1BC
:10056000004F6AD2002909DD94ED000AD0ED000A9F
:10057000491EE4EC010AA0EC010AF5D10120029029
:100580000BE0761CBCF1010CBED10298012804D00E
:10059000F5EEC02AF1EE10FA7ED09BED000AB5EB25
:1005A00008009A465946064622D0B0F1004F74D250
:1005B00000281DDD091F10F0010F06D0F0EE400AE3
:1005C00080EEA01A81ED011A091D401010D000BF65
:1005D000D1ED010A401E80EE801A81ED011A91EDE5
:1005E000021AC1EE000AC1ED020A01F10801EFD1C1
:1005F000280026D0B0F1004F7ED2002821DDAAF1DC
:10060000040110F0010F06D0D1ED010A80EE801A2E
:1006100081ED011A091D401013D000BFD1ED010A70
:10062000401E80EE801A81ED011AD1ED020A80EEA3
:10063000801A81ED021A01E0CBE0D6E001F1080159
:10064000ECD1DDE900124FF000095FEA0E0773D02C
:10065000C14504BF01EB860102EB850274D091ED28
:10066000000ADC465046331E35D01C46B6F1004F1A
:100670007ED2002C2FDD0B1FABF1040C16F0010F06
:100680000FD0F0EE400ADCED011AB0EE601A00EE79
:10069000E11A83ED011A01E08DE0B1E01B1D0CF1C0
:1006A000040C741015D000BFD3ED010A9CED011AA3
:1006B00040EE410AC3ED010AD3ED020A9CED021A95
:1006C0000CF1080C40EE410AC3ED020A0833641E27
:1006D000EAD101EB86012B0036D0B3F1004F72D284
:1006E000002B31DDA2F1040CAAF1040013F0010F7C
:1006F0000CD0DCED010A00E08BE090ED011A001D4A
:1007000040EE410ACCED010A0CF1040C5C1019D04A
:10071000DCED010A90ED011A40EE410ACCED010A30
:10072000DCED020A90ED021A083040EE410ACCEDF1
:10073000020A03E0000000000DE005E0641E0CF179
:10074000080CE5D102EB830201EB88017F1E09F161
:1007500001097FF47DAF009808F10108001D0090A9
:100760000398401E03907FF44BAE0299012900E0EC
:1007700058E004BF06B0BDE8F08F00BFB5EEC00A78
:10078000F1EE10FA7FF4E9AD04990EFB05F3002BAE
:100790004A684FF000010BD902EB810C9CED000A76
:1007A000B5EEC00AF1EE10FA02D1491C8B42F3D823
:1007B0008B427FF4D2AD6FF00400CEE5E0EC010A8D
:1007C000491EFBD1EFE538E0E0EC010A521EFBD1F7
:1007D00008E692ED000AD1ED000ABCF1010CE2EC52
:1007E000010AA1EC010AF4D1B7E694ED000AD0EDBC
:1007F000000A491EE4EC010AA0EC010AF5D1BDE6AD
:10080000D1ED000A401E80EE801AA1EC011AF7D14A
:10081000EEE6D3ED000A401E80EE801AA3EC011A2A
:10082000F7D10EE7BCEC011AD1ED000A5B1E40EED9
:10083000410AE1EC010AF5D14DE7B0EC011AD2ED25
:10084000000A5B1E40EE410AE2EC010AF5D17BE7AB
:100850002DE9F04F82B046685368019305884788B8
:100860004B88002000900888874201BFB2F800C082
:100870006545528893421EBF6FF0020002B0BDE88A
:10088000F08F9FED412A4FEA970EC7F3400B00BF50
:10089000DDE9000202EB800A4A6898464FF0000941
:1008A000B0EE420AB4465FEA0E0025D092ED001A7F
:1008B000DCED001A02EB8302DCED010A01EE810A95
:1008C00092ED001A02EB8302401ED2ED001A02EBF9
:1008D000830200EE810A9CED021ADCED030A00049B
:1008E0000CF1100C000C01EE210A92ED001A02EB43
:1008F000830200EE810AD9D117F0030026D0ACF1B3
:100900000404A2EB830210F0010F08D002EB830273
:10091000D4ED010A92ED001A241D00EE810A5FEA6F
:100920000B0013D002EB830CD4ED010A9CED001AEE
:1009300002EBC302401E00EE810AD4ED020A92EDE2
:10094000001A04F1080400EE810AEBD109F101005C
:10095000AAEC010A1FFA80F9486800EB8902A8F1A5
:1009600001001FFA80F8B8F1000F99D1009806EB4A
:100970008706184480B20090681E05042D0C87D1AC
:1009800002B00020BDE8F08F0000000070B40588C0
:100990000E884468D1F804C05368B54208D1408835
:1009A0004988884201BF11888D425188884203D00E
:1009B00070BC6FF00200704705FB00F1880827D07B
:1009C00094ED001ADCED000A94ED010ADCED011A49
:1009D00031EE601AD4ED020A70EE611A9CED020A43
:1009E00083ED001AC3ED011A94ED031ADCED031A2E
:1009F00030EEC00A401E71EE610A83ED020A04F176
:100A00001004C3ED030A03F110030CF1100CD7D14D
:100A100011F0030030D0B0F1004F30D200282BDDB0
:100A2000211F1B1FACF1040210F0010F0AD091ED41
:100A3000010AD2ED010A091D121D30EE600A83ED94
:100A4000010A1B1D400817D091ED010AD2ED010AE1
:100A5000401E30EE600A83ED010A91ED020AD2EDEC
:100A6000020A01F1080102F1080230EE600A83ED8A
:100A7000020A03F10803E7D170BC00207047B4EC10
:100A8000010A401EFCEC010A30EE600AA3EC010AE8
:100A9000F5D1F1E72DE9F04F02884768B0F8028000
:100AA0004888D1F8049082B04FF0000A164682427E
:100AB00007BF098888456FF0020002B018BFBDE883
:100AC000F08F4FEA980B02EB42000190C8F3400010
:100AD000CDF8000009EB8A01BBF1000F33D001987B
:100AE00001EB820C01EB80043B46E64601EBC205BC
:100AF0004FEA0B0093ED000A401E81ED000A93EDD2
:100B0000010A01EB02118CED000A93ED020A0CEBD5
:100B1000021C85ED000A93ED030A05EB021584ED36
:100B2000000A04EB021403F11003E3D10EEB820080
:100B300000EB820000EB8201ABF10100504307EBB8
:100B40000B1701EB001118F0030C21D03B1FA1EB98
:100B500082011CF0010F06D093ED010A01EB820126
:100B60001B1D81ED000A009880B100BF93ED010AC2
:100B700001EB820401EBC20184ED000A93ED020A4D
:100B8000401E81ED000A03F10803EFD107EB8C074B
:100B90000AF101001FFA80FA701E0604360C99D182
:100BA00002B00020BDE8F08F40EA01039B0703D0AC
:100BB00009E008C9121F08C0042AFAD203E011F89C
:100BC000013B00F8013B521EF9D27047D2B201E05E
:100BD00000F8012B491EFBD270470022F6E710B542
:100BE00013460A4604461946FFF7F0FF204610BD9B
:100BF0002DE9FE4F804681EA0300C00F0C460090AD
:100C000021F0004123F00045B8EB0200A94105D2D4
:100C10004046214690461C460B46024623F00040C3
:100C2000104347D0270DC7F30A00C3F30A510290BF
:100C3000401A019040286BDAC3F3130040F4801B84
:100C40000098924620B10023D2EB030A63EB0B0B12
:100C500001985946C0F14002504600F00FF906468F
:100C60000D4650465946019A00F027F910EB08004E
:100C70006141002487EA115284EAE7731A4340D0A5
:100C8000009A62B3019A012A4FEA075215DC001B51
:100C900061EB02014FF0004202EA0752CDE9004247
:100CA000001C41F5801132462B4600F027F903B0B5
:100CB000BDE8F08F40462146F9E7001B61EB0201D9
:100CC000001C41F5801300185B412018A2F50017A5
:100CD00047EB030140EAD570B6196D4111E06D088C
:100CE0004FEA360645EAC0754FEA0752001B61EB32
:100CF0000201001C41F5801149084FEA300000193B
:100D0000514132462B4603B0BDE8F04F00F0E7B842
:100D10000098012240000023D0EB020263EBE07355
:100D2000009821464FEAE074B8EB000061EB040143
:100D3000E9E783F000435BE781F0004158E72DE9E4
:100D4000F04D81EA030404F0004B21F00045144605
:100D50004FF0000A23F0004150EA050220D054EA87
:100D600001021DD0C5F30A570246C5F31303C1F3B0
:100D70001300C1F30A5640F4801543F48013A7EB27
:100D80000608101BD64608F2FD3873EB050002D3A7
:100D900008F1010801E092185B41B8F1000F03DA95
:100DA00000200146BDE8F08D00204FF4801106467A
:100DB00084460EE0171B73EB050705D3121B63EB8C
:100DC000050306434CEA010C49084FEA300092182B
:100DD0005B4150EA0107EDD152EA030012D082EAEA
:100DE000040083EA0501084305D0101BAB4106D27D
:100DF0000122002306E000224FF0004302E06FF0E2
:100E0000010253101AEB06004CEB085110EB0A00DC
:100E100041EB0B01BDE8F04D00F061B80EB5C10F1C
:100E200080EAE0700844CA07002140F233438DE8AD
:100E30000E000A460B4600F061F803B000BD70B525
:100E4000C1F30A5201F000450024C1F3130140F23E
:100E5000FF3341F480119A4201DA002070BD40F264
:100E600033439A42A2F2334203DC524200F015F8B7
:100E700000E090402C43F1D0404270BD202A04DBBA
:100E8000203A00FA02F1002070479140C2F120039D
:100E900020FA03F3194390407047202A04DB203ADC
:100EA00021FA02F00021704721FA02F3D040C2F18A
:100EB00020029140084319467047202A06DBCB17D1
:100EC000203A41FA02F043EAE07306E041FA02F305
:100ED000D040C2F12002914008431946704710B536
:100EE000141E73F1000408DA401C41F1000192184D
:100EF0005B411A4301D120F0010010BD2DE9F04DF6
:100F000092469B4611B1B1FA81F202E0B0FA80F24A
:100F100020329046FFF7B2FF04460F4640EA0A002F
:100F200041EA0B0153465A46084313D0114653EA8F
:100F3000010019D0C8F140025046FFF7AEFF054648
:100F40000E46504659464246FFF798FF084305D0E3
:100F5000012004E020463946BDE8F08D002005431D
:100F600046EAE0762C4337430A986305E40AA0EB8F
:100F700008000022FD0A44EA47540A3002D5002046
:100F80000146E9E7010510196941DDE90845001945
:100F90006941BDE8F04DA2E7064C074D06E0E06868
:100FA00040F0010394E8070098471034AC42F6D3B0
:100FB000FFF716F9906C0008B06C000870B58C183B
:100FC00010F8015B15F0070301D110F8013B2A115D
:100FD00006D110F8012B03E010F8016B01F8016B4A
:100FE0005B1EF9D12B0705D40023521E0DD401F846
:100FF000013BFAE710F8013BCB1A921C03E013F80F
:10100000015B01F8015B521EF9D5A142D8D3002043
:1010100070BDD2ED020A92ED021AB6EE000A00EEA1
:10102000C10AD2ED030A92ED031A00EEC10AD0ED17
:10103000000A20EE200AD2ED010A92ED021A60EEBB
:10104000810A92ED001AD2ED031A41EE610A90ED89
:10105000011A00EE810AD2ED010A92ED031A60EE48
:10106000810A92ED001AD2ED021A41EE210A90EDAA
:10107000021A00EE810AF0EE000A20EE200A81ED4D
:10108000000A92ED010AD2ED020A20EE200AD2ED0A
:10109000000A92ED031A00EE810AD0ED000A60EE1C
:1010A000200A92ED011AD2ED011AB6EE000A01EE05
:1010B000610AD2ED031A92ED032AB0EE401A01EE56
:1010C000C21AD0ED011AB0EE600A01EE210AD2ED8B
:1010D000020A92ED031A60EE810A92ED001AD2ED37
:1010E000011A41EE610A90ED021A00EE810AF0EE5B
:1010F000000A20EE200A81ED010A92ED010AD2EDEC
:10110000030A20EE200AD2ED000A92ED021A00EE48
:10111000C10AD0ED000A20EE200AD2ED020A92EDBB
:10112000031A60EE810A92ED001AD2ED011A41EE27
:10113000210A90ED011A00EE810A92ED011AD2ED1A
:10114000011AF6EE000A41EE610A92ED021AD2EDA2
:10115000021A41EE610A90ED021A00EE810AF0EEE9
:10116000000A20EE200A81ED020A704700BFFEE768
:1011700008B5084840680090074900980968884207
:1011800004D206480068401C0449086002490098DF
:10119000086008BD001000E0400000203C00002076
:1011A00010B52DED028B82B004460E4840680190C8
:1011B00020680199081A00EE100AF8EE400A0A4861
:1011C00090ED000AB8EE400A80EE801AB0EE418A37
:1011D00001982060FFF7CCFFB0EE480A02B0BDECEA
:1011E000028B10BD001000E0300000201249096899
:1011F00041F08071104A11600021104A516011467F
:10120000096841F0010111600D4941430D4A116027
:10121000114609684FF47A72B1FBF2F10A4A116083
:1012200008490968064AB1FBF2F1084A1160002139
:10123000074A116070470000FCED00E0001000E07C
:1012400040420F0030000020340000203800002011
:101250003C0000207047D2ED020A92ED021AB6EE71
:10126000000A00EEC10AD2ED030A92ED031A00EE65
:10127000C10AD0ED000A20EE200AD2ED010A92ED5B
:10128000021A60EE810A92ED001AD2ED031A41EEC5
:10129000210A90ED011A00EE810AD2ED010A92EDC9
:1012A000031A60EE810A92ED001AD2ED021A41EEA5
:1012B000610A90ED021A00EE810AF0EE000A20EEBB
:1012C000200A81ED000A92ED010AD2ED020A20EE19
:1012D000200AD2ED000A92ED031A00EEC10AD0ED09
:1012E000000A60EE200A92ED011AD2ED011AB6EE64
:1012F000000A01EE610AD2ED031A92ED032AB0EE64
:10130000401A01EEC21AD0ED011AB0EE600A01EEE9
:10131000210AD2ED020A92ED031A60EE810A92EDE3
:10132000001AD2ED011A41EE210A90ED021A00EEE8
:10133000810AF0EE000A20EE200A81ED010A92ED0A
:10134000010AD2ED030A20EE200AD2ED000A92ED46
:10135000021A00EE810AD0ED000A20EE200AD2ED3A
:10136000020A92ED031A60EE810A92ED001AD2EDA4
:10137000011A41EE610A90ED011A00EE810A92ED28
:10138000011AD2ED011AF6EE000A41EE610A92ED61
:10139000021AD2ED021A41EE610A90ED021A00EE35
:1013A000810AF0EE000A20EE200A81ED020A704761
:1013B00072B600BFFEE7000070B5044600F01EF9EB
:1013C00006462546681C10B104480068054400BF65
:1013D00000F014F9801BA842FAD370BD1000002061
:1013E00000200849496901F0004151B10649054A08
:1013F0009160064991601146496901F0004101B1CF
:10140000012070470020024023016745AB89EFCDE2
:1014100078B502460B460021CAE001268E401D68C1
:1014200005EA0604002C73D01D7905F00305012D93
:1014300004D01D7905F00305022D13D190684E00EC
:101440000325B540A8434E00DD68B54028439060B1
:10145000506801258D40A8431D79C5F300158D40C6
:10146000284350601D7905F00305032D09D0D0688D
:101470004E000325B540A8434E009D68B540284363
:10148000D0601D7905F00305022D13D1CE0802F1BD
:10149000200555F826004D07EE0E0F25B540A84350
:1014A0004E07F60E1D69B5402843CE0802F120050F
:1014B00045F8260010684E000325B540A8431D7965
:1014C00005F003054E00B540284310605D6805F443
:1014D0004035002D6BD000BF384D2D6E45F0010515
:1014E000364E356635462D6E05F00105009500BF78
:1014F00000BF4FEAB6358E0855F826008D072E0F2F
:101500000F25B540A843B2F1904F02D100251AE053
:101510004DE02B4DAA4201D1012514E0294DAA42EC
:1015200001D102250FE0284DAA4201D103250AE08E
:10153000264DAA4201D1042505E0254DAA4201D13C
:10154000052500E006258E07360FB5402843214DBE
:101550008E0845F82600204D2868A0435D6805F4F4
:10156000801505B120431C4D28602D1D2868A0431F
:101570005D6805F4001505B12043174D2D1D286049
:10158000154D2D1F2868A0435D6805F4003505B191
:101590002043114D2D1F28602D1F2868A0435D6832
:1015A00005F4803505B120430B4D083D2860491CEA
:1015B0001D68CD40002D7FF430AF78BD0010024093
:1015C0000004004800080048000C004800100048D3
:1015D00000140048080001400804014010B54269A9
:1015E00021EA020302EA010443EA0443836110BDD5
:1015F0000AB1816100E08162704700000148006823
:10160000704700000800002003480068034909688B
:1016100008440149086070470800002010000020BD
:1016200010B50024032000F0CBF80F2000F008F8DC
:1016300008B1012401E000F04FF8204610BD000081
:10164000F0B587B004460026002700BF1E48806D15
:1016500040F001001C4988650846806D00F00100DB
:10166000009000BF00BF01A902A800F065FA00F0D9
:101670008BFA06461548B6FBF0F0471E4FF0804047
:101680001349086040F2E7311148C160476000210A
:101690000161816001F071F8054695B90C4801F0CF
:1016A000A5F805466DB91C2000F038F8102C07D2BB
:1016B000002221461C2000F045F80648046000E0A6
:1016C0000125284607B0F0BD0010024040420F003F
:1016D000180200200C00002008B500BF0E48006E64
:1016E00040F001000C4908660846006E00F0010059
:1016F000009000BF00BF00BF0846806D40F08050E2
:1017000088650846806D00F08050009000BF00BFE3
:1017100000F0F6F808BD000000100240014608463F
:1017200000280DDB00BF00BF00F01F0301229A401C
:1017300043099B0003F1E023C3F8002100BF00BF71
:1017400000BF70472DE9F05F80460D46164604F055
:1017500087FB074639462A46334601F00700C0F1A9
:10176000070ABAF1040F02D94FF0040A01E0C0F1F0
:10177000070AD14600F1040ABAF1070F02D24FF06E
:10178000000A01E0A0F1030AD4464FF0010A0AFA68
:1017900009FAAAF1010A0AEA020A0AFA0CFA4FF057
:1017A000010B0BFA0CFBABF1010B0BEA030B4AEA42
:1017B0000B042146404604F05BFBBDE8F09F0000AF
:1017C00000BF00F00702064B19684FF6FF031940EF
:1017D000044B0B4343EA0221014B196000BF7047E1
:1017E0000CED00E00000FA0502468ABB41480068A3
:1017F00000F4C060B0F5806F2BD13E4880300068A7
:1018000020F480703B4BC3F880001846006820F439
:10181000C06040F4007018603748006832235843B5
:10182000364BB0FBF3F0411C00E0491E31484069E3
:1018300000F48060B0F5806F01D10029F5D12D480A
:10184000406900F48060B0F5806F51D1032070478B
:1018500008E028488030006820F48070254BC3F8E9
:10186000800045E0B2F5007F3AD12248006800F4DC
:10187000C060B0F5806F2AD11E488030006840F407
:1018800080701C4BC3F880001846006820F4C060CC
:1018900040F4007018601848006832235843174B12
:1018A000B0FBF3F0411C00E0491E1248406900F40F
:1018B0008060B0F5806F01D10029F5D10D484069F5
:1018C00000F48060B0F5806F12D10320BFE70948B3
:1018D0008030006840F48070064BC3F8800007E059
:1018E0000448006820F4C06040F48060014B186038
:1018F0000020ACE7007000401400002040420F00C0
:101900000348806840F480400149886070470000C7
:10191000007000402DE9F04104460D464FF00008EC
:1019200014B90120BDE8F0817D48006800F00F0087
:10193000A8420ED27A48006820F00F002843784968
:1019400008600846006800F00F00A84201D001209E
:10195000E8E7207800F00100002864D060680328E0
:1019600023D17048006800F0007008B90120D9E761
:1019700003F064FE06466C48864237D969488068A1
:1019800000F0F00030B1207800F0020002282DD1E4
:10199000A06858BB6348806820F0F00040F08000E9
:1019A000604988604FF0800820E06068022806D116
:1019B0005C48006800F4003040B90120B2E75948A3
:1019C000006800F4806008B90120ABE700F0EEF891
:1019D00006465548864209D95248806820F0F000F2
:1019E00040F080004F4988604FF080084D48806883
:1019F00020F00300616808434A498860FFF7FEFD54
:101A0000074608E0FFF7FAFDC01B41F28831884223
:101A100001D9032086E74348806800F00C00616824
:101A2000B0EB810FEED1207800F00200022820D127
:101A3000207800F00400042805D13A48806840F47A
:101A4000E06038498860207800F00800082807D155
:101A50003448806820F4605040F4E0603149886088
:101A60003048806820F0F000A16808432D49886064
:101A700008E0B8F1800F05D12A48806820F0F00016
:101A8000284988602648006800F00F00A84219D94C
:101A90002348006820F00F00284321490860FFF721
:101AA000ADFD074608E0FFF7A9FDC01B41F28831F4
:101AB000884201D9032035E71948006800F00F007B
:101AC000A842F0D1207800F00400042807D115487E
:101AD000806820F4E060E16808431249886020785B
:101AE00000F00800082808D10E48806820F46050F3
:101AF000216940EAC1000B49886000F057F80949A4
:101B00008968C1F30311094A515C01F01F01C84003
:101B10000749086007480068FFF792FD02E70000E8
:101B2000002002400010024000B4C404B86B00085A
:101B3000140000200C0000200F2202600D4A926861
:101B400002F0030242600B4A926802F0F0028260E7
:101B5000084A926802F4E062C260064A926802F49F
:101B60006052D2080261044A126802F00F020A6051
:101B70007047000000100240002002400148006849
:101B8000704700001400002000B5FFF7F7FF05497B
:101B90008968C1F30221044A515C01F01F01C84069
:101BA00000BD000000100240C86B000870B5224D57
:101BB000AD6805F00C05042D01D120483AE01E4D1A
:101BC000AD6805F00C05082D01D11C4832E01A4D16
:101BD000AD6805F00C050C2D2BD1174DED6805F007
:101BE0000304154DED68C5F303156A1C022C0CD0D7
:101BF000032C09D1114DB5FBF2F50F4EF668C6F373
:101C0000062605FB06F10AE000BF0C4DB5FBF2F518
:101C1000094EF668C6F3062605FB06F100BF00BFB5
:101C2000054DED68C5F341656D1C6B00B1FBF3F02C
:101C300000E0002070BD0000001002400024F4000D
:101C40002DE9F843044614B90120BDE8F883207853
:101C500000F00100002865D0FC48806800F00C0707
:101C6000FA48C06800F003060C2F01D1032E01D002
:101C7000082F0AD1F548006800F40030002851D040
:101C8000606800284ED10120DFE700BF6068B0F532
:101C9000803F06D1ED48006840F48030EB49086091
:101CA0001AE06068B0F5A02F0BD1E848006840F456
:101CB0008020E64908600846006840F480300860EB
:101CC0000AE0E248006820F48030E04908600846F5
:101CD000006820F48020086000BF606888B1FFF7CA
:101CE0008DFC054606E0FFF789FC401B642801D9FE
:101CF0000320AAE7D548006800F400300028F2D09D
:101D000010E0FFF77BFC054606E0FFF777FC401B81
:101D1000642801D9032098E7CC48006800F400301B
:101D20000028F2D1207800F00200022860D1C748D4
:101D3000806800F00C07C548C06800F003060C2F4F
:101D400001D1022E01D0042F18D1C048006800F440
:101D5000806018B1E06808B9012076E7BB484068A8
:101D600020F0FE40217C40EA0160B8494860B84854
:101D70000068FFF765FC18B3012066E7E06800B370
:101D8000B248006840F48070B0490860FFF736FC44
:101D9000054606E0FFF732FC401B022801D903206C
:101DA00053E7AA48006800F480600028F2D0A748F2
:101DB000406820F0FE40217C40EA0160A349486071
:101DC00016E0A248006820F48070A0490860FFF780
:101DD00015FC054606E0FFF711FC401B022801D95F
:101DE000032032E79948006800F480600028F2D1AF
:101DF000207800F00800082836D16069D0B19348F7
:101E00009430006840F001009049C1F89400FFF759
:101E1000F5FB054606E0FFF7F1FB401B022801D960
:101E2000032012E789489430006800F0020000287F
:101E3000F1D019E085489430006820F00100834912
:101E4000C1F89400FFF7DAFB054606E0FFF7D6FB82
:101E5000401B022801D90320F7E67C489430006833
:101E600000F002000028F1D1207800F004000428DE
:101E700072D14FF000087548806D012121EA107081
:101E800078B100BF7148806D40F080506F4988651F
:101E90000846806D00F08050009000BF00BF4FF0FA
:101EA00001086C48006800F48070B0B969480068A7
:101EB00040F4807067490860FFF7A0FB054606E024
:101EC000FFF79CFB401B022801D90320BDE66148B7
:101ED000006800F480700028F2D000BFA0680128DC
:101EE00008D15A489030006840F001005749C1F8C5
:101EF000900021E0A06805280FD154489030006878
:101F000040F004005149C1F890000846D0F8900014
:101F100040F00100C1F890000EE04C48903000689D
:101F200020F001004949C1F890000846D0F890001F
:101F300020F00400C1F8900000BFA068A8B1FFF72E
:101F40005DFB054609E0FFF759FB401B41F2883174
:101F5000884202D9032078E625E03C4890300068AA
:101F600000F002000028EED013E0FFF747FB054623
:101F700008E0FFF743FB401B41F28831884201D95A
:101F8000032062E631489030006800F0020000282B
:101F9000EFD1B8F1010F05D12C48806D20F08050B1
:101FA0002A49886500BF207800F02000202836D11B
:101FB000A069D0B125489830006840F0010023495D
:101FC000C1F89800FFF71AFB054606E0FFF716FB7D
:101FD000401B022801D9032037E61C4898300068CE
:101FE00000F002000028F1D019E01848983000688D
:101FF00020F001001549C1F89800FFF7FFFA0546E7
:1020000006E0FFF7FBFA401B022801D903201CE67B
:102010000E489830006800F002000028F1D1E06915
:10202000002860D00948806800F00C000C287AD0A5
:10203000E069022858D10548006820F08070034903
:102040000860FFF7DBFA05460DE0000000100240D3
:102050000C00002000700040FFF7D0FA401B02285F
:1020600001D90320F1E54A48006800F0007000281B
:10207000F2D1D4E90810401E41EA0011A06A41EAF9
:102080000021208E0122C2EB500041EA4051342051
:10209000005DC2EB500041EA40612C20005D41EA46
:1020A000C0603B49C9683B4A114008433849C86091
:1020B0000846006840F0807008600846C06840F03C
:1020C0008070C860FFF79AFA054606E0FFF796FAB7
:1020D000401B022801D90320B7E52D48006800F015
:1020E00000700028F2D051E02948006820F080708C
:1020F00027490860FFF782FA054606E0FFF77EFAF7
:10210000401B022801D903209FE52148006800F008
:1021100000700028F2D11E48C0681F4908401C49C1
:10212000C86033E0FFE7E069012800D18DE5184879
:10213000C66806F00301206A814225D106F0F0014D
:10214000606A401EB1EB001F1ED106F4FE41A06A7A
:10215000B1EB002F18D106F078412C20005DB1EBD7
:10216000C06F11D106F4C001208E0122C2EB5000D5
:10217000B1EB405F08D106F0C0613420005DC2EBD6
:102180005000B1EB406F01D001205EE500205CE51E
:10219000001002400C809F01FCFFEEFE70B504466B
:1021A0000CB9012070BD606A38B96068B0F5827FF3
:1021B00000D105E00021E16102E0002121616161BF
:1021C0000021A16294F85D0028B9002084F85C0029
:1021D000204600F061F8022084F85D002068006865
:1021E00020F0400021680860E068B0F5E06F01D998
:1021F000002501E04FF48055E068B0F5706F05D020
:10220000E068B0F5E06F01D00021A162A08800F481
:102210008270218901F404410843217C01F002010C
:102220000843217D01F001010843218B01F4007175
:102230000843217F01F0380108432021095D01F0A6
:1022400080010843218D01F4005108432168086092
:102250000421A06901EA104094F8241001F0100153
:10226000084394F8341001F008010843A18901F4EF
:102270007061084305F48051084321684860206874
:10228000C06920F400602168C86100202066012038
:1022900084F85D00002085E710B586B0044614215F
:1022A00001A8FEF79AFC18492068884229D100BF8E
:1022B0001648006E40F48050144908660846006EC7
:1022C00000F48050009000BF00BF00BF0846C06C03
:1022D00040F00100C8640846C06C00F001000090A6
:1022E00000BF00BFE0200190022002900020039078
:1022F000032004900520059001A94FF09040FFF7BE
:1023000087F806B010BD0000003001400010024008
:102310002DE9FE4F04460F4690461D460C9E0120B7
:102320000090FFF76BF9824694F85DB06068019009
:10233000A9460295BBF1010F0BD00198B0F5827F41
:1023400004D1A06810B9BBF1040F02D00220BDE88F
:10235000FE8F1FB1B8F1000F00D00DB90120F6E7D4
:1023600000BF94F85C00012801D10220EFE70120B2
:1023700084F85C0000BF94F85D00042802D00520BA
:1023800084F85D0000202066C4F84080A4F8465020
:10239000A4F84450A763E587A587E0642065E0685A
:1023A000B0F5E06F02D80298012806D9206840688D
:1023B00020F480502168486005E02068406840F4BF
:1023C0008050216848602068006800F04000402884
:1023D00005D02068006840F0400021680860E0688F
:1023E000B0F5E06F56D9606810B1B9F1010F09D1AD
:1023F000A06B00882168C860A06B801CA063E08F80
:10240000401EE0873EE02068806800F0020002285D
:1024100010D1E08F70B1009801280BD1A06B00881B
:102420002168C860A06B801CA063E08F401EE0871D
:10243000002000902068806800F0010080B1B4F8AE
:10244000460068B12068C068216C0880206C801C40
:102450002064B4F84600401EA4F846000120009015
:10246000FFF7CCF8A0EB0A00B0420BD3701C48B1C8
:10247000012084F85D0000BF002084F85C0000BFEC
:10248000032064E7E08F0028BDD1B4F8460000289F
:10249000B9D18DE0606810B1B9F1010F17D1E08FAB
:1024A00001280AD9A06B00882168C860A06B801C35
:1024B000A063E08F801EE08709E0A06B00782168B0
:1024C0000873A06B401CA063E08F401EE08768E0AB
:1024D0002068806800F0020002281ED1E08FE0B181
:1024E0000098012819D1E08F01280AD9A06B008833
:1024F0002168C860A06B801CA063E08F801EE0870D
:1025000009E0A06B007821680873A06B401CA063F1
:10251000E08F401EE087002000902068806800F077
:10252000010058B3B4F8460040B3B4F8460001289F
:1025300016D92068C068216C0880206C801C20643B
:10254000B4F84600801EA4F84600B4F846000128FE
:1025500012D82068406840F48050216848600BE041
:102560002068007B216C0870206C401C2064B4F84B
:102570004600401EA4F8460001200090FFF73EF8F8
:10258000A0EB0A00B04201D3701C00B94EB9012083
:1025900084F85D0000BF002084F85C0000BF0320C9
:1025A000D5E6E08F002893D1B4F8460000288FD1FB
:1025B00052463146204603F073F840B12020206691
:1025C00000BF002084F85C0000BF0120BFE60120AE
:1025D00084F85D0000BF002084F85C0000BF206E1E
:1025E00008B10120B3E60020B1E67047704770479C
:1025F00010B50346002200BF93F83C00012801D12A
:10260000022010BD012083F83C0000BF22F0FF0033
:10261000CC6840EA040222F440708C6840EA04026C
:1026200022F480604C6840EA040222F400600C68E6
:1026300040EA040222F480500C6940EA040222F4C9
:1026400000504C6940EA040222F480400C6B40EADE
:10265000040222F470200C8B40EA044222F08050E5
:10266000CC6940EA0402124C1868A04203D0114C15
:102670001868A04213D122F470000C8D40EA045275
:1026800022F080700C6A40EA040222F000704C6A6A
:1026900040EA040222F00050CC6A40EA04021868C2
:1026A000426400BF002083F83C0000BF00BFA8E7E1
:1026B000002C014000340140704770477047000013
:1026C00030B502460B4600BF92F83C00012801D10C
:1026D000022030BD012082F83C0000BF022082F8B9
:1026E0003D0010684168106884681D4D1068A8425C
:1026F00003D01C4D1068A84203D121F47001586822
:102700000143194801401868014310684160144DA5
:102710001068A84213D01068B0F1804F0FD0134D4D
:102720001068A8420BD0124D1068A84207D00D4D7A
:102730001068A84203D00F4D1068A84205D124F0BC
:1027400080049868044310688460012082F83D008A
:1027500000BF002082F83C0000BF00BFB9E70000C6
:10276000002C0140003401408FFFFFFD00040040B9
:102770000008004000400140704710B504460CB905
:10278000012010BD94F83D0028B9002084F83C00D9
:10279000204600F029F8022084F83D00211D206821
:1027A00003F0E0F8012084F8480000BF84F83E0000
:1027B00001213F2001554020015541200155422073
:1027C00001554320015500BF00BF012084F844009B
:1027D00045200155462001554720015500BF0120E5
:1027E00084F83D000020CCE770470000014691F8D6
:1027F0003D00012801D001207047022081F83D00F2
:102800000868C06840F001000B68D860184B086881
:10281000984213D00868B0F1804F0FD0154B08686C
:1028200098420BD0144B0868984207D0134B0868A5
:10283000984203D0124B0868984210D1086880680B
:10284000104B00EA0302062A0FD0B2F5803F0CD0ED
:102850000868006840F001000B68186005E008682F
:10286000006840F001000B6818600020C4E7000019
:10287000002C0140000400400008004000340140EA
:102880000040014007000100704770B50446206811
:10289000C6682068056905F00200022819D106F013
:1028A0000200022815D1401F21680861012020770D
:1028B0002068806900F0030018B12046FFF7E4FFAC
:1028C00005E0204600F020F9204600F025FA00201F
:1028D000207705F00400042819D106F0040004282C
:1028E00015D1C043216808610220207720688069E3
:1028F00000F4407018B12046FFF7C6FF05E02046FF
:1029000000F002F9204600F007FA0020207705F0D9
:102910000800082819D106F00800082815D1C0437E
:1029200021680861042020772068C06900F0030056
:1029300018B12046FFF7A8FF05E0204600F0E4F8B4
:10294000204600F0E9F90020207705F0100010285B
:1029500019D106F01000102815D1C0432168086174
:10296000082020772068C06900F4407018B1204624
:10297000FFF78AFF05E0204600F0C6F8204600F089
:10298000CBF90020207705F0010048B106F00100E6
:1029900030B16FF0010021680861204600F064FA50
:1029A00005F08000802804D005F40050B0F5005FE9
:1029B0000AD106F08000802806D16FF40250216809
:1029C00008612046FFF712FE05F48070B0F5807FA5
:1029D0000AD106F08000802806D16FF4807021684B
:1029E00008612046FFF701FE05F04000402809D1AC
:1029F00006F04000402805D1C04321680861204608
:102A000000F03BFA05F02000202809D106F0200054
:102A1000202805D1C043216808612046FFF7E7FD63
:102A200005F48010B0F5801F0BD106F48010B0F5CE
:102A3000801F06D16FF48010216808612046FFF7DF
:102A40003CFE05F40010B0F5001F0BD106F4001099
:102A5000B0F5001F06D16FF4001021680861204610
:102A6000FFF72AFE05F48000B0F5800F0BD106F4C5
:102A70008000B0F5800F06D16FF4800021680861F6
:102A80002046FFF71BFE05F40000B0F5000F0BD148
:102A900006F40000B0F5000F06D16FF400002168C5
:102AA00008612046FFF768FE70BD000010B586B0D3
:102AB0000446142101A8FEF790F8114920688842C5
:102AC0001BD100BF0F48C06C40F001000D49C86425
:102AD0000846C06C00F00100009000BF00BF8815E0
:102AE000019002200290002003900490062005909F
:102AF00001A94FF09040FEF78BFC06B010BD00001E
:102B0000002C01400010024070472DE9F0410446BE
:102B10000D461646002700BF94F83C00012802D15C
:102B20000220BDE8F081012084F83C0000BF0C2E9B
:102B300051D005DC4EB1042E1ED0082E7AD133E0E0
:102B4000102E60D0142EF9D175E02946206802F0CD
:102B500081FF2068806940F0080021688861206852
:102B6000806920F0040021688861206880692969F3
:102B700008432168886178E02946206802F0C0FF98
:102B80002068806940F4006021688861206880695D
:102B900020F480602168886120688069296940EAA2
:102BA00001202168886160E02946206803F002F86E
:102BB0002068C06940F008002168C8612068C069C9
:102BC00020F004002168C8612068C06929690843B1
:102BD0002168C86149E02946206803F045F820686B
:102BE000C06940F400602168C8612068C06920F4B1
:102BF00080602168C8612068C069296940EA0120B5
:102C00002168C86131E02946206803F087F8206810
:102C1000006D40F00800216808652068006D20F014
:102C20000400216808652068006D2969084321684F
:102C300008651AE017E02946206803F0A7F8206825
:102C4000006D40F40060216808652068006D20F484
:102C50008060216808652068006D296940EA0120CC
:102C60002168086501E0012700BF00BF00BF002008
:102C700084F83C0000BF384653E710B504460CB951
:102C8000012010BD94F83D0028B9002084F83C00D4
:102C9000204600F029F8022084F83D00211D20681C
:102CA00002F060FE012084F8480000BF84F83E0076
:102CB00001213F200155402001554120015542206E
:102CC00001554320015500BF00BF012084F8440096
:102CD00045200155462001554720015500BF0120E0
:102CE00084F83D000020CCE708B5094A016891420C
:102CF0000DD100BF0749096E41F40061054A116614
:102D00001146096E01F40061009100BF00BF08BDCB
:102D1000002C0140001002407047000070B50446CE
:102D20000D4615B994F83E0015E0042D02D13F2060
:102D3000005D10E0082D02D14020005D0BE00C2D5D
:102D400002D14120005D06E0102D02D14220005D3D
:102D500001E04320005D012801D0012070BD1DB9B4
:102D6000022084F83E001AE0042D03D102213F2006
:102D7000015514E0082D03D10221402001550EE039
:102D80000C2D03D102214120015508E0102D03D163
:102D900002214220015502E0022143200155012277
:102DA0002946206802F044FE2749206888420FD057
:102DB0002649206888420BD025492068884207D0E0
:102DC00024492068884203D023492068884201D1E1
:102DD000012000E0002028B12068406C40F4004051
:102DE0002168486418492068884213D02068B0F1EF
:102DF000804F0FD01949206888420BD018492068AD
:102E0000884207D011492068884203D010492068C1
:102E1000884210D120688068124900EA0106062E17
:102E20000FD0B6F5803F0CD02068006840F001005C
:102E30002168086005E02068006840F00100216812
:102E4000086000208AE70000002C014000340140A7
:102E5000004001400044014000480140000400409F
:102E6000000800400700010010B504462068B0F1DA
:102E7000804F01D1FEF7C8FB10BD704770B5044606
:102E800000202074A37B484D2D8803FB05F2616868
:102E9000D4F8F400FDF788FEA27B434B1B8802FBAD
:102EA00003F16068FDF799FEA27B3F4B1B885A43F4
:102EB000A37B02FB03F1D4F81801FDF78EFE227B01
:102EC000394B1B885A43A37B02FB03F1D4F80C0156
:102ED000FDF783FE002031E0D4F8F41001EB80010F
:102EE00091ED000AB5EEC00AF1EE10FA24D0D4F844
:102EF000F41001EB800191ED000A227CD4F8F4106B
:102F000001EB820181ED000A227C616A8854A1698B
:102F100001EB800191ED000A6169095C227B237C51
:102F200012FB0311491ED4F80C2102EB810181ED43
:102F3000000A217C491C2174411CC8B2A17B81423A
:102F4000CADC002011E0626A125CE16901EB8201D7
:102F500091ED000A227C00FB0202D4F8181101EB6B
:102F6000820181ED000A411CC8B2217C8142EADC69
:102F7000207CA4F87800217B7A200153207BA4F8E0
:102F80008000217C82200153207CA4F89000217CC9
:102F900092200153207BA4F89800217C9A200153B1
:102FA000207CA4F8480070BD8200002000BFFEE72E
:102FB00010B5002210214FF09040FEF719FBFE499A
:102FC000752000F0FAFA012210214FF09040FEF730
:102FD0000FFB002210214FF09040FEF709FBF52077
:102FE00000F0F8FA0122F449752000F0D3FA01222A
:102FF00010214FF09040FEF7FBFA002210214FF015
:103000009040FEF7F5FAEC49752000F0D6FA01225F
:1030100010214FF09040FEF7EBFA002210214FF004
:103020009040FEF7E5FA0021762000F0E3FA012255
:1030300010214FF09040FEF7DBFA002210214FF0F4
:103040009040FEF7D5FA0121762000F0D3FA012254
:1030500010214FF09040FEF7CBFA6420FEF7ACF958
:10306000D548007847287CD1002210214FF09040AD
:10307000FEF7BEFA0121762000F0BCFA01221021F1
:103080004FF09040FEF7B4FA002210214FF090402C
:10309000FEF7AEFA02217A2000F0ACFA01221021EC
:1030A0004FF09040FEF7A4FA002210214FF090401C
:1030B000FEF79EFA0021762000F09CFA01221021F2
:1030C0004FF09040FEF794FA002210214FF090400C
:1030D000FEF78EFA4021162000F08CFA0122102112
:1030E0004FF09040FEF784FA002210214FF09040FC
:1030F000FEF77EFAB049652000F05FFA0122102148
:103100004FF09040FEF774FA002210214FF09040EB
:10311000FEF76EFA0021652000F06CFA0122102102
:103120004FF09040FEF764FA002210214FF09040DB
:10313000FEF75EFA0021602000F05CFA0122102107
:103140004FF09040FEF754FA002210214FF09040CB
:10315000FEF74EFA0221612000F04CFA0122102104
:1031600000E011E24FF09040FEF742FA00221021F9
:103170004FF09040FEF73CFA8F480178652000F050
:1031800039FA012210214FF09040FEF731FA002267
:1031900010214FF09040FEF72BFA63215F2000F0E2
:1031A00029FA012210214FF09040FEF721FA002267
:1031B00010214FF09040FEF71BFA0021762000F01E
:1031C00019FA012210214FF09040FEF711FA002267
:1031D00010214FF09040FEF70BFA3621142000F03A
:1031E00009FA012210214FF09040FEF701FA002267
:1031F00010214FF09040FEF7FBF90021762000F0FF
:10320000F9F9012210214FF09040FEF7F1F9002268
:1032100010214FF09040FEF7EBF96749652000F070
:10322000CCF9012210214FF09040FEF7E1F96248FD
:10323000007840F0040060490870002210214FF02F
:103240009040FEF7D5F95C480178652000F0D2F98E
:10325000012210214FF09040FEF7CAF9002003F040
:10326000B1F8002210214FF09040FEF7C1F9002183
:10327000762000F0BFF9012210214FF09040FEF7B8
:10328000B7F9002210214FF09040FEF7B1F94A49FA
:10329000502000F092F9012210214FF09040FEF7EB
:1032A000A7F945480078444908700846007840F07E
:1032B00006000870002210214FF09040FEF798F9A8
:1032C0003D480178502000F095F9012210214FF07F
:1032D0009040FEF78DF9002003F0A2F800221021A3
:1032E0004FF09040FEF784F90021762000F082F93B
:1032F000012210214FF09040FEF77AF900221021B0
:103300004FF09040FEF774F92B494F2000F055F92B
:10331000012210214FF09040FEF76AF9264800780C
:10332000254908700846007840F006000870002221
:1033300010214FF09040FEF75BF91F4801784F20B5
:1033400000F058F9012210214FF09040FEF750F99B
:10335000002210214FF09040FEF74AF9012176201B
:1033600000F048F9012210214FF09040FEF740F99B
:10337000002210214FF09040FEF73AF9A0210B20D7
:1033800000F038F9012210214FF09040FEF730F99B
:10339000002210214FF09040FEF72AF90C21084638
:1033A00000F028F9012210214FF09040FEF720F99B
:1033B0000022102102E00000180000204FF0904091
:1033C000FEF716F990210D2000F014F901221021CA
:1033D0004FF09040FEF70CF9002210214FF0904082
:1033E000FEF706F980210E2000F004F901221021D9
:1033F0004FF09040FEF7FCF8002210214FF0904073
:10340000FEF7F6F80221762000F0F4F801221021F0
:103410004FF09040FEF7ECF8002210214FF0904062
:10342000FEF7E6F81821032000F0E4F8012210214D
:103430004FF09040FEF7DCF8002210214FF0904052
:10344000FEF7D6F89021042000F0D4F801221021D4
:103450004FF09040FEF7CCF8002210214FF0904042
:10346000FEF7C6F88021052000F0C4F801221021E3
:103470004FF09040FEF7BCF8002210214FF0904032
:10348000FEF7B6F80021762000F0B4F801221021F2
:103490004FF09040FEF7ACF8002210214FF0904022
:1034A000FEF7A6F81221512000F0A4F80122102105
:1034B0004FF09040FEF79CF8002210214FF0904012
:1034C000FEF796F80521532000F094F80122102110
:1034D0004FF09040FEF78CF8002210214FF0904002
:1034E000FEF786F83321522000F084F801221021E3
:1034F0004FF09040FEF77CF8002210214FF09040F2
:10350000FEF776F80021762000F074F801221021F1
:103510004FF09040FEF76CF8002210214FF09040E1
:10352000FEF766F819494E2000F047F801221021F5
:103530004FF09040FEF75CF81448007820F020002F
:10354000124908700846007840F00C0008700846E0
:10355000007840F003000870002210214FF09040E6
:10356000FEF746F8094801784E2000F043F80122A2
:1035700010214FF09040FEF73BF80120FDF71CFFB3
:1035800001200349087010BD0020FCE7180000204E
:10359000190000202DE9F04107460C46154600268B
:1035A00000BF06E0207800F015F82070641C701C45
:1035B000C6B2AE42F6DBBDE8F08170B504460D46FA
:1035C000FF2644F0800000F005F8304600F002F8D5
:1035D000287070BD01B582B00520012301AA02A99F
:1035E00000900348FEF794FE9DF804000EBD000015
:1035F0006801002070B505460C462846FFF7EAFF33
:103600002046FFF7E7FF70BD10B586B0A1480068FF
:10361000401CA0490860A048007880B99FED9F1A1F
:10362000F3EE040A9FED9E0A4FF496734FF4FA628C
:1036300000219C4801F0D8FF0120974908709A4862
:1036400002F03EFF994A07CA03AB07C39848FDF74B
:10365000A7FD984880ED000A974890ED000A95482C
:10366000D0ED000A30EE200A934880ED000A9FED6D
:10367000930A934880ED100A8B4890ED000A904819
:1036800080ED070A884890ED010A8D4880ED080A10
:10369000854890ED020A8A4880ED090A824890ED3B
:1036A000030A874880ED040A7F4890ED040A8448A5
:1036B00080ED050A7C4890ED050A814880ED060AF8
:1036C00090ED091AF0EE410A90ED071AB0EE410AAA
:1036D00002F004FDB1EE400ADFED7A0A20EE200A86
:1036E000DFED790A80EE201A754880ED1A1A90ED08
:1036F000091AF0EE410A90ED081AB0EE410A02F004
:10370000EDFCDFED700A20EE200ADFED6F0A80EE9F
:10371000201A6B4880ED1B1A90ED093AF0EE432A0F
:1037200090ED083AB0EE432A90ED073AF0EE431AD6
:1037300090ED063AB0EE431A90ED053AF0EE430AEA
:1037400090ED043AB0EE430A5A4890ED003A00F08A
:103750002DFB5B495D48D0E91534026DC06D81E8F1
:103760001C00C8600A4644315948FDF752FC544ACF
:1037700002F150015748FDF74CFC514A02F15C013F
:103780005548FDF746FC4E4A694603A8FDF763FD20
:10379000002039E04A491C3101EB800191ED000A1B
:1037A000694601EB8001D1ED000A30EE600A414923
:1037B000D1ED000A60EE200A414991ED100A3D4921
:1037C00091ED001A30EE011A80EE810A3C49283151
:1037D00001EB8001D1ED000A394991ED101A60EE3C
:1037E000810A91ED101A3349D1ED001A31EE211AF8
:1037F000C0EE811A30EE210A3149283101EB8001F7
:1038000081ED000A411CC8B20328C3DB2C4A02F137
:103810003401A1F10C00FDF7FCFB304890ED6A0A81
:10382000274880ED1E0A2D4890ED690A244880ED56
:103830001D0A2A4890ED680A214880ED1C0A274895
:1038400090ED6B0A1E4880ED1F0A254802F04EFFDE
:103850001048007800F00100D0B9134890ED060A36
:10386000F0EE400A1E48B0F9000000EE100AB8EE73
:10387000C00A0C4803F056F80A4890ED100ABCEE56
:10388000C00A10EE100A82B20021164802F0B6FA01
:1038900006B010BD7C0000206D000020000000007C
:1038A00000007A44180B002064020020F46B00082A
:1038B0007000002074000020780000200AD7233C0C
:1038C000A802002000003443DB0F4940480E0020CE
:1038D000D06B0008DC6B0008E86B0008480D002086
:1038E00080000020CC01002010B5044654F8EC0FF5
:1038F00090ED000A834880ED000A206890ED010AEF
:10390000814880ED000A206890ED020A7F4880ED32
:10391000000A54F8EC0990ED030A7D4880ED000A96
:103920007848D0ED000A60EEA00A774890ED001AC2
:10393000D0ED001A41EE210A744890ED001AD0ED46
:10394000001A41EE210A724890ED001AD0ED001ADB
:1039500041EE210AB0EE600A02F03CFF6D4880EDB6
:10396000000A002012E0D4F8EC1001EB800191ED88
:10397000000A6849D1ED000A20EE200AD4F8EC10C4
:1039800001EB800181ED000A411CC8B20428EADB8A
:10399000614890ED6F0A5C48D0ED000A20EE200AE5
:1039A000F0EE000A80EE201AF834A06880ED041AC8
:1039B000594890ED6F0A5548D0ED000A20EE200AD4
:1039C000F0EE000A80EE201AA06880ED051A524839
:1039D00090ED6F0A4B48D0ED000AF1EE600A20EE40
:1039E000200AF0EE000A80EE201AA06880ED0A1A84
:1039F000494890ED6F0A4648D0ED000A20EE200AB3
:103A0000F0EE000A80EE201AA06880ED0B1A424802
:103A100090ED6F0A3E48D0ED000AF1EE600A20EE0C
:103A2000200AF0EE000A80EE201AA06880ED101A3D
:103A3000394890ED6F0A3348D0ED000AF1EE600A84
:103A400020EE200AF0EE000A80EE201AA06880ED39
:103A5000111A314890ED6F0A2C48D0ED000A20EE83
:103A6000200AF0EE000A80EE201AA06880ED161AF7
:103A7000294890ED6F0A2448D0ED000AF1EE600A63
:103A800020EE200AF0EE000A80EE201AA06880EDF9
:103A9000171A206890ED1C0A1F48D0ED740A80EEBA
:103AA000201A206880ED1C1A206890ED230A1A481D
:103AB000D0ED740A80EE201A206880ED231A54F8A5
:103AC000F80990ED1C0ADFED150AB4EEE00AF1EEFC
:103AD00010FA05DD9FED110AD4F8F80080ED1C0AFC
:103AE000D4F8F80090ED230ADFED0C0AB4EEE00AFA
:103AF000F1EE10FA05DD9FED090AD4F8F80080ED2B
:103B0000230A10BD280100202C01002030010020D4
:103B10003401002038010020480D002000401C46E0
:103B200010B52DED068BF0EE408AB0EE60AAB0EE37
:103B3000419AB0EE618AF0EE429A01203A4908704B
:103B40000846C0ED6C8A80ED6DAA80ED6E9A9FEDFF
:103B5000370A80ED730A002081F838010A46C2F85E
:103B60004001C2F844010021C2F84811C2F84C11CA
:103B7000B7EE000AB4EEC08AF1EE10FA03DDB7EE3C
:103B8000000AB0EE408A284880ED748AC0ED649A3D
:103B9000032300220621001D00F0A6FE244B012273
:103BA0001146A3F10800FCF7B7FBB7EE000A1E4868
:103BB000D0F8EC0080ED000A9FED1E0A1A48D0F8FC
:103BC000EC0080ED010A9FED1B0A1748D0F8EC00CD
:103BD00080ED020A9FED170A1348D0F8EC0080ED43
:103BE000030A15491048C0F8D0101449C0F8D41081
:103BF0001349C0F8D8101349C0F8DC10012180F82F
:103C00002E1080F82F1001469022D1F804010E49A1
:103C1000FCF7CAFF04499022D1F8FC000B49FCF7DD
:103C2000C3FFBDEC068B10BD480D002077CC2B32B6
:103C3000100F002000000000513C0008E938000887
:103C4000853C0008E1430008006C00088800002063
:103C500010B5044654F8F81F90220748FCF7A4FF5B
:103C600048220648616AFCF79FFF6169F83C4822D8
:103C70000348FCF799FF10BD88000020280F0020A2
:103C8000700F002010B5044654F8EC0F90ED000AB8
:103C9000F0EE000A20EE200A3F4880ED000A20687E
:103CA00090ED010AF0EE000A20EE200A3B4880ED7C
:103CB000000A206890ED020AF0EE000A20EE200AC9
:103CC000374880ED000A206890ED030AF0EE000A04
:103CD00020EE200A334880ED000A14F8DE2C324B27
:103CE0001B885A4314F8E03C02FB03F1206AFCF7FE
:103CF00074FF2B4890ED000AB1EE400A206A80ED77
:103D0000000A284890ED000A206A80ED010A224846
:103D100090ED000AB1EE400A206A80ED020A1F48C9
:103D200090ED000A206A80ED030A1C4890ED000A1D
:103D3000206A80ED060A184890ED000A206A80ED9E
:103D4000070A184890ED000A206A80ED080A144816
:103D500090ED000A206A80ED090A0F4890ED000AF4
:103D6000206A80ED0C0A0D4890ED000AB1EE400A81
:103D7000206A80ED0D0A0A4890ED000AB1EE400A73
:103D8000206A80ED0E0A074890ED000A206AEC3C9C
:103D900080ED0F0A10BD00003C0100204001002012
:103DA00044010020480100208200002010B52DEDC4
:103DB000088BB0EE40AAF0EE60AAB0EE41BAF0EE89
:103DC000618AB0EE429AF0EE629AB0EE438AFE4803
:103DD000007858B99FEDFD2AF7EE001A9FEDFC1A06
:103DE000DFEDFC0AB2EE040AFFF79AFEF64880ED1A
:103DF0006F8A90ED580A3AEE400A80ED5B0A90ED2A
:103E0000590A3AEEC00A80ED5C0A90ED5A0A3BEE80
:103E1000400A80ED5D0A90ED5B0AF6EE000A20EEA6
:103E2000200A20EE080AEC4880ED000AE64890EDF2
:103E30005C0AF6EE000A20EE200A20EE080AE748A7
:103E400080ED000AE04890ED5D0AF6EE000A20EEF3
:103E5000200A20EE080AE24880ED000ADA499022A2
:103E6000D1F80401DF49FCF79FFEDB4890ED000A22
:103E7000B1EE400AD448D0F8040180ED010AD748D9
:103E800090ED000AB1EE400ACF48D0F8040180ED71
:103E9000020AD34890ED000AB1EE400ACA48D0F8B1
:103EA000040180ED030ACC4890ED000AC648D0F822
:103EB000040180ED060ACA4890ED000AC248D0F815
:103EC000040180ED080AC54890ED000AB1EE400AF1
:103ED000BD48D0F8040180ED090AC04890ED000A01
:103EE000B948D0F8040180ED0C0ABD4890ED000AF5
:103EF000B1EE400AB448D0F8040180ED0D0AB6488E
:103F000090ED000AB048D0F8040180ED0F0AB448E3
:103F100090ED000AAC48D0F8040180ED120AAF48D9
:103F200090ED000AA848D0F8040180ED130AAA48D1
:103F300090ED000AB1EE400AA348D0F8040180EDEC
:103F4000140AA148D0F84811D0F84C010023594078
:103F50005840014306D19C48C0ED5E8A80ED5F9ACF
:103F6000C0ED609A984890ED5E0AD0ED640A60EE6C
:103F7000200A90ED6F0A90ED641A30EE011A80EE7F
:103F8000810AD0ED6F0A90ED641A70EE810A90ED0F
:103F90006F1A21EE281AC1EE201A30EE210A80EDA8
:103FA0005E0A90ED5F0AD0ED640A60EE200A90EDA3
:103FB0006F0A90ED641A30EE011A80EE810AD0ED9E
:103FC0006F0A90ED641A70EE810A90ED6F1A21EE7F
:103FD000091AC1EE201A30EE210A80ED5F0A90ED39
:103FE000600AD0ED640A20EE200AD0ED6F0A90ED51
:103FF000641A30EE811AC0EE010A90ED6F0A90ED5E
:10400000641A30EE010A90ED6F1A21EE291AC1EE02
:10401000001A30EEA10A80ED600AD0ED5E0A60EE73
:10402000A00A90ED5F1AD0ED5F1A41EE210A90EDE3
:10403000601AD0ED601A41EE210AB0EE600A02F07B
:10404000C9FB694880ED000A002011E0674901EBD7
:10405000800191ED000A6449D1ED000A20EE200AAA
:104060005949896801EB800181ED000A411CC8B201
:104070000328EBDB5448D0ED5B0A60EEA00A90ED1C
:104080005C1AD0ED5C1A41EE210A90ED5D1AD0ED7C
:104090005D1A41EE210AB0EE600A02F09BFBF7EEDA
:1040A000000A80EE801A484880ED651A4E4890ED6F
:1040B000000AF7EE000A80EE801A434880ED661A87
:1040C00090ED650ADFED4A0AB4EEE00AF1EE10FA6F
:1040D00016D290ED660ADFED470AB4EEE00AF1EE83
:1040E00010FA0DDD90ED660ADFED430AB4EEE00A4A
:1040F000F1EE10FA04D20120334981F8390103E0CE
:104100000020314981F839012F4890ED6C0AD0ED3B
:104110006F0A20EE200AD0F8180180ED000A2A4824
:1041200090ED6C0AD0ED6F0A20EE200AD0F818014D
:1041300080ED070A244890ED6C0AD0ED6F0A20EE5E
:10414000200AD0F8180180ED0E0A1F4890ED6C0A85
:10415000D0ED6F0A20EE200AD0F8180180ED150A84
:10416000194890ED6D0AD0ED6F0A20EE200AD0F8C4
:10417000180180ED1C0A144890ED6D0AD0ED6F0A0D
:1041800020EE200AD0F8180180ED230A0E4890EDA9
:104190006E0AD0F81C0180ED000A0B4890ED6E0A03
:1041A000D0F81C0180ED040A074890ED6E0AD0F8A3
:1041B0001C0180ED080A0448001D01F015F80248B2
:1041C000406890ED000A19E0480D00200000000052
:1041D0008096184B6F12833A180100201C010020B2
:1041E00020010020006C000824010020C00E0020E7
:1041F0009A99993ECDCC1441CDCC2441734880EDA1
:10420000540A406890ED010A704880ED550A4068F4
:1042100090ED020A6D4880ED560A406890ED030A61
:104220006A4880ED570A406890ED040A674880EDBF
:10423000580A406890ED050A644880ED590A1FED60
:104240001D0A80ED5A0A90ED561A21EE011AD0EDA2
:10425000571A90ED572A01EE821AF7EE001AB8EEBF
:10426000002A42EE011AF0EE610A90ED541AD0EDE8
:10427000571A21EE211AD0ED551A90ED562A01EE6B
:10428000821AF0EE001A21EE211AB0EE410A01F076
:1042900025FFDFED4F0A20EE200A4C4880ED6A0A28
:1042A00090ED551A21EE011AD0ED561A90ED562ACE
:1042B00001EE821AF7EE001AB8EE002A42EE011A59
:1042C000F0EE610A90ED541AD0ED551A21EE211A44
:1042D000D0ED561A90ED572A01EE821AF0EE001A30
:1042E00021EE211AB0EE410A01F0F8FEDFED380AA6
:1042F00020EE200A354880ED690AD0ED550A90ED90
:10430000571A60EE810A90ED541AD0ED561A41EE1C
:10431000610AB8EE001A60EE810AB0EE600A01F0A0
:1043200047FEDFED2B0A20EE200A284880ED680AC0
:1043300090ED6A0AD0ED760A30EE600ADFED250ACC
:10434000B4EEE00AF1EE10FA07DDB0F8D401401E39
:1043500000B21E49A1F8D40114E01C4890ED6A0A8D
:10436000D0ED760A30EE600ADFED1B0AB4EEE00A0B
:10437000F1EE10FA06D2B0F8D401401C00B2134995
:10438000A1F8D401114890ED6A0AB0F9D40100EE09
:10439000900AF8EEE00A9FED111A01EE200A0B4890
:1043A00080ED6B0A90ED6A0A80ED760AD0F848211C
:1043B000D0F84C01521C40F100000449C1F84821DA
:1043C000C1F84C01BDEC088B10BD0000480D002069
:1043D000E12E654200003443000034C30000B443C2
:1043E00070B52DED028B044604F1800104F17800D4
:1043F000FCF750FB84F8C800B4F87800A4F8A800D3
:104400005A20015BAA20015304F1A80204F15801CB
:1044100004F17800FCF71CFA84F8C800B4F8A8008E
:10442000A4F8B0008220015BB220015304F1B00275
:1044300004F1800104F1A800FCF70AFA84F8C8002E
:10444000B4F89000A4F8A0009220015BA2200153D0
:1044500004F1A00204F1900104F1B000FBF7D8FED2
:1044600084F8C80004F1B00104F1A000FBF758FF84
:10447000AC342077206C90ED000AFE4880ED000AF5
:10448000206C90ED010AFC4880ED000A206C90ED54
:10449000020AFA4880ED000A206C90ED030AF84801
:1044A00080ED000A34F8340CA081AC3C0121BA2024
:1044B0000153F14890ED000AF148D0ED000A20EEDA
:1044C000200AEC48D0ED000AEC4890ED001A00EE0E
:1044D000C10AF0EE000A20EE200AD4F82C0180ED8B
:1044E000000AE44890ED000AE348D0ED000A20EE0F
:1044F000200AE248D0ED000AE14890ED001A00EEF3
:10450000810AF0EE000A20EE200AD4F82C0180ED9A
:10451000010AD84890ED000A20EE000AD648D0EDF6
:10452000000A90ED001A00EEC10AD448D0ED000A4E
:1045300090ED001A00EEC10AD148D0ED000A90EDCE
:10454000001A00EE810AD4F82C0180ED020A002541
:1045500012E0D4F82C0100EB850090ED000AB0EEDB
:10456000C00AB0EE408A01F097FCC64800EB850017
:1045700080ED000A681CC5B2032DEADBB4F84800E0
:10458000A4F8C0000121C220015304F1C00204F1CB
:10459000B80104F14800FCF7F9F984F8C800B4F850
:1045A000C000A4F8A8000121AA20015304F1A80228
:1045B00004F1C00104F1B000FCF74AF9B8342074EA
:1045C000012020802189B83CBA20015304F1B801B0
:1045D00004F1C000FCF75EFA84F8C800A94A3C3236
:1045E00004F1A80104F1B800FCF732F984F8C8001E
:1045F000A54890ED720AD0ED730AB6EE001A60EE8F
:10460000810AB4EEE00AF1EE10FA03D201209E49CD
:1046100081F838019C4890ED720AD0ED730AB4EE2F
:10462000E00AF1EE10FA46DD90F83801002842D099
:10463000954890F8390168B19348D0F84011D0F806
:104640004401491C40F100008F4AC2F84011C2F8F1
:10465000440105E000208C4AC2F84001C2F8440140
:104660008948D0F84031D0F844210020D3F13201FC
:10467000904106D20020844981F8380184F82C004A
:104680004AE0237B814D2D8803FB05F2D4E93A01F2
:10469000FCF78AFA237B7D4D2D886B43257B03FB3A
:1046A00005F2D4E93E01FCF77FFA012084F82C00E2
:1046B000BDEC028B70BD744890ED720AD0ED730AA8
:1046C0009FED731A60EE810AB4EEE00AF1EE10FA83
:1046D00014DD90F8380188B16B4890ED730AD0ED85
:1046E000720A30EE600AD0ED730A9FED6A1A60EE2E
:1046F000810A80EE201A80ED671A04E0B7EE000A06
:10470000614880ED670A00215F4AC2F84011C2F893
:104710004411002084F82C00B4F85800A4F8A80034
:104720008220015BAA20015304F1A80204F1800158
:1047300004F15800FCF78CF884F8C80004F19802E2
:1047400004F1B00104F1A800FCF782F884F8C80075
:10475000002012E0D4F81C1101EB800191ED000A59
:104760004949D1ED670A20EE200AD4F81C1101EB6B
:10477000800181ED000A411CC8B2B4F898109A2259
:10478000125B51438142E5DC042025E000211FE05B
:10479000021F3C4B03EB8202D2ED000A9FED3E1A52
:1047A00080EE810A00EB40030B44D4F81C2102EB9D
:1047B0008302D2ED000A20EE200A00EB40030B44F6
:1047C000D4F81C2102EB830282ED000A4A1CD1B20C
:1047D0000329DDDB411CC8B20628D7DBB4F89800FA
:1047E000A4F8B8000121BA20015304F1B80204F181
:1047F000C00104F19800FCF72BF884F8C8002248A7
:1048000090F83801A0B3042058E0BC21095901EB0D
:10481000800191ED000A1C49D1ED6F0A9FED1F1A2E
:1048200060EE810AB4EEE00AF1EE10FA0BDD91EDD4
:104830006F0ADFED1A0A20EE200ABC21095901EBAC
:10484000800181ED000ABC21095901EB800191ED45
:10485000000A0D49D1ED6F0A9FED111A60EE810A31
:10486000B4EEE00AF1EE10FA26D291ED6F0A19E0EB
:1048700026E000004C0100205001002054010020DF
:1048800058010020CC0E0020480D0020820000209E
:10489000CDCCCC3D6666663FDA0FC93F0AD7233CD4
:1048A0000AD723BC5FED020A20EE200ABC21095979
:1048B00001EB800181ED000A411CC8B20628A4DB8F
:1048C0009FED080ABC20005980ED030A04F1300274
:1048D00004F1B80104F13800FBF79AFC84F8C80031
:1048E00000BFE5E6000000000FB583B00420FE49DC
:1048F00008800820FD490880DDE90310087303994A
:1049000005984873039906988873002103980174E9
:104910000698029001F0D0FF039948610698029032
:104920000398406901900299FCF757F9EE48008816
:1049300006994843029001F0BFFF03998861EA4855
:104940000088069948430290039880690190029973
:10495000FCF743F9E448008806994843029001F0C7
:10496000ABFF0399C861E04800880699484302906C
:104970000398C06901900299FCF72FF9DA48008882
:1049800004994843029001F097FF03990862D648C2
:1049900000880499484302900398006A01900299A4
:1049A000FCF71BF90698029001F086FF0399486214
:1049B000069802900398406A01900299FCF70DF95D
:1049C000C948008804994843029001F075FF039993
:1049D0000860C5480088049948430290039800681D
:1049E00001900299FCF7F9F8BF48008806994843FE
:1049F000029001F061FF03994860BB480088069966
:104A0000484302900398406801900299FCF7E5F84A
:104A1000B548008805994843029001F04DFF03997D
:104A20008860B148008805994843029003988068DF
:104A300001900299FCF7D1F8AB48008804994843EB
:104A4000029001F039FF0399C1F8E800A6480088F8
:104A50000499484302900398D0F8E8000190029925
:104A6000FCF7BBF80398D0F8E80002900398007BAD
:104A7000019001220146DDE902303030FBF74CFCA9
:104A80009948008804994843029001F015FF039962
:104A9000C1F8EC00944800880499484302900398B8
:104AA000D0F8EC0001900299FCF797F80398D0F841
:104AB000EC0002900398007B019001220146DDE9A1
:104AC00002303830FBF728FC059818B38648008878
:104AD00005994843029001F0EFFE0399C1F8F000F8
:104AE000814800880599484302900398D0F8F00067
:104AF00001900299FCF771F80398D0F8F000029049
:104B00000398407B019001220146DDE902304030EC
:104B1000FBF702FC7448008806994843029001F0B4
:104B2000CBFE0399C1F8F4006F480088069948430A
:104B300002900398D0F8F40001900299FCF74DF828
:104B40000398D0F8F40002900398807B0190012232
:104B50000146DDE902304830FBF7DEFB62480088A1
:104B6000049948434843029001F0A6FE0399C1F816
:104B7000F8005D4800880499484348430290039830
:104B8000D0F8F80001900299FCF727F80398D0F8C4
:104B9000F80002900398007B01900398007B00903E
:104BA0000146DDE902305030019AFBF7B5FB4E4873
:104BB0000088049948434843029001F07DFE039920
:104BC000C1F8FC00484800880499484348430290D3
:104BD0000398D0F8FC0001900299FBF7FEFF0398C0
:104BE000D0F8FC0002900398007B01900398007BB2
:104BF00000900146DDE902305830019AFBF78CFB4A
:104C000039480088049948434843029001F054FE13
:104C10000399C1F800013448008804994843484387
:104C2000029001F049FE0399C1F804012E48008862
:104C300004994843484302900398D0F8000101903A
:104C40000299FBF7CAFF2848008804994843484363
:104C500002900398D0F8040101900299FBF7BDFF80
:104C60000398D0F8000102900398007B019003980C
:104C7000007B00900146DDE902306030019AFBF7CD
:104C80004BFB0398D0F8040102900398007B01903D
:104C90000398007B00900146DDE902306830019AFC
:104CA000FBF73AFB059878B30F480088049948430E
:104CB00005994843029001F0FFFD0399C1F80801EE
:104CC000094800880499484305994843029003988D
:104CD000D0F8080101900299FBF77FFF0398D0F804
:104CE00008010290039803E0820000208400002065
:104CF000407B01900398007B00900146DDE9023083
:104D00007030019AFBF708FBB948008806994843C0
:104D100004994843029001F0CFFD0399C1F80C01BA
:104D2000B34800880499484306994843029001F02B
:104D3000C3FD0399C1F81001AD48008806994843A6
:104D40000499484302900398D0F80C01019002990D
:104D5000FBF743FFA6480088049948430699484357
:104D600002900398D0F8100101900299FBF735FFEB
:104D70000398D0F80C0102900398007B01900398EF
:104D8000807B00900146DDE902307830019AFBF724
:104D9000C3FA0398D0F8100102900398807B019029
:104DA0000398007B00900146DDE902308030019AD3
:104DB000FBF7B2FA8E4800880499484348430290B2
:104DC00001F07AFD0399C1F814018948008804991B
:104DD0004843484302900398D0F814010190029987
:104DE000FBF7FBFE0398D0F8140102900398007BB8
:104DF00001900398007B00900146DDE90230883085
:104E0000019AFBF789FA7A48008806994843484393
:104E1000029001F051FD0399C1F81801744800880F
:104E200006994843484302900398D0F8180101902E
:104E30000299FBF7D2FE0398D0F81801029003986C
:104E4000807B01900398807B00900146DDE9023071
:104E50009030019AFBF760FA65480088049948434E
:104E600006994843029001F027FD0399C1F81C01FF
:104E70005F48008804994843069948430290039884
:104E8000D0F81C0101900299FBF7A7FE0398D0F817
:104E90001C0102900398807B01900398007B009096
:104EA0000146DDE902309830019AFBF735FA0398A4
:104EB000007B4F49098848430399097B4843029086
:104EC00001F0FAFC0399C1F820010398007B4849DE
:104ED000098848430399097B4843029001F0ECFCA0
:104EE0000399C1F824010398007B4149098848438C
:104EF0000399097B4843029001F0DEFC0399C1F855
:104F000028010398007B3A4909884843029001F040
:104F1000D3FC0399C1F82C010398007B344909881C
:104F20004843029001F0C8FC0399C1F8300103988E
:104F3000D0F8200102900398007B01900398007B39
:104F400000900146DDE90230A030019AFBF7E4F958
:104F50000398D0F8240102900398007B01900398F5
:104F6000007B00900146DDE90230A830019AFBF792
:104F7000D3F90398D0F8280102900398007B0190A0
:104F80000398007B00900146DDE90230B030019AC1
:104F9000FBF7C2F90398D0F82C0102900398007B2C
:104FA000019001220146DDE90230B830FBF7B4F987
:104FB0000398D0F8300102900398007B0190012201
:104FC0000146DDE90230C030FBF7A6F90021039865
:104FD00080F82810039880F82910039880F82A1088
:104FE000039880F82B10039880F82C1007B000BDB0
:104FF0008200002070B50446E07B18B12046FDF722
:105000003DFF11E0A37B0E4D2D8803FB05F2616887
:10501000D4F8F400FBF7C8FDA27B094B1B8802FB08
:1050200003F16068FBF7D9FD637B054D2D8803FB19
:1050300005F2A168D4F8F000FBF7B6FD70BD0000E2
:105040008200002010B5044694F82C0068BBB4F828
:105050009800A4F8A8007A20015BAA200153B4F8B4
:10506000A800A4F8B0005A20015BB220015304F15B
:10507000A80204F1780104F19800FBF7E9FB84F839
:10508000C80004F1B00204F1580104F1A800FBF7D4
:10509000DFFB84F8C80004F1500204F1B00104F110
:1050A0005800FBF773FC84F8C80010BD10B5044627
:1050B00094F8290068BB04F1680104F16000FBF773
:1050C000E9FC84F8C80004F1580204F1500104F12D
:1050D0006000FBF7BDFB84F8C800B4F85800A4F8E2
:1050E000A8006A20015BAA20015304F1A80204F180
:1050F000680104F15800FBF7ABFB84F8C80004F129
:10510000580204F1880104F1A800FBF781F884F843
:10511000C80010BD10B5044694F82A00002861D1DB
:1051200004F1800104F17800FBF7B4FC84F8C800B6
:10513000B4F87800A4F8A8005A20015BAA20015313
:1051400004F1A80204F1580104F17800FBF780FB98
:1051500084F8C800B4F8A800A4F8B0008220015B6D
:10516000B220015304F1B00204F1800104F1A8005F
:10517000FBF76EFB84F8C800B4F89000A4F8A00018
:105180009220015BA220015304F1A00204F19001DE
:1051900004F1B000FBF73CF884F8C80004F1B0015A
:1051A00004F1A000FBF7BCF884F8C800B4F858007C
:1051B000A4F8A8008220015BAA20015304F1A802F0
:1051C00004F1800104F15800FBF742FB84F8C800A9
:1051D00004F1980204F1B00104F1A800FBF738FBD8
:1051E00084F8C80010BD000070B504462046FFF7E3
:1051F00001FFD4F8CC0018B12046D4F8CC10884771
:10520000204600F085F8D4F8D00018B12046D4F834
:10521000D01088472046FFF749FFD4F8D40018B1D2
:105220002046D4F8D4108847207C08B9E07BB8B970
:105230002046FFF76FFFD4F8D80018B12046D4F805
:10524000D8108847204600F0A1F8D4F8DC0018B147
:105250002046D4F8DC1088472046FFF7F3FE13E021
:10526000237B2A4D2D8803FB05F2D4E93A01FBF795
:105270009BFC237B254D2D886B43257B03FB05F28F
:10528000D4E93E01FBF790FCD4F8E00018B12046C9
:10529000D4F8E0108847002022E0227B00FB0202C5
:1052A000D4F8F81001EB820191ED000A216A01EBBC
:1052B0008001D1ED000AB4EEE00AF1EE10FA0DD251
:1052C000216A01EB800191ED000A227B00FB0202C2
:1052D000D4F8F81001EB820181ED000A411CC8B23C
:1052E000217B8142D9DC237B084D2D8803FB05F20D
:1052F000D4F8E8102068FBF757FCD4F8E40018B1A4
:105300002046D4F8E4108847206870BD8200002051
:1053100010B5044694F8280060BB607B00282ADDA5
:10532000207BA4F8B8000121BA20015304F1B8028F
:1053300004F1300104F16000FBF78AFA84F8C80038
:10534000207BA4F8C0000121C220015304F1C00257
:1053500004F1400104F17000FBF77AFA84F8C80008
:1053600004F1380204F1C00104F1B800FAF750FF6B
:1053700084F8C80009E004F1380204F1300104F1B6
:105380006000FBF765FA84F8C80010BD10B504464C
:1053900094F82B00E0BBB4F87800A4F8B800012121
:1053A000BA20015304F1B80204F1380104F1780085
:1053B000FBF74EFA84F8C800B4F84800A4F8C0001F
:1053C0000121C220015304F1C00204F1B80104F12B
:1053D0004800FBF7DBFA84F8C800B4F89800A4F89A
:1053E000B8000121BA20015304F1B80204F1C00150
:1053F00004F19800FBF72CFA84F8C80004F130029D
:1054000004F1B80104F13800FAF702FF84F8C8008B
:1054100010BD000000B587B0142102A8FBF7DDFB2A
:1054200000BF2748C06C40F020002549C8640846EA
:10543000C06C00F02000019000BF00BF00BF084614
:10544000C06C40F00100C8640846C06C00F0010068
:10545000019000BF00BF00BF0846C06C40F00200D2
:10546000C8640846C06C00F00200019000BF00BF95
:10547000012210214FF09040FCF7BAF800224FF4BF
:1054800080511048FCF7B4F81020029001200390DE
:1054900004900220059002A94FF09040FBF7B8FF5E
:1054A0004FF48050029001200390022004900020CD
:1054B000059002A90348FBF7ABFF07B000BD000051
:1054C000001002400004004810B51248124908605C
:1054D0004FF48270486000210F4881604FF4E06112
:1054E000C1600021016141614FF4007181611821A7
:1054F000C16100210162416281620721C162002114
:10550000016308214163FCF749FE08B1FBF750FF36
:1055100010BD0000003001406801002000B597B0C8
:1055200000201490159016901C210DA8FBF755FB38
:1055300034216846FBF751FB27482849086053206F
:10554000486000212548816040F2CF71C160002190
:10555000016141618161FDF790FB08B1FBF728FF14
:10556000002014901590169014A91C48FDF7A8F877
:1055700008B1FBF71DFF60200D9000200E900F90EA
:10558000109011901290139000220DA91348FDF76E
:10559000BCFA08B1FBF70CFF0020009001900290CC
:1055A000039004904FF4005005900020069007905F
:1055B00008904FF00070099000200A900B900C901A
:1055C00069460648FDF714F808B1FBF7F1FE0348F9
:1055D000FDF76CFA17B000BD002C0140CC01002093
:1055E00000BFFEE700BFFEE72DE9F0412DED048B83
:1055F00004460D4616461F46B0EE408AF0EE608A1D
:10560000B0EE419A0A48A0660A48E066B0EE491A30
:10561000F0EE680AB0EE480A3B463246294620467C
:10562000D4F868C0E047BDEC048BBDE8F081000011
:10563000596B00086D6B00087047000070B5164D7F
:10564000ED6805F00304144DED68C5F303156B1CFC
:10565000022C0CD0032C09D1104DB5FBF3F50E4EE6
:10566000F668C6F3062605FB06F10AE000BF0B4DFF
:10567000B5FBF3F5084EF668C6F3062605FB06F102
:1056800000BF00BF044DED68C5F341656D1C6A00A5
:10569000B1FBF2F070BD0000001002400024F400E5
:1056A000F8B504460E461546334600224FF4C05165
:1056B0002046009500F026F828B1206E40F020002A
:1056C00020660320F8BD3346002280212046009545
:1056D00000F094F828B1206E40F0200020660320EE
:1056E000F0E7334600224FF4C0612046009500F0F9
:1056F00009F828B1206E40F0200020660320E1E781
:105700000020DFE72DE9FC5F04460D4616461F46E4
:10571000DDF8309000200090FBF770FFA0EB09004F
:10572000A7EB0008FBF76AFF8246206800F10C0B2C
:1057300031480068C0EBC00000EB8000000D00FBAA
:1057400008F0019050E0B5F5C06F05D126B99BF87F
:10575000000000909DF80000781C002844D0FBF762
:105760004DFFA0EB0A00404502D2B8F1000F34D142
:105770002068406820F0E000216848606068B0F56B
:10578000827F0DD1A068B0F5004F03D0A068B0F5BE
:10579000806F05D12068006820F040002168086013
:1057A000A06AB0F5005F0DD100BF2068006820F44A
:1057B0000050216808602068006840F400502168AB
:1057C000086000BF012084F85D0000BF002084F85D
:1057D0005C0000BF0320BDE8FC9F019808B94FF0B2
:1057E00000080198401E0190206880682840B0425F
:1057F000A9D10020EFE70000140000202DE9F84FA8
:1058000004460D4690461E46DDF82890FBF7F6FE4E
:10581000A0EB0900371AFBF7F1FE82462C4800681E
:10582000C0F3CB307843009045E0701C002842D094
:10583000FBF7E4FEA0EB0A00B84200D2A7BB206849
:10584000406820F0E000216848606068B0F5827F21
:105850000DD1A068B0F5004F03D0A068B0F5806FFF
:1058600005D12068006820F0400021680860A06A27
:10587000B0F5005F0DD100BF2068006820F4005033
:10588000216808602068006840F4005021680860C2
:1058900000BF012084F85D0000BF002084F85C0098
:1058A00000BF0320BDE8F88FFFE7009800B900278C
:1058B0000098401E0090206880682840A84201D1CE
:1058C000012000E000204045AFD10020EAE70000C1
:1058D000140000207047704700B593B0382105A828
:1058E000FBF77BF914216846FBF777F90020FBF7FB
:1058F0007BFF012005900004069002200C900321FC
:105900000D9101210E9115210F91022110911191FC
:10591000129105A8FCF794F908B1FBF749FD0F2097
:105920000090032001900020029003900490042135
:105930006846FBF7EFFF08B1FBF73AFD13B000BD77
:105940000348006840F47000014908607047000097
:1059500088ED00E010B50248FCF797FF10BD00008D
:105960001802002010B502682A4B98420BD0B0F103
:10597000804F08D0284B984205D0284B984202D03F
:10598000274B984203D122F070024B681A43214BF7
:10599000984214D0B0F1804F11D01F4B98420ED0D6
:1059A0001E4B98420BD01E4B984208D01D4B98427C
:1059B00005D01D4B984202D01C4B984203D122F4D3
:1059C0004072CB681A4322F080034C6943EA040218
:1059D00002608B68C3620B6883620E4B98420BD0E7
:1059E0000F4B984208D00F4B984205D00E4B98426F
:1059F00002D00E4B984201D10B690363012343612E
:105A0000036903F001031BB1036923F00103036180
:105A100010BD0000002C01400004004000080040C0
:105A20000034014000400140004401400048014072
:105A300030B501F01F05012404FA05F3046A9C4304
:105A40000462046A01F01F0502FA05F52C430462A2
:105A500030BD000030B5026A056A25F00105056217
:105A600043688469204D2C4024F003040D682C43C6
:105A700022F002028D682A431C4DA84200D10FE09B
:105A80001B4DA84200D10BE01A4DA84200D107E0FF
:105A9000194DA84200D103E0184DA84206D100BF1D
:105AA00022F00802CD682A4322F004020F4DA842DA
:105AB0000BD00F4DA84208D00E4DA84205D00E4D78
:105AC000A84202D00D4DA84207D123F4807323F4DD
:105AD00000734D692B438D692B43436084614D688E
