:020000040800F2
:10000000F0170020ED010008B17900088D4E0008BE
:10001000AD79000851110008C98B000800000000EC
:1000200000000000000000000000000075800008D3
:100030000114000800000000717A000879800008AF
:10004000070200080702000807020008070200086C
:10005000070200080702000807020008070200085C
:1000600007020008070200080702000855110008EF
:1000700065110008070200080702000807020008CF
:10008000070200080000000007020008070200083D
:10009000070200080702000807020008070200081C
:1000A000070200080702000807020008070200080C
:1000B00009810008198100080702000807020008EA
:1000C00007020008070200080702000807020008EC
:1000D00007020008070200080702000807020008DC
:1000E00007020008070200080702000807020008CC
:1000F00007020008070200080702000800000000CD
:1001000000000000070200080000000007020008CD
:1001100007020008000000000702000807020008AC
:10012000070200080702000807020008070200088B
:10013000070200080000000000000000070200089D
:10014000070200080702000800000000000000008D
:10015000000000000000000000000000000000009F
:10016000000000000000000000000000070200087E
:10017000070200080000000000000000000000006E
:10018000000000000702000800000000000000005E
:10019000000000000000000000000000000000005F
:1001A000000000000000000007020008070200082D
:1001B000070200080702000807020008000000000C
:1001C000000000000702000800000000000000001E
:1001D0000702000807020008DFF80CD000F0DCFE80
:1001E0000048004779910008F01700200648804732
:1001F00006480047FEE7FEE7FEE7FEE7FEE7FEE70C
:10020000FEE7FEE7FEE7FEE7F5800008D9010008FB
:1002100070B405880E884468D1F804C05368B542AC
:1002200008D140884988884201BF11888D42518891
:10023000884203D070BC6FF00200704705FB00F1EC
:10024000880827D094ED001ADCED000A94ED010A2D
:10025000DCED011A31EE201AD4ED020A70EE211AFB
:100260009CED020A83ED001AC3ED011A94ED031A06
:10027000DCED031A30EE800A401E71EE210A83ED98
:10028000020A04F11004C3ED030A03F110030CF198
:10029000100CD7D111F0030030D0B0F1004F30D2A4
:1002A00000282BDD211F1B1FACF1040210F0010FF1
:1002B0000AD091ED010AD2ED010A091D121D30EE9E
:1002C000200A83ED010A1B1D400817D091ED010A99
:1002D000D2ED010A401E30EE200A83ED010A91EDB5
:1002E000020AD2ED020A01F1080102F1080230EE21
:1002F000200A83ED020A03F10803E7D170BC002055
:100300007047B4EC010A401EFCEC010A30EE200AF2
:10031000A3EC010AF5D1F1E7018042804360704708
:100320002DE9F34F84B0049840680090486801902C
:100330000498B0F800E04588DFEDFE0A0020029046
:10034000B0EE600AAE4506D108884988884204BFED
:100350007146864504D06FF0020006B0BDE8F08F0C
:1003600001985FEA010C18BFB7EE001A3DD000BF3C
:10037000BEEB0C0117D0B1F1004F80F01F820029B5
:1003800011DD021F11F0010F1CBFC2ED010A121D89
:100390004B1006D0C2ED010AC2ED020A08325B1E04
:1003A000F8D100EB8100BCF10102A0EC011A19D0D8
:1003B000B2F1004F80F00882002A13DD031F12F013
:1003C000010F1CBFC3ED010A1B1D511008D000BF57
:1003D000C3ED010AC3ED020A491E03F10803F7D178
:1003E00000EB8200BCF1010CC2D14FF00008039574
:1003F000002D14BFB0EE602A002000F0BF8100BFC6
:10040000009908FB05F001EB800B0199DBED002A58
:1004100001EB80000346F0EE421AC64552D9AEEB1E
:100420000802ABEB850112F0010F17D001EB85013B
:1004300091ED000AB5EEC00AF1EE10FA07DDB4EE58
:10044000E10AF1EE10FA09DDF0EE401A06E0B1EE35
:10045000400AF4EEC01AF1EE10FAF5D3521031D082
:1004600001EB850C9CED000AB5EEC00AF1EE10FA26
:1004700005DDB4EEE10AF1EE10FA09DD06E0B1EEB9
:10048000400AF4EEC01AF1EE10FA01D2F0EE401A72
:1004900001EBC50191ED000AB5EEC00AF1EE10FACC
:1004A00005DDB4EEE10AF1EE10FA09DD06E0B1EE89
:1004B000400AF4EEC01AF1EE10FA01D2F0EE401A42
:1004C000521ECDD1F5EEC01AF1EE10FA00F0738194
:1004D000F5EEC02A0126F1EE10FA0099D4BFB1EE74
:1004E000620AB0EE620AB4EE610AF1EE10FA1CBFC5
:1004F000AEEB0802B2F1010C47D005FB08F201EBAC
:10050000820292ED001A00BFB0EE410A05FB06F42C
:10051000B5EEC00A00EB8404F1EE10FACCBFF0EEA9
:10052000400AF1EE400AF4EE610AF1EE10FA28D129
:10053000B5EB080C11D0BCF1004F7DD2BCF1000F1F
:100540000BDD00BF92ED000AD1ED000ABCF1010CF9
:10055000E2EC010AA1EC010AF4D129000ED0B1F1BC
:10056000004F6AD2002909DD94ED000AD0ED000A9F
:10057000491EE4EC010AA0EC010AF5D10120029029
:100580000BE0761CBCF1010CBED10298012804D00E
:10059000F5EEC02AF1EE10FA7ED09BED000AB5EB25
:1005A00008009A465946064622D0B0F1004F74D250
:1005B00000281DDD091F10F0010F06D0F0EE400AE3
:1005C00080EEA01A81ED011A091D401010D000BF65
:1005D000D1ED010A401E80EE801A81ED011A91EDE5
:1005E000021AC1EE000AC1ED020A01F10801EFD1C1
:1005F000280026D0B0F1004F7ED2002821DDAAF1DC
:10060000040110F0010F06D0D1ED010A80EE801A2E
:1006100081ED011A091D401013D000BFD1ED010A70
:10062000401E80EE801A81ED011AD1ED020A80EEA3
:10063000801A81ED021A01E0CBE0D6E001F1080159
:10064000ECD1DDE900124FF000095FEA0E0773D02C
:10065000C14504BF01EB860102EB850274D091ED28
:10066000000ADC465046331E35D01C46B6F1004F1A
:100670007ED2002C2FDD0B1FABF1040C16F0010F06
:100680000FD0F0EE400ADCED011AB0EE601A00EE79
:10069000E11A83ED011A01E08DE0B1E01B1D0CF1C0
:1006A000040C741015D000BFD3ED010A9CED011AA3
:1006B00040EE410AC3ED010AD3ED020A9CED021A95
:1006C0000CF1080C40EE410AC3ED020A0833641E27
:1006D000EAD101EB86012B0036D0B3F1004F72D284
:1006E000002B31DDA2F1040CAAF1040013F0010F7C
:1006F0000CD0DCED010A00E08BE090ED011A001D4A
:1007000040EE410ACCED010A0CF1040C5C1019D04A
:10071000DCED010A90ED011A40EE410ACCED010A30
:10072000DCED020A90ED021A083040EE410ACCEDF1
:10073000020A03E0000000000DE005E0641E0CF179
:10074000080CE5D102EB830201EB88017F1E09F161
:1007500001097FF47DAF009808F10108001D0090A9
:100760000398401E03907FF44BAE0299012900E0EC
:1007700058E004BF06B0BDE8F08F00BFB5EEC00A78
:10078000F1EE10FA7FF4E9AD04990EFB05F3002BAE
:100790004A684FF000010BD902EB810C9CED000A76
:1007A000B5EEC00AF1EE10FA02D1491C8B42F3D823
:1007B0008B427FF4D2AD6FF00400CEE5E0EC010A8D
:1007C000491EFBD1EFE538E0E0EC010A521EFBD1F7
:1007D00008E692ED000AD1ED000ABCF1010CE2EC52
:1007E000010AA1EC010AF4D1B7E694ED000AD0EDBC
:1007F000000A491EE4EC010AA0EC010AF5D1BDE6AD
:10080000D1ED000A401E80EE801AA1EC011AF7D14A
:10081000EEE6D3ED000A401E80EE801AA3EC011A2A
:10082000F7D10EE7BCEC011AD1ED000A5B1E40EED9
:10083000410AE1EC010AF5D14DE7B0EC011AD2ED25
:10084000000A5B1E40EE410AE2EC010AF5D17BE7AB
:100850002DE9F04F82B046685368019305884788B8
:100860004B88002000900888874201BFB2F800C082
:100870006545528893421EBF6FF0020002B0BDE88A
:10088000F08F9FED412A4FEA970EC7F3400B00BF50
:10089000DDE9000202EB800A4A6898464FF0000941
:1008A000B0EE420AB4465FEA0E0025D092ED001A7F
:1008B000DCED001A02EB8302DCED010A01EE810A95
:1008C00092ED001A02EB8302401ED2ED001A02EBF9
:1008D000830200EE810A9CED021ADCED030A00049B
:1008E0000CF1100C000C01EE210A92ED001A02EB43
:1008F000830200EE810AD9D117F0030026D0ACF1B3
:100900000404A2EB830210F0010F08D002EB830273
:10091000D4ED010A92ED001A241D00EE810A5FEA6F
:100920000B0013D002EB830CD4ED010A9CED001AEE
:1009300002EBC302401E00EE810AD4ED020A92EDE2
:10094000001A04F1080400EE810AEBD109F101005C
:10095000AAEC010A1FFA80F9486800EB8902A8F1A5
:1009600001001FFA80F8B8F1000F99D1009806EB4A
:100970008706184480B20090681E05042D0C87D1AC
:1009800002B00020BDE8F08F0000000070B40588C0
:100990000E884468D1F804C05368B54208D1408835
:1009A0004988884201BF11888D425188884203D00E
:1009B00070BC6FF00200704705FB00F1880827D07B
:1009C00094ED001ADCED000A94ED010ADCED011A49
:1009D00031EE601AD4ED020A70EE611A9CED020A43
:1009E00083ED001AC3ED011A94ED031ADCED031A2E
:1009F00030EEC00A401E71EE610A83ED020A04F176
:100A00001004C3ED030A03F110030CF1100CD7D14D
:100A100011F0030030D0B0F1004F30D200282BDDB0
:100A2000211F1B1FACF1040210F0010F0AD091ED41
:100A3000010AD2ED010A091D121D30EE600A83ED94
:100A4000010A1B1D400817D091ED010AD2ED010AE1
:100A5000401E30EE600A83ED010A91ED020AD2EDEC
:100A6000020A01F1080102F1080230EE600A83ED8A
:100A7000020A03F10803E7D170BC00207047B4EC10
:100A8000010A401EFCEC010A30EE600AA3EC010AE8
:100A9000F5D1F1E72DE9F04F02884768B0F8028000
:100AA0004888D1F8049082B04FF0000A164682427E
:100AB00007BF098888456FF0020002B018BFBDE883
:100AC000F08F4FEA980B02EB42000190C8F3400010
:100AD000CDF8000009EB8A01BBF1000F33D001987B
:100AE00001EB820C01EB80043B46E64601EBC205BC
:100AF0004FEA0B0093ED000A401E81ED000A93EDD2
:100B0000010A01EB02118CED000A93ED020A0CEBD5
:100B1000021C85ED000A93ED030A05EB021584ED36
:100B2000000A04EB021403F11003E3D10EEB820080
:100B300000EB820000EB8201ABF10100504307EBB8
:100B40000B1701EB001118F0030C21D03B1FA1EB98
:100B500082011CF0010F06D093ED010A01EB820126
:100B60001B1D81ED000A009880B100BF93ED010AC2
:100B700001EB820401EBC20184ED000A93ED020A4D
:100B8000401E81ED000A03F10803EFD107EB8C074B
:100B90000AF101001FFA80FA701E0604360C99D182
:100BA00002B00020BDE8F08F40EA01039B0703D0AC
:100BB00009E008C9121F08C0042AFAD203E011F89C
:100BC000013B00F8013B521EF9D27047D2B201E05E
:100BD00000F8012B491EFBD270470022F6E710B542
:100BE00013460A4604461946FFF7F0FF204610BD9B
:100BF0002DE9FE4F804681EA0300C00F0C460090AD
:100C000021F0004123F00045B8EB0200A94105D2D4
:100C10004046214690461C460B46024623F00040C3
:100C2000104347D0270DC7F30A00C3F30A510290BF
:100C3000401A019040286BDAC3F3130040F4801B84
:100C40000098924620B10023D2EB030A63EB0B0B12
:100C500001985946C0F14002504600F00FF906468F
:100C60000D4650465946019A00F027F910EB08004E
:100C70006141002487EA115284EAE7731A4340D0A5
:100C8000009A62B3019A012A4FEA075215DC001B51
:100C900061EB02014FF0004202EA0752CDE9004247
:100CA000001C41F5801132462B4600F027F903B0B5
:100CB000BDE8F08F40462146F9E7001B61EB0201D9
:100CC000001C41F5801300185B412018A2F50017A5
:100CD00047EB030140EAD570B6196D4111E06D088C
:100CE0004FEA360645EAC0754FEA0752001B61EB32
:100CF0000201001C41F5801149084FEA300000193B
:100D0000514132462B4603B0BDE8F04F00F0E7B842
:100D10000098012240000023D0EB020263EBE07355
:100D2000009821464FEAE074B8EB000061EB040143
:100D3000E9E783F000435BE781F0004158E72DE9E4
:100D4000F04D81EA030404F0004B21F00045144605
:100D50004FF0000A23F0004150EA050220D054EA87
:100D600001021DD0C5F30A570246C5F31303C1F3B0
:100D70001300C1F30A5640F4801543F48013A7EB27
:100D80000608101BD64608F2FD3873EB050002D3A7
:100D900008F1010801E092185B41B8F1000F03DA95
:100DA00000200146BDE8F08D00204FF4801106467A
:100DB00084460EE0171B73EB050705D3121B63EB8C
:100DC000050306434CEA010C49084FEA300092182B
:100DD0005B4150EA0107EDD152EA030012D082EAEA
:100DE000040083EA0501084305D0101BAB4106D27D
:100DF0000122002306E000224FF0004302E06FF0E2
:100E0000010253101AEB06004CEB085110EB0A00DC
:100E100041EB0B01BDE8F04D00F061B80EB5C10F1C
:100E200080EAE0700844CA07002140F233438DE8AD
:100E30000E000A460B4600F061F803B000BD70B525
:100E4000C1F30A5201F000450024C1F3130140F23E
:100E5000FF3341F480119A4201DA002070BD40F264
:100E600033439A42A2F2334203DC524200F015F8B7
:100E700000E090402C43F1D0404270BD202A04DBBA
:100E8000203A00FA02F1002070479140C2F120039D
:100E900020FA03F3194390407047202A04DB203ADC
:100EA00021FA02F00021704721FA02F3D040C2F18A
:100EB00020029140084319467047202A06DBCB17D1
:100EC000203A41FA02F043EAE07306E041FA02F305
:100ED000D040C2F12002914008431946704710B536
:100EE000141E73F1000408DA401C41F1000192184D
:100EF0005B411A4301D120F0010010BD2DE9F04DF6
:100F000092469B4611B1B1FA81F202E0B0FA80F24A
:100F100020329046FFF7B2FF04460F4640EA0A002F
:100F200041EA0B0153465A46084313D0114653EA8F
:100F3000010019D0C8F140025046FFF7AEFF054648
:100F40000E46504659464246FFF798FF084305D0E3
:100F5000012004E020463946BDE8F08D002005431D
:100F600046EAE0762C4337430A986305E40AA0EB8F
:100F700008000022FD0A44EA47540A3002D5002046
:100F80000146E9E7010510196941DDE90845001945
:100F90006941BDE8F04DA2E71CB509480090094839
:100FA00001900546009C06E0E06840F0010394E8EB
:100FB000070098471034AC42F6D3FFF711F9000050
:100FC000789D0008989D000883B0029001910092DE
:100FD000009890ED004A90ED010A90ED026A90EDC4
:100FE000035A26EE062AB6EE001A31EE422A25EE04
:100FF000053A32EE432A029824EE057A20EE063AAC
:1010000033EE477AD0ED000AD0ED011A90ED023AA6
:1010100027EE217A22EE202A32EE072A24EE064A13
:1010200020EE050A30EE040A20EE030A30EE020A32
:1010300030EE000A019880ED000A009890ED004A19
:1010400090ED016A90ED022A90ED035A24EE053AE4
:1010500026EE020A30EE030A029826EE063A31EE38
:10106000433A25EE057A33EE477AD0ED000AD0ED0B
:10107000011A90ED023A27EE217A20EE200A30EE96
:10108000070A24EE064A22EE052A32EE442A22EE10
:10109000032A30EE020A30EE000A019880ED010AC0
:1010A000009890ED002A90ED014A90ED023A90ED03
:1010B000030A22EE036A24EE005A35EE465A0298DD
:1010C00022EE042A23EE000A30EE020A90ED006AB6
:1010D00090ED017A90ED022A20EE070A25EE065ADD
:1010E00030EE050A24EE044A31EE441A23EE033AA8
:1010F00031EE431A21EE021A30EE010A30EE000AF8
:10110000019880ED020A03B07047000080B582B0FC
:101110008DED010A9DED010A8DED000A9FED091A82
:1011200080EE010A9FED081A30EE010A08F0FCFC7F
:101130009DED001A9FED052A20EE020A30EE010A0D
:1011400002B080BD0000B443610BB63A0000B4C3E6
:10115000FFE7FEE780B540F29840C2F2000000F0E1
:10116000A7FA80BD80B540F2F840C2F2000000F05E
:101170009FFA80BD84B003900398006840F2074155
:10118000C4F20201884206D8FFE740F60000C4F22C
:101190000200009005E040F62000C4F2020000903A
:1011A000FFE7009802900398007808384CF6CD418C
:1011B000CCF6CC41A0FB01100009019002980399E4
:1011C0004A6C22F0030210448864039940F68000C0
:1011D000C4F20200C864019800F01F010120884099
:1011E0000399086504B0704782B0019001980079B6
:1011F0000090009940F6FC00C4F2020000EB810070
:1012000001994865019940F64010C4F202008865D2
:101210000098013800F01F01012088400199C8653D
:1012200002B0704784B0039002910192009303983A
:10123000C16C006D48600398406D28B1FFE70398CA
:10124000816DC06D4860FFE70398016C406C00F051
:101250001F02012090404860009803990968486087
:1012600003988068102809D1FFE70198039909685D
:101270008860029803990968C86008E00298039999
:1012800009688860019803990968C860FFE704B09D
:101290007047000081B041F20400CEF20000006807
:1012A0000090009840F2BC01C2F200010968884237
:1012B00008D2FFE740F2C001C2F200010868013025
:1012C0000860FFE7009840F2BC01C2F2000108602C
:1012D00001B0704783B08DED020A41F20400CEF2F6
:1012E00000000068019002980090FFE741F20400BE
:1012F000CEF2000000680199401A00EE100AB8EE24
:10130000400A9DED001A40F2B000C2F2000090EDDC
:10131000002AB8EE422A21EE021AB4EE410AF1EE9A
:1013200010FA01DAFFE7E1E703B0704780B584B057
:10133000039041F20400CEF200000068029002988F
:1013400003990968401A00EE100AB8EE400A40F20C
:10135000B000C2F2000090ED001AB8EE411A80EE23
:10136000010A8DED010A029803990860FFF792FFC8
:101370009DED010A04B080BD81B000904EF6FC5195
:10138000CEF20001086840F08070086041F204016C
:10139000CEF200010020086041F20002CEF200020D
:1013A000116841F001011160009944F24022C0F23D
:1013B0000F024A4340F2B001C2F200010A600A681B
:1013C00044F6D353C1F26203A2FB0332920940F206
:1013D000B403C2F200031A6009684DF68362C4F2D6
:1013E0001B32A1FB0221890C40F2B802C2F20002BA
:1013F000116040F2C001C2F20001086001B0704704
:101400007047000083B0029001910092009890ED27
:10141000004A90ED012A90ED026A90ED035A26EE03
:10142000060AB6EE001A31EE400A25EE053A30EE15
:10143000437A029824EE053A22EE060A30EE030AB9
:10144000D0ED000AD0ED011A90ED023A20EE210A0B
:1014500027EE207A30EE070A24EE064A22EE052A0D
:1014600032EE442A22EE032A30EE020A30EE000A5F
:10147000019880ED000A009890ED004A90ED016A15
:1014800090ED020A90ED035A24EE053A26EE002A6A
:1014900032EE432A029826EE063A31EE433A25EE22
:1014A000057A33EE477AD0ED000AD0ED011A90EDBF
:1014B000023A27EE217A22EE202A32EE072A24EE83
:1014C000064A20EE050A30EE040A20EE030A30EE4A
:1014D000020A30EE000A019880ED010A009890EDB2
:1014E000005A90ED014A90ED023A90ED032A25EE64
:1014F000036A24EE020A30EE060A029825EE045A28
:1015000023EE022A32EE455A90ED006A90ED017A00
:1015100090ED022A25EE075A20EE060A30EE050A63
:1015200024EE044A31EE441A23EE033A31EE431A14
:1015300021EE021A30EE010A30EE000A019880ED29
:10154000020A03B07047000081B0EFF3108072B65A
:101550000090FFE7FEE7000083B002904AF20040EF
:10156000C4F2000000900098029908640298006894
:10157000D0F8800020F4F810029A1168526B40EA0B
:101580000240C1F8800000987030029948640298C7
:101590000068D0F8800020F07060029A1168926BA9
:1015A00040EA0260C1F880000098B0300299886477
:1015B000009800F5C4700299C864009800F518708E
:1015C00002990865009800F51E7002994865009818
:1015D0000190FFE70198009901F55471884208D203
:1015E000FFE7019900200860FFE7019804300190AF
:1015F000F0E703B07047000088B0079006910592AD
:1016000004930698406848B9FFE706980168826825
:101610000069104340EA8140039009E006980168A0
:10162000826800691043084340F080400390FFE760
:101630000698D0F820C0C16842698369C06940EA51
:101640000C601843104340EA014002900798406D37
:10165000049901EBC10100EBC100019003980199CD
:10166000086001980430019002980199086001987F
:101670000430019000200090FFE700980699CA68A6
:1016800049F6B241C0F60001895C88420DD2FFE7FD
:10169000059800994058019908600198043001901C
:1016A000FFE7009804300090E7E708B070470000BB
:1016B00080B584B003900398006C00680290039892
:1016C00000680068019002980399496C01F01F01BD
:1016D000C8404007002825D5FFE79DF804004007D3
:1016E00000281FD5FFE703980068006880060028DF
:1016F00007D4FFE703980168086820F00400086039
:10170000FFE70398016C406C00F01F02042090403A
:1017100048600398006B20B1FFE70398016B88478E
:10172000FFE76EE002980399496C01F01F01C84081
:10173000800700282FD5FFE79DF8040080070028C8
:1017400029D5FFE7039800680068800600280BD4BD
:10175000FFE703980168086820F00A000860039911
:10176000012081F82500FFE70398016C406C00F030
:101770001F02022090404860FFE70399002081F893
:101780002400FFE70398C06A20B1FFE70398C16A0D
:101790008847FFE734E002980399496C01F01F0184
:1017A000C8400007002829D5FFE79DF8040000077E
:1017B000002823D5FFE703980168086820F00E0091
:1017C00008600398026C406C00F01F01012000FAD1
:1017D00001F151600399C863039981F82500FFE77F
:1017E0000399002081F82400FFE70398406B20B1A3
:1017F000FFE70398416B8847FFE700E0FFE7FFE75B
:10180000FFE704B080BD000080B584B0029002986C
:1018100020B9FFE701208DF80F009CE002980068D6
:1018200040F20741C4F20201884218D8FFE702994A
:1018300008684FF6F872CBF6FD7210444CF6CD42B4
:10184000CCF6CC42A0FB02026FF0030000EA92004B
:10185000486402990020C4F20200086418E002996A
:1018600008684FF6F832CBF6FD7210444CF6CD42C4
:10187000CCF6CC42A0FB02026FF0030000EA92001B
:101880004864029940F20040C4F202000864FFE795
:101890000299022081F825000298006800680190F2
:1018A000019847F6F0718843019002998868D1F851
:1018B0000CC00B694A6940EA0C00184310438A695E
:1018C0001043CA691043096A014301980843019013
:1018D00001980299096808600298FFF74BFC02988A
:1018E0008068B0F5804F04D1FFE70299002048607E
:1018F000FFE702990879896C08600298C16C006D55
:1019000048600298406888B1FFE702984068042860
:101910000CD8FFE70298FFF767FC0298416D0020A2
:1019200008600298816DC06D486007E00299002050
:101930004865029988650299C865FFE70299002009
:10194000C863029A012182F82510029981F82400C7
:101950008DF80F00FFE79DF80F0004B080BD000078
:1019600080B586B0049003910292019300208DF817
:101970000300FFE7049890F82400012804D1FFE752
:1019800002208DF8170065E00499012081F82400F9
:10199000FFE7FFE7049890F8250001284BD1FFE707
:1019A0000499022081F8250004990020C863049856
:1019B0000168086820F00100086004980399029A01
:1019C000019BFFF72FFC0498006B38B1FFE70498E8
:1019D0000168086840F00E0008600CE00498016897
:1019E000086820F00400086004980168086840F066
:1019F0000A000860FFE70498806C0068C0030028B4
:101A000007D5FFE70498816C086840F4807008608F
:101A1000FFE70498406D38B1FFE70498416D08680E
:101A200040F480700860FFE704980168086840F09F
:101A30000100086009E0FFE70499002081F8240014
:101A4000FFE702208DF80300FFE79DF803008DF803
:101A50001700FFE79DF8170006B080BD80B584B081
:101A6000039000F055FC029003980190019801301A
:101A700048B1FFE740F2A400C2F2000001680198FB
:101A800008440190FFE7FFE700F042FC0299401A8A
:101A90000199884201D2FFE7F6E704B080BD00005B
:101AA00080B586B00490039102920398406808B90B
:101AB000FFE700E0FFE7049890F85C0002282FD1D0
:101AC000FFE704980068D0F8C4008002002809D518
:101AD000FFE70499086E40F40070086601208DF855
:101AE000170026E004980068D0F8C400C0F3014055
:101AF000019004980399029A019BFFF77DFD0199DB
:101B0000012000FA01F1049A1268C2F8CC10019980
:101B1000884004998865FFE700208DF8170008E0E9
:101B20000499086E40F00800086601208DF817003F
:101B3000FFE79DF8170006B080BD000080B584B0B7
:101B40000290029820B9FFE701208DF80F0057E1BD
:101B50000298006846F20041C4F20001884201D1B7
:101B6000FFE7FFE702988068B0F5407F01D1FFE70B
:101B7000FFE7029890F85C0040B9FFE70299002067
:101B800081F85D00029800F03FF9FFE702980168D4
:101B9000886920F01000886100F0BAFB0190FFE72F
:101BA0000298006880690007002815D5FFE700F05B
:101BB000AFFB0199401A0B280DD3FFE70299086E7D
:101BC00040F0010008660299032081F85C000120C2
:101BD0008DF80F0014E1E3E702980168886940F08E
:101BE0000100886100F094FB0190FFE70298006813
:101BF0008069C007A8B9FFE700F08AFB0199401A85
:101C00000B280DD3FFE70299086E40F0010008662B
:101C10000299032081F85C0001208DF80F00EFE0AD
:101C2000E4E702980168886940F002008861029840
:101C3000006846F20041C4F20001884208D1FFE783
:101C40000298406846F20051C4F200010860FFE7C4
:101C50000298007C012807D1FFE702980168886993
:101C600020F04000886106E002980168886940F031
:101C700040008861FFE70298407C012807D1FFE718
:101C800002980168886940F48040886106E0029803
:101C90000168886920F480408861FFE70298807CB1
:101CA000012807D1FFE702980168886920F4805075
:101CB000886106E002980168886940F48050886174
:101CC000FFE702980068806920F44070029A11686A
:101CD00092681043886102980168886920F0A40026
:101CE000886102980168086920F010000861029874
:101CF000C068012807D1FFE702980168886940F0B1
:101D0000040088612BE00298C06830B3FFE70298B6
:101D1000C068022819D0FFE702980168886940F07E
:101D20008000886102980168086940F0100008612D
:101D30000298C068032807D1FFE702980168886904
:101D400040F020008861FFE706E00298016888699A
:101D500040F020008861FFE700E0FFE7FFE7029A1C
:101D6000116853699069D2F81CE0A0F1010C6FF082
:101D7000FF0000EB0E2040EA4C60126A013A10436B
:101D80000022CFF6FF7202EB03421043C8610298B3
:101D90008068B0F5407F1CD1FFE7029A1168536A52
:101DA000906AD2F82CE001386FF0FF0C0CEB0E2C8F
:101DB00040EA0C00D2F830C06FF00F0202EB0C12B8
:101DC00010430022CFF6FF7202EB03421043C860BB
:101DD000FFE702980168C26BD1F8C0001043C1F858
:101DE000C0000298FFF7B8FB0299002088650299AD
:101DF0000866029A012182F85C108DF80F00FFE757
:101E00009DF80F0004B080BD80B59AB019900020F5
:101E10001890179016901590149003A84421FEF77F
:101E2000DCFE1998006846F20041C4F200018842C5
:101E30003CD1FFE74FF4805003904FF000700F90BB
:101E400003A800F089FC18B1FFE7FFF77DFBFFE76F
:101E5000FFE741F25800C4F20200016841F000714E
:101E60000160006800F0007002900298FFE7FFE751
:101E700041F24C00C4F20200016841F0010101602E
:101E8000006800F0010001900198FFE74FF4C05096
:101E90001490022015900020169017900920189099
:101EA0004FF0904014A900F055F8FFE71AB080BD3C
:101EB00082B00090009890F85C00012810D1FFE7F4
:101EC0000099022081F85C0000980168886920F080
:101ED000010088610099002008668DF8070008E07D
:101EE0000099086E40F00400086601208DF8070094
:101EF000FFE79DF8070002B07047000081B00020A6
:101F00008DF8030042F21400C4F202000068C00F12
:101F1000D8B1FFE742F20801C4F2020140F22310F7
:101F2000C4F26750086048F6AB10CCF6EF5008607A
:101F300042F21400C4F202000068C00F20B1FFE7B3
:101F400001208DF80300FFE7FFE79DF8030001B0D3
:101F5000704700008BB00A90099100200890FFE7BD
:101F6000099800680899C840002800F0A581FFE79B
:101F700009980068089A0121914008400790079845
:101F8000002800F09581FFE70998406800F0030001
:101F9000012807D0FFE70998406800F003000228F5
:101FA0002FD1FFE70A988068069008984100032027
:101FB00000FA01F10698884306900998C0680899CC
:101FC000490000FA01F106980843069006980A991C
:101FD00088600A98406806900899012000FA01F18B
:101FE00006988843069009984068C0F30010089945
:101FF00000FA01F106980843069006980A9948608D
:10200000FFE70998406800F00300032818D0FFE7B5
:102010000A98C068069008984100032000FA01F170
:10202000069888430690099880680899490000FA44
:1020300001F106980843069006980A99C860FFE7E0
:102040000998406800F00300022826D1FFE70A98AB
:1020500008996FF0030202EA51010844006A0690F1
:10206000089800F0070081000F2000FA01F106989F
:102070008843069009980069089901F007018900D2
:1020800000FA01F106980843069006980A99089B01
:1020900002EA530211440862FFE70A9800680690BA
:1020A00008984100032000FA01F106988843069041
:1020B0000998406800F003000899490000FA01F10E
:1020C00006980843069006980A990860099880794E
:1020D0008007002800F0EB80FFE7FFE741F2600097
:1020E000C4F20200016841F001010160006800F0E3
:1020F000010005900598FFE7089820F003000821EB
:10210000C4F2010140580690089800F003008100D5
:102110000F2000FA01F10698884306900A98B0F162
:10212000904F03D1FFE70020049042E00A9840F26C
:102130000041C4F60001884203D1FFE7012003906B
:1021400034E00A9840F60001C4F60001884203D149
:10215000FFE70220029026E00A9840F60041C4F60C
:102160000001884203D1FFE70320019018E00A989C
:1021700041F20001C4F60001884203D1FFE70420C8
:1021800000900AE00A9941F20042C4F600020620DB
:10219000914208BF05200090FFE700980190FFE7FB
:1021A00001980290FFE702980390FFE703980490DC
:1021B000FFE70498089901F00301890000FA01F192
:1021C0000698084306900698089921F00301082212
:1021D000C4F20102885040F20840C4F201000068D5
:1021E0000690079906988843069009988079C0065A
:1021F000002805D5FFE70799069808430690FFE7F2
:10220000069840F20841C4F20101086040F20C4017
:10221000C4F201000068069007990698884306906A
:10222000099880798006002805D5FFE70799069868
:1022300008430690FFE7069840F20C41C4F2010102
:10224000086040F20440C4F201000068069007995B
:10225000069888430690099880798007002805D55C
:10226000FFE70799069808430690FFE7069840F2B3
:102270000441C4F20101086040F20040C4F20100D0
:102280000068069007990698884306900998807917
:10229000C00728B1FFE70799069808430690FFE7B3
:1022A000069840F20041C4F201010860FFE7FFE731
:1022B00008980130089053E60BB0704783B0029045
:1022C000ADF80610029840690090009ABDF806002B
:1022D00002EA0001904340EA01400299886103B09C
:1022E0007047000082B00190ADF802108DF8012017
:1022F0009DF8010028B1FFE7BDF80200019988614F
:1023000004E0BDF8020001998862FFE702B070475F
:1023100040F2E870C2F200000068704780B584B0F7
:102320000290029820B9FFE701208DF80F0045E0E8
:10233000029801684CF6CC4008600298016845F2AA
:10234000555008600298016840684860029801682A
:1023500080688860FFF7DCFF0190FFE70298006863
:10236000C068400798B1FFE7FFF7D2FF0199401A14
:1023700032280BD3FFE702980068C068400720B1FD
:10238000FFE703208DF80F0018E0FFE7E6E702986B
:10239000006800690299C968884205D0FFE7029881
:1023A0000168C068086105E0029801684AF6AA2041
:1023B0000860FFE700208DF80F00FFE79DF80F0091
:1023C00004B080BD81B00090009801684AF6AA2050
:1023D0000860002001B0704740F2A400C2F2000083
:1023E000026840F2E871C2F2000108681044086017
:1023F0007047000080B582B000208DF807000320F0
:1024000000F0BEF80F2000F00DF820B1FFE701202A
:102410008DF8070002E000F06DF8FFE79DF8070077
:1024200002B080BD80B58CB00B9000200590049068
:10243000FFE741F25800C4F20200016841F00101D7
:102440000160006800F0010001900198FFE706A814
:1024500003A900F043FD00F071FD059005984DF6CD
:102460008361C4F21B31A0FB01014FF0FF3000EB90
:102470009140049040F27C60C2F200004FF0804135
:10248000016040F2E731C1600499416000210161BF
:10249000816001F0E3FD8DF80B009DF80B0028BB77
:1024A000FFE740F27C60C2F2000001F053FE8DF8BD
:1024B0000B009DF80B00C0B9FFE71C2000F03EF8B0
:1024C0000B980F280CD8FFE70B991C20002200F076
:1024D0003FF80B9840F2A801C2F20001086003E047
:1024E00001208DF80B00FFE7FFE7FFE79DF80B00E9
:1024F0000CB080BD80B582B0FFE741F26000C4F24D
:102500000200016841F001010160006800F0010073
:1025100001900198FFE7FFE741F25800C4F2020082
:10252000016841F080510160006800F08050009027
:102530000098FFE700F006F902B080BD80B582B0D8
:102540008DF807009DF9070006F040FB02B080BD42
:1025500080B586B08DF817000491039206F04EFB0B
:1025600002909DF91700019002980499039A05F0D2
:1025700021FA0146019806F049FB06B080BD000033
:1025800080B582B00190019806F062FB02B080BD78
:1025900085B00390039800285ED1FFE747F2000062
:1025A000C4F20000006800F4C060B0F5806F49D14B
:1025B000FFE747F28001C4F20001086820F4807050
:1025C000086047F20002C4F200021168012060F3C3
:1025D0004A21116040F29C01C2F2000109683222D6
:1025E00051434DF68362C4F21B32A1FB022100EB82
:1025F00091400290FFE747F21400C4F20000016826
:10260000002049050029019006D5FFE7029800281F
:1026100018BF01200190FFE70198C00720B1FFE734
:10262000029801380290E6E747F21400C4F2000075
:1026300000684005002804D5FFE703208DF813004B
:102640007CE008E047F28001C4F20001086820F451
:1026500080700860FFE76DE00398B0F5007F5ED101
:10266000FFE747F20000C4F20000006800F4C06019
:10267000B0F5806F49D1FFE747F28001C4F2000155
:10268000086840F48070086047F20002C4F200025B
:102690001168012060F34A21116040F29C01C2F2EE
:1026A00000010968322251434DF68362C4F21B32A5
:1026B000A1FB022100EB91400290FFE747F21400DA
:1026C000C4F200000168002049050029009006D5E9
:1026D000FFE70298002818BF01200090FFE700984C
:1026E000C00720B1FFE7029801380290E6E747F201
:1026F0001400C4F2000000684005002804D5FFE77C
:1027000003208DF8130019E008E047F28001C4F2BD
:102710000001086840F480700860FFE709E047F2B4
:102720000001C4F200010868022262F34A20086036
:10273000FFE7FFE700208DF81300FFE79DF8130087
:1027400005B0704747F20801C4F20001086840F480
:10275000804008607047000080B586B0059000207A
:102760008DF80B008DF80A00059880780007002886
:1027700040F1B580FFE700208DF8090041F25800D4
:10278000C4F202000068C000002813D4FFE7FFE78E
:1027900041F25800C4F20200016841F0805101602A
:1027A000006800F0805001900198FFE701208DF84B
:1027B0000900FFE747F20001C4F20001086840F495
:1027C00080700860FFF7A4FD0390FFE747F2000068
:1027D000C4F200000068C00500280CD4FFE7FFF732
:1027E00097FD0399401A032804D3FFE703208DF8CF
:1027F0000B0000E0EAE79DF80B0000285BD1FFE743
:1028000041F29000C4F20200006800F440700490AD
:102810000498C8B1FFE704980599096C884213D061
:10282000FFE741F29001C4F20201086820F4407011
:102830000490086840F480300860086820F4803014
:10284000086004980860FFE79DF81000C007E0B139
:10285000FFE7FFF75DFD0390FFE741F29000C4F250
:1028600002000068800700280ED4FFE7FFF750FD44
:102870000399401A41F28931884204D3FFE70320CB
:102880008DF80B0000E0E8E7FFE79DF80B0060B96A
:10289000FFE741F29001C4F20201086820F44070A1
:1028A000059A126C1043086004E09DF80B008DF847
:1028B0000A00FFE704E09DF80B008DF80A00FFE72F
:1028C0009DF80900012809D1FFE741F25801C4F23F
:1028D0000201086820F080500860FFE7FFE70598D4
:1028E0000078C00760B1FFE741F28801C4F202013D
:1028F000086820F00300059A526810430860FFE75B
:1029000005980078800700280CD5FFE741F2880180
:10291000C4F20201086820F00C00059A9268104386
:102920000860FFE705980078400700280CD5FFE70E
:1029300041F28801C4F20201086820F03000059AD3
:10294000D26810430860FFE7059800780007002868
:102950000CD5FFE741F28801C4F20201086820F0BB
:10296000C000059A126910430860FFE705980078D7
:10297000800600280CD5FFE741F28801C4F202016D
:10298000086820F44060059A526910430860FFE728
:1029900005980078400600280CD5FFE741F2880131
:1029A000C4F20201086820F44050059A926910436D
:1029B0000860FFE705980078000600280CD5FFE7BF
:1029C00041F28801C4F20201086820F44040059AEF
:1029D000D26910430860FFE705984078C00760B1EE
:1029E000FFE741F28801C4F20201086820F4403098
:1029F000059A126A10430860FFE70598407880073F
:102A000000280CD5FFE741F28801C4F202010868F2
:102A100020F44020059A526A10430860FFE70598A9
:102A20004078400700281BD5FFE741F28801C4F237
:102A30000201086820F44010059A926A1043086069
:102A40000598806AB0F5801F09D1FFE741F20C01BB
:102A5000C4F20201086840F480100860FFE7FFE755
:102A600005984078000700281BD5FFE741F2880150
:102A7000C4F20201086820F44000059AD26A1043AB
:102A800008600598C06AB0F5800F09D1FFE741F2F0
:102A90000C01C4F20201086840F480100860FFE7EE
:102AA000FFE705984078C00600281BD5FFE741F2F4
:102AB0008801C4F20201086820F04070059A126B88
:102AC000104308600598006BB0F1807F09D1FFE7E3
:102AD00041F20C01C4F20201086840F48010086061
:102AE000FFE7FFE705984078800600281BD5FFE741
:102AF00041F28801C4F20201086820F04060059AA2
:102B0000526B104308600598406BB0F1006F09D11B
:102B1000FFE741F20C01C4F20201086840F48010A2
:102B20000860FFE7FFE705984078400600281BD5BE
:102B3000FFE741F28801C4F20201086820F040601A
:102B4000059A926B104308600598806BB0F1006F96
:102B500009D1FFE741F20C01C4F20201086840F418
:102B600080100860FFE7FFE705984078000600281E
:102B70001BD5FFE741F28801C4F20201086820F08A
:102B80004050059AD26B104308600598C06BB0F1B5
:102B9000805F09D1FFE741F20C01C4F2020108682D
:102BA00040F480300860FFE7FFE79DF80A0006B0B8
:102BB00080BD000080B586B0049003910020009095
:102BC000049820B9FFE701208DF8170081E10398F0
:102BD00042F20001C4F20201096801F00F018842CB
:102BE00016D9FFE742F20000C4F20200016821F0AA
:102BF0000F01039A11430160006800F00F00039970
:102C0000884204D0FFE701208DF8170061E1FFE75B
:102C100004980078C007002800F0A380FFE704981C
:102C20004068032839D1FFE741F20000C4F20200F6
:102C300000688001002804D4FFE701208DF8170008
:102C400047E104F017FF019001984BF20141C0F2F7
:102C5000C441884220D3FFE741F20800C4F20200D9
:102C6000006810F0F00F0AD0FFE7049800788007A2
:102C7000002810D5FFE70498806860B9FFE741F2AB
:102C80000801C4F202010868082262F30710086014
:102C900080200090FFE7FFE738E0049840680228B2
:102CA0000ED1FFE741F20000C4F202000068800389
:102CB000002804D4FFE701208DF8170009E10DE09A
:102CC00041F20000C4F2020000684005002804D46C
:102CD000FFE701208DF81700FBE0FFE700F042F965
:102CE000019001984BF20141C0F2C44188420CD3DB
:102CF000FFE741F20801C4F202010868082262F30A
:102D00000710086080200090FFE7FFE741F208010C
:102D1000C4F20201086820F00300049A52681043CC
:102D20000860FFF7F5FA0290FFE741F20800C4F2ED
:102D30000200006800F00C0004994968B0EB810FB4
:102D40000ED0FFE7FFF7E4FA0299401A41F2893109
:102D5000884204D3FFE703208DF81700B9E0E4E7C9
:102D6000FFE704980078800700282CD5FFE7049837
:102D700000784007002809D5FFE741F20801C4F2B6
:102D80000201086840F4E0600860FFE704980078FA
:102D9000000700280BD5FFE741F20801C4F2020149
:102DA000086840F4E06020F460500860FFE741F2FA
:102DB0000801C4F20201086820F0F000049A926849
:102DC000104308600DE00098802809D1FFE741F228
:102DD0000801C4F20201086820F0F0000860FFE773
:102DE000FFE7039842F20001C4F20201096801F012
:102DF0000F01884228D2FFE742F20001C4F202012B
:102E0000086820F00F00039A10430860FFF780FA6B
:102E10000290FFE742F20000C4F20200006800F0F6
:102E20000F00039988420ED0FFE7FFF771FA02996D
:102E3000401A41F28931884204D3FFE703208DF81C
:102E4000170046E0E6E7FFE704980078400700280F
:102E50000CD5FFE741F20801C4F20201086820F432
:102E6000E060049AD26810430860FFE70498007895
:102E7000000700280DD5FFE741F20801C4F2020166
:102E8000086820F46050049A126940EAC2000860A1
:102E9000FFE700F067F841F20801C4F20201096897
:102EA000C9B20A0949F69A41C0F60001895C01F0ED
:102EB0001F01C84040F29C01C2F20001086040F2CC
:102EC000A800C2F200000068FFF7ACFA8DF8170006
:102ED000FFE79DF8170006B080BD000082B00190AA
:102EE000009101990F20086041F20800C4F202002D
:102EF000016801F00301019A5160016801F0F001DD
:102F0000019A9160016801F4E061019AD160006862
:102F100000F46050C0080199086142F20000C4F258
:102F20000200006800F00F000099086002B07047CE
:102F300040F29C00C2F200000068704780B5FFF7C5
:102F4000F7FF41F20801C4F202010968C1F302224D
:102F500049F6AA41C0F60001895C01F01F01C84092
:102F600080BD000086B041F20800C4F20200006893
:102F700000F00C00042806D1FFE742F20040C0F246
:102F8000F400019069E041F20800C4F20200006818
:102F900000F00C00082806D1FFE742F20040C0F222
:102FA000F400019058E041F20800C4F20200006809
:102FB00000F00C000C284BD1FFE741F20C00C4F2EA
:102FC0000200016801F0030104910068C1B2012010
:102FD00000EB1110029004980090022815D0FFE732
:102FE0000098032812D1FFE7029942F20040C0F294
:102FF000F400B0FBF1F041F20C01C4F202010968E7
:10300000C1F306214843059011E0FFE7029942F21F
:103010000040C0F2F400B0FBF1F041F20C01C4F248
:1030200002010968C1F3062148430590FFE741F218
:103030000C00C4F20200006800F0C061022000EB46
:103040001160039005980399B0FBF1F0019002E044
:1030500000200190FFE7FFE7FFE7019806B0704707
:10306000B0B588B00690069820B9FFE701208DF82A
:103070001F00CCE306980078C007002800F09B8072
:10308000FFE741F20800C4F20200006800F00C0003
:10309000049041F20C00C4F20200006800F003004A
:1030A000039004980C2804D1FFE70398032804D068
:1030B000FFE70498082812D1FFE741F20000C4F2AC
:1030C000020000688003002808D5FFE706984068E2
:1030D00020B9FFE701208DF81F0098E36AE0FFE7C1
:1030E00006984068B0F5803F09D1FFE741F2000142
:1030F000C4F20201086840F48030086020E00698BD
:103100004068B0F5A02F0DD1FFE741F20001C4F2F5
:103110000201086840F480200860086840F48030AC
:1031200008600CE041F20001C4F20201086820F4DA
:1031300080300860086820F480200860FFE7FFE71F
:10314000FFE706984068D0B1FFE7FFF7E1F8059088
:10315000FFE741F20000C4F202000068800300288B
:103160000CD4FFE7FFF7D4F80599401A652804D37B
:10317000FFE703208DF81F0049E3EAE719E0FFF7B6
:10318000C7F80590FFE741F20000C4F202000068B2
:10319000800300280CD5FFE7FFF7BAF80599401A1D
:1031A000652804D3FFE703208DF81F002FE3EAE72B
:1031B000FFE7FFE7FFE7069800788007002840F167
:1031C0009F80FFE741F20800C4F20200006800F0AF
:1031D0000C00049041F20C00C4F20200006800F000
:1031E0000300039004980C2804D1FFE703980228F9
:1031F00004D0FFE7049804282CD1FFE741F2000037
:10320000C4F2020000684005002808D5FFE70698D0
:10321000C06820B9FFE701208DF81F00F7E241F2F6
:103220000401C4F20201086820F0FE40069A126907
:1032300040EA0260086040F2A800C2F200000068A4
:10324000FFF7F0F820B1FFE701208DF81F00DEE264
:10325000FFE754E00698C06870B3FFE741F2000151
:10326000C4F20201086840F480700860FFF750F86B
:103270000590FFE741F20000C4F20200006840053B
:1032800000280CD4FFE7FFF743F80599401A0328FC
:1032900004D3FFE703208DF81F00B8E2EAE741F20C
:1032A0000401C4F20201086820F0FE40069A126987
:1032B00040EA0260086021E041F20001C4F202012C
:1032C000086820F480700860FFF722F80590FFE797
:1032D00041F20000C4F202000068400500280CD54D
:1032E000FFE7FFF715F80599401A032804D3FFE715
:1032F00003208DF81F008AE2EAE7FFE7FFE7FFE718
:10330000069800780007002849D5FFE7069840692D
:1033100010B3FFE741F29401C4F20201086840F0E3
:1033200001000860FEF7F4FF0590FFE741F294000A
:10333000C4F202000068800700280CD4FFE7FEF703
:10334000E7FF0599401A032804D3FFE703208DF80F
:103350001F005CE2EAE721E041F29401C4F20201BD
:10336000086820F001000860FEF7D2FF0590FFE733
:1033700041F29400C4F202000068800700280CD5D6
:10338000FFE7FEF7C5FF0599401A032804D3FFE7BE
:1033900003208DF81F003AE2EAE7FFE7FFE706980F
:1033A00000784007002840F1C680FFE700208DF834
:1033B0000B0041F25800C4F202000068C00000286F
:1033C00013D4FFE7FFE741F25800C4F2020001689E
:1033D00041F080510160006800F080500190019838
:1033E000FFE701208DF80B00FFE747F20000C4F271
:1033F00000000068C005002822D4FFE747F2000162
:10340000C4F20001086840F480700860FEF780FF95
:103410000590FFE747F20000C4F200000068C00515
:1034200000280CD4FFE7FEF773FF0599401A032824
:1034300004D3FFE703208DF81F00E8E1EAE7FFE788
:10344000FFE706988068012809D1FFE741F2900163
:10345000C4F20201086840F0010008601FE006980D
:10346000806805280DD1FFE741F29001C4F2020106
:10347000086840F004000860086840F00100086037
:103480000CE041F29001C4F20201086820F0010052
:103490000860086820F004000860FFE7FFE7FFE726
:1034A00006988068E0B1FFE7FEF732FF0590FFE77E
:1034B00041F29000C4F202000068800700280ED498
:1034C000FFE7FEF725FF0599401A41F2893188424E
:1034D00004D3FFE703208DF81F0098E1E8E71BE025
:1034E000FEF716FF0590FFE741F29000C4F20200DC
:1034F0000068800700280ED5FFE7FEF709FF059951
:10350000401A41F28931884204D3FFE703208DF845
:103510001F007CE1E8E7FFE79DF80B00012809D1D7
:10352000FFE741F25801C4F20201086820F0805020
:103530000860FFE7FFE7069800788006002849D575
:10354000FFE70698806910B3FFE741F29801C4F2E3
:103550000201086840F001000860FEF7D9FE0590FE
:10356000FFE741F29800C4F20200006880070028DB
:103570000CD4FFE7FEF7CCFE0599401A032804D3CC
:10358000FFE703208DF81F0041E1EAE721E041F267
:103590009801C4F20201086820F001000860FEF7FB
:1035A000B7FE0590FFE741F29800C4F20200006800
:1035B000800700280CD5FFE7FEF7AAFE0599401A00
:1035C000032804D3FFE703208DF81F001FE1EAE77B
:1035D000FFE7FFE70698C069002800F01481FFE7C5
:1035E00041F20800C4F20200006800F00C000C2850
:1035F00000F0B080FFE70698C06902287CD1FFE7A1
:1036000041F20001C4F20201086820F080700860F5
:10361000FEF77EFE0590FFE741F20000C4F20200D3
:103620000068800100280CD5FFE7FEF771FE0599C0
:10363000401A032804D3FFE703208DF81F00E6E0BB
:10364000EAE741F20C01C4F20201086848F20C02F8
:10365000C0F29F121040DDF818C0DCF82020DCF822
:103660002450DCF828E0DCF82C306FF00F0404EB79
:103670000514224342EA0E22DCF8304040F2000EEC
:10368000CFF6E07E0EEA045EAEF5001E42EA0E02C0
:10369000DCF834E04FF07E4C0CEA0E6C0CF17E4C02
:1036A00042EA0C0242EAC3621043086041F200029F
:1036B000C4F20202106840F080701060086840F0A8
:1036C00080700860FEF724FE0590FFE741F20000DD
:1036D000C4F202000068800100280CD4FFE7FEF766
:1036E00017FE0599401A032804D3FFE703208DF83D
:1036F0001F008CE0EAE72CE041F20001C4F2020175
:10370000086820F080700860FEF702FE0590FFE771
:1037100041F20000C4F202000068800100280CD5CC
:10372000FFE7FEF7F5FD0599401A032804D3FFE7EC
:1037300003208DF81F006AE0EAE741F20C01C4F2B1
:10374000020108684FF6FC72CFF6EE621040086086
:10375000FFE757E00698C069012804D1FFE7012080
:103760008DF81F0053E041F20C00C4F20200006823
:103770000390039800F003000699096A88423BD140
:10378000FFE7039800F0F00006994A6A6FF00F0116
:1037900001EB021188422FD1FFE7039800F4FE40AD
:1037A0000699896AB0EB012F26D1FFE7039800F054
:1037B00078400699C96AB0EBC16F1DD1FFE7039845
:1037C00000F4C00006990A6B0021CFF6E07101EA0F
:1037D0000251A1F5001188420ED1FFE7039800F0D5
:1037E000C06006994A6B4FF07E4101EA026101F127
:1037F0007E41884204D0FFE701208DF81F0006E0DB
:10380000FFE7FFE7FFE700208DF81F00FFE79DF8C7
:103810001F0008B0B0BD000081B0009001B070473B
:1038200080B584B00290029820B9FFE701208DF89E
:103830000F0099E00298406A60B9FFE7029840687B
:10384000B0F5827F01D1FFE703E002990020C86153
:10385000FFE705E002990020086102994861FFE74F
:10386000029900208862029890F85D0040B9FFE755
:103870000299002081F85C00029800F079F8FFE7D7
:103880000299022081F85D0002980168086820F022
:10389000400008600298C068B0F5E06F03D9FFE708
:1038A0000020019003E04FF480500190FFE7029860
:1038B000C068B0F5706F0AD0FFE70298C068B0F535
:1038C000E06F04D0FFE7029900208862FFE7029AC8
:1038D000009211685068D2F808C0136900F4827031
:1038E0000CF4044C604403F002031844536903F0E1
:1038F00001031844936903F400731844D36903F077
:1039000038031844136A03F080031844926A02F4DF
:10391000005210430860029B1968DA68D3F818E077
:10392000D3F824C0042000EA1E400CF0100C6044C0
:103930005B6B03F00803184402F470621044019AB0
:1039400002F480521044486002980168C86920F46B
:103950000060C861029900200866029A012182F87D
:103960005D108DF80F00FFE79DF80F0004B080BDDB
:1039700080B58CB00B9000200A90099008900790B9
:1039800006900B98006843F20001C4F201018842DE
:103990007ED1FFE7FFE741F26000C4F20200016858
:1039A00041F480510160006800F480500590059852
:1039B000FFE7FFE741F24C00C4F20200016841F06A
:1039C00001010160006800F0010004900498FFE725
:1039D000E02006900220079000200290089003202B
:1039E000099005200A904FF0904006A9FEF7B2FA20
:1039F000029940F29840C2F2000003900822C4F2FB
:103A0000020202600A2242608160C160802202617B
:103A100041618161C1614FF440510162FDF7F4FEE3
:103A200018B1FFE7FDF790FDFFE7FFE70B9840F2C5
:103A30009841C2F2000181650B988862FFE740F26D
:103A4000F840C2F2000001901C21C4F202010160A2
:103A50000B214160102181600021C1608022026140
:103A600041618161C1614FF440510162FDF7CCFEBB
:103A700018B1FFE7FDF768FDFFE7FFE70B9840F29D
:103A8000F841C2F2000141650B988862FFE7FFE749
:103A90000CB080BD81B0009001B0704781B0009043
:103AA00001B0704780B588B0069005910492ADF8DA
:103AB0000E30069890F85D008DF807000698406873
:103AC00002909DF80700012812D0FFE70298B0F598
:103AD000827F09D1FFE70698806828B9FFE79DF843
:103AE0000700042804D0FFE702208DF81F0055E1ED
:103AF000059838B1FFE7049820B1FFE7BDF80E0044
:103B000020B9FFE701208DF81F0047E1FFE7069885
:103B100090F85C00012804D1FFE702208DF81F0017
:103B20003CE10699012081F85C00FFE7FFE7069879
:103B300090F85D00042805D0FFE70699052081F87C
:103B40005D00FFE70699002008660599069A9163D3
:103B5000BDF80E10069A9187BDF80E10069AD1870F
:103B60000499069A1164BDF80E10069AA2F8441042
:103B7000BDF80E10069AA2F846100699C864069978
:103B8000086506980168486820F4C04048600698B7
:103B9000C068B0F5E06F07D9FFE70698016848688C
:103BA00020F4805048605FE006980168486840F45F
:103BB000805048600698406D8069B0F5806F20D1D4
:103BC000FFE70698808FC00760B9FFE70698016895
:103BD000486820F4804048600698C08F40080699E5
:103BE000C8870DE006980168486840F48040486046
:103BF0000698C18F012000EB51000699C887FFE7A6
:103C0000FFE70698806D8069B0F5806F2BD1FFE7E4
:103C100006980168486820F4805048600698B0F81B
:103C20004600C00770B9FFE706980168486820F4AD
:103C3000005048600698B0F8460040080699A1F880
:103C400046000FE006980168486840F4005048605C
:103C50000698B0F84610012000EB51000699A1F833
:103C60004600FFE7FFE7FFE7069890F85D000428AD
:103C70000FD1FFE70698816D47F64530C0F600008A
:103C800008630698816D47F67530C0F60000C8627B
:103C90000EE00698816D47F65D30C0F600000863BF
:103CA0000698816D47F61940C0F60000C862FFE72C
:103CB0000698816D47F61130C0F6000048630698FB
:103CC000816D00208863069B19681A6C986D0C3111
:103CD000B3F84630FDF744FE78B1FFE70699086E69
:103CE00040F010000866FFE70699002081F85C00AC
:103CF000FFE701208DF81F0050E006980168486832
:103D000040F0010048600698416D00200863069964
:103D1000496DC8620699496D48630699496D886383
:103D2000069B1A68996B586D0C32DB8FFDF718FEF5
:103D300078B1FFE70699086E40F010000866FFE7CB
:103D40000699002081F85C00FFE701208DF81F0034
:103D500024E006980068006800F04000402807D082
:103D6000FFE706980168086840F040000860FFE738
:103D7000FFE70699002081F85C00FFE706980168DC
:103D8000486840F02000486006980168486840F0A4
:103D90000200486000208DF81F00FFE79DF81F001B
:103DA00008B080BD81B0009001B0704781B0009034
:103DB00001B0704781B0009001B0704781B00090B1
:103DC00001B0704781B0009001B0704784B002909C
:103DD000019100200090FFE7029890F83C00012834
:103DE00004D1FFE702208DF80F0083E00299012043
:103DF00081F83C00FFE7FFE7009820F0FF00019901
:103E0000C96808430090009820F4407001998968BF
:103E100008430090009820F48060019949680843A5
:103E20000090009820F40060019909680843009010
:103E3000009820F480500199096908430090009887
:103E400020F400500199496908430090009820F43B
:103E500080400199096B08430090009820F470207D
:103E60000199896940EA01400090009820F0805053
:103E70000199C969084300900298006842F6004120
:103E8000C4F20101884209D0FFE70298006843F2BA
:103E90000041C4F2010188421ED1FFE7009820F4DE
:103EA00070000199896A40EA01500090009820F062
:103EB00080700199096A08430090009820F0007012
:103EC0000199496A08430090009820F00050019938
:103ED000C96A08430090FFE700980299096848649E
:103EE000FFE70299002081F83C00FFE700208DF8F1
:103EF0000F00FFE79DF80F0004B0704781B00090FD
:103F000001B0704781B0009001B0704781B000905F
:103F100001B0704785B003900291FFE7039890F8D5
:103F20003C00012804D1FFE702208DF813008CE04B
:103F30000399012081F83C00FFE7FFE70399022085
:103F400081F83D000398006840680190039800687C
:103F5000806800900398006842F60041C4F20101B5
:103F6000884209D0FFE70398006843F20041C4F299
:103F7000010188420AD1FFE7019820F47000019006
:103F800002984168019808430190FFE701984FF6B5
:103F90008F71CFF6FF510840019002980168019897
:103FA00008430190019803990968486003980068E4
:103FB00042F60041C4F2010188422AD0FFE703988B
:103FC0000068B0F1804F24D0FFE70398006840F20A
:103FD0000041C4F2000188421BD0FFE7039800684B
:103FE00040F60001C4F20001884212D0FFE70398B6
:103FF000006843F20041C4F20101884209D0FFE7A2
:104000000398006844F20001C4F2010188420ED115
:10401000FFE7009820F080000090029881680098E7
:10402000084300900098039909688860FFE70399A6
:10403000012081F83D00FFE70399002081F83C0052
:10404000FFE700208DF81300FFE79DF8130005B08F
:104050007047000081B0009001B0704780B582B019
:104060000090009820B9FFE701208DF8070045E097
:10407000009890F83D0040B9FFE70099002081F8D2
:104080003C00009800F03EF8FFE70099022081F81C
:104090003D00009951F8040B04F046F80099012006
:1040A00081F84800FFE70099012081F83E0000995F
:1040B00081F83F00009981F84000009981F84100A3
:1040C000009981F84200009981F84300FFE7FFE77B
:1040D0000099012081F84400009981F84500009979
:1040E00081F84600009981F84700FFE70099012018
:1040F00081F83D0000208DF80700FFE79DF80700DC
:1041000002B080BD80B584B003900398006840F28F
:104110000041C4F20001884219D1FFE7FFE741F2F4
:104120005800C4F20200016841F002010160006819
:1041300000F0020002900298FFE71D20019000228B
:104140001146FEF705FA0198FEF7F8F9FFE704B00B
:1041500080BD000083B00190019890F83D000128D7
:1041600004D0FFE701208DF80B0060E001990220E8
:1041700081F83D0001980168C86840F00100C860FE
:104180000198006842F60041C4F2010188422AD039
:10419000FFE701980068B0F1804F24D0FFE7019855
:1041A000006840F20041C4F2000188421BD0FFE7E2
:1041B0000198006840F60001C4F20001884212D064
:1041C000FFE70198006843F20041C4F20101884210
:1041D00009D0FFE70198006844F20001C4F2010130
:1041E000884219D1FFE70198006880680721C0F272
:1041F000010108400090009806280CD0FFE70098C5
:10420000B0F5803F07D0FFE701980168086840F0EB
:1042100001000860FFE706E001980168086840F0C7
:1042200001000860FFE700208DF80B00FFE79DF814
:104230000B0003B07047000080B586B00490039176
:1042400000208DF80B00FFE7049890F83C0001284F
:1042500004D1FFE702208DF81700D3E00499012074
:1042600081F83C00FFE7FFE70499022081F83D0058
:10427000049800688068019001984FF68871CFF625
:10428000CE7108400190019820F47F400190019880
:10429000049909688860039800680090002800F07D
:1042A0009780FFE70098102800F09280FFE70098C1
:1042B000202800F08D80FFE70098302800F08880EB
:1042C000FFE70098402876D0FFE70098502858D0A4
:1042D000FFE70098602861D0FFE7009870282CD095
:1042E000FFE70098B0F5805F26D0FFE70098B0F5B3
:1042F000005F37D0FFE70098B0F1101F68D0FFE7EC
:1043000000982021C0F21001884261D0FFE7009898
:104310003021C0F2100188425AD0FFE700984021B6
:10432000C0F21001884253D0FFE700987021C0F21C
:10433000100188424CD052E055E004980068039B7D
:104340005A689968DB6803F0D7FF049800688068B2
:104350000190019840F07700019001980499096854
:10436000886040E004980068039B5A689968DB689D
:1043700003F0C2FF04980168886840F480408860B8
:1043800031E004980068039A5168D26804F0CAFBCF
:1043900004980068502103F0C9FF24E004980068E5
:1043A000039A5168D26804F0E5FB04980068602124
:1043B00003F0BCFF17E004980068039A5168D268C4
:1043C00004F0B0FB04980068402103F0AFFF0AE05E
:1043D000049800680399096803F0A8FF03E001202E
:1043E0008DF80B00FFE70499012081F83D00FFE7FD
:1043F0000499002081F83C00FFE79DF80B008DF840
:104400001700FFE79DF8170006B080BD81B000904F
:1044100001B0704780B584B0039003980068C0680D
:10442000029003980068006901909DF804008007DD
:10443000002824D5FFE79DF80800800700281DD537
:10444000FFE7039801686FF00200086103990120FB
:104450000877039800688069800720B1FFE7039818
:10446000FFF7D4FF06E0039800F088F9039800F006
:10447000D3FAFFE7039900200877FFE7FFE79DF8ED
:1044800004004007002825D5FFE79DF808004007F5
:1044900000281ED5FFE7039801686FF0040008614B
:1044A00003990220087703980068806910F4407F20
:1044B00004D0FFE70398FFF7A9FF06E0039800F098
:1044C0005DF9039800F0A8FAFFE703990020087748
:1044D000FFE7FFE79DF804000007002824D5FFE769
:1044E0009DF80800000700281DD5FFE70398016824
:1044F0006FF00800086103990420087703980068AA
:10450000C069800720B1FFE70398FFF77FFF06E04F
:10451000039800F033F9039800F07EFAFFE703995F
:1045200000200877FFE7FFE79DF80400C006002899
:1045300025D5FFE79DF80800C00600281ED5FFE737
:10454000039801686FF0100008610399082008774C
:1045500003980068C06910F4407F04D0FFE7039817
:10456000FFF754FF06E0039800F008F9039800F005
:1045700053FAFFE7039900200877FFE7FFE79DF86C
:104580000400C00778B1FFE79DF80800C00748B1F4
:10459000FFE7039801686FF001000861039800F0DD
:1045A0006FFBFFE7FFE7019800F08000802806D04E
:1045B000FFE79DF805008006002810D5FFE79DF86D
:1045C00008000006002809D5FFE7039801686FF48A
:1045D000025008610398FFF7F1FBFFE7FFE79DF842
:1045E0000500C00780B1FFE79DF80800000600281D
:1045F00009D5FFE7039801686FF48070086103989C
:10460000FFF7D8FBFFE7FFE79DF80400400600280E
:1046100010D5FFE79DF808004006002809D5FFE700
:10462000039801686FF040000861039800F062FB96
:10463000FFE7FFE79DF804008006002810D5FFE79C
:104640009DF808008006002809D5FFE70398016857
:104650006FF0200008610398FFF7B4FBFFE7FFE766
:104660009DF80600C006002810D5FFE79DF80A0057
:10467000C006002809D5FFE7039801686FF4801091
:1046800008610398FFF73EFCFFE7FFE79DF806008F
:104690008006002810D5FFE79DF80A008006002854
:1046A00009D5FFE7039801686FF4001008610398CB
:1046B000FFF724FCFFE7FFE79DF80600400600280F
:1046C00010D5FFE79DF80A004006002809D5FFE74E
:1046D000039801686FF4800008610398FFF716FCE7
:1046E000FFE7FFE79DF806000006002810D5FFE76A
:1046F0009DF80A000006002809D5FFE70398016825
:104700006FF4000008610398FFF7A4FCFFE7FFE7E0
:1047100004B080BD80B588B0079000200690059059
:104720000490039002900798006842F60041C4F29A
:10473000010188421FD1FFE7FFE741F24C00C4F2BC
:104740000200016841F001010160006800F0010011
:1047500001900198FFE74FF48070029002200390CF
:10476000002004900590062006904FF0904002A98A
:10477000FDF7F0FBFFE708B080BD000081B00090BE
:1047800001B0704780B586B004900391029200207A
:104790008DF80700FFE7049890F83C00012804D149
:1047A000FFE702208DF81700C0E00499012081F88E
:1047B0003C00FFE7FFE702980090142800F2A78072
:1047C0000099DFE801F00BA4A4A424A4A4A43EA4AF
:1047D000A4A457A4A4A471A4A4A48A000498006863
:1047E000039903F0BBFD04980168886940F0080054
:1047F000886104980168886920F004008861039842
:1048000002690498016888691043886183E004980C
:104810000068039903F04CFE04980168886940F42D
:104820000060886104980168886920F4806088616C
:104830000398026904980168886940EA0220886147
:1048400069E004980068039903F0EAFE049801689F
:10485000C86940F00800C86104980168C86920F080
:104860000400C8610398026904980168C86910438C
:10487000C86150E004980068039903F089FF049828
:104880000168C86940F40060C86104980168C8699B
:1048900020F48060C8610398026904980168C869BF
:1048A00040EA0220C86136E004980068039904F0E9
:1048B00027F804980168086D40F00800086504981E
:1048C0000168086D20F004000865039802690498E7
:1048D0000168086D104308651DE00498006803999D
:1048E00004F078F804980168086D40F400600865E9
:1048F00004980168086D20F48060086503980269D7
:1049000004980168086D40EA0220086503E0012070
:104910008DF80700FFE7FFE70499002081F83C00CD
:10492000FFE79DF807008DF81700FFE79DF81700D7
:1049300006B080BD80B582B00090009820B9FFE736
:1049400001208DF8070045E0009890F83D0040B93F
:10495000FFE70099002081F83C00009800F03EF845
:10496000FFE70099022081F83D00009951F8040BFF
:1049700003F0DAFB0099012081F84800FFE7009975
:10498000012081F83E00009981F83F00009981F8EC
:104990004000009981F84100009981F84200009997
:1049A00081F84300FFE7FFE70099012081F8440008
:1049B000009981F84500009981F84600009981F836
:1049C0004700FFE70099012081F83D0000208DF8A5
:1049D0000700FFE79DF8070002B080BD82B001909C
:1049E0000198006842F60041C4F20101884210D1EA
:1049F000FFE7FFE741F26000C4F20200016841F402
:104A000000610160006800F4006000900098FFE71A
:104A1000FFE702B07047000081B0009001B070471E
:104A200080B590B00E900D910D9828B9FFE70E98C3
:104A300090F83E000B9034E00D98042805D1FFE774
:104A40000E9890F83F000A9028E00D98082805D1AC
:104A5000FFE70E9890F8400009901CE00D980C2894
:104A600005D1FFE70E9890F84100089010E00D98EE
:104A7000102805D1FFE70E9890F84200079004E057
:104A80000E9890F843000790FFE707980890FFE71B
:104A900008980990FFE709980A90FFE70A980B9099
:104AA000FFE70B98012804D0FFE701208DF83F00B5
:104AB000E1E00D9828B9FFE70E99022081F83E0049
:104AC00038E00D98042806D1FFE70E99022081F8FE
:104AD0003F0006902CE00D98082806D1FFE70E99BC
:104AE000022081F8400005901FE00D980C2806D1A7
:104AF000FFE70E99022081F84100049012E00D9822
:104B0000102806D1FFE70E99022081F84200039099
:104B100005E00E99022081F843000390FFE7039817
:104B20000490FFE704980590FFE705980690FFE7DB
:104B30000698FFE70E9800680D990122019203F094
:104B4000BFFB01980E99096842F60042C4F20102C7
:104B5000914202902DD0FFE70E980168012043F2A8
:104B60000042C4F201029142029022D0FFE70E9867
:104B70000168012044F20002C4F201029142029055
:104B800017D0FFE70E980168012044F20042C4F2FA
:104B90000102914202900CD0FFE70E9800684BF69C
:104BA0000001CBF6FE710844B0FA80F04009029093
:104BB000FFE70298C00738B1FFE70E980168486C1C
:104BC00040F400404864FFE70E98006842F6004158
:104BD000C4F2010188422AD0FFE70E980068B0F1C4
:104BE000804F24D0FFE70E98006840F20041C4F2E5
:104BF000000188421BD0FFE70E98006840F60001D4
:104C0000C4F20001884212D0FFE70E98006843F218
:104C10000041C4F20101884209D0FFE70E98006804
:104C200044F20001C4F20101884219D1FFE70E9855
:104C3000006880680721C0F2010108400C900C98C0
:104C400006280CD0FFE70C98B0F5803F07D0FFE7AF
:104C50000E980168086840F001000860FFE706E070
:104C60000E980168086840F001000860FFE7002026
:104C70008DF83F00FFE79DF83F0010B080BD0000B9
:104C800080B584B0039003980068B0F1804F03D1E1
:104C9000FFE7FDF7A1FBFFE70398006840F2004142
:104CA000C4F20001884223D1FFE740F28C40C2F2F7
:104CB0000000FCF73BFB40F28840C2F2000080EDB0
:104CC000000A40F21870C2F20000019000F11802D0
:104CD00040F25850C2F200000290082104F0BEF9E0
:104CE0000199029801F12002032104F0B7F9FFE7CE
:104CF00004B080BD81B0009001B0704780B584B031
:104D000003900399002001900874039BD3F8F400EA
:104D1000596840F2BC72C2F20002009212889B7B7A
:104D20005A43FBF741FF0099039A50680988927B28
:104D30005143FBF752FF0099039AD2F818010988F2
:104D4000927B51435143FBF748FF0099039AD2F8F5
:104D50000C010988137B927B59435143FBF73DFFBC
:104D600001988DF80B00FFE79DF80B000399897BF4
:104D7000884243DAFFE70398D0F8F4009DF80B105F
:104D800000EB810090ED000AB5EE400AF1EE10FA5A
:104D90002DD0FFE7039AD2F8F4109DF80B0051F8DC
:104DA0002000127C41F822009DF80B00039A516A02
:104DB000127C8854DDF80CC0DCF818009DF80BE07C
:104DC00050F82E00DCF80C119CF80C209CF81030E8
:104DD000DCF814C01CF80EC012FB03C201EB820108
:104DE00041F8040C0399087C01300874FFE7FFE7E1
:104DF0009DF80B0001308DF80B00B5E700208DF811
:104E00000A00FFE79DF80A000399097C884216DA38
:104E1000FFE7039BD869596A9DF80A20895C50F81E
:104E20002100D3F818111B7C12FB032241F8220049
:104E3000FFE79DF80A0001308DF80A00E2E70399C8
:104E4000087CA1F878000399087BA1F87A000399FF
:104E5000087BA1F880000399087CA1F882000399DF
:104E6000087CA1F890000399087CA1F892000399AE
:104E7000087BA1F898000399087CA1F89A0003998F
:104E8000087CA1F8480004B080BD0000FFE7FEE701
:104E900081B0009040F27840C2F2000090ED001A1C
:104EA0009FED2A0A80EE010A40F27C41C2F2000125
:104EB00081ED000A009890ED030A91ED001A20EEB2
:104EC000010A80ED000A009890ED040A91ED001AA5
:104ED00020EE010A80ED010A009890ED050A91ED9F
:104EE000001A20EE010A80ED020A40F29040C2F260
:104EF000000090ED001AB7EE000A80EE010A9FED67
:104F0000141A20EE010A40F29441C2F2000181ED30
:104F1000000A009890ED090A91ED001A20EE010AAE
:104F200080ED060A009890ED0A0A91ED001A20EE35
:104F3000010A80ED070A009890ED0B0A91ED001A26
:104F400020EE010A80ED080A01B07047C3F51C414C
:104F500035FA8E3C80B596B04FF0904011901021FC
:104F6000129100220F92FDF7BDF940F2B871C2F222
:104F70000001149175200E9000F0D6FA1198129944
:104F800001221392FDF7AEF90F9A11981299FDF7CD
:104F9000A9F9F52000F0DEFA139A14990E9800F0A2
:104FA0009DFA11981299139AFDF79CF90F9A11988E
:104FB0001299FDF797F90E98149900F0B5FA119827
:104FC0001299139AFDF78EF90F9A11981299FDF71D
:104FD00089F90F997620109000F0D0FA1198129963
:104FE000139AFDF77FF90F9A11981299FDF77AF944
:104FF0001098139900F0C2FA11981299139AFDF7BC
:1050000071F96420FCF72AFD14980078472840F0D5
:105010005C82FFE74FF090400B9010210C91002232
:105020000892FDF75FF97620079001210D9100F0BD
:10503000A5FA0B980C990D9AFDF754F9089A0B985C
:105040000C99FDF74FF97A200221039100F096FAAE
:105050000B980C990D9AFDF745F9089A0B980C9945
:10506000FDF740F90798089900F088FA0B980C9919
:105070000D9AFDF737F9089A0B980C99FDF732F95C
:105080001620402100F07AFA0B980C990D9AFDF742
:1050900029F9089A0B980C99FDF724F940F2B87198
:1050A000C2F2000109916520009000F03DFA0B98D2
:1050B0000C990D9AFDF716F9089A0B980C99FDF7C3
:1050C00011F90098089900F059FA0B980C990D9A6B
:1050D000FDF708F9089A0B980C99FDF703F9089960
:1050E000602000F04BFA0B980C990D9AFDF7FAF836
:1050F000089A0B980C99FDF7F5F80399612000F0D8
:105100003DFA0B980C990D9AFDF7ECF8089A0B985C
:105110000C99FDF7E7F800980999097800F02EFA44
:105120000B980C990D9AFDF7DDF8089A0B980C99DD
:10513000FDF7D8F85F20632100F020FA0B980C9956
:105140000D9AFDF7CFF8089A0B980C99FDF7CAF85D
:105150000798089900F012FA0B980C990D9AFDF730
:10516000C1F8089A0B980C99FDF7BCF81420362169
:1051700000F004FA0B980C990D9AFDF7B3F8089A11
:105180000B980C99FDF7AEF80798089900F0F6F91E
:105190000B980C990D9AFDF7A5F8089A0B980C99A5
:1051A000FDF7A0F80098099900F0BEF90B980C994A
:1051B0000D9AFDF797F8089ADDF824C00B980C9922
:1051C0009CF8003043F004038CF80030FDF78AF8B7
:1051D00000980999097800F0D1F90B980C990D9A6B
:1051E000FDF780F8089803F08BFD089A0B980C994E
:1051F000FDF778F80798089900F0C0F90B980C991A
:105200000D9AFDF76FF8089A0B980C99FDF76AF85C
:1052100009995020019000F087F90B980C990D9A8C
:10522000FDF760F8089ADDF824C00B980C999CF8FB
:10523000003043F006038CF80030FDF753F8019876
:105240000999097800F09AF90B980C990D9AFDF7D5
:1052500049F8089803F08AFD089A0B980C99FDF715
:1052600041F80798089900F089F90B980C990D9A64
:10527000FDF738F8089A0B980C99FDF733F809995F
:105280004F20029000F050F90B980C990D9AFDF701
:1052900029F8089ADDF824C00B980C999CF8003086
:1052A00043F006038CF80030FDF71CF802980999CA
:1052B000097800F063F90B980C990D9AFDF712F834
:1052C000089A0B980C99FDF70DF807980D9900F0C6
:1052D00055F90B980C990D9AFDF704F8089A0B985C
:1052E0000C99FCF7FFFF0B20A02100F047F90B9869
:1052F0000C990D9AFCF7F6FF089A0B980C99FCF79D
:10530000F1FF0C21084600F039F90B980C990D9A21
:10531000FCF7E8FF089A0B980C99FCF7E3FF0D20C7
:105320009021049100F02AF90B980C990D9AFCF742
:10533000D9FF089A0B980C99FCF7D4FF0E20802116
:10534000059100F01BF90B980C990D9AFCF7CAFF18
:10535000089A0B980C99FCF7C5FF0399079800F081
:105360000DF90B980C990D9AFCF7BCFF089A0B9855
:105370000C99FCF7B7FF0320182100F0FFF80B98F9
:105380000C990D9AFCF7AEFF089A0B980C99FCF754
:10539000A9FF0499042000F0F1F80B980C990D9ADC
:1053A000FCF7A0FF089A0B980C99FCF79BFF059956
:1053B0000520069000F0E2F80B980C990D9AFCF786
:1053C00091FF089A0B980C99FCF78CFF07980899A5
:1053D00000F0D4F80B980C990D9AFCF783FF089A0B
:1053E0000B980C99FCF77EFF5120122100F0C6F8B3
:1053F0000B980C990D9AFCF775FF089A0B980C996D
:10540000FCF770FF0699532000F0B8F80B980C9940
:105410000D9AFCF767FF089A0B980C99FCF762FF4E
:105420005220332100F0AAF80B980C990D9AFCF742
:1054300059FF089A0B980C99FCF754FF07980899A4
:1054400000F09CF80B980C990D9AFCF74BFF089A0A
:105450000B980C99FCF746FF09994E200A9000F032
:1054600063F80B980C990D9AFCF73CFF089ADDF84D
:1054700024C00B980C999CF8003003F0DF038CF8E3
:1054800000309CF8003043F00C038CF800309CF89E
:10549000003043F003038CF80030FCF723FF099938
:1054A0000A98097800F06AF80B980C990D9AFCF7A5
:1054B00019FF0D98FCF7D2FA0D9840F24071C2F234
:1054C00000010870ADF8560003E00020ADF856006A
:1054D000FFE7BDF9560016B080BD000080B584B06E
:1054E0008DF80F0002918DF8072000208DF806003E
:1054F0008DF80600FFE79DF806009DF8071088422A
:1055000010DAFFE70298007800F024F8029908709A
:10551000029801300290FFE79DF8060001308DF8F7
:105520000600E8E704B080BD80B584B08DF80F00B8
:105530000291FF208DF807009DF80F0040F08000D9
:1055400000F008F89DF8070000F004F802990870D0
:1055500004B080BD80B582B08DF8070040F2CC5019
:10556000C2F200000DF107010DF106020123FEF762
:1055700099FA9DF8060002B080BD000080B582B0A7
:105580008DF807008DF806109DF80700FFF7E2FF81
:105590009DF80600FFF7DEFF02B080BD80B592B037
:1055A00040F2C401C2F2000108680130086040F214
:1055B0001470C2F200000078C0B9FFE740F24870F2
:1055C000C2F2000000214FF4FA624FF496739FED8F
:1055D000C10AF3EE040A9FEDC01A02F021FA40F26C
:1055E0001471C2F2000101200870FFE740F2CC0004
:1055F000C2F20000059003F01BFC0598FFF748FC81
:105600004FF2C350C4F21C10119000200A90109069
:105610000F9040F28020C2F20000FBF787FE059950
:1056200040F28440C2F20000089080ED000A90ED44
:10563000001A40F2C070C2F2000090ED000A30EE95
:10564000010A80ED000A40F20020C2F20000099039
:1056500044F29632C3F60B42026491ED000A40F226
:10566000A002C2F2000292ED001A20EE010A80EDC3
:10567000070A91ED010A92ED001A20EE010A80ED71
:10568000080A91ED020A92ED001A20EE010A80ED5F
:10569000090A8A690261CA694261096A816190EDF9
:1056A000070AD0ED090A04F0E9F809989FED8B1A72
:1056B0008DED061A20EE410A9FED891A8DED071A2D
:1056C00080EE010A80ED1A0A90ED080AD0ED090A71
:1056D00004F0D4F89DED062A9DED071A0898099963
:1056E00020EE020A80EE010A81ED1B0A91ED040A08
:1056F000D1ED050A91ED061AD1ED071A91ED082AB0
:10570000D1ED092A90ED003A00F094FB099A40F29D
:10571000982CC2F2000CDCF85001DCF85411DCF8D3
:105720005831DCF85CC1C2F80CC093605160106065
:1057300002F1440149F65450C0F60000FBF744FC66
:10574000099A02F1500149F66050C0F60000FBF7DB
:105750003BFC099A02F15C0149F66C50C0F600006E
:10576000FBF732FC099A0FA80CA9FBF74BFE0A982D
:105770008DF82F00FFE79DF82F00022830DCFFE7AF
:105780009DF82F0040F20021C2F200010CAA02EBAA
:10579000800292ED002A01EB800090ED070A90ED67
:1057A0000A1A30EE420A40F28442C2F2000292ED3E
:1057B000002A20EE020A91ED103A33EE022A80EE22
:1057C000020A21EE031A81EE021A30EE010A80ED80
:1057D0000A0AFFE79DF82F0001308DF82F00CAE775
:1057E00040F20022C2F20002039202F1280002F10C
:1057F0003401FBF7E9FB039840F29821C2F2000163
:10580000D1F8A8218267D1F8A4214267D1F8A0215C
:105810000267D1F8AC11C167026F40F21871C2F291
:10582000000104910A6102694A61426F0A6042699B
:105830004A60826F8A608269CA6090ED050A40F210
:105840009442C2F2000292ED001A80EE010A81ED4C
:10585000060A90ED060A92ED001A80EE010A81ED2B
:10586000070A426F0A62806F486240F2C400C2F2C7
:1058700000000078C00750BBFFE740F2C800C2F24A
:105880000000019003F084FB0198B0F9000000EEE5
:10589000100AB8EEC00A40F2CC00C2F20000D0ED0F
:1058A0000C0A40F24870C2F20000029003F024FD9E
:1058B000029890ED100ABDEEC00A10EE102A40F2D8
:1058C0003060C2F20000002103F0EEF8FFE712B0F2
:1058D00080BD00BF00007A44000000000000344397
:1058E000DB0F494080B584B003900398D0F8EC00FA
:1058F000006840F22C13C2F2000318600398D0F83D
:10590000EC00406840F23012C2F2000210600398CE
:10591000D0F8EC00806840F23411C2F20001086057
:105920000398D0F8EC00D0F80CC040F23810C2F266
:105930000000C0F800C093ED000A92ED001A21EEBD
:10594000011A20EE000A30EE011A91ED000A20EE55
:10595000000A30EE011A90ED000A20EE000A30EE47
:10596000010A03F0DBFB40F23C10C2F2000080EDC4
:10597000000A00208DF80B00FFE79DF80B000328BC
:105980001ADCFFE740F23C10C2F2000090ED001A72
:105990000398D0F8EC009DF80B1000EB810090ED1F
:1059A000000A20EE010A80ED000AFFE79DF80B00D7
:1059B00001308DF80B00E0E740F23011C2F2000137
:1059C00091ED000A40F29820C2F20000009090EDA4
:1059D0006F1A20EE010AB0EE001A8DED011A80EE6A
:1059E000010A039AD2F8002182ED040A40F234122F
:1059F000C2F2000292ED000A90ED6F2A20EE020A38
:105A000080EE010A039BD3F8003183ED050A40F2D2
:105A10002C13C2F2000393ED000A90ED6F2A20EEE2
:105A2000420A80EE010ADDF80CC0DCF800C18CED02
:105A30000A0A40F2381CC2F2000C9CED000A90EDFC
:105A40006F2A20EE020A80EE010ADDF80CE0DEF893
:105A500000E18EED0B0A9CED000A90ED6F2A20EE1E
:105A6000420A80EE010ADDF80CC0DCF800C18CEDC2
:105A7000100A93ED000A90ED6F2A20EE420A80EEA4
:105A8000010A039BD3F8003183ED110A92ED000A5D
:105A900090ED6F2A20EE020A80EE010A039AD2F8F6
:105AA000002182ED160A91ED000A90ED6F2A20EE9A
:105AB000420A80EE010A0399D1F8001181ED170A1C
:105AC00090ED741A0399D1F8F81091ED1C0A80EE4C
:105AD000010A81ED1C0A90ED741A0398D0F8F800C1
