:020000040800F2
:1000000020120020ED010008EB350008CF2A00087F
:10001000E735000859020008CF4100080000000041
:100020000000000000000000000000001D3C00086F
:100030000904000800000000413600081F3C0008C9
:10004000070200080702000807020008070200086C
:10005000070200080702000807020008070200085C
:100060000702000807020008070200085D020008F6
:100070006D020008070200080702000807020008D6
:10008000070200080000000007020008070200083D
:10009000070200080702000807020008070200081C
:1000A000070200080702000807020008070200080C
:1000B0009D3C0008AD3C000807020008070200084C
:1000C00007020008070200080702000807020008EC
:1000D00007020008070200080702000807020008DC
:1000E00007020008070200080702000807020008CC
:1000F00007020008070200080702000800000000CD
:1001000000000000070200080000000007020008CD
:1001100007020008000000000702000807020008AC
:10012000070200080702000807020008070200088B
:10013000070200080000000000000000070200089D
:10014000070200080702000800000000000000008D
:10015000000000000000000000000000000000009F
:10016000000000000000000000000000070200087E
:10017000070200080000000000000000000000006E
:10018000000000000702000800000000000000005E
:10019000000000000000000000000000000000005F
:1001A000000000000000000007020008070200082D
:1001B000070200080702000807020008000000000C
:1001C000000000000702000800000000000000001E
:1001D0000702000807020008DFF80CD000F02AF838
:1001E000004800471D4900082012002006488047AB
:1001F00006480047FEE7FEE7FEE7FEE7FEE7FEE70C
:10020000FEE7FEE7FEE7FEE7893C0008D9010008AB
:10021000D2B201E000F8012B491EFBD27047002248
:10022000F6E710B513460A4604461946FFF7F0FFF5
:10023000204610BD064C074D06E0E06840F0010383
:1002400094E8070098471034AC42F6D3FFF7C8FF94
:10025000244B0008444B000800BFFEE710B50248DD
:1002600000F072F910BD0000A401002010B5024892
:1002700000F06AF910BD00000402002030B50E4DF8
:100280000468AC4201D20D4901E00C4920310B4613
:100290000478083C1425B4FBF5F2446CA40803EB85
:1002A00084048464054C8034C46402F01F05012476
:1002B000AC40046530BD0000080402400008024064
:1002C00001794A1E064B03EB82024265044A403222
:1002D00082654A1E02F01F0301229A40C2657047E0
:1002E0000009024030B5D0E913546C60446D14B17C
:1002F000D0E916546C6090F8444004F01F050124C6
:10030000AC40056C6C60046863608468102C04D198
:100310000468A2600468E16003E00468A160046806
:10032000E26030BD08B50848406800900749009871
:100330000968884204D206480068401C04490860E5
:1003400002490098086008BD001000E0600000202D
:100350005C00002010B52DED028B82B004460E48E3
:100360004068019020680199081A00EE100AF8EE22
:10037000400A0A4890ED000AB8EE400A80EE801A62
:10038000B0EE418A01982060FFF7CCFFB0EE480A3A
:1003900002B0BDEC028B10BD001000E05000002048
:1003A0001249096841F08071104A11600021104A19
:1003B00051601146096841F0010111600D49414346
:1003C0000D4A1160114609684FF47A72B1FBF2F1DF
:1003D0000A4A116008490968064AB1FBF2F1084A65
:1003E00011600021074A116070470000FCED00E039
:1003F000001000E040420F00500000205400002098
:10040000580000205C000020704772B600BFFEE775
:1004100010B5194901640368D3F8803023F4F81447
:10042000838E44EA03430468C4F8803001F170030A
:1004300043640368D3F8803023F0706490F8383058
:1004400044EA03630468C4F8803001F1B0038364B4
:1004500001F5C473C36401F51873036501F51E73D8
:1004600043650A4602E000231360121D01F5547330
:100470009A42F8D310BD000000A400402DE9F041DD
:10048000054614461E46D1F804C0BCF1000F0AD13F
:10049000D1F810C0D1F808804CEA080CB1F80080FF
:1004A0004CEA88430BE0D1F810C04CF0804CD1F8F6
:1004B00008804CEA080CD1F800804CEA080391F857
:1004C0002080D1F81CC04CEA086CD1F818804CEAA6
:1004D000080CD1F814804CEA080CB1F80C804CEAF6
:1004E000084706EBC608D5F854C00CEBC8021360E9
:1004F000121D1760121D002019E000F1030C14F802
:100500000CC04FEA0C6800F1020C14F80CC048EA69
:100510000C4800F1010C14F80CC048EA0C2C14F83B
:1005200000804CEA080CC2F800C0121D001DDFF864
:100530001480D1F80CC018F80CC08445DDD8BDE893
:10054000F0810000FC4A000870B50446206C056884
:100550002068066894F8440000F01F0104208840D9
:100560002840E0B106F00400C8B12068006800F03F
:10057000200028B92068006820F004002168086085
:1005800094F8440000F01F0104208840216C48606A
:10059000206B002856D02046216B884752E094F803
:1005A000440000F01F0102208840284018B306F0E4
:1005B000020000B32068006800F0200040B9206805
:1005C000006820F00A0021680860012084F82500F6
:1005D00094F8440000F01F0102208840216C48601C
:1005E00000BF002084F8240000BFE06A50B320461A
:1005F000E16A884726E094F8440000F01F010820D3
:1006000088402840F0B106F00800D8B120680068A2
:1006100020F00E002168086094F8440000F01F01EB
:1006200001208840216C48600120E06384F82500A7
:1006300000BF002084F8240000BF606B10B120468A
:10064000616B884770BD000070B504460CB901208D
:1006500070BD2F49206888420BD22E492068401A6D
:100660001421B0FBF1F0800060642A48083820644F
:100670000AE027492068401A1421B0FBF1F08000FD
:100680006064234808382064022084F8250020682C
:10069000056847F6F0708543D4E9020108432169F3
:1006A000084361690843A1690843E1690843216A75
:1006B00008430543206805602046FFF7DFFDA0687A
:1006C000B0F5804F01D1002060602079A16C0860F6
:1006D000D4E913104860606860B16068042809D8E4
:1006E0002046FFF7EDFD0020616D0860D4E916108B
:1006F000486003E000206065A065E0650020E063DD
:10070000012084F82500002084F8240000BF9FE722
:1007100008040240080002402DE9F04104460D465D
:1007200016461F464FF0000800BF94F82400012829
:1007300002D10220BDE8F081012084F8240000BF2E
:1007400094F8250001283FD1022084F825000020DC
:10075000E0632068006820F00100216808603B46E3
:10076000324629462046FFF7BDFD206B30B1206898
:10077000006840F00E00216808600BE02068006807
:1007800020F00400216808602068006840F00A003A
:1007900021680860A06C006800F4803028B1A06C6B
:1007A000006840F48070A16C0860606D28B1606DD5
:1007B000006840F48070616D08602068006840F057
:1007C00001002168086006E000BF002084F82400D2
:1007D00000BF4FF002084046ACE7000070B5044689
:1007E00000F0B6FA06462546681C10B104480068B9
:1007F000054400BF00F0ACFA801BA842FAD370BDDC
:100800002C0000202DE9F04104460E461746706882
:1008100000B900E000BF94F85C00022821D12068F4
:10082000D0F8C40000F4001030B1206E40F4007025
:1008300020660120BDE8F0812068D0F8C400C0F334
:1008400001452B463A4631462046FFF717FE012068
:10085000A8402168C1F8CC000120A840A065002074
:10086000E8E7206E40F0080020660120E2E7000083
:1008700070B504460CB9012070BD814920688842DA
:1008800000D100BFA068B0F5407F00D100BF94F850
:100890005C0028B9002084F85D00204600F0F4F8E0
:1008A0002068806920F010002168886100F050FA0B
:1008B00005460DE000F04CFA401B0A2808D9206ECE
:1008C00040F001002066032084F85C000120D3E79B
:1008D0002068806900F008000828EBD02068806953
:1008E00040F001002168886100F032FA05460DE011
:1008F00000F02EFA401B0A2808D9206E40F00100B3
:100900002066032084F85C000120B5E72068806938
:1009100000F001000028EBD02068806940F0020060
:100920002168886156492068884202D1554960682B
:100930000860207C012806D12068806920F04000F2
:100940002168886105E02068806940F040002168E6
:100950008861607C012806D12068806940F480406D
:100960002168886105E02068806920F48040216862
:100970008861A07C012806D12068806920F480501D
:100980002168886105E02068806940F48050216812
:1009900088612068806920F44070A168084321685C
:1009A00088612068806920F0A4002168886120683F
:1009B000006920F0100021680861E068012806D174
:1009C0002068806940F004002168886120E0E068C8
:1009D000F0B1E068022815D02068806940F08000FE
:1009E000216888612068006940F010002168086172
:1009F000E06803280CD12068806940F0200021685D
:100A0000886105E02068806940F0200021688861E5
:100A1000207E401E4106E069401E41EA0020216A16
:100A2000491E0843A18A491E40EA01402168C86165
:100A3000A068B0F5407F0FD1A06A401EE16A491E50
:100A400040EA0121206B401E41EA0011A08C401EAB
:100A500041EA00402168C8602068D0F8C000E16B1E
:100A600008432168C1F8C0002046FFF7D1FC0020F0
:100A7000A0652066012084F85C000020FCE60000F0
:100A8000006400400065004010B598B00446142191
:100A900013A8FFF7C4FB442102A8FFF7C0FB1C49C1
:100AA0002068884232D18014029040030E9002A840
:100AB00000F0DAFA08B1FFF7A8FC00BF1548806D16
:100AC00040F00070134988650846806D00F00070A2
:100AD000019000BF00BF00BF0846C06C40F001009D
:100AE000C8640846C06C00F00100019000BF00BF60
:100AF0004FF4C050139002201490002015901690CF
:100B00000920179013A9C00600F036F818B010BDE0
:100B10000064004000100240014691F85C0001288A
:100B20000BD1022081F85C000868806920F0010088
:100B30000A689061002008667047086E40F0040063
:100B400008660120F8E7000000200849496901F023
:100B5000004151B10649054A91600649916011462C
:100B6000496901F0004101B10120704700200240B5
:100B700023016745AB89EFCD78B502460B460021CE
:100B8000CAE001268E401D6805EA0604002C73D0D9
:100B90001D7905F00305012D04D01D7905F003052D
:100BA000022D13D190684E000325B540A8434E0096
:100BB000DD68B54028439060506801258D40A8430A
:100BC0001D79C5F300158D40284350601D7905F04F
:100BD0000305032D09D0D0684E000325B540A84376
:100BE0004E009D68B5402843D0601D7905F003058F
:100BF000022D13D1CE0802F1200555F826004D072D
:100C0000EE0E0F25B540A8434E07F60E1D69B54000
:100C10002843CE0802F1200545F8260010684E0052
:100C20000325B540A8431D7905F003054E00B540E6
:100C3000284310605D6805F44035002D6BD000BF7F
:100C4000384D2D6E45F00105364E356635462D6E14
:100C500005F00105009500BF00BF4FEAB6358E08CC
:100C600055F826008D072E0F0F25B540A843B2F189
:100C7000904F02D100251AE04DE02B4DAA4201D140
:100C8000012514E0294DAA4201D102250FE0284D8B
:100C9000AA4201D103250AE0264DAA4201D104252A
:100CA00005E0254DAA4201D1052500E006258E0765
:100CB000360FB5402843214D8E0845F82600204DBB
:100CC0002868A0435D6805F4801505B120431C4DDC
:100CD00028602D1D2868A0435D6805F4001505B146
:100CE0002043174D2D1D2860154D2D1F2868A0434A
:100CF0005D6805F4003505B12043114D2D1F2860B6
:100D00002D1F2868A0435D6805F4803505B1204398
:100D10000B4D083D2860491C1D68CD40002D7FF417
:100D200030AF78BD001002400004004800080048C1
:100D3000000C004800100048001400480800014062
:100D4000080401400AB1816100E08162704700003F
:100D50000148006870470000240000200348006834
:100D600003490968084401490860704724000020CD
:100D70002C00002010B50024032000F0CBF80F2039
:100D800000F008F808B1012401E000F04FF8204617
:100D900010BD0000F0B587B004460026002700BF54
:100DA0001E48806D40F001001C4988650846806D32
:100DB00000F00100009000BF00BF01A902A800F0F0
:100DC0001DFC00F043FC06461548B6FBF0F0471E3C
:100DD0004FF080401349086040F2E7311148C1608C
:100DE000476000210161816001F017FA054695B95D
:100DF0000C4801F06BFA05466DB91C2000F038F87C
:100E0000102C07D2002221461C2000F045F806488D
:100E1000046000E00125284607B0F0BD0010024044
:100E200040420F00FC0200202800002008B500BF4F
:100E30000E48006E40F001000C4908660846006E3E
:100E400000F00100009000BF00BF00BF0846806DA9
:100E500040F0805088650846806D00F0805000901A
:100E600000BF00BF00F0F6F808BD0000001002400F
:100E70000146084600280DDB00BF00BF00F01F033D
:100E800001229A4043099B0003F1E023C3F80021AB
:100E900000BF00BF00BF70472DE9F05F80460D46E0
:100EA000164603F0A9F9074639462A46334601F0AB
:100EB0000700C0F1070ABAF1040F02D94FF0040A83
:100EC00001E0C0F1070AD14600F1040ABAF1070FA8
:100ED00002D24FF0000A01E0A0F1030AD4464FF01D
:100EE000010A0AFA09FAAAF1010A0AEA020A0AFA46
:100EF0000CFA4FF0010B0BFA0CFBABF1010B0BEAF8
:100F0000030B4AEA0B042146404603F07DF9BDE895
:100F1000F09F000000BF00F00702064B19684FF673
:100F2000FF031940044B0B4343EA0221014B1960B4
:100F300000BF70470CED00E00000FA0502468ABBD6
:100F40004148006800F4C060B0F5806F2BD13E4886
:100F50008030006820F480703B4BC3F88000184656
:100F6000006820F4C06040F40070186037480068E2
:100F700032235843364BB0FBF3F0411C00E0491ECE
:100F80003148406900F48060B0F5806F01D10029DC
:100F9000F5D12D48406900F48060B0F5806F51D1E3
:100FA0000320704708E028488030006820F48070F3
:100FB000254BC3F8800045E0B2F5007F3AD12248C6
:100FC000006800F4C060B0F5806F2AD11E48803000
:100FD000006840F480701C4BC3F88000184600681D
:100FE00020F4C06040F40070186018480068322394
:100FF0005843174BB0FBF3F0411C00E0491E124868
:10100000406900F48060B0F5806F01D10029F5D10E
:101010000D48406900F48060B0F5806F12D1032064
:10102000BFE709488030006840F48070064BC3F881
:10103000800007E00448006820F4C06040F480604D
:10104000014B18600020ACE7007000403000002029
:1010500040420F000348806840F4804001498860A6
:1010600070470000007000402DE9F8430446002757
:10107000B846206800F40020B0F5002F73D1B946BF
:10108000D348806D00F0805078B900BFD048806DA3
:1010900040F08050CE4988650846806D00F0805051
:1010A000009000BF00BF4FF00109CA48006840F43B
:1010B0008070C8490860FFF74BFE064606E0FFF760
:1010C00047FE801B022801D9032705E0C1480068BC
:1010D00000F480700028F2D000BF002F46D1BC4839
:1010E0009030006800F44075CDB1206CA84216D055
:1010F000B7489030006820F44075B548D0F89000AB
:1011000040F48030B249C1F890000846D0F8900011
:1011100020F48030C1F890000846C0F8905005F0E7
:101120000100A0B1FFF714FE064608E0FFF710FE2D
:10113000801B41F28831884201D9032706E0A44888
:101140009030006800F002000028EFD000BF5FB9C7
:101150009F489030006820F44070216C08439C49FF
:10116000C1F8900003E00CE0B84600E0B846B9F1E1
:10117000010F05D19648806D20F080509449886514
:1011800000BF207800F0010048B191488830006825
:1011900020F00300616808438D49C1F88800207879
:1011A00000F00200022809D189488830006820F048
:1011B0000C00A16808438649C1F88800207800F037
:1011C0000400042809D182488830006820F03000EB
:1011D000E16808437E49C1F88800207800F00800E3
:1011E000082809D17A488830006820F0C0002169B9
:1011F00008437749C1F88800207800F020002028B3
:1012000009D173488830006820F440606169084360
:101210006F49C1F88800207800F04000402809D1CB
:101220006B488830006820F44050A1690843684941
:10123000C1F88800207800F08000802809D1644837
:101240008830006820F44040E16908436049C1F8F3
:101250008800208800F48070B0F5807F09D15C4858
:101260008830006820F44030216A08435849C1F8AA
:101270008800208800F40070B0F5007F09D1544840
:101280008830006820F44020616A08435049C1F862
:101290008800208800F48060B0F5806F13D14C483E
:1012A0008830006820F44010A16A0843484988311A
:1012B0000860A06AB0F5801F05D14548C06840F4B9
:1012C00080104349C860208800F40060B0F5006FCA
:1012D00013D13F488830006820F44000E16A084399
:1012E0003B4988310860E06AB0F5800F05D1384885
:1012F000C06840F480103649C860208800F48050EF
:10130000B0F5805F13D132488830006820F040701B
:10131000216B08432E4988310860206BB0F1807F33
:1013200005D12B48C06840F480102949C860208846
:1013300000F40050B0F5005F13D1254888300068F4
:1013400020F04060616B0843214988310860606B80
:10135000B0F1006F05D11E48C06840F480101C49F0
:10136000C860208800F48040B0F5804F13D1184841
:101370008830006820F04060A16B08431449883130
:101380000860A06BB0F1006F05D11148C06840F44F
:1013900080100F49C860208800F40040B0F5004F6D
:1013A00013D10B488830006820F04050E16B0843AF
:1013B000074988310860E06BB0F1805F05D10448CF
:1013C000C06840F480300249C8604046BDE8F883F8
:1013D00000100240007000402DE9F04104460D4627
:1013E0004FF0000814B90120BDE8F0817D48006885
:1013F00000F00F00A8420ED27A48006820F00F00DB
:101400002843784908600846006800F00F00A842A9
:1014100001D00120E8E7207800F00100002864D026
:101420006068032823D17048006800F0007008B994
:101430000120D9E702F0D0F906466C48864237D938
:101440006948806800F0F00030B1207800F00200B8
:1014500002282DD1A06858BB6348806820F0F000B6
:1014600040F08000604988604FF0800820E06068AC
:10147000022806D15C48006800F4003040B9012021
:10148000B2E75948006800F4806008B90120ABE772
:1014900000F0EEF806465548864209D95248806861
:1014A00020F0F00040F080004F4988604FF0800845
:1014B0004D48806820F00300616808434A4988600D
:1014C000FFF746FC074608E0FFF742FCC01B41F26D
:1014D0008831884201D9032086E74348806800F0BC
:1014E0000C006168B0EB810FEED1207800F00200B3
:1014F000022820D1207800F00400042805D13A48C1
:10150000806840F4E06038498860207800F0080086
:10151000082807D13448806820F4605040F4E06027
:10152000314988603048806820F0F000A1680843A5
:101530002D49886008E0B8F1800F05D12A488068FD
:1015400020F0F000284988602648006800F00F006D
:10155000A84219D92348006820F00F0028432149E8
:101560000860FFF7F5FB074608E0FFF7F1FBC01B3B
:1015700041F28831884201D9032035E719480068D3
:1015800000F00F00A842F0D1207800F004000428F9
:1015900007D11548806820F4E060E16808431249EB
:1015A0008860207800F00800082808D10E4880687C
:1015B00020F46050216940EAC1000B49886000F0C6
:1015C00057F809498968C1F30311094A515C01F0D0
:1015D0001F01C8400749086007480068FFF7DAFBA9
:1015E00002E70000002002400010024000B4C404E2
:1015F0000C4B000830000020280000200F22026061
:101600000D4A926802F0030242600B4A926802F0AF
:10161000F0028260084A926802F4E062C260064A00
:10162000926802F46052D2080261044A126802F021
:101630000F020A60704700000010024000200240C4
:1016400001480068704700003000002000B5FFF737
:10165000F7FF05498968C1F30221044A515C01F092
:101660001F01C84000BD0000001002401C4B0008D4
:1016700070B5224DAD6805F00C05042D01D1204850
:101680003AE01E4DAD6805F00C05082D01D11C484F
:1016900032E01A4DAD6805F00C050C2D2BD1174D1D
:1016A000ED6805F00304154DED68C5F303156A1CDC
:1016B000022C0CD0032C09D1114DB5FBF2F50F4EC5
:1016C000F668C6F3062605FB06F10AE000BF0C4DDE
:1016D000B5FBF2F5094EF668C6F3062605FB06F1E2
:1016E00000BF00BF054DED68C5F341656D1C6B0083
:1016F000B1FBF3F000E0002070BD000000100240DC
:101700000024F4002DE9F843044614B90120BDE893
:10171000F883207800F00100002865D0FC4880683C
:1017200000F00C07FA48C06800F003060C2F01D146
:10173000032E01D0082F0AD1F548006800F40030CC
:10174000002851D0606800284ED10120DFE700BF9B
:101750006068B0F5803F06D1ED48006840F4803005
:10176000EB4908601AE06068B0F5A02F0BD1E8489B
:10177000006840F48020E64908600846006840F4AC
:10178000803008600AE0E248006820F48030E049D8
:1017900008600846006820F48020086000BF606888
:1017A00088B1FFF7D5FA054606E0FFF7D1FA401BEE
:1017B000642801D90320AAE7D548006800F4003066
:1017C0000028F2D010E0FFF7C3FA054606E0FFF765
:1017D000BFFA401B642801D9032098E7CC48006871
:1017E00000F400300028F2D1207800F00200022836
:1017F00060D1C748806800F00C07C548C06800F099
:1018000003060C2F01D1022E01D0042F18D1C0489D
:10181000006800F4806018B1E06808B9012076E73C
:10182000BB48406820F0FE40217C40EA0160B84996
:101830004860B8480068FFF7ADFA18B3012066E7C2
:10184000E06800B3B248006840F48070B0490860B6
:10185000FFF77EFA054606E0FFF77AFA401B0228FA
:1018600001D9032053E7AA48006800F480600028EB
:10187000F2D0A748406820F0FE40217C40EA016099
:10188000A349486016E0A248006820F48070A0498F
:101890000860FFF75DFA054606E0FFF759FA401BBE
:1018A000022801D9032032E79948006800F48060DB
:1018B0000028F2D1207800F00800082836D16069AD
:1018C000D0B193489430006840F001009049C1F8CD
:1018D0009400FFF73DFA054606E0FFF739FA401B92
:1018E000022801D9032012E789489430006800F0EB
:1018F00002000028F1D019E085489430006820F0FB
:1019000001008349C1F89400FFF722FA054606E07A
:10191000FFF71EFA401B022801D90320F7E67C4896
:101920009430006800F002000028F1D1207800F027
:101930000400042872D14FF000087548806D012121
:1019400021EA107078B100BF7148806D40F080507E
:101950006F4988650846806D00F08050009000BF98
:1019600000BF4FF001086C48006800F48070B0B907
:101970006948006840F4807067490860FFF7E8F93B
:10198000054606E0FFF7E4F9401B022801D90320D1
:10199000BDE66148006800F480700028F2D000BF06
:1019A000A068012808D15A489030006840F0010032
:1019B0005749C1F8900021E0A06805280FD154488C
:1019C0009030006840F004005149C1F8900008468A
:1019D000D0F8900040F00100C1F890000EE04C48B3
:1019E0009030006820F001004949C1F89000084695
:1019F000D0F8900020F00400C1F8900000BFA0686B
:101A0000A8B1FFF7A5F9054609E0FFF7A1F9401BCA
:101A100041F28831884202D9032078E625E03C482B
:101A20009030006800F002000028EED013E0FFF7CD
:101A30008FF9054608E0FFF78BF9401B41F288312A
:101A4000884201D9032062E631489030006800F0F6
:101A500002000028EFD1B8F1010F05D12C48806DAC
:101A600020F080502A49886500BF207800F02000CF
:101A7000202836D1A069D0B125489830006840F0C0
:101A800001002349C1F89800FFF762F9054606E016
:101A9000FFF75EF9401B022801D9032037E61C48F6
:101AA0009830006800F002000028F1D019E01848D2
:101AB0009830006820F001001549C1F89800FFF740
:101AC00047F9054606E0FFF743F9401B022801D914
:101AD00003201CE60E489830006800F00200002841
:101AE000F1D1E069002860D00948806800F00C005E
:101AF0000C287AD0E069022858D10548006820F007
:101B0000807003490860FFF723F905460DE00000E7
:101B1000001002402800002000700040FFF718F974
:101B2000401B022801D90320F1E54A48006800F073
:101B300000700028F2D1D4E90810401E41EA0011DB
:101B4000A06A41EA0021208E0122C2EB500041EA46
:101B500040513420005DC2EB500041EA40612C202E
:101B6000005D41EAC0603B49C9683B4A11400843F7
:101B70003849C8600846006840F080700860084630
:101B8000C06840F08070C860FFF7E2F8054606E0E4
:101B9000FFF7DEF8401B022801D90320B7E52D48E6
:101BA000006800F000700028F2D051E02948006879
:101BB00020F0807027490860FFF7CAF8054606E064
:101BC000FFF7C6F8401B022801D903209FE52148F2
:101BD000006800F000700028F2D11E48C0681F495C
:101BE00008401C49C86033E0FFE7E069012800D1E4
:101BF0008DE51848C66806F00301206A814225D1A8
:101C000006F0F001606A401EB1EB001F1ED106F421
:101C1000FE41A06AB1EB002F18D106F078412C20CC
:101C2000005DB1EBC06F11D106F4C001208E01221E
:101C3000C2EB5000B1EB405F08D106F0C061342028
:101C4000005DC2EB5000B1EB406F01D001205EE5BA
:101C500000205CE5001002400C809F01FCFFEEFEBE
:101C6000704770B504460CB9012070BD606A38B980
:101C70006068B0F5827F00D105E00021E16102E0FB
:101C80000021216161610021A16294F85D0028B901
:101C9000002084F85C00204600F062F8022084F8FE
:101CA0005D002068006820F0400021680860E0685E
:101CB000B0F5E06F01D9002501E04FF48055E068F0
:101CC000B0F5706F05D0E068B0F5E06F01D000218D
:101CD000A162A08800F48270218901F404410843C4
:101CE000217C01F002010843217D01F0010108433C
:101CF000218B01F400710843217F01F03801084372
:101D00002021095D01F080010843218D01F400517B
:101D10000843216808600421A06901EA104094F892
:101D2000241001F01001084394F8341001F0080168
:101D30000843A18901F47061084305F48051084308
:101D4000216848602068C06920F400602168C8618B
:101D500000202066012084F85D00002085E7000057
:101D600010B586B00446142101A8FEF758FA35498B
:101D70002068884263D100BF3348006E40F4805031
:101D8000314908660846006E00F48050009000BF9C
:101D900000BF00BF0846C06C40F00100C8640846A0
:101DA000C06C00F00100009000BF00BFE020019077
:101DB000022002900020039003200490052005904B
:101DC00001A94FF09040FEF7D7FE20482049086057
:101DD0000A20486000211E488160C16080210161A5
:101DE000002141618161C1614FF440510162FEF700
:101DF0002BFC08B1FEF709FB00BF1548A065846203
:101E000000BF12481430134908600B2048601021AD
:101E1000104881600021C160802101610021416181
:101E20008161C1614FF440510162FEF70DFC08B1C0
:101E3000FEF7EBFA00BF07486065846200BF06B09A
:101E400010BD0000003001400010024008000240B8
:101E5000A401002004020020704770472DE9F047DC
:101E600004460E4617461D4694F85D80D4F804904B
:101E7000B8F1010F0AD0B9F5827F04D1A06810B97A
:101E8000B8F1040F02D00220BDE8F0870EB107B10F
:101E90000DB90120F8E700BF94F85C00012801D1DA
:101EA0000220F1E7012084F85C0000BF94F85D0097
:101EB000042802D0052084F85D0000202066A66377
:101EC000A587E5872764A4F84450A4F84650E06449
:101ED00020652068406820F4C04021684860E068C0
:101EE000B0F5E06F06D92068406820F48050216882
:101EF00048604DE02068406840F4805021684860A8
:101F0000606D8069B0F5806F19D194F83C0000F0E5
:101F1000010048B92068406820F48040216848608A
:101F2000E08F4010E0870AE02068406840F480407D
:101F300021684860E08F012101EB6000E087A06D1F
:101F40008069B0F5806F23D12068406820F480500C
:101F500021684860B4F8460000F0010058B92068D4
:101F6000406820F4005021684860B4F846004010F2
:101F7000A4F846000CE02068406840F40050216856
:101F80004860B4F84600012101EB6000A4F8460067
:101F900094F85D00042806D13548A16D08633548E2
:101FA000A16DC86205E03448A16D08633348A16D96
:101FB000C8623348A16D48630020A16D8863B4F8FE
:101FC0004630D4F800C00CF10C01226CA06DFEF775
:101FD000A3FB50B1206E40F01000206600BF00202F
:101FE00084F85C0000BF01204EE72068406840F0A4
:101FF0000100216848600020616D0863616DC8625E
:10200000616D4863616D8863E38FD4F800C00CF1A3
:102010000C02A16B606DFEF77FFB50B1206E40F0AB
:102020001000206600BF002084F85C0000BF012083
:102030002AE72068006800F04000402805D02068AA
:10204000006840F040002168086000BF002084F86C
:102050005C0000BF2068406840F0200021684860B4
:102060002068406840F002002168486000200BE7CB
:10207000653800088138000873380008FD3800080A
:102080003D38000870477047704770477047000040
:1020900010B50346002200BF93F83C00012801D18F
:1020A000022010BD012083F83C0000BF22F0FF0099
:1020B000CC6840EA040222F440708C6840EA0402D2
:1020C00022F480604C6840EA040222F400600C684C
:1020D00040EA040222F480500C6940EA040222F42F
:1020E00000504C6940EA040222F480400C6B40EA44
:1020F000040222F470200C8B40EA044222F080504B
:10210000CC6940EA0402124C1868A04203D0114C7A
:102110001868A04213D122F470000C8D40EA0452DA
:1021200022F080700C6A40EA040222F000704C6ACF
:1021300040EA040222F00050CC6A40EA0402186827
:10214000426400BF002083F83C0000BF00BFA8E746
:10215000002C014000340140704770477047000078
:1021600030B502460B4600BF92F83C00012801D171
:10217000022030BD012082F83C0000BF022082F81E
:102180003D0010684168106884681D4D1068A842C1
:1021900003D01C4D1068A84203D121F47001586887
:1021A0000143194801401868014310684160144D0B
:1021B0001068A84213D01068B0F1804F0FD0134DB3
:1021C0001068A8420BD0124D1068A84207D00D4DE0
:1021D0001068A84203D00F4D1068A84205D124F022
:1021E00080049868044310688460012082F83D00F0
:1021F00000BF002082F83C0000BF00BFB9E700002C
:10220000002C0140003401408FFFFFFD000400401E
:102210000008004000400140704710B504460CB96A
:10222000012010BD94F83D0028B9002084F83C003E
:10223000204600F029F8022084F83D00211D206886
:1022400001F03CFD012084F8480000BF84F83E0006
:1022500001213F20015540200155412001554220D8
:1022600001554320015500BF00BF012084F8440000
:1022700045200155462001554720015500BF01204A
:1022800084F83D000020CCE738B504460D492068AD
:10229000884215D100BF0C48806D40F002000A4909
:1022A00088650846806D00F00200009000BF00BF06
:1022B000002211461D20FEF7EFFD1D20FEF7D8FD80
:1022C00038BD00000004004000100240014691F8B3
:1022D0003D00012801D001207047022081F83D0017
:1022E0000868C06840F001000B68D860184B0868A7
:1022F000984213D00868B0F1804F0FD0154B086892
:1023000098420BD0144B0868984207D0134B0868CA
:10231000984203D0124B0868984210D10868806830
:10232000104B00EA0302062A0FD0B2F5803F0CD012
:102330000868006840F001000B68186005E0086854
:10234000006840F001000B6818600020C4E700003E
:10235000002C01400004004000080040003401400F
:1023600000400140070001002DE9F04104460D4600
:10237000002700BF94F83C00012802D10220BDE8EC
:10238000F081012084F83C0000BF022084F83D0069
:10239000206886683F48064026F47F4620688660AD
:1023A0002868702824D00CDC00F00F01002964D1CB
:1023B0000011072861D2DFE800F053545556493523
:1023C0003F00354A811A90424FD009DCB0F5805F5A
:1023D0000DD0B0F5005F18D0B0F1101F4DD143E023
:1023E000102943D0202942D0502946D140E046E070
:1023F000D5E902136A68206801F0D7FC2068866876
:1024000046F077062068866039E0D5E902136A68ED
:10241000206801F0CAFC2068806840F48040216890
:1024200088602CE0EA686968206801F0A9FE502104
:10243000206801F0C5FC22E0EA686968206801F0C4
:10244000B2FE6021206801F0BBFC18E0EA68696810
:10245000206801F095FE4021206801F0B1FC0EE0FB
:1024600000BF00BF00BF00BF00BF00BF00BF00BF74
:102470002968206801F0A4FC01E0012700BF00BF2B
:10248000012084F83D0000BF002084F83C0000BF1C
:10249000384674E788FFCEFF20001000704770B503
:1024A00004462068C6682068056905F00200022815
:1024B00019D106F00200022815D1401F21680861D9
:1024C000012020772068806900F0030018B12046C1
:1024D000FFF7E4FF05E0204600F020F9204600F079
:1024E00025FA0020207705F00400042819D106F011
:1024F0000400042815D1C043216808610220207718
:102500002068806900F4407018B12046FFF7C6FFCC
:1025100005E0204600F002F9204600F007FA00200E
:10252000207705F00800082819D106F008000828CF
:1025300015D1C04321680861042020772068C06954
:1025400000F0030018B12046FFF7A8FF05E0204681
:1025500000F0E4F8204600F0E9F90020207705F0CB
:102560001000102819D106F01000102815D1C04312
:1025700021680861082020772068C06900F4407055
:1025800018B12046FFF78AFF05E0204600F0C6F8A4
:10259000204600F0CBF90020207705F0010048B17B
:1025A00006F0010030B16FF001002168086120469B
:1025B00000F064FA05F08000802804D005F4005093
:1025C000B0F5005F0AD106F08000802806D16FF4D4
:1025D0000250216808612046FFF757FD05F480701E
:1025E000B0F5807F0AD106F08000802806D16FF414
:1025F0008070216808612046FFF746FD05F0400025
:10260000402809D106F04000402805D1C043216888
:102610000861204600F05AFA05F02000202809D170
:1026200006F02000202805D1C0432168086120461B
:10263000FFF72CFD05F48010B0F5801F0BD106F4D8
:102640008010B0F5801F06D16FF4801021680861FA
:102650002046FFF782FD05F40010B0F5001F0BD1F6
:1026600006F40010B0F5001F06D16FF400102168C9
:1026700008612046FFF770FD05F48000B0F5800F7B
:102680000BD106F48000B0F5800F06D16FF4800006
:10269000216808612046FFF761FD05F40000B0F5F0
:1026A000000F0BD106F40000B0F5000F06D16FF457
:1026B0000000216808612046FFF7AEFD70BD0000F4
:1026C00010B586B00446142101A8FDF7A8FD1149F4
:1026D000206888421BD100BF0F48C06C40F0010049
:1026E0000D49C8640846C06C00F00100009000BFAE
:1026F00000BF8815019002200290002003900490F2
:102700000620059001A94FF09040FEF735FA06B07B
:1027100010BD0000002C01400010024070472DE960
:10272000F04104460D461646002700BF94F83C00D1
:10273000012802D10220BDE8F081012084F83C008C
:1027400000BF0C2E51D005DC4EB1042E1ED0082E39
:102750007AD133E0102E60D0142EF9D175E02946DD
:10276000206801F039FB2068806940F0080021688A
:1027700088612068806920F00400216888612068F1
:102780008069296908432168886178E029462068C2
:1027900001F078FB2068806940F40060216888615E
:1027A0002068806920F480602168886120688069E1
:1027B000296940EA01202168886160E02946206893
:1027C00001F0BAFB2068C06940F008002168C861C8
:1027D0002068C06920F004002168C8612068C069D1
:1027E000296908432168C86149E02946206801F049
:1027F000FDFB2068C06940F400602168C861206862
:10280000C06920F480602168C8612068C0692969B6
:1028100040EA01202168C86131E02946206801F0C2
:102820003FFC2068006D40F00800216808652068C2
:10283000006D20F00400216808652068006D29699A
:102840000843216808651AE017E02946206801F06E
:102850005FFC2068006D40F4006021680865206816
:10286000006D20F48060216808652068006D29698A
:1028700040EA01202168086501E0012700BF00BF90
:1028800000BF002084F83C0000BF384653E710B575
:1028900004460CB9012010BD94F83D0028B9002071
:1028A00084F83C00204600F029F8022084F83D001E
:1028B000211D206801F002FA012084F8480000BFC1
:1028C00084F83E0001213F20015540200155412060
:1028D0000155422001554320015500BF00BF012092
:1028E00084F84400452001554620015547200155F4
:1028F00000BF012084F83D000020CCE708B5094A5C
:10290000016891420DD100BF0749096E41F4006191
:10291000054A11661146096E01F40061009100BF7D
:1029200000BF08BD002C01400010024070470000AD
:1029300070B504460D4615B994F83E0015E0042D17
:1029400002D13F20005D10E0082D02D14020005D43
:102950000BE00C2D02D14120005D06E0102D02D1CC
:102960004220005D01E04320005D012801D00120EC
:1029700070BD1DB9022084F83E001AE0042D03D179
:1029800002213F20015514E0082D03D102214020EF
:1029900001550EE00C2D03D102214120015508E024
:1029A000102D03D102214220015502E002214320D3
:1029B000015501222946206801F0E6F927492068DF
:1029C00088420FD02649206888420BD025492068CC
:1029D000884207D024492068884203D023492068D0
:1029E000884201D1012000E0002028B12068406C1D
:1029F00040F400402168486418492068884213D098
:102A00002068B0F1804F0FD01949206888420BD060
:102A100018492068884207D011492068884203D0AD
:102A200010492068884210D120688068124900EA65
:102A30000106062E0FD0B6F5803F0CD02068006846
:102A400040F001002168086005E02068006840F05F
:102A500001002168086000208AE70000002C014086
:102A60000034014000400140004401400048014062
:102A700000040040000800400700010010B50446B3
:102A80002068B0F1804F01D1FEF768F90A4920684B
:102A9000884210D10948FDF75DFC094880ED000A25
:102AA000084A0121084801F0FBFE064A08320221CB
:102AB000054801F0F5FE10BD0004004000000020B4
:102AC00004000020040E0020DC000020704700BF3E
:102AD000FEE700001D4991ED001ADFED1D1A81EEA1
:102AE000812AB0EE420A90ED031A21EE001A80ED21
:102AF000001A90ED041A21EE001A80ED011A90EDF3
:102B0000051A21EE001A80ED021A1249D1ED001AC1
:102B1000B7EE002A82EE211ADFED0F1A21EE211AFC
:102B2000F0EE410A90ED091A21EE201A80ED061A06
:102B300090ED0A1A21EE201A80ED071A90ED0B1A7B
:102B400021EE201A80ED081A704700003C0000209A
:102B5000C3F51C414000002035FA8E3C10B5002220
:102B600010214FF09040FEF7EDF8FE49752000F07F
:102B70002AFA012210214FF09040FEF7E3F80022DC
:102B800010214FF09040FEF7DDF8F52000F028FA14
:102B90000122F449752000F003FA012210214FF0C0
:102BA0009040FEF7CFF8002210214FF09040FEF742
:102BB000C9F8EC49752000F006FA012210214FF007
:102BC0009040FEF7BFF8002210214FF09040FEF732
:102BD000B9F80021762000F011FA012210214FF0FF
:102BE0009040FEF7AFF8002210214FF09040FEF722
:102BF000A9F80121762000F001FA012210214FF0FE
:102C00009040FEF79FF86420FDF7E8FDD548007876
:102C100047287CD1002210214FF09040FEF792F817
:102C20000121762000F0EAF9012210214FF09040B6
:102C3000FEF788F8002210214FF09040FEF782F84E
:102C400002217A2000F0DAF9012210214FF09040A1
:102C5000FEF778F8002210214FF09040FEF772F84E
:102C60000021762000F0CAF9012210214FF0904097
:102C7000FEF768F8002210214FF09040FEF762F84E
:102C80004021162000F0BAF9012210214FF09040A7
:102C9000FEF758F8002210214FF09040FEF752F84E
:102CA000B049652000F08FF9012210214FF09040CB
:102CB000FEF748F8002210214FF09040FEF742F84E
:102CC0000021652000F09AF9012210214FF0904078
:102CD000FEF738F8002210214FF09040FEF732F84E
:102CE0000021602000F08AF9012210214FF090406D
:102CF000FEF728F8002210214FF09040FEF722F84E
:102D00000221612000F07AF90122102100E041E166
:102D10004FF09040FEF716F8002210214FF090403F
:102D2000FEF710F88F480178652000F067F901225E
:102D300010214FF09040FEF705F8002210214FF0CF
:102D40009040FDF7FFFF63215F2000F057F901225B
:102D500010214FF09040FDF7F5FF002210214FF0B9
:102D60009040FDF7EFFF0021762000F047F90122A7
:102D700010214FF09040FDF7E5FF002210214FF0A9
:102D80009040FDF7DFFF3621142000F037F90122D3
:102D900010214FF09040FDF7D5FF002210214FF099
:102DA0009040FDF7CFFF0021762000F027F90122A7
:102DB00010214FF09040FDF7C5FF002210214FF089
:102DC0009040FDF7BFFF6749652000F0FCF8012245
:102DD00010214FF09040FDF7B5FF6248007840F0B9
:102DE000040060490870002210214FF09040FDF768
:102DF000A9FF5C480178652000F000F9012210214C
:102E00004FF09040FDF79EFF002001F019FC0022DA
:102E100010214FF09040FDF795FF0021762000F043
:102E2000EDF8012210214FF09040FDF78BFF0022BA
:102E300010214FF09040FDF785FF4A49502000F0E7
:102E4000C2F8012210214FF09040FDF77BFF45486A
:102E50000078444908700846007840F00600087081
:102E6000002210214FF09040FDF76CFF3D480178A3
:102E7000502000F0C3F8012210214FF09040FDF7E0
:102E800061FF002001F00AFC002210214FF0904069
:102E9000FDF758FF0021762000F0B0F80122102144
:102EA0004FF09040FDF74EFF002210214FF0904070
:102EB000FDF748FF2B494F2000F085F80122102133
:102EC0004FF09040FDF73EFF2648007825490870F6
:102ED0000846007840F006000870002210214FF0EC
:102EE0009040FDF72FFF1F4801784F2000F086F833
:102EF000012210214FF09040FDF724FF0022102105
:102F00004FF09040FDF71EFF0021762000F076F88C
:102F1000012210214FF09040FDF714FF00221021F4
:102F20004FF09040FDF70EFF0E494E2000F04BF899
:102F3000012210214FF09040FDF704FF094800786E
:102F400020F02000074908700846007840F00C0087
:102F500008700846007840F0030008700022102135
:102F600002E00000340000204FF09040FDF7EAFE40
:102F7000094801784E2000F041F8012210214FF05D
:102F80009040FDF7DFFE0120FDF728FC01200349FA
:102F9000087010BD0020FCE7340000203500002040
:102FA0002DE9F04107460C461546002600BF06E015
:102FB000207800F015F82070641C701CC6B2AE4278
:102FC000F6DBBDE8F08170B504460D46FF2644F0FF
:102FD000800000F005F8304600F002F8287070BD5F
:102FE00001B582B0012301AA02A90348FEF736FF0A
:102FF0009DF804000EBD00004001002070B505469C
:103000000C462846FFF7ECFF2046FFF7E9FF70BDAE
:1030100008B500BF1548806C40F00400134988646F
:103020000846806C00F00400009000BF00BF00BFA5
:103030000846806C40F0010088640846806C00F00F
:103040000100009000BF00BF002211460B20FDF7D9
:1030500023FF0B20FDF70CFF002211460C20FDF78B
:103060001BFF0C20FDF704FF08BD0000001002400C
:1030700010B512481249086000204860002110482D
:103080008160C160012101740021417401218174BA
:103090000A214161012181610821C161016201218F
:1030A00041628162C1620163002141638163C16346
:1030B000FDF7DEFB08B1FDF7A8F910BD0064004084
:1030C000DC00002000B587B0142102A8FDF7A7F8A6
:1030D00000BF2748C06C40F020002549C86408465E
:1030E000C06C00F02000019000BF00BF00BF084688
:1030F000C06C40F00100C8640846C06C00F00100DC
:10310000019000BF00BF00BF0846C06C40F0020045
:10311000C8640846C06C00F00200019000BF00BF08
:10312000012210214FF09040FDF70CFE00224FF4D9
:1031300080511048FDF706FE1020029001200390F8
:1031400004900220059002A94FF09040FDF714FD75
:103150004FF4805002900120039002200490002040
:10316000059002A90348FDF707FD07B000BD000068
:10317000001002400004004810B5124812490860CF
:103180004FF48270486000210F4881604FF4E06185
:10319000C1600021016141614FF40071816118211A
:1031A000C16100210162416281620721C162002187
:1031B000016308214163FEF754FD08B1FDF725F9CD
:1031C00010BD0000003001404001002000B597B064
:1031D00000201490159016901C210DA8FDF71FF8E3
:1031E00034216846FDF71BF827482849086053201A
:1031F000486000212548816040F2CF71C160002104
:10320000016141618161FFF742FB08B1FDF7FDF803
:10321000002014901590169014A91C48FEF7A0FFEA
:1032200008B1FDF7F2F860200D9000200E900F908D
:10323000109011901290139000220DA91348FFF7DF
:103240006EFA08B1FDF7E1F80020009001900290BD
:10325000039004904FF400500590002006900790D2
:1032600008904FF00070099000200A900B900C908D
:1032700069460648FEF70CFF08B1FDF7C6F803489B
:10328000FFF71EFA17B000BD002C014064020020B9
:1032900000B587B000200390049005900690009040
:1032A00001900290144815490860A9204860002147
:1032B0001248816040F2E731C16000210161802144
:1032C0008161FEF7AAFF08B1FDF79FF84FF4805027
:1032D000039003A90948FFF747F808B1FDF795F8EF
:1032E00000200090029069460448FEF739FF08B1BB
:1032F000FDF78BF807B000BD00040040B0020020CD
:103300002DE9F04104460D4616461F4694ED032A6A
:10331000F0EE421A94ED022AB0EE421A94ED012A20
:10332000F0EE420A94ED002AB0EE420A3A463146E7
:10333000284600F0D9F9BDE8F0810000F7EE001A48
:10334000C0ED001ADFED0B1AC0ED031AC0ED021A32
:10335000C0ED011ADFED071AC0ED061AC0ED051A1F
:10336000C0ED041AC0ED070A80ED081A80ED090AC5
:10337000704700000000000010B52DED108B82B0EA
:103380000446B0EE408AF0EE608AB0EE419AF0EE6C
:1033900061AAF0EE429AB0EE62AA6AEEAA0A49EE7B
:1033A000A90A4AEE0A0AB0EE600A01F0FFF8F7EE49
:1033B000000A80EE801AB0EE41DA2AEE8D0AF0EEB5
:1033C00040AA29EE8D0AF0EE409A2AEE0D0AB0EEE0
:1033D00040AA94ED010AD4ED030A20EE200AD4EDB0
:1033E000000A94ED021A00EEC10AF0EE40DA94ED04
:1033F000000AD4ED010A20EE200AD4ED020A94ED71
:10340000031A00EE810AB0EE40EAD4ED000A94ED12
:10341000001AB6EE000A10EE810AD4ED030A94ED0C
:10342000031A00EE810AF0EE40EA29EEAE0A0AEE37
:103430004E0AB0EE40FA2AEE2D0A0AEEEE0AF0EE3F
:1034400040FA2AEE8E0A09EEED0A8DED010A94ED9E
:10345000080AB5EEC00AF1EE10FA43DD94ED090A50
:10346000B7EE001AC1EE000A94ED040A94ED081AB2
:1034700021EE0F1A01EE200A84ED040A94ED090AE8
:10348000B7EE001AC1EE000A94ED050A94ED081A91
:1034900021EE2F1A01EE200A84ED050A94ED090AA7
:1034A000F7EE000A80EE801A94ED060AD4ED081AB1
:1034B000DDED010A61EEA00A00EE810A84ED060A44
:1034C00094ED040A30EE080AB0EE408A94ED050A45
:1034D00030EE280AF0EE408A94ED060A30EE090A32
:1034E000B0EE409AD4ED070AB0EE480A00EE8F0A1B
:1034F000B0EE408AD4ED070AB0EE680A00EEAF0ADB
:10350000F0EE408A94ED071A9DED010AF0EE490AAB
:1035100041EE000AB0EE609A94ED090AF7EE000A57
:10352000C0EE80CAB6EE000A2CEE800A20EE080A31
:10353000B0EE408AB6EE000A2CEE800A20EE280A91
:10354000F0EE408AB6EE000A2CEE800A20EE090A60
:10355000B0EE409A94ED00BAD4ED01BA94ED02CAEF
:10356000B1EE6B0A20EE080A0CEE680AD4ED030AED
:1035700000EEC90AD4ED000A30EE200A84ED000AFC
:103580002BEE080A0CEE090AD4ED030A00EEE80A55
:10359000D4ED010A30EE200A84ED010A2BEE280A50
:1035A0000BEEC90AD4ED030A00EE880AD4ED020A34
:1035B00030EE200A84ED020A2BEE090A0BEEA80A6F
:1035C0000CEE480AD4ED030A30EE200A84ED030A1B
:1035D00004F10C031A1F211D204600F033F802B03D
:1035E000BDEC108B10BD00BFFEE700BFFEE7000082
:1035F0002DE9F0412DED048B04460D4616461F467D
:10360000B0EE408AF0EE608AB0EE419A0A48A066B9
:103610000A48E066B0EE491AF0EE680AB0EE480AD1
:103620003B46324629462046D4F868C0E047BDEC08
:10363000048BBDE8F08100009D4A0008B14A0008F3
:10364000704700002DE9F0412DED028B07460C4636
:1036500015461E46D7ED000A60EEA00A94ED001A4A
:10366000D4ED001A41EE210A95ED001AD5ED001AAD
:1036700041EE210A96ED001AD6ED001A41EE210A1C
:10368000B0EE600A00F092FFB0EE408A9FED150A9E
:10369000B4EEC08AF1EE10FA03D2BDEC028BBDE8A5
:1036A000F081B7EE000AC0EE080AB0EE608A97ED2E
:1036B000000A20EE080A87ED000A94ED000A20EEC9
:1036C000080A84ED000A95ED000A20EE080A85ED4F
:1036D000000A96ED000A20EE080A86ED000A00BFF7
:1036E000DBE70000BD37863570B52DED0A8B82B063
:1036F000B0EE40AAF0EE609AB0EE418AF0EE618A38
:1037000005460C4616462AEE290A08EE280AF0EE6F
:10371000000A20EE200AF0EE40BA29EEA90A08EECF
:10372000080AF7EE000AB0EE001A41EE400AB0EEC9
:1037300060CAF0EE4C0AB0EE6B0A00F00FFE85EDA9
:10374000000A2AEE080A08EEE90AF0EE000A20EE66
:10375000200AB0EE409AB0EEC90AF7EE000AB4EEC5
:10376000E00AF1EE10FA0FDB9FED1A0A8DED010A67
:1037700019EE100A0246019961F31E0201929DEDB5
:10378000010A84ED000A05E0B0EE490A00F050FDA0
:1037900084ED000A2AEE280A09EE880AF0EE000AF3
:1037A00060EE20AA28EE080A08EEA80AF7EE000A42
:1037B000B0EE001AB0EE60BA01EE40BAF0EE4B0A7D
:1037C000B0EE6A0A00F0CAFD86ED000A02B0BDEC58
:1037D0000A8B70BDDB0FC93F70B5164DED6805F063
:1037E0000304144DED68C5F303156B1C022C0CD0BB
:1037F000032C09D1104DB5FBF3F50E4EF668C6F358
:10380000062605FB06F10AE000BF0B4DB5FBF3F5FC
:10381000084EF668C6F3062605FB06F100BF00BF9A
:10382000044DED68C5F341656D1C6A00B1FBF2F013
:1038300070BD0000001002400024F40070B5054681
:10384000AC6A2068406820F0030021684860206E60
:1038500040F010002066012084F85D002046FEF74D
:10386000FFF970BD70B50446A56A2846FEF7F5FA63
:1038700070BD70B50446A56A2846FEF704FC70BD0D
:1038800070B50546AC6AFDF763FA0646286800681D
:1038900000F0200020282CD02068406820F0200074
:1038A00021684860A06850B96068B0F5827F06D191
:1038B0002068406820F003002168486005E0206827
:1038C000406820F0010021684860324664212046AB
:1038D00000F048F808B1202020660020A4F8460037
:1038E000012084F85D00206E18B12046FEF7B8F97B
:1038F00070BD2046FEF7B0FA00BFF9E770B5054687
:10390000AC6AFDF725FA06462868006800F020003A
:10391000202822D02068406820F0200021684860DC
:1039200032466421204600F05EF818B1206E40F067
:10393000200020662068406820F00300216848606D
:103940000020E087A4F84600012084F85D00206E86
:1039500018B12046FEF784F970BD2046FEF792FBB1
:1039600000BFF9E7F8B504460E4615466068B0F5A5
:10397000827F0DD1A068B0F5004F03D0A068B0F5EC
:10398000806F05D12068006820F040002168086041
:103990003346002280212046009500F0D3F828B15C
:1039A000206E40F0200020660320F8BD6068B0F56E
:1039B000827F16D1A068B0F5004F03D0A068B0F5A3
:1039C000806F0ED1334600224FF4C061204600952F
:1039D00000F03CF828B1206E40F020002066032063
:1039E000E3E70020E1E7F8B504460E461546334606
:1039F00000224FF4C0512046009500F027F828B16E
:103A0000206E40F0200020660320F8BD33460022DF
:103A100080212046009500F095F828B1206E40F0F6
:103A2000200020660320F0E7334600224FF4C061F7
:103A30002046009500F00AF828B1206E40F02000E2
:103A400020660320E1E70020DFE700002DE9FC5FAE
:103A500004460D4616461F46DDF8309000200090C3
:103A6000FDF776F9A0EB0900A7EB0008FDF770F968
:103A70008246206800F10C0B31480068C0EBC000A2
:103A800000EB8000000D00FB08F0019050E0B5F560
:103A9000C06F05D126B99BF8000000909DF800008A
:103AA000781C002844D0FDF753F9A0EB0A004045EC
:103AB00002D2B8F1000F34D12068406820F0E00055
:103AC000216848606068B0F5827F0DD1A068B0F5CC
:103AD000004F03D0A068B0F5806F05D12068006862
:103AE00020F0400021680860A06AB0F5005F0DD1A9
:103AF00000BF2068006820F400502168086020683A
:103B0000006840F400502168086000BF012084F87C
:103B10005D0000BF002084F85C0000BF0320BDE80A
:103B2000FC9F019808B94FF000080198401E0190D1
:103B3000206880682840B042A9D10020EFE700004B
:103B4000300000202DE9F84F04460D4690461E46F1
:103B5000DDF82890FDF7FCF8A0EB0900371AFDF717
:103B6000F7F882462C480068C0F3CB3078430090C9
:103B700045E0701C002842D0FDF7EAF8A0EB0A00EF
:103B8000B84200D2A7BB2068406820F0E00021685E
:103B900048606068B0F5827F0DD1A068B0F5004F35
:103BA00003D0A068B0F5806F05D12068006820F0D0
:103BB000400021680860A06AB0F5005F0DD100BF29
:103BC0002068006820F400502168086020680068C0
:103BD00040F400502168086000BF012084F85D00B7
:103BE00000BF002084F85C0000BF0320BDE8F88F10
:103BF000FFE7009800B900270098401E0090206859
:103C000080682840A84201D1012000E00020404502
:103C1000AFD10020EAE70000300000207047704775
:103C200000B593B0382105A8FCF7F9FA14216846CD
:103C3000FCF7F5FA0020FDF781F90120059000045A
:103C4000069002200C9003210D9104210E91552124
:103C50000F91022110911191129105A8FDF752FDCB
:103C600008B1FCF7D2FB0F20009003200190002048
:103C700002900390049004216846FDF7ADFB08B163
:103C8000FCF7C3FB13B000BD0348006840F47000AC
:103C9000014908607047000088ED00E010B5024857
:103CA000FEF7FDFB10BD0000FC02002010B502482D
:103CB000FEF7F5FB10BD0000B002002010B5026851
:103CC0002A4B98420BD0B0F1804F08D0284B984235
:103CD00005D0284B984202D0274B984203D122F0BE
:103CE00070024B681A43214B984214D0B0F1804FB8
:103CF00011D01F4B98420ED01E4B98420BD01E4B3A
:103D0000984208D01D4B984205D01D4B984202D0D6
:103D10001C4B984203D122F44072CB681A4322F024
:103D200080034C6943EA040202608B68C3620B683B
:103D300083620E4B98420BD00F4B984208D00F4B2A
:103D4000984205D00E4B984202D00E4B984201D1BA
:103D50000B69036301234361036903F001031BB192
:103D6000036923F00103036110BD0000002C014032
:103D700000040040000800400034014000400140C1
:103D8000004401400048014030B501F01F05012406
:103D900004FA05F3046A9C430462046A01F01F05F7
:103DA00002FA05F52C43046230BD30B50C4681683B
:103DB00021F47F4142EA032525432943816030BD38
:103DC0000A468168034B194042F00703194381609A
:103DD000704700008FFFCFFF30B5026A056A25F0FB
:103DE0000105056243688469204D2C4024F00304DA
:103DF0000D682C4322F002028D682A431C4DA84214
:103E000000D10FE01B4DA84200D10BE01A4DA84293
:103E100000D107E0194DA84200D103E0184DA84297
:103E200006D100BF22F00802CD682A4322F0040226
:103E30000F4DA8420BD00F4DA84208D00E4DA842FE
:103E400005D00E4DA84202D00D4DA84207D123F453
:103E5000807323F400734D692B438D692B434360BA
:103E600084614D684563026230BD00008FFFFEFF34
:103E7000002C01400034014000400140004401405A
:103E80000048014030B5026A056A25F01005056258
:103E900043688469224D2C4024F440740D6844EA40
:103EA000052422F020028D6842EA05121D4DA84229
:103EB00000D10FE01C4DA84200D10BE01B4DA842E1
:103EC00000D100BF1A4DA84200D100BF194DA84231
:103ED00007D106E022F08002CD6842EA051222F006
:103EE0004002104DA8420BD00F4DA84208D00F4DF4
:103EF000A84205D00E4DA84202D00E4DA84209D1CD
:103F000023F4806323F400634D6943EA85038D69DC
:103F100043EA8503436084614D688563026230BD76
:103F2000FF8FFFFE002C01400034014000400140A3
:103F3000004401400048014030B5026A056A25F49A
:103F4000807505624368C469224D2C4024F0030447
:103F50000D682C4322F400728D6842EA05221E4D42
:103F6000A84200D10FE01D4DA84200D10BE01C4D2E
:103F7000A84200D100BF1B4DA84200D100BF1A4D7E
:103F8000A84207D106E022F40062CD6842EA052289
:103F900022F48062104DA8420BD0104DA84208D0E8
:103FA0000F4DA84205D00F4DA84202D00E4DA84299
:103FB00009D123F4805323F400534D6943EA0513D8
:103FC0008D6943EA05134360C4614D68C5630262AD
:103FD00030BD00008FFFFEFF002C01400034014087
:103FE00000400140004401400048014030B5026AF1
:103FF000056A25F4805505624368C469224D2C404A
:1040000024F440740D6844EA052422F400528D68BB
:1040100042EA05321D4DA84200D10FE01C4DA842D6
:1040200000D10BE01B4DA84200D100BF1A4DA842A1
:1040300000D100BF194DA84207D106E022F400428A
:10404000CD6842EA053222F48042104DA8420BD0DE
:104050000F4DA84208D00F4DA84205D00E4DA842E2
:1040600002D00E4DA84209D123F4804323F400432B
:104070004D6943EA85138D6943EA85134360C46142
:104080004D680564026230BDFF8FFFFE002C0140C9
:10409000003401400040014000440140004801401C
:1040A00030B5026A056A25F4803505624368046DFF
:1040B000114D2C400D682C4322F400320D8942EA48
:1040C00005420E4DA8420BD00D4DA84208D00D4D13
:1040D000A84205D00C4DA84202D00C4DA84204D1F4
:1040E00023F480334D6943EA0523436004654D683A
:1040F0008564026230BD00008FFFFEFF002C01408E
:1041000000340140004001400044014000480140AB
:1041100030B5026A056A25F4801505624368046DAE
:10412000114D2C400D6844EA052422F400120D893B
:1041300042EA05520D4DA8420BD00D4DA84208D0C1
:104140000C4DA84205D00C4DA84202D00B4DA84200
:1041500004D123F480234D6943EA85234360046539
:104160004D68C564026230BDFF8FFFFE002C014028
:10417000003401400040014000440140004801403B
:1041800030B50B461446026A056A25F00105056242
:10419000816921F0F00141EA041122F00A021A4378
:1041A0008161026230BD30B50B461446026A056A71
:1041B00025F010050562816921F4704141EA04315E
:1041C00022F0A00242EA03128161026230BD00BF08
:1041D000FEE74100080218BF04200A0E18BF40F095
:1041E00001004FF07F4232EA010108BF40F00200B7
:1041F000012808BF0520704702480068C0F302206C
:10420000704700000CED00E010B5002804DB0A0741
:10421000130E054A135406E00A07140E034A00F071
:104220000F031B1FD45410BD00E400E018ED00E0A4
:1042300010B54FF00E402DED028BB0EE408A18EE17
:10424000104A00EB4400B0F1506F4AD84FF0FC40E8
:10425000B0EB440F22D2B0EEC80AF7EE000A30EEFF
:10426000C00AF6EE000A60EE208A18EE900A00F00E
:1042700026FC01EE100A14F0004F1DBFDFED2D0AE1
:104280009FED2D0AB1EE411ADFED2C0A08BF9FED1C
:104290002C0AF8EE001A21EE218A05E0DFED290A4A
:1042A00068EE088AB0EE600A9FED271ADFED271A44
:1042B00030EE080A48EE811A9FED251A08EEA11A81
:1042C000DFED241A48EE811A9FED231A08EEA11A99
:1042D00068EE281ABDEC028B01EE810A30EE200A4E
:1042E00010BD4FF0E440B0EB440F0CD918EE100AAB
:1042F000FFF76FFF042808BF00F084F9B0EE480A0A
:10430000BDEC028B10BD4FF07F40B0EB440F07D2E5
:10431000B0EE480ABDEC028BBDE8104000F063B976
:10432000012000F087F9BDEC028BBDE8104000F0E1
:1043300061B900000000C9BF22AAFDB90000C93F51
:1043400022AAFD390000000024FE1C3DC78AD83C8B
:104350001E67383D1B93993DAFAA2A3E10EE100A06
:1043600010B510EE901A4FF0684202EB40032DEDAD
:10437000028BB3F1654F3CBF02EB4102B2F1654FD6
:104380007CD200BFC0F3C753C1F3C7529A1A1B2A8D
:1043900009DD10F0004F14BF9FED6E0A9FED6E0A0D
:1043A000BDEC028B10BD12F11A0F1BDA11F0004F99
:1043B00009D010F0004F0CBF9FED680A9FED680A0E
:1043C000BDEC028B10BD80EE208A18EE100AFFF7BC
:1043D00000FF042808BF00F015F9B0EE480ABDEC54
:1043E000028B10BD4200B2EB410F37D910F0004FE5
:1043F00019BFDFED5C1A9FED5C1ADFED5C1A9FEDD3
:104400005C1AB0EE602A0A46F1EE400A80F00041E4
:10441000B0EE420A10460A1A5200B2F1807F34D23E
:10442000484010F0004FDFED532A9FED533A1DBF77
:10443000BEEE002A71EEE21A31EE431AB6EE002A01
:1044400004BF71EEA21A31EE031AF0EE402A42EEDA
:10445000602A40EE020A82EEA02A18E011F0004F16
:1044600004BF9FED461AF0EE411AD4D010F0004F71
:104470001CBFDFED431A9FED431A00E026E004BFA6
:10448000DFED411A9FED411AC5E780EE202A22EEAA
:10449000020ADFED3F0ADFED3F2ABDEC028B40EE62
:1044A000202ADFED3D0A40EE220ADFED3C2A40EEF5
:1044B000202ADFED3B0A40EE220A22EE000A00EE3F
:1044C000201A31EE020A30EE210A10BD4FF07F4271
:1044D000B2EB400F28BFB2EB410F05D2BDEC028B0F
:1044E000BDE8104000F082B840EA01035B0008BF5D
:1044F00041F0FF410BD0B2EB400F08BFB2EB410FD0
:1045000008D120F0804000EE100A21F0804100EE3A
:10451000901A37E7B2EB400F12BF5FEA410240F05A
:10452000FF4001F000413FF42DAF4A0092EA400302
:104530003FF528AF002AACBF9FED1A1A9FED1A1A5B
:1045400020EE010A60EE810A10EE100A10EE901AB9
:1045500018E70000DB0FC9BFDB0FC93FDB0F494085
:10456000DB0F49C00000C9BF22AAFDB90000C93F46
:1045700022AAFD390060ED3EC30ACE3700000000DC
:10458000000049C022AA7DBA0000494022AA7D3A13
:104590002DAD65BD8FB8D53D0FB511BE61C84C3E80
:1045A000A8AAAABE0000804F0000802F10B52DEDF4
:1045B000028BB1EEC08A18EE100A20F00040C0F164
:1045C000FF40C00F0AD010EE100A20F00040C0F1EA
:1045D000FF40C00F04BF012000F02CF8B0EE480AE5
:1045E000BDEC028B10BD30EE000A704730EE200AA1
:1045F00070470000DFED020A80EEA00A704700005D
:10460000000000009FED020A20EE000A7047000043
:104610000000001002E008C8121F08C1002AFAD1E9
:1046200070477047002001E001C1121F002AFBD132
:10463000704700000149086070470000B00000208A
:10464000B8B101280FD0022807D0032817D19FED59
:104650000E0A0E4981ED000A11E09FED0D0A0B498B
:1046600081ED000A0BE09FED0B0A084981ED000A7D
:1046700005E09FED090A054981ED000A00BF00BF72
:10468000024991ED000A7047000080463C0000207E
:10469000000000460000804500000045082835D293
:1046A000DFE800F02E28221C16100A049FED1A0ADB
:1046B0001A4981ED000A29E09FED190A174981ED99
:1046C000000A23E09FED170A144981ED000A1DE05E
:1046D0009FED150A114981ED000A17E09FED120ABE
:1046E0000E4981ED000A11E09FED100A0B4981EDA2
:1046F000000A0BE09FED0E0A084981ED000A05E073
:104700009FED0C0A054981ED000A00BF00BF034977
:1047100091ED000A704700000000F23940000020CF
:1047200000007A3A0000FA3A000003430000834296
:1047300033330342333383411FB5044600200290D4
:10474000039000900190002210214FF09040FCF760
:10475000F9FA9F20FEF744FC062202A91F20FEF76B
:104760001FFC012210214FF09040FCF7EBFA0022D1
:1047700010214FF09040FCF7E5FAA520FEF730FC41
:10478000062269462520FEF70BFC012210214FF07E
:104790009040FCF7D7FA9DF809009DF8081040EA10
:1047A000012000B200EE100AB8EEC00A84ED030A40
:1047B0009DF80B009DF80A1040EA012000B200EEBF
:1047C000100AB8EEC00A84ED040A9DF80D009DF8A9
:1047D0000C1040EA012000B200EE100AB8EEC00A48
:1047E00084ED050A9DF801009DF8001040EA0120C3
:1047F00000B200EE100AB8EEC00A84ED090A9DF876
:1048000003009DF8021040EA012000B200EE100AF9
:10481000B8EEC00A84ED0A0A9DF805009DF8041060
:1048200040EA012000B200EE100AB8EEC00A84EDA2
:104830000B0A0E480078C0B194ED090A0C48D0ED7F
:104840000F0A30EE600A84ED090A94ED0A0AD0EDF1
:10485000100A30EE600A84ED0A0A94ED0B0AD0EDDE
:10486000110A30EE600A84ED0B0A1FBD8C00002097
:104870004803002010B50848FCF74EF9002007490E
:10488000486088600820C86000200861486188612D
:10489000C861086210BD0000DC000020E00D0020AF
:1048A00070B505460C46164605480460324601467A
:1048B0002846FBF7A7FF08B1012070BD0020FCE7E8
:1048C000E00D00207EB505684668CDE90156019DE2
:1048D0000095009D0D60036846681A460A607EBD1B
:1048E00070B505460E46FCF72FF90020094908600F
:1048F000094888600120C860002408E005EB8401B5
:10490000054A02EBC400FFF7DDFF601CC4B2B442ED
:10491000F4DB70BDA803002000A0000886B0FCF7FF
:1049200029FAFFF77DF9FEF7CDFBFEF771FBFEF7E5
:1049300023FCFEF74BFCFEF79BFBFEF7A9FCAA202D
:10494000FBF72EFD01E0FEF709F946480078002844
:10495000F9D1FEF703F96420FBF740FFFFF78AFF68
:1049600000214148FDF7E4FF6420FBF737FF9FED8E
:104970003F1AF3EE040A9FED3E0A4FF496734FF48C
:10498000FA6200213B48FEF733FE9FED3B1AF0EE42
:10499000000A9FED370A3948FEF7D0FC052101A82F
:1049A000FFF79EFF364801A90EC93C300EC09DEDB1
:1049B000040A483880ED0E0A9DED050A80ED0C0AC8
:1049C0000120304908706420FBF708FF2E48FDF7EE
:1049D0007DFC45E02A48FFF7AFFE2948FEF77AF84C
:1049E000274890ED023AF0EE432A90ED013AB0EEFE
:1049F000432A90ED003AF0EE431A90ED083AB0EEFB
:104A0000431A90ED073AF0EE430A90ED063AB0EE05
:104A1000430A1A48FEF7B0FC1C4B1D4A1D491748B3
:104A2000FEF76EFC1B4890ED000ADFED1B0A20EE3E
:104A3000200A80ED000A164890ED000ADFED160A04
:104A400020EE200A80ED000A104890ED000ADFED0C
:104A5000120A20EE200A80ED000A0120FBF7BEFEBC
:104A6000B8E70000350000206402002000000000CC
:104A700000007A44980B00200AD7A33BB400002022
:104A8000480300208C000020B002002020000020FD
:104A90001C00002018000020E02E654243660266DC
:104AA000C16580ED000AC0ED010A80ED021A704771
:104AB00080ED000AC0ED010A80ED021A704710B5C2
:104AC00000EE100A2DED028BB1EEC08A18EE100A2E
:104AD00020F00040C0F1FF40C00F0AD010EE100AD5
:104AE00020F00040C0F1FF40C00F04BF0120FFF7DD
:104AF000A1FD18EE100ABDEC028B10BD00010203EF
:104B000004050607080C10141820304000000000AF
:104B1000000000000102030406070809000000006D
:104B200001020304444B000800000020B400000010
:104B300014460008F84B0008B40000206C11000077
:104B40002446000800000000000000000000184299
:104B5000000000000000000048E17A3F0000000073
:104B60000000000000000000000000001000000035
:104B7000010000000024F40000000000000000001C
:104B80000000000000000000000000000000000025
:104B90000000000000000000000000000000000015
:104BA0000000000000000000000000000000000005
:104BB00000000000000000000000000000000000F5
:104BC00000000000000000000000000000000000E5
:104BD00000000000000000000000000000000000D5
:104BE00000000000000000000000000000000000C5
:084BF0000000000000000000BD
:04000005080001D915
:00000001FF
