:020000040800F2
:10000000B0190020ED010008ED6700084540000828
:10001000E96700086D110008757200080000000013
:10002000000000000000000000000000896C0008D3
:100030005913000800000000416800088B6C00089C
:10004000070200080702000807020008070200086C
:10005000070200080702000807020008070200085C
:1000600007020008070200080702000871110008D3
:1000700081110008070200080702000807020008B3
:10008000070200080000000007020008070200083D
:1000900007020008BD140008CD140008070200087C
:1000A000070200080702000807020008070200080C
:1000B000096D0008196D0008070200080702000812
:1000C00007020008070200080702000807020008EC
:1000D00007020008070200080702000807020008DC
:1000E00007020008070200080702000807020008CC
:1000F00007020008070200080702000800000000CD
:1001000000000000070200080000000007020008CD
:1001100007020008000000000702000807020008AC
:10012000070200080702000807020008070200088B
:10013000070200080000000000000000070200089D
:10014000070200080702000800000000000000008D
:10015000000000000000000000000000000000009F
:10016000000000000000000000000000070200087E
:10017000070200080000000000000000000000006E
:10018000000000000702000800000000000000005E
:10019000000000000000000000000000000000005F
:1001A000000000000000000007020008070200082D
:1001B000070200080702000807020008000000000C
:1001C000000000000702000800000000000000001E
:1001D0000702000807020008DFF80CD000F0DCFE80
:1001E00000480047F57D0008B01900200648804708
:1001F00006480047FEE7FEE7FEE7FEE7FEE7FEE70C
:10020000FEE7FEE7FEE7FEE7F56C0008D90100080F
:1002100070B405880E884468D1F804C05368B542AC
:1002200008D140884988884201BF11888D42518891
:10023000884203D070BC6FF00200704705FB00F1EC
:10024000880827D094ED001ADCED000A94ED010A2D
:10025000DCED011A31EE201AD4ED020A70EE211AFB
:100260009CED020A83ED001AC3ED011A94ED031A06
:10027000DCED031A30EE800A401E71EE210A83ED98
:10028000020A04F11004C3ED030A03F110030CF198
:10029000100CD7D111F0030030D0B0F1004F30D2A4
:1002A00000282BDD211F1B1FACF1040210F0010FF1
:1002B0000AD091ED010AD2ED010A091D121D30EE9E
:1002C000200A83ED010A1B1D400817D091ED010A99
:1002D000D2ED010A401E30EE200A83ED010A91EDB5
:1002E000020AD2ED020A01F1080102F1080230EE21
:1002F000200A83ED020A03F10803E7D170BC002055
:100300007047B4EC010A401EFCEC010A30EE200AF2
:10031000A3EC010AF5D1F1E7018042804360704708
:100320002DE9F34F84B0049840680090486801902C
:100330000498B0F800E04588DFEDFE0A0020029046
:10034000B0EE600AAE4506D108884988884204BFED
:100350007146864504D06FF0020006B0BDE8F08F0C
:1003600001985FEA010C18BFB7EE001A3DD000BF3C
:10037000BEEB0C0117D0B1F1004F80F01F820029B5
:1003800011DD021F11F0010F1CBFC2ED010A121D89
:100390004B1006D0C2ED010AC2ED020A08325B1E04
:1003A000F8D100EB8100BCF10102A0EC011A19D0D8
:1003B000B2F1004F80F00882002A13DD031F12F013
:1003C000010F1CBFC3ED010A1B1D511008D000BF57
:1003D000C3ED010AC3ED020A491E03F10803F7D178
:1003E00000EB8200BCF1010CC2D14FF00008039574
:1003F000002D14BFB0EE602A002000F0BF8100BFC6
:10040000009908FB05F001EB800B0199DBED002A58
:1004100001EB80000346F0EE421AC64552D9AEEB1E
:100420000802ABEB850112F0010F17D001EB85013B
:1004300091ED000AB5EEC00AF1EE10FA07DDB4EE58
:10044000E10AF1EE10FA09DDF0EE401A06E0B1EE35
:10045000400AF4EEC01AF1EE10FAF5D3521031D082
:1004600001EB850C9CED000AB5EEC00AF1EE10FA26
:1004700005DDB4EEE10AF1EE10FA09DD06E0B1EEB9
:10048000400AF4EEC01AF1EE10FA01D2F0EE401A72
:1004900001EBC50191ED000AB5EEC00AF1EE10FACC
:1004A00005DDB4EEE10AF1EE10FA09DD06E0B1EE89
:1004B000400AF4EEC01AF1EE10FA01D2F0EE401A42
:1004C000521ECDD1F5EEC01AF1EE10FA00F0738194
:1004D000F5EEC02A0126F1EE10FA0099D4BFB1EE74
:1004E000620AB0EE620AB4EE610AF1EE10FA1CBFC5
:1004F000AEEB0802B2F1010C47D005FB08F201EBAC
:10050000820292ED001A00BFB0EE410A05FB06F42C
:10051000B5EEC00A00EB8404F1EE10FACCBFF0EEA9
:10052000400AF1EE400AF4EE610AF1EE10FA28D129
:10053000B5EB080C11D0BCF1004F7DD2BCF1000F1F
:100540000BDD00BF92ED000AD1ED000ABCF1010CF9
:10055000E2EC010AA1EC010AF4D129000ED0B1F1BC
:10056000004F6AD2002909DD94ED000AD0ED000A9F
:10057000491EE4EC010AA0EC010AF5D10120029029
:100580000BE0761CBCF1010CBED10298012804D00E
:10059000F5EEC02AF1EE10FA7ED09BED000AB5EB25
:1005A00008009A465946064622D0B0F1004F74D250
:1005B00000281DDD091F10F0010F06D0F0EE400AE3
:1005C00080EEA01A81ED011A091D401010D000BF65
:1005D000D1ED010A401E80EE801A81ED011A91EDE5
:1005E000021AC1EE000AC1ED020A01F10801EFD1C1
:1005F000280026D0B0F1004F7ED2002821DDAAF1DC
:10060000040110F0010F06D0D1ED010A80EE801A2E
:1006100081ED011A091D401013D000BFD1ED010A70
:10062000401E80EE801A81ED011AD1ED020A80EEA3
:10063000801A81ED021A01E0CBE0D6E001F1080159
:10064000ECD1DDE900124FF000095FEA0E0773D02C
:10065000C14504BF01EB860102EB850274D091ED28
:10066000000ADC465046331E35D01C46B6F1004F1A
:100670007ED2002C2FDD0B1FABF1040C16F0010F06
:100680000FD0F0EE400ADCED011AB0EE601A00EE79
:10069000E11A83ED011A01E08DE0B1E01B1D0CF1C0
:1006A000040C741015D000BFD3ED010A9CED011AA3
:1006B00040EE410AC3ED010AD3ED020A9CED021A95
:1006C0000CF1080C40EE410AC3ED020A0833641E27
:1006D000EAD101EB86012B0036D0B3F1004F72D284
:1006E000002B31DDA2F1040CAAF1040013F0010F7C
:1006F0000CD0DCED010A00E08BE090ED011A001D4A
:1007000040EE410ACCED010A0CF1040C5C1019D04A
:10071000DCED010A90ED011A40EE410ACCED010A30
:10072000DCED020A90ED021A083040EE410ACCEDF1
:10073000020A03E0000000000DE005E0641E0CF179
:10074000080CE5D102EB830201EB88017F1E09F161
:1007500001097FF47DAF009808F10108001D0090A9
:100760000398401E03907FF44BAE0299012900E0EC
:1007700058E004BF06B0BDE8F08F00BFB5EEC00A78
:10078000F1EE10FA7FF4E9AD04990EFB05F3002BAE
:100790004A684FF000010BD902EB810C9CED000A76
:1007A000B5EEC00AF1EE10FA02D1491C8B42F3D823
:1007B0008B427FF4D2AD6FF00400CEE5E0EC010A8D
:1007C000491EFBD1EFE538E0E0EC010A521EFBD1F7
:1007D00008E692ED000AD1ED000ABCF1010CE2EC52
:1007E000010AA1EC010AF4D1B7E694ED000AD0EDBC
:1007F000000A491EE4EC010AA0EC010AF5D1BDE6AD
:10080000D1ED000A401E80EE801AA1EC011AF7D14A
:10081000EEE6D3ED000A401E80EE801AA3EC011A2A
:10082000F7D10EE7BCEC011AD1ED000A5B1E40EED9
:10083000410AE1EC010AF5D14DE7B0EC011AD2ED25
:10084000000A5B1E40EE410AE2EC010AF5D17BE7AB
:100850002DE9F04F82B046685368019305884788B8
:100860004B88002000900888874201BFB2F800C082
:100870006545528893421EBF6FF0020002B0BDE88A
:10088000F08F9FED412A4FEA970EC7F3400B00BF50
:10089000DDE9000202EB800A4A6898464FF0000941
:1008A000B0EE420AB4465FEA0E0025D092ED001A7F
:1008B000DCED001A02EB8302DCED010A01EE810A95
:1008C00092ED001A02EB8302401ED2ED001A02EBF9
:1008D000830200EE810A9CED021ADCED030A00049B
:1008E0000CF1100C000C01EE210A92ED001A02EB43
:1008F000830200EE810AD9D117F0030026D0ACF1B3
:100900000404A2EB830210F0010F08D002EB830273
:10091000D4ED010A92ED001A241D00EE810A5FEA6F
:100920000B0013D002EB830CD4ED010A9CED001AEE
:1009300002EBC302401E00EE810AD4ED020A92EDE2
:10094000001A04F1080400EE810AEBD109F101005C
:10095000AAEC010A1FFA80F9486800EB8902A8F1A5
:1009600001001FFA80F8B8F1000F99D1009806EB4A
:100970008706184480B20090681E05042D0C87D1AC
:1009800002B00020BDE8F08F0000000070B40588C0
:100990000E884468D1F804C05368B54208D1408835
:1009A0004988884201BF11888D425188884203D00E
:1009B00070BC6FF00200704705FB00F1880827D07B
:1009C00094ED001ADCED000A94ED010ADCED011A49
:1009D00031EE601AD4ED020A70EE611A9CED020A43
:1009E00083ED001AC3ED011A94ED031ADCED031A2E
:1009F00030EEC00A401E71EE610A83ED020A04F176
:100A00001004C3ED030A03F110030CF1100CD7D14D
:100A100011F0030030D0B0F1004F30D200282BDDB0
:100A2000211F1B1FACF1040210F0010F0AD091ED41
:100A3000010AD2ED010A091D121D30EE600A83ED94
:100A4000010A1B1D400817D091ED010AD2ED010AE1
:100A5000401E30EE600A83ED010A91ED020AD2EDEC
:100A6000020A01F1080102F1080230EE600A83ED8A
:100A7000020A03F10803E7D170BC00207047B4EC10
:100A8000010A401EFCEC010A30EE600AA3EC010AE8
:100A9000F5D1F1E72DE9F04F02884768B0F8028000
:100AA0004888D1F8049082B04FF0000A164682427E
:100AB00007BF098888456FF0020002B018BFBDE883
:100AC000F08F4FEA980B02EB42000190C8F3400010
:100AD000CDF8000009EB8A01BBF1000F33D001987B
:100AE00001EB820C01EB80043B46E64601EBC205BC
:100AF0004FEA0B0093ED000A401E81ED000A93EDD2
:100B0000010A01EB02118CED000A93ED020A0CEBD5
:100B1000021C85ED000A93ED030A05EB021584ED36
:100B2000000A04EB021403F11003E3D10EEB820080
:100B300000EB820000EB8201ABF10100504307EBB8
:100B40000B1701EB001118F0030C21D03B1FA1EB98
:100B500082011CF0010F06D093ED010A01EB820126
:100B60001B1D81ED000A009880B100BF93ED010AC2
:100B700001EB820401EBC20184ED000A93ED020A4D
:100B8000401E81ED000A03F10803EFD107EB8C074B
:100B90000AF101001FFA80FA701E0604360C99D182
:100BA00002B00020BDE8F08F40EA01039B0703D0AC
:100BB00009E008C9121F08C0042AFAD203E011F89C
:100BC000013B00F8013B521EF9D27047D2B201E05E
:100BD00000F8012B491EFBD270470022F6E710B542
:100BE00013460A4604461946FFF7F0FF204610BD9B
:100BF0002DE9FE4F804681EA0300C00F0C460090AD
:100C000021F0004123F00045B8EB0200A94105D2D4
:100C10004046214690461C460B46024623F00040C3
:100C2000104347D0270DC7F30A00C3F30A510290BF
:100C3000401A019040286BDAC3F3130040F4801B84
:100C40000098924620B10023D2EB030A63EB0B0B12
:100C500001985946C0F14002504600F00FF906468F
:100C60000D4650465946019A00F027F910EB08004E
:100C70006141002487EA115284EAE7731A4340D0A5
:100C8000009A62B3019A012A4FEA075215DC001B51
:100C900061EB02014FF0004202EA0752CDE9004247
:100CA000001C41F5801132462B4600F027F903B0B5
:100CB000BDE8F08F40462146F9E7001B61EB0201D9
:100CC000001C41F5801300185B412018A2F50017A5
:100CD00047EB030140EAD570B6196D4111E06D088C
:100CE0004FEA360645EAC0754FEA0752001B61EB32
:100CF0000201001C41F5801149084FEA300000193B
:100D0000514132462B4603B0BDE8F04F00F0E7B842
:100D10000098012240000023D0EB020263EBE07355
:100D2000009821464FEAE074B8EB000061EB040143
:100D3000E9E783F000435BE781F0004158E72DE9E4
:100D4000F04D81EA030404F0004B21F00045144605
:100D50004FF0000A23F0004150EA050220D054EA87
:100D600001021DD0C5F30A570246C5F31303C1F3B0
:100D70001300C1F30A5640F4801543F48013A7EB27
:100D80000608101BD64608F2FD3873EB050002D3A7
:100D900008F1010801E092185B41B8F1000F03DA95
:100DA00000200146BDE8F08D00204FF4801106467A
:100DB00084460EE0171B73EB050705D3121B63EB8C
:100DC000050306434CEA010C49084FEA300092182B
:100DD0005B4150EA0107EDD152EA030012D082EAEA
:100DE000040083EA0501084305D0101BAB4106D27D
:100DF0000122002306E000224FF0004302E06FF0E2
:100E0000010253101AEB06004CEB085110EB0A00DC
:100E100041EB0B01BDE8F04D00F061B80EB5C10F1C
:100E200080EAE0700844CA07002140F233438DE8AD
:100E30000E000A460B4600F061F803B000BD70B525
:100E4000C1F30A5201F000450024C1F3130140F23E
:100E5000FF3341F480119A4201DA002070BD40F264
:100E600033439A42A2F2334203DC524200F015F8B7
:100E700000E090402C43F1D0404270BD202A04DBBA
:100E8000203A00FA02F1002070479140C2F120039D
:100E900020FA03F3194390407047202A04DB203ADC
:100EA00021FA02F00021704721FA02F3D040C2F18A
:100EB00020029140084319467047202A06DBCB17D1
:100EC000203A41FA02F043EAE07306E041FA02F305
:100ED000D040C2F12002914008431946704710B536
:100EE000141E73F1000408DA401C41F1000192184D
:100EF0005B411A4301D120F0010010BD2DE9F04DF6
:100F000092469B4611B1B1FA81F202E0B0FA80F24A
:100F100020329046FFF7B2FF04460F4640EA0A002F
:100F200041EA0B0153465A46084313D0114653EA8F
:100F3000010019D0C8F140025046FFF7AEFF054648
:100F40000E46504659464246FFF798FF084305D0E3
:100F5000012004E020463946BDE8F08D002005431D
:100F600046EAE0762C4337430A986305E40AA0EB8F
:100F700008000022FD0A44EA47540A3002D5002046
:100F80000146E9E7010510196941DDE90845001945
:100F90006941BDE8F04DA2E7064C074D06E0E06868
:100FA00040F0010394E8070098471034AC42F6D3B0
:100FB000FFF716F9DC820008FC82000870B58C1877
:100FC00010F8015B15F0070301D110F8013B2A115D
:100FD00006D110F8012B03E010F8016B01F8016B4A
:100FE0005B1EF9D12B0705D40023521E0DD401F846
:100FF000013BFAE710F8013BCB1A921C03E013F80F
:10100000015B01F8015B521EF9D5A142D8D3002043
:1010100070BDD2ED020A92ED021AB6EE000A00EEA1
:10102000C10AD2ED030A92ED031A00EEC10AD0ED17
:10103000000A20EE200AD2ED010A92ED021A60EEBB
:10104000810A92ED001AD2ED031A41EE610A90ED89
:10105000011A00EE810AD2ED010A92ED031A60EE48
:10106000810A92ED001AD2ED021A41EE210A90EDAA
:10107000021A00EE810AF0EE000A20EE200A81ED4D
:10108000000A92ED010AD2ED020A20EE200AD2ED0A
:10109000000A92ED031A00EE810AD0ED000A60EE1C
:1010A000200A92ED011AD2ED011AB6EE000A01EE05
:1010B000610AD2ED031A92ED032AB0EE401A01EE56
:1010C000C21AD0ED011AB0EE600A01EE210AD2ED8B
:1010D000020A92ED031A60EE810A92ED001AD2ED37
:1010E000011A41EE610A90ED021A00EE810AF0EE5B
:1010F000000A20EE200A81ED010A92ED010AD2EDEC
:10110000030A20EE200AD2ED000A92ED021A00EE48
:10111000C10AD0ED000A20EE200AD2ED020A92EDBB
:10112000031A60EE810A92ED001AD2ED011A41EE27
:10113000210A90ED011A00EE810A92ED011AD2ED1A
:10114000011AF6EE000A41EE610A92ED021AD2EDA2
:10115000021A41EE610A90ED021A00EE810AF0EEE9
:10116000000A20EE200A81ED020A704700BFFEE768
:1011700010B5024800F04EFA10BD000040020020F9
:1011800010B5024800F046FA10BD0000A002002091
:1011900030B50E4D0468AC4201D20D4901E00C4956
:1011A00020310B460478083C1425B4FBF5F2446C5E
:1011B000A40803EB84048464054C8034C46402F006
:1011C0001F050124AC40046530BD00000804024046
:1011D0000008024001794A1E064B03EB8202426579
:1011E000044A403282654A1E02F01F0301229A40DF
:1011F000C26570470009024030B5D0E913546C60F5
:10120000446D14B1D0E916546C6090F8444004F079
:101210001F050124AC40056C6C6004686360846841
:10122000102C04D10468A2600468E16003E0046843
:10123000A1600468E26030BD08B5084840680090CD
:10124000074900980968884204D206480068401C93
:101250000449086002490098086008BD001000E0D9
:10126000500000204C0000200C494868F0EE400A75
:1012700000BF0A494968091A01EE101AF8EE411A2E
:10128000074991ED001AB8EE411A20EE811AF4EEEA
:10129000C11AF1EE10FAECD370470000001000E024
:1012A0004000002010B52DED028B82B004460E48A0
:1012B0004068019020680199081A00EE100AF8EEC3
:1012C000400A0A4890ED000AB8EE400A80EE801A03
:1012D000B0EE418A01982060FFF7AEFFB0EE480AF9
:1012E00002B0BDEC028B10BD001000E040000020F9
:1012F0001249096841F08071104A11600021104ABA
:1013000051601146096841F0010111600D494143E6
:101310000D4A1160114609684FF47A72B1FBF2F17F
:101320000A4A116008490968064AB1FBF2F1084A05
:1013300011600021074A116070470000FCED00E0D9
:10134000001000E040420F00400000204400002058
:10135000480000204C0000207047D2ED020A92EDB8
:10136000021AB6EE000A00EEC10AD2ED030A92EDAF
:10137000031A00EEC10AD0ED000A20EE200AD2EDD9
:10138000010A92ED021A60EE810A92ED001AD2ED86
:10139000031A41EE210A90ED011A00EE810AD2ED06
:1013A000010A92ED031A60EE810A92ED001AD2ED65
:1013B000021A41EE610A90ED021A00EE810AF0EE87
:1013C000000A20EE200A81ED000A92ED010AD2ED1A
:1013D000020A20EE200AD2ED000A92ED031A00EE76
:1013E000C10AD0ED000A60EE200A92ED011AD2ED9A
:1013F000011AB6EE000A01EE610AD2ED031A92ED6F
:10140000032AB0EE401A01EEC21AD0ED011AB0EE76
:10141000600A01EE210AD2ED020A92ED031A60EE93
:10142000810A92ED001AD2ED011A41EE210A90EDE7
:10143000021A00EE810AF0EE000A20EE200A81ED89
:10144000010A92ED010AD2ED030A20EE200AD2ED44
:10145000000A92ED021A00EE810AD0ED000A20EE99
:10146000200AD2ED020A92ED031A60EE810A92ED93
:10147000001AD2ED011A41EE610A90ED011A00EE58
:10148000810A92ED011AD2ED011AF6EE000A41EE40
:10149000610A92ED021AD2ED021A41EE610A90ED54
:1014A000021A00EE810AF0EE000A20EE200A81ED19
:1014B000020A704772B600BFFEE7000010B502488E
:1014C00000F001FB10BD00007801002010B50248BB
:1014D00000F0F9FA10BD00007801002010B519499C
:1014E00001640368D3F8803023F4F814838E44EA4F
:1014F00003430468C4F8803001F170034364036857
:10150000D3F8803023F0706490F8383044EA0363F5
:101510000468C4F8803001F1B003836401F5C4733A
:10152000C36401F51873036501F51E7343650A462C
:1015300002E000231360121D01F554739A42F8D3A0
:1015400010BD000000A400402DE9F04105461446FE
:101550001E46D1F804C0BCF1000F0AD1D1F810C06A
:10156000D1F808804CEA080CB1F800804CEA8843B6
:101570000BE0D1F810C04CF0804CD1F808804CEA58
:10158000080CD1F800804CEA080391F82080D1F8CB
:101590001CC04CEA086CD1F818804CEA080CD1F851
:1015A00014804CEA080CB1F80C804CEA084706EBB2
:1015B000C608D5F854C00CEBC8021360121D1760A2
:1015C000121D002019E000F1030C14F80CC04FEAC2
:1015D0000C6800F1020C14F80CC048EA0C4800F149
:1015E000010C14F80CC048EA0C2C14F800804CEAEA
:1015F000080CC2F800C0121D001DDFF81480D1F8DD
:101600000CC018F80CC08445DDD8BDE8F08100009E
:10161000F481000870B50446206C056820680668EF
:1016200094F8440000F01F01042088402840E0B1F5
:1016300006F00400C8B12068006800F0200028B956
:101640002068006820F004002168086094F84400D5
:1016500000F01F0104208840216C4860206B0028A6
:1016600056D02046216B884752E094F8440000F0A1
:101670001F0102208840284018B306F0020000B382
:101680002068006800F0200040B92068006820F061
:101690000A0021680860012084F8250094F84400BD
:1016A00000F01F0102208840216C486000BF00202C
:1016B00084F8240000BFE06A50B32046E16A8847FE
:1016C00026E094F8440000F01F01082088402840DC
:1016D000F0B106F00800D8B12068006820F00E00D4
:1016E0002168086094F8440000F01F010120884040
:1016F000216C48600120E06384F8250000BF0020D1
:1017000084F8240000BF606B10B12046616B8847ED
:1017100070BD000070B504460CB9012070BD2F49A2
:10172000206888420BD22E492068401A1421B0FB51
:10173000F1F0800060642A48083820640AE02749F4
:101740002068401A1421B0FBF1F080006064234847
:1017500008382064022084F825002068056847F6D0
:10176000F0708543D4E902010843216908436169A7
:101770000843A1690843E1690843216A0843054316
:10178000206805602046FFF703FDA068B0F5804F94
:1017900001D1002060602079A16C0860D4E91310A9
:1017A0004860606860B16068042809D82046FFF787
:1017B00011FD0020616D0860D4E91610486003E057
:1017C00000206065A065E0650020E063012084F8EA
:1017D0002500002084F8240000BF9FE70804024091
:1017E000080002402DE9F04104460D4616461F460A
:1017F0004FF0000800BF94F82400012802D1022015
:10180000BDE8F081012084F8240000BF94F8250091
:1018100001283FD1022084F825000020E0632068E1
:10182000006820F00100216808603B4632462946E6
:101830002046FFF7E1FC206B30B12068006840F0E3
:101840000E00216808600BE02068006820F00400AA
:10185000216808602068006840F00A00216808607C
:10186000A06C006800F4803028B1A06C006840F4DF
:101870008070A16C0860606D28B1606D006840F4F4
:101880008070616D08602068006840F00100216888
:10189000086006E000BF002084F8240000BF4FF07D
:1018A00002084046ACE7000070B5044600F072FC48
:1018B00006462546681C10B104480068054400BF70
:1018C00000F068FC801BA842FAD370BD180000200D
:1018D00070B50346144693F85C5001F4C07000B133
:1018E00000BF012D01D0022D7DD11868826D01F05D
:1018F000070010B102F0010018B301F0380010B178
:1019000002F00200E8B101F4E07010B102F004004E
:10191000B8B101F4F05010B102F0080088B101F440
:10192000604010B102F0100058B101F4403010B125
:1019300002F0200028B101F47C0040B102F0400028
:1019400028B91868C06D40F001001E68F06501F00C
:10195000070010B102F0010018BB01F0380010B10F
:1019600002F00200E8B901F4E07010B102F00400E6
:10197000B8B901F4F05010B102F0080088B901F4D0
:10198000604010B102F0100058B901F4403010B1BD
:1019900002F0200028B901F47C0040B102F04000C0
:1019A00028B11868C06D40F002001E68F06501F0B3
:1019B000800030B11868D0F8DC0020431E68C6F8FB
:1019C000DC0001F4807030B11868D0F8E0002043EA
:1019D0001E68C6F8E0001868406D08431E68706510
:1019E000002070BDFFE7186E40F00200186601206D
:1019F000F7E72DE9F04104460E461746706800B936
:101A000000E000BF94F85C00022821D12068D0F8E3
:101A1000C40000F4001030B1206E40F40070206665
:101A20000120BDE8F0812068D0F8C400C0F3014572
:101A30002B463A4631462046FFF786FD0120A84056
:101A40002168C1F8CC000120A840A0650020E8E78B
:101A5000206E40F0080020660120E2E7F0B5024663
:101A600092F85C60012E01D0022E23D1086880B963
:101A7000087A80070F7B40EAC7600F8A40EA074078
:101A80004F6940EA0704176C486807EB80031C6045
:101A90000EE00F7B086940EA47740F7A486940EA14
:101AA0008775576C486807EBC0031C601B1D1D60E1
:101AB0000020F0BD106E40F0020010660120F8E733
:101AC0007047704770472DE9FC5F04462068006D41
:101AD00000F4E0572068406D07402068006D00F07A
:101AE00007082068406D00EA08082068006D00F0D3
:101AF00038092068406D00EA09092068006D00F48B
:101B0000710A2068406D00EA0A0A2068006D00F43E
:101B1000602B2068406D00EA0B0B2068456D206843
:101B2000066DC6F3801040B1C5F3801028B1402087
:101B3000216808652046FFF7C5FFC6F30020A0B165
:101B4000C5F3002088B12068D0F8D8000090206844
:101B5000D0F8E0000099084000904FF480702168B0
:101B600008652046009900F002FA2FB12068076549
:101B70003946204600F0FDF9B8F1000F06D0206884
:101B8000C0F850804146204600F0D6F9B9F1000F68
:101B900006D02068C0F850904946204600F0CDF9A4
:101BA000C6F3402048B1C5F3402030B14FF4007077
:101BB00021680865204600F0DDF9C6F3C01098B131
:101BC000C5F3C01080B12068D0F8D400019020681F
:101BD000D0F8DC0001990840019080202168086558
:101BE0002046019900F0C4F9C6F3403048B1C5F36E
:101BF000403030B14FF4005021680865204600F0B5
:101C0000B5F9C6F3C03048B1C5F3C03030B14FF4B8
:101C1000004021680865204600F0A7F9C6F380302F
:101C200050B1C5F3803038B14FF480402168086569
:101C3000206E40F080002066BBF1000F06D02068C7
:101C4000C0F850B059462046FFF73BFFBAF1000FED
:101C500006D02068C0F850A0206E40EA0A00206636
:101C6000206E10B12046FFF72BFFBDE8FC9F00005F
:101C700070B504460CB9012070BD814920688842C6
:101C800000D100BFA068B0F5407F00D100BF94F83C
:101C90005C0028B9002084F85D00204600F0F4F8CC
:101CA0002068806920F010002168886100F072FAD5
:101CB00005460DE000F06EFA401B0A2808D9206E98
:101CC00040F001002066032084F85C000120D3E787
:101CD0002068806900F008000828EBD0206880693F
:101CE00040F001002168886100F054FA05460DE0DB
:101CF00000F050FA401B0A2808D9206E40F001007D
:101D00002066032084F85C000120B5E72068806924
:101D100000F001000028EBD02068806940F002004C
:101D20002168886156492068884202D15549606817
:101D30000860207C012806D12068806920F04000DE
:101D40002168886105E02068806940F040002168D2
:101D50008861607C012806D12068806940F4804059
:101D60002168886105E02068806920F4804021684E
:101D70008861A07C012806D12068806920F4805009
:101D80002168886105E02068806940F480502168FE
:101D900088612068806920F44070A1680843216848
:101DA00088612068806920F0A4002168886120682B
:101DB000006920F0100021680861E068012806D160
:101DC0002068806940F004002168886120E0E068B4
:101DD000F0B1E068022815D02068806940F08000EA
:101DE000216888612068006940F01000216808615E
:101DF000E06803280CD12068806940F02000216849
:101E0000886105E02068806940F0200021688861D1
:101E1000207E401E4106E069401E41EA0020216A02
:101E2000491E0843A18A491E40EA01402168C86151
:101E3000A068B0F5407F0FD1A06A401EE16A491E3C
:101E400040EA0121206B401E41EA0011A08C401E97
:101E500041EA00402168C8602068D0F8C000E16B0A
:101E600008432168C1F8C0002046FFF737FB002077
:101E7000A0652066012084F85C000020FCE60000DC
:101E8000006400400065004010B598B0044614217D
:101E900013A8FEF7A2FE442102A8FEF79EFE2449E5
:101EA0002068884242D18014029040030E9002A81C
:101EB00000F0FCFA08B1FFF7FDFA00BF1D48806D85
:101EC00040F000701B4988650846806D00F0007086
:101ED000019000BF00BF00BF0846C06C40F0010089
:101EE000C8640846C06C00F00100019000BF00BF4C
:101EF0004FF4C050139002201490002015901690BB
:101F00000920179013A9C00600F04EF800221146D0
:101F1000152000F0E3F9152000F0CCF9002211465D
:101F2000162000F0DBF9162000F0C4F918B010BD3F
:101F3000006400400010024070477047014691F86D
:101F40005C0001280BD1022081F85C0008688069E0
:101F500020F001000A689061002008667047086E52
:101F600040F0040008660120F8E7704770477047AA
:101F7000704770477047000000200849496901F028
:101F8000004151B10649054A9160064991601146E8
:101F9000496901F0004101B1012070470020024071
:101FA00023016745AB89EFCD78B502460B4600218A
:101FB000CAE001268E401D6805EA0604002C73D095
:101FC0001D7905F00305012D04D01D7905F00305E9
:101FD000022D13D190684E000325B540A8434E0052
:101FE000DD68B54028439060506801258D40A843C6
:101FF0001D79C5F300158D40284350601D7905F00B
:102000000305032D09D0D0684E000325B540A84331
:102010004E009D68B5402843D0601D7905F003054A
:10202000022D13D1CE0802F1200555F826004D07E8
:10203000EE0E0F25B540A8434E07F60E1D69B540BC
:102040002843CE0802F1200545F8260010684E000E
:102050000325B540A8431D7905F003054E00B540A2
:10206000284310605D6805F44035002D6BD000BF3B
:10207000384D2D6E45F00105364E356635462D6ED0
:1020800005F00105009500BF00BF4FEAB6358E0888
:1020900055F826008D072E0F0F25B540A843B2F145
:1020A000904F02D100251AE04DE02B4DAA4201D1FC
:1020B000012514E0294DAA4201D102250FE0284D47
:1020C000AA4201D103250AE0264DAA4201D10425E6
:1020D00005E0254DAA4201D1052500E006258E0721
:1020E000360FB5402843214D8E0845F82600204D77
:1020F0002868A0435D6805F4801505B120431C4D98
:1021000028602D1D2868A0435D6805F4001505B101
:102110002043174D2D1D2860154D2D1F2868A04305
:102120005D6805F4003505B12043114D2D1F286071
:102130002D1F2868A0435D6805F4803505B1204354
:102140000B4D083D2860491C1D68CD40002D7FF4D3
:1021500030AF78BD0010024000040048000800487D
:10216000000C00480010004800140048080001401E
:102170000804014010B5426921EA020302EA0104A1
:1021800043EA0443836110BD0AB1816100E08162CA
:1021900070470000014800687047000010000020F0
:1021A000034800680349096808440149086070470A
:1021B000100000201800002010B50024032000F0BB
:1021C000CBF80F2000F008F808B1012401E000F07E
:1021D0004FF8204610BD0000F0B587B00446002639
:1021E000002700BF1E48806D40F001001C49886533
:1021F0000846806D00F00100009000BF00BF01A9FB
:1022000002A800F01DFC00F043FC06461548B6FB92
:10221000F0F0471E4FF080401349086040F2E7316C
:102220001148C160476000210161816001F017FA27
:10223000054695B90C4801F06BFA05466DB91C20AE
:1022400000F038F8102C07D2002221461C2000F0A4
:1022500045F80648046000E00125284607B0F0BDB7
:102260000010024040420F0098030020140000209C
:1022700008B500BF0E48006E40F001000C4908662A
:102280000846006E00F00100009000BF00BF00BFD4
:102290000846806D40F0805088650846806D00F0EB
:1022A0008050009000BF00BF00F0F6F808BD0000AD
:1022B000001002400146084600280DDB00BF00BFA9
:1022C00000F01F0301229A4043099B0003F1E02321
:1022D000C3F8002100BF00BF00BF70472DE9F05FC9
:1022E00080460D46164604F0DBFF074639462A466F
:1022F000334601F00700C0F1070ABAF1040F02D912
:102300004FF0040A01E0C0F1070AD14600F1040AC7
:10231000BAF1070F02D24FF0000A01E0A0F1030A60
:10232000D4464FF0010A0AFA09FAAAF1010A0AEAA8
:10233000020A0AFA0CFA4FF0010B0BFA0CFBABF194
:10234000010B0BEA030B4AEA0B042146404604F05A
:10235000AFFFBDE8F09F000000BF00F00702064B92
:1023600019684FF6FF031940044B0B4343EA02215F
:10237000014B196000BF70470CED00E00000FA054A
:1023800002468ABB4148006800F4C060B0F5806F27
:102390002BD13E488030006820F480703B4BC3F85E
:1023A00080001846006820F4C06040F40070186097
:1023B0003748006832235843364BB0FBF3F0411CDA
:1023C00000E0491E3148406900F48060B0F5806F3C
:1023D00001D10029F5D12D48406900F48060B0F5A5
:1023E000806F51D10320704708E028488030006892
:1023F00020F48070254BC3F8800045E0B2F5007FE3
:102400003AD12248006800F4C060B0F5806F2AD14C
:102410001E488030006840F480701C4BC3F8800078
:102420001846006820F4C06040F400701860184836
:10243000006832235843174BB0FBF3F0411C00E017
:10244000491E1248406900F48060B0F5806F01D1E8
:102450000029F5D10D48406900F48060B0F5806F27
:1024600012D10320BFE709488030006840F4807033
:10247000064BC3F8800007E00448006820F4C06001
:1024800040F48060014B18600020ACE70070004011
:102490001C00002040420F000348806840F4804048
:1024A0000149886070470000007000402DE9F84342
:1024B00004460027B846206800F40020B0F5002F3D
:1024C00073D1B946D348806D00F0805078B900BF11
:1024D000D048806D40F08050CE4988650846806DB8
:1024E00000F08050009000BF00BF4FF00109CA48C3
:1024F000006840F48070C8490860FFF74BFE06464C
:1025000006E0FFF747FE801B022801D9032705E0FC
:10251000C148006800F480700028F2D000BF002F8E
:1025200046D1BC489030006800F44075CDB1206CB5
:10253000A84216D0B7489030006820F44075B548DE
:10254000D0F8900040F48030B249C1F890000846BD
:10255000D0F8900020F48030C1F890000846C0F810
:10256000905005F00100A0B1FFF714FE064608E008
:10257000FFF710FE801B41F28831884201D9032702
:1025800006E0A4489030006800F002000028EFD078
:1025900000BF5FB99F489030006820F44070216C04
:1025A00008439C49C1F8900003E00CE0B84600E005
:1025B000B846B9F1010F05D19648806D20F08050E2
:1025C0009449886500BF207800F0010048B1914827
:1025D0008830006820F00300616808438D49C1F825
:1025E0008800207800F00200022809D1894888304C
:1025F000006820F00C00A16808438649C1F88800F3
:10260000207800F00400042809D18248883000684E
:1026100020F03000E16808437E49C1F88800207846
:1026200000F00800082809D17A488830006820F0B6
:10263000C000216908437749C1F88800207800F07C
:102640002000202809D173488830006820F44060B9
:10265000616908436F49C1F88800207800F04000A4
:10266000402809D16B488830006820F44050A169A7
:1026700008436849C1F88800207800F0800080286D
:1026800009D164488830006820F44040E16908437B
:102690006049C1F88800208800F48070B0F5807F20
:1026A00009D15C488830006820F44030216A084332
:1026B0005849C1F88800208800F40070B0F5007F08
:1026C00009D154488830006820F44020616A0843EA
:1026D0005049C1F88800208800F48060B0F5806F10
:1026E00013D14C488830006820F44010A16A084398
:1026F000484988310860A06AB0F5801F05D1454877
:10270000C06840F480104349C860208800F400602D
:10271000B0F5006F13D13F488830006820F44000C6
:10272000E16A08433B4988310860E06AB0F5800FF0
:1027300005D13848C06840F480103649C860208808
:1027400000F48050B0F5805F13D1324888300068C3
:1027500020F04070216B08432E4988310860206BBF
:10276000B0F1807F05D12B48C06840F48010294922
:10277000C860208800F40050B0F5005F13D12548F0
:102780008830006820F04060616B0843214988313F
:102790000860606BB0F1006F05D11E48C06840F45E
:1027A00080101C49C860208800F48040B0F5804F3C
:1027B00013D118488830006820F04060A16B0843AE
:1027C000144988310860A06BB0F1006F05D1114841
:1027D000C06840F480100F49C860208800F40040B1
:1027E000B0F5004F13D10B488830006820F04050FE
:1027F000E16B0843074988310860E06BB0F1805F06
:1028000005D10448C06840F480300249C8604046A1
:10281000BDE8F88300100240007000402DE9F0414F
:1028200004460D464FF0000814B90120BDE8F081C0
:102830007D48006800F00F00A8420ED27A48006878
:1028400020F00F002843784908600846006800F02F
:102850000F00A84201D00120E8E7207800F0010035
:10286000002864D06068032823D17048006800F015
:10287000007008B90120D9E703F0E4FF06466C4870
:10288000864237D96948806800F0F00030B120787E
:1028900000F0020002282DD1A06858BB6348806870
:1028A00020F0F00040F08000604988604FF0800820
:1028B00020E06068022806D15C48006800F400301F
:1028C00040B90120B2E75948006800F4806008B9B7
:1028D0000120ABE700F0EEF806465548864209D9DC
:1028E0005248806820F0F00040F080004F49886036
:1028F0004FF080084D48806820F00300616808436D
:102900004A498860FFF746FC074608E0FFF742FCAB
:10291000C01B41F28831884201D9032086E7434831
:10292000806800F00C006168B0EB810FEED1207878
:1029300000F00200022820D1207800F004000428D2
:1029400005D13A48806840F4E060384988602078D2
:1029500000F00800082807D13448806820F460504F
:1029600040F4E060314988603048806820F0F00031
:10297000A16808432D49886008E0B8F1800F05D1AF
:102980002A48806820F0F0002849886026480068BE
:1029900000F00F00A84219D92348006820F00F006A
:1029A000284321490860FFF7F5FB074608E0FFF7D9
:1029B000F1FBC01B41F28831884201D9032035E781
:1029C0001948006800F00F00A842F0D1207800F00C
:1029D0000400042807D11548806820F4E060E1680D
:1029E000084312498860207800F00800082808D1C0
:1029F0000E48806820F46050216940EAC1000B490C
:102A0000886000F057F809498968C1F30311094A41
:102A1000515C01F01F01C840074908600748006881
:102A2000FFF7DAFB02E7000000200240001002403E
:102A300000B4C404048200081C000020140000201C
:102A40000F2202600D4A926802F0030242600B4AB4
:102A5000926802F0F0028260084A926802F4E06232
:102A6000C260064A926802F46052D2080261044AC7
:102A7000126802F00F020A60704700000010024066
:102A80000020024001480068704700001C00002040
:102A900000B5FFF7F7FF05498968C1F30221044A31
:102AA000515C01F01F01C84000BD00000010024051
:102AB0001482000870B5224DAD6805F00C05042D98
:102AC00001D120483AE01E4DAD6805F00C05082DF7
:102AD00001D11C4832E01A4DAD6805F00C050C2DF3
:102AE0002BD1174DED6805F00304154DED68C5F3C6
:102AF00003156A1C022C0CD0032C09D1114DB5FB17
:102B0000F2F50F4EF668C6F3062605FB06F10AE05D
:102B100000BF0C4DB5FBF2F5094EF668C6F306266C
:102B200005FB06F100BF00BF054DED68C5F341652B
:102B30006D1C6B00B1FBF3F000E0002070BD0000E5
:102B4000001002400024F4002DE9F843044614B9B3
:102B50000120BDE8F883207800F00100002865D04E
:102B6000FC48806800F00C07FA48C06800F00306D3
:102B70000C2F01D1032E01D0082F0AD1F54800688F
:102B800000F40030002851D0606800284ED10120A8
:102B9000DFE700BF6068B0F5803F06D1ED48006810
:102BA00040F48030EB4908601AE06068B0F5A02F6F
:102BB0000BD1E848006840F48020E64908600846E8
:102BC000006840F4803008600AE0E248006820F4C1
:102BD0008030E04908600846006820F480200860E2
:102BE00000BF606888B1FFF7D5FA054606E0FFF739
:102BF000D1FA401B642801D90320AAE7D548006810
:102C000000F400300028F2D010E0FFF7C3FA0546C8
:102C100006E0FFF7BFFA401B642801D9032098E7BC
:102C2000CC48006800F400300028F2D1207800F091
:102C30000200022860D1C748806800F00C07C54830
:102C4000C06800F003060C2F01D1022E01D0042F22
:102C500018D1C048006800F4806018B1E06808B975
:102C6000012076E7BB48406820F0FE40217C40EA26
:102C70000160B8494860B8480068FFF7ADFA18B37A
:102C8000012066E7E06800B3B248006840F4807055
:102C9000B0490860FFF77EFA054606E0FFF77AFACA
:102CA000401B022801D9032053E7AA48006800F41A
:102CB00080600028F2D0A748406820F0FE40217CC8
:102CC00040EA0160A349486016E0A248006820F489
:102CD0008070A0490860FFF75DFA054606E0FFF73F
:102CE00059FA401B022801D9032032E799480068AD
:102CF00000F480600028F2D1207800F00800082855
:102D000036D16069D0B193489430006840F001003A
:102D10009049C1F89400FFF73DFA054606E0FFF739
:102D200039FA401B022801D9032012E78948943060
:102D3000006800F002000028F1D019E085489430C6
:102D4000006820F001008349C1F89400FFF722FADF
:102D5000054606E0FFF71EFA401B022801D90320B2
:102D6000F7E67C489430006800F002000028F1D1BA
:102D7000207800F00400042872D14FF00008754854
:102D8000806D012121EA107078B100BF7148806D1B
:102D900040F080506F4988650846806D00F0805093
:102DA000009000BF00BF4FF001086C48006800F4BD
:102DB0008070B0B96948006840F480706749086065
:102DC000FFF7E8F9054606E0FFF7E4F9401B0228A3
:102DD00001D90320BDE66148006800F48070002836
:102DE000F2D000BFA068012808D15A48903000688E
:102DF00040F001005749C1F8900021E0A068052883
:102E00000FD154489030006840F004005149C1F897
:102E100090000846D0F8900040F00100C1F8900002
:102E20000EE04C489030006820F001004949C1F89C
:102E300090000846D0F8900020F00400C1F89000FF
:102E400000BFA068A8B1FFF7A5F9054609E0FFF7A4
:102E5000A1F9401B41F28831884202D9032078E66B
:102E600025E03C489030006800F002000028EED0D9
:102E700013E0FFF78FF9054608E0FFF78BF9401BD9
:102E800041F28831884201D9032062E6314890300E
:102E9000006800F002000028EFD1B8F1010F05D161
:102EA0002C48806D20F080502A49886500BF20782A
:102EB00000F02000202836D1A069D0B125489830F4
:102EC000006840F001002349C1F89800FFF762F95B
:102ED000054606E0FFF75EF9401B022801D90320F2
:102EE00037E61C489830006800F002000028F1D056
:102EF00019E018489830006820F001001549C1F821
:102F00009800FFF747F9054606E0FFF743F9401B35
:102F1000022801D903201CE60E489830006800F012
:102F200002000028F1D1E069002860D009488068DB
:102F300000F00C000C287AD0E069022858D105482E
:102F4000006820F0807003490860FFF723F9054608
:102F50000DE000000010024014000020007000404E
:102F6000FFF718F9401B022801D90320F1E54A4870
:102F7000006800F000700028F2D1D4E90810401E6B
:102F800041EA0011A06A41EA0021208E0122C2EB31
:102F9000500041EA40513420005DC2EB500041EA4C
:102FA00040612C20005D41EAC0603B49C9683B4A52
:102FB000114008433849C8600846006840F08070F6
:102FC00008600846C06840F08070C860FFF7E2F80B
:102FD000054606E0FFF7DEF8401B022801D9032072
:102FE000B7E52D48006800F000700028F2D051E0ED
:102FF0002948006820F0807027490860FFF7CAF868
:10300000054606E0FFF7C6F8401B022801D9032059
:103010009FE52148006800F000700028F2D11E48AA
:10302000C0681F4908401C49C86033E0FFE7E069F9
:10303000012800D18DE51848C66806F00301206A12
:10304000814225D106F0F001606A401EB1EB001FFD
:103050001ED106F4FE41A06AB1EB002F18D106F094
:1030600078412C20005DB1EBC06F11D106F4C00196
:10307000208E0122C2EB5000B1EB405F08D106F078
:10308000C0613420005DC2EB5000B1EB406F01D055
:1030900001205EE500205CE5001002400C809F01ED
:1030A000FCFFEEFE704770B504460CB9012070BD00
:1030B000606A38B96068B0F5827F00D105E0002110
:1030C000E16102E00021216161610021A16294F8C7
:1030D0005D0028B9002084F85C00204600F062F80A
:1030E000022084F85D002068006820F0400021681C
:1030F0000860E068B0F5E06F01D9002501E04FF409
:103100008055E068B0F5706F05D0E068B0F5E06F0D
:1031100001D00021A162A08800F48270218901F40D
:1031200004410843217C01F002010843217D01F0A4
:1031300001010843218B01F400710843217F01F054
:10314000380108432021095D01F080010843218DE9
:1031500001F400510843216808600421A06901EAD4
:10316000104094F8241001F01001084394F8341032
:1031700001F008010843A18901F47061084305F4D6
:1031800080510843216848602068C06920F40060CD
:103190002168C86100202066012084F85D000020BD
:1031A00085E7000010B586B00446142101A8FDF79C
:1031B00014FD35492068884263D100BF3348006E52
:1031C00040F48050314908660846006E00F4805093
:1031D000009000BF00BF00BF0846C06C40F0010077
:1031E000C8640846C06C00F00100009000BF00BF3A
:1031F000E020019002200290002003900320049020
:103200000520059001A94FF09040FEF7CDFE204823
:10321000204908600A20486000211E488160C16082
:1032200080210161002141618161C1614FF4405100
:103230000162FEF76FFA08B1FEF73CF900BF1548CE
:10324000A065846200BF12481430134908600B2047
:1032500048601021104881600021C1608021016117
:10326000002141618161C1614FF440510162FEF76B
:1032700051FA08B1FEF71EF900BF07486065846285
:1032800000BF06B010BD0000003001400010024039
:103290000800024040020020A00200207047704752
:1032A0002DE9F04704460E4617461D4694F85D800A
:1032B000D4F80490B8F1010F0AD0B9F5827F04D197
:1032C000A06810B9B8F1040F02D00220BDE8F08761
:1032D0000EB107B10DB90120F8E700BF94F85C000A
:1032E000012801D10220F1E7012084F85C0000BF31
:1032F00094F85D00042802D0052084F85D000020C9
:103300002066A663A587E5872764A4F84450A4F83F
:103310004650E06420652068406820F4C040216881
:103320004860E068B0F5E06F06D92068406820F496
:103330008050216848604DE02068406840F480502B
:1033400021684860606D8069B0F5806F19D194F88C
:103350003C0000F0010048B92068406820F480403B
:1033600021684860E08F4010E0870AE020684068EC
:1033700040F4804021684860E08F012101EB60004B
:10338000E087A06D8069B0F5806F23D12068406828
:1033900020F4805021684860B4F8460000F0010035
:1033A00058B92068406820F4005021684860B4F89B
:1033B00046004010A4F846000CE02068406840F445
:1033C000005021684860B4F84600012101EB60001C
:1033D000A4F8460094F85D00042806D13548A16D94
:1033E00008633548A16DC86205E03448A16D0863E3
:1033F0003348A16DC8623348A16D48630020A16DB8
:103400008863B4F84630D4F800C00CF10C01226C8B
:10341000A06DFEF7E7F950B1206E40F01000206675
:1034200000BF002084F85C0000BF01204EE7206848
:10343000406840F00100216848600020616D086329
:10344000616DC862616D4863616D8863E38FD4F814
:1034500000C00CF10C02A16B606DFEF7C3F950B116
:10346000206E40F01000206600BF002084F85C0051
:1034700000BF01202AE72068006800F040004028D3
:1034800005D02068006840F040002168086000BF57
:10349000002084F85C0000BF2068406840F02000F5
:1034A000216848602068406840F002002168486058
:1034B00000200BE7D1680008ED680008DF6800080D
:1034C00069690008A968000870477047704770472D
:1034D0007047000010B50346002200BF93F83C007F
:1034E000012801D1022010BD012083F83C0000BF5B
:1034F00022F0FF00CC6840EA040222F440708C689D
:1035000040EA040222F480604C6840EA040222F49B
:1035100000600C6840EA040222F480500C6940EA22
:10352000040222F400504C6940EA040222F4804074
:103530000C6B40EA040222F470200C8B40EA044237
:1035400022F08050CC6940EA0402124C1868A04274
:1035500003D0114C1868A04213D122F470000C8DD6
:1035600040EA045222F080700C6A40EA040222F021
:1035700000704C6A40EA040222F00050CC6A40EA33
:1035800004021868426400BF002083F83C0000BFBA
:1035900000BFA8E7002C014000340140704770478D
:1035A0007047000030B502460B4600BF92F83C0061
:1035B000012801D1022030BD012082F83C0000BF6B
:1035C000022082F83D0010684168106884681D4D33
:1035D0001068A84203D01C4D1068A84203D121F402
:1035E0007001586801431948014018680143106888
:1035F0004160144D1068A84213D01068B0F1804F9C
:103600000FD0134D1068A8420BD0124D1068A8427D
:1036100007D00D4D1068A84203D00F4D1068A84286
:1036200005D124F080049868044310688460012068
:1036300082F83D0000BF002082F83C0000BF00BFC0
:10364000B9E70000002C0140003401408FFFFFFD6E
:10365000000400400008004000400140704710B5E1
:1036600004460CB9012010BD94F83D0028B9002093
:1036700084F83C00204600F029F8022084F83D0040
:10368000211D206803F050FB012084F8480000BF92
:1036900084F83E0001213F20015540200155412082
:1036A0000155422001554320015500BF00BF0120B4
:1036B00084F8440045200155462001554720015516
:1036C00000BF012084F83D000020CCE738B5044657
:1036D0000D492068884215D100BF0C48806D40F02C
:1036E00002000A4988650846806D00F002000090DB
:1036F00000BF00BF002211461D20FEF7EFFD1D2078
:10370000FEF7D8FD38BD0000000400400010024064
:10371000014691F83D00012801D0012070470220A8
:1037200081F83D000868C06840F001000B68D8606F
:10373000184B0868984213D00868B0F1804F0FD03A
:10374000154B086898420BD0144B0868984207D074
:10375000134B0868984203D0124B0868984210D166
:1037600008688068104B00EA0302062A0FD0B2F501
:10377000803F0CD00868006840F001000B681860BA
:1037800005E00868006840F001000B681860002040
:10379000C4E70000002C0140000400400008004085
:1037A0000034014000400140070001002DE9F041D4
:1037B00004460D46002700BF94F83C00012802D1C2
:1037C0000220BDE8F081012084F83C0000BF022007
:1037D00084F83D00206886683F48064026F47F460E
:1037E000206886602868702824D00CDC00F00F0167
:1037F000002964D10011072861D2DFE800F053549A
:10380000555649353F00354A811A90424FD009DC60
:10381000B0F5805F0DD0B0F5005F18D0B0F1101F8B
:103820004DD143E0102943D0202942D0502946D120
:1038300040E046E0D5E902136A68206803F0EBFA3D
:103840002068866846F077062068866039E0D5E90A
:1038500002136A68206803F0DEFA2068806840F48A
:103860008040216888602CE0EA686968206803F07D
:10387000DAFC5021206803F0D9FA22E0EA6869688E
:10388000206803F0E3FC6021206803F0CFFA18E021
:10389000EA686968206803F0C6FC4021206803F0EC
:1038A000C5FA0EE000BF00BF00BF00BF00BF00BFF1
:1038B00000BF00BF2968206803F0B8FA01E00127C3
:1038C00000BF00BF012084F83D0000BF002084F845
:1038D0003C0000BF384674E788FFCEFF2000100090
:1038E000704770B504462068C6682068056905F011
:1038F0000200022819D106F00200022815D1401F4B
:1039000021680861012020772068806900F00300A9
:1039100018B12046FFF7E4FF05E0204600F020F94B
:10392000204600F025FA0020207705F00400042846
:1039300019D106F00400042815D1C043216808619C
:10394000022020772068806900F4407018B120467A
:10395000FFF7C6FF05E0204600F002F9204600F020
:1039600007FA0020207705F00800082819D106F092
:103970000800082815D1C043216808610420207779
:103980002068C06900F0030018B12046FFF7A8FFC7
:1039900005E0204600F0E4F8204600F0E9F90020B8
:1039A000207705F01000102819D106F0100010281B
:1039B00015D1C04321680861082020772068C069BC
:1039C00000F4407018B12046FFF78AFF05E020465A
:1039D00000F0C6F8204600F0CBF90020207705F073
:1039E000010048B106F0010030B16FF0010021681C
:1039F0000861204600F064FA05F08000802804D0B9
:103A000005F40050B0F5005F0AD106F08000802870
:103A100006D16FF40250216808612046FFF757FD78
:103A200005F48070B0F5807F0AD106F08000802810
:103A300006D16FF48070216808612046FFF746FDCB
:103A400005F04000402809D106F04000402805D18B
:103A5000C04321680861204600F05AFA05F02000B2
:103A6000202809D106F02000202805D1C043216874
:103A700008612046FFF72CFD05F48010B0F5801F8B
:103A80000BD106F48010B0F5801F06D16FF48010C2
:103A9000216808612046FFF782FD05F40010B0F5AB
:103AA000001F0BD106F40010B0F5001F06D16FF413
:103AB0000010216808612046FFF770FD05F48000C2
:103AC000B0F5800F0BD106F48000B0F5800F06D161
:103AD0006FF48000216808612046FFF761FD05F45E
:103AE0000000B0F5000F0BD106F40000B0F5000F98
:103AF00006D16FF40000216808612046FFF7AEFD93
:103B000070BD000010B586B00446142101A8FDF771
:103B100064F81149206888421BD100BF0F48C06C6F
:103B200040F001000D49C8640846C06C00F0010077
:103B3000009000BF00BF8815019002200290002075
:103B4000039004900620059001A94FF09040FEF7E5
:103B50002BFA06B010BD0000002C014000100240FE
:103B600070472DE9F04104460D461646002700BF78
:103B700094F83C00012802D10220BDE8F081012028
:103B800084F83C0000BF0C2E51D005DC4EB1042E51
:103B90001ED0082E7AD133E0102E60D0142EF9D129
:103BA00075E02946206803F04DF92068806940F0EF
:103BB0000800216888612068806920F0040021687D
:103BC000886120688069296908432168886178E0F4
:103BD0002946206803F08CF92068806940F4006071
:103BE000216888612068806920F48060216888618C
:103BF00020688069296940EA01202168886160E0C5
:103C00002946206803F0CEF92068C06940F008001A
:103C10002168C8612068C06920F004002168C8617B
:103C20002068C069296908432168C86149E02946BC
:103C3000206803F011FA2068C06940F40060216830
:103C4000C8612068C06920F480602168C86120686C
:103C5000C069296940EA01202168C86131E029462C
:103C6000206803F053FA2068006D40F008002168D6
:103C700008652068006D20F0040021680865206850
:103C8000006D29690843216808651AE017E0294694
:103C9000206803F073FA2068006D40F4006021682A
:103CA00008652068006D20F4806021680865206840
:103CB000006D296940EA01202168086501E00127BB
:103CC00000BF00BF00BF002084F83C0000BF3846A2
:103CD00053E710B504460CB9012010BD94F83D001F
:103CE00028B9002084F83C00204600F029F8022082
:103CF00084F83D00211D206803F016F8012084F8A7
:103D0000480000BF84F83E0001213F2001554020BB
:103D1000015541200155422001554320015500BF66
:103D200000BF012084F8440045200155462001557C
:103D30004720015500BF012084F83D000020CCE75A
:103D400008B5094A016891420DD100BF0749096EC3
:103D500041F40061054A11661146096E01F40061E3
:103D6000009100BF00BF08BD002C014000100240C0
:103D70007047000070B504460D4615B994F83E0032
:103D800015E0042D02D13F20005D10E0082D02D186
:103D90004020005D0BE00C2D02D14120005D06E0CB
:103DA000102D02D14220005D01E04320005D01287A
:103DB00001D0012070BD1DB9022084F83E001AE038
:103DC000042D03D102213F20015514E0082D03D119
:103DD0000221402001550EE00C2D03D1022141208B
:103DE000015508E0102D03D102214220015502E0C7
:103DF00002214320015501222946206802F0FAFFE2
:103E00002749206888420FD02649206888420BD075
:103E100025492068884207D024492068884203D079
:103E200023492068884201D1012000E0002028B108
:103E30002068406C40F400402168486418492068BC
:103E4000884213D02068B0F1804F0FD01949206804
:103E500088420BD018492068884207D01149206851
:103E6000884203D010492068884210D120688068B9
:103E7000124900EA0106062E0FD0B6F5803F0CD09D
:103E80002068006840F001002168086005E02068B3
:103E9000006840F001002168086000208AE7000007
:103EA000002C01400034014000400140004401402A
:103EB00000480140000400400008004007000100E5
:103EC00010B504462068B0F1804F01D1FEF768F9C3
:103ED0000A492068884210D10948FDF7E3F90948EA
:103EE00080ED000A084A0121084803F027FF064A2E
:103EF00008320221054803F021FF10BD00040040F4
:103F0000000000200400002094110020780100200F
:103F10007047000070B5044600202074A37B484D14
:103F20002D8803FB05F26168D4F8F400FCF73CFE31
:103F3000A27B434B1B8802FB03F16068FCF74DFE3C
:103F4000A27B3F4B1B885A43A37B02FB03F1D4F8AF
:103F50001801FCF742FE227B394B1B885A43A37B96
:103F600002FB03F1D4F80C01FCF737FE002031E02E
:103F7000D4F8F41001EB800191ED000AB5EEC00A0F
:103F8000F1EE10FA24D0D4F8F41001EB800191ED99
:103F9000000A227CD4F8F41001EB820181ED000AC2
:103FA000227C616A8854A16901EB800191ED000ACD
:103FB0006169095C227B237C12FB0311491ED4F842
:103FC0000C2102EB810181ED000A217C491C217446
:103FD000411CC8B2A17B8142CADC002011E0626AA8
:103FE000125CE16901EB820191ED000A227C00FB89
:103FF0000202D4F8181101EB820181ED000A411C84
:10400000C8B2217C8142EADC207CA4F87800217BC4
:104010007A200153207BA4F88000217C8220015368
:10402000207CA4F89000217C92200153207BA4F8EE
:104030009800217C9A200153207CA4F8480070BD90
:104040009200002000BFFEE710B5002210214FF0C3
:104050009040FEF799F8FE49752000F0FAFA012227
:1040600010214FF09040FEF78FF8002210214FF002
:104070009040FEF789F8F52000F0F8FA0122F449A3
:10408000752000F0D3FA012210214FF09040FEF786
:104090007BF8002210214FF09040FEF775F8EC49B4
:1040A000752000F0D6FA012210214FF09040FEF763
:1040B0006BF8002210214FF09040FEF765F80021C8
:1040C000762000F0E1FA012210214FF09040FEF737
:1040D0005BF8002210214FF09040FEF755F80121C7
:1040E000762000F0D1FA012210214FF09040FEF727
:1040F0004BF86420FDF7D8FBD548007847287CD1E1
:10410000002210214FF09040FEF73EF8012176206A
:1041100000F0BAFA012210214FF09040FEF734F877
:10412000002210214FF09040FEF72EF802217A2055
:1041300000F0AAFA012210214FF09040FEF724F877
:10414000002210214FF09040FEF71EF8002176204B
:1041500000F09AFA012210214FF09040FEF714F877
:10416000002210214FF09040FEF70EF8402116205B
:1041700000F08AFA012210214FF09040FEF704F877
:10418000002210214FF09040FDF7FEFFB04965205E
:1041900000F05FFA012210214FF09040FDF7F4FF8C
:1041A000002210214FF09040FDF7EEFF0021652026
:1041B00000F06AFA012210214FF09040FDF7E4FF71
:1041C000002210214FF09040FDF7DEFF002160201B
:1041D00000F05AFA012210214FF09040FDF7D4FF71
:1041E000002210214FF09040FDF7CEFF0221612008
:1041F00000F04AFA0122102100E011E24FF0904055
:10420000FDF7C2FF002210214FF09040FDF7BCFFE8
:104210008F480178652000F037FA012210214FF015
:104220009040FDF7B1FF002210214FF09040FDF7C4
:10423000ABFF63215F2000F027FA012210214FF02D
:104240009040FDF7A1FF002210214FF09040FDF7B4
:104250009BFF0021762000F017FA012210214FF079
:104260009040FDF791FF002210214FF09040FDF7A4
:104270008BFF3621142000F007FA012210214FF0A5
:104280009040FDF781FF002210214FF09040FDF794
:104290007BFF0021762000F0F7F9012210214FF07A
:1042A0009040FDF771FF002210214FF09040FDF784
:1042B0006BFF6749652000F0CCF9012210214FF017
:1042C0009040FDF761FF6248007840F004006049CB
:1042D0000870002210214FF09040FDF755FF5C4818
:1042E0000178652000F0D0F9012210214FF09040B4
:1042F000FDF74AFF002003F085FA002210214FF05D
:104300009040FDF741FF0021762000F0BDF9012229
:1043100010214FF09040FDF737FF002210214FF0A1
:104320009040FDF731FF4A49502000F092F90122F8
:1043300010214FF09040FDF727FF45480078444991
:1043400008700846007840F006000870002210212E
:104350004FF09040FDF718FF3D480178502000F0E5
:1043600093F9012210214FF09040FDF70DFF00203E
:1043700003F076FA002210214FF09040FDF704FF81
:104380000021762000F080F9012210214FF09040AA
:10439000FDF7FAFE002210214FF09040FDF7F4FEE9
:1043A0002B494F2000F055F9012210214FF0904089
:1043B000FDF7EAFE2648007825490870084600788F
:1043C00040F006000870002210214FF09040FDF7E9
:1043D000DBFE1F4801784F2000F056F90122102122
:1043E0004FF09040FDF7D0FE002210214FF090409A
:1043F000FDF7CAFE0121762000F046F901221021C6
:104400004FF09040FDF7C0FE002210214FF0904089
:10441000FDF7BAFEA0210B2000F036F90122102191
:104420004FF09040FDF7B0FE002210214FF0904079
:10443000FDF7AAFE0C21084600F026F90122102102
:104440004FF09040FDF7A0FE0022102102E0000096
:10445000200000204FF09040FDF796FE90210D20A7
:1044600000F012F9012210214FF09040FDF78CFE70
:10447000002210214FF09040FDF786FE80210E2093
:1044800000F002F9012210214FF09040FDF77CFE70
:10449000002210214FF09040FDF776FE0221762099
:1044A00000F0F2F8012210214FF09040FDF76CFE71
:1044B000002210214FF09040FDF766FE18210320E6
:1044C00000F0E2F8012210214FF09040FDF75CFE71
:1044D000002210214FF09040FDF756FE902104205D
:1044E00000F0D2F8012210214FF09040FDF74CFE71
:1044F000002210214FF09040FDF746FE802105205C
:1045000000F0C2F8012210214FF09040FDF73CFE70
:10451000002210214FF09040FDF736FE002176205A
:1045200000F0B2F8012210214FF09040FDF72CFE70
:10453000002210214FF09040FDF726FE122151205D
:1045400000F0A2F8012210214FF09040FDF71CFE70
:10455000002210214FF09040FDF716FE0521532058
:1045600000F092F8012210214FF09040FDF70CFE70
:10457000002210214FF09040FDF706FE332152201B
:1045800000F082F8012210214FF09040FDF7FCFD71
:10459000002210214FF09040FDF7F6FD002176201B
:1045A00000F072F8012210214FF09040FDF7ECFD71
:1045B000002210214FF09040FDF7E6FD19494E20F2
:1045C00000F047F8012210214FF09040FDF7DCFD8C
:1045D0001448007820F0200012490870084600783E
:1045E00040F00C0008700846007840F003000870A6
:1045F000002210214FF09040FDF7C6FD09480178D8
:104600004E2000F041F8012210214FF09040FDF7BC
:10461000BBFD0120FDF748F901200349087010BDDA
:104620000020FCE720000020210000202DE9F041BF
:1046300007460C461546002600BF06E0207800F02D
:1046400015F82070641C701CC6B2AE42F6DBBDE8E3
:10465000F08170B504460D46FF2644F0800000F05E
:1046600005F8304600F002F8287070BD01B582B040
:10467000012301AA02A90348FEF712FE9DF80400D7
:104680000EBD0000DC01002070B505460C46284632
:10469000FFF7ECFF2046FFF7E9FF70BD10B586B0CD
:1046A000B3480068401CB2490860B248007880B93D
:1046B0009FEDB11AF3EE040A9FEDB00A4FF4967322
:1046C0004FF4FA620021AE4802F092F80120A949A5
:1046D0000870AC4803F014F9AB4A07CA03AB07C330
:1046E000AA48FCF7DFFDAA4880ED000AA94890ED32
:1046F000000AA748D0ED000A30EE200AA54880ED58
:10470000000A9FEDA50AA54880ED100A9D4890ED8E
:10471000000AA24880ED070A9A4890ED010A9F48D6
:1047200080ED080A974890ED020A9C4880ED090A3E
:10473000944890ED030A994880ED040A914890ED61
:10474000040A964880ED050A8E4890ED050A9348C4
:1047500080ED060A90ED091AF0EE410A90ED071A75
:10476000B0EE410A02F0DAFEB1EE400ADFED8C0A4B
:1047700020EE200ADFED8B0A80EE201A874880EDBC
:104780001A1A90ED091AF0EE410A90ED081AB0EEEF
:10479000410A02F0C3FEDFED820A20EE200ADFEDBF
:1047A000810A80EE201A7D4880ED1B1A90ED093AAF
:1047B000F0EE432A90ED083AB0EE432A90ED073A26
:1047C000F0EE431A90ED063AB0EE431A90ED053A3A
:1047D000F0EE430A90ED043AB0EE430A6C4890EDD7
:1047E000003A00F053FB6D496F48D0E91534026D73
:1047F000C06D81E81C00C8600A4644316B48FCF774
:1048000008FC664A02F150016948FCF702FC634A61
:1048100002F15C016748FCF7FCFB604A694603A8AB
:10482000FCF79BFD002039E05C491C3101EB800165
:1048300091ED000A694601EB8001D1ED000A30EEEE
:10484000600A5349D1ED000A60EE200A534991ED08
:10485000100A4F4991ED001A30EE011A80EE810ADC
:104860004E49283101EB8001D1ED000A4B4991ED11
:10487000101A60EE810A91ED101A4549D1ED001A27
:1048800031EE211AC0EE811A30EE210A4349283157
:1048900001EB800181ED000A411CC8B20328C3DB93
:1048A0003E4A02F13401A1F10C00FCF7B2FB424890
:1048B00090ED6A0A394880ED1E0A3F4890ED690A7A
:1048C000364880ED1D0A3C4890ED680A334880ED7B
:1048D0001C0A394890ED6B0A304880ED1F0A90EDB4
:1048E0001D0A364880ED000A2C4890ED040A334832
:1048F00080ED010A294890ED1E0A304880ED020A39
:10490000264890ED060A2D4880ED030A234890EDD5
:104910001C0A2A4880ED040A204890ED050A274821
:1049200080ED050A1248007800F00100E8B924483B
:1049300003F094F9134890ED060AF0EE400A20487F
:10494000B0F9000000EE100AB8EEC00A0C4803F0FF
:1049500007FB0B4890ED100ABCEEC00A10EE100ADF
:1049600082B20021174802F041FC06B010BD0000E1
:104970008C0000207D0000200000000000007A4430
:10498000B40C0020E40300204082000880000020D6
:1049900084000020880000200AD7233C4404002023
:1049A00000003443DB0F4940E80F00201C82000860
:1049B0002882000834820008E80E002094110020AC
:1049C000900000200003002010B5044654F8EC0FBE
:1049D00090ED000A834880ED000A206890ED010AFE
:1049E000814880ED000A206890ED020A7F4880ED42
:1049F000000A54F8EC0990ED030A7D4880ED000AA6
:104A00007848D0ED000A60EEA00A774890ED001AD1
:104A1000D0ED001A41EE210A744890ED001AD0ED55
:104A2000001A41EE210A724890ED001AD0ED001AEA
:104A300041EE210AB0EE600A03F0BEF96D4880ED48
:104A4000000A002012E0D4F8EC1001EB800191ED97
:104A5000000A6849D1ED000A20EE200AD4F8EC10D3
:104A600001EB800181ED000A411CC8B20428EADB99
:104A7000614890ED6F0A5C48D0ED000A20EE200AF4
:104A8000F0EE000A80EE201AF834A06880ED041AD7
:104A9000594890ED6F0A5548D0ED000A20EE200AE3
:104AA000F0EE000A80EE201AA06880ED051A524848
:104AB00090ED6F0A4B48D0ED000AF1EE600A20EE4F
:104AC000200AF0EE000A80EE201AA06880ED0A1A93
:104AD000494890ED6F0A4648D0ED000A20EE200AC2
:104AE000F0EE000A80EE201AA06880ED0B1A424812
:104AF00090ED6F0A3E48D0ED000AF1EE600A20EE1C
:104B0000200AF0EE000A80EE201AA06880ED101A4C
:104B1000394890ED6F0A3348D0ED000AF1EE600A93
:104B200020EE200AF0EE000A80EE201AA06880ED48
:104B3000111A314890ED6F0A2C48D0ED000A20EE92
:104B4000200AF0EE000A80EE201AA06880ED161A06
:104B5000294890ED6F0A2448D0ED000AF1EE600A72
:104B600020EE200AF0EE000A80EE201AA06880ED08
:104B7000171A206890ED1C0A1F48D0ED740A80EEC9
:104B8000201A206880ED1C1A206890ED230A1A482C
:104B9000D0ED740A80EE201A206880ED231A54F8B4
:104BA000F80990ED1C0ADFED150AB4EEE00AF1EE0B
:104BB00010FA05DD9FED110AD4F8F80080ED1C0A0B
:104BC000D4F8F80090ED230ADFED0C0AB4EEE00A09
:104BD000F1EE10FA05DD9FED090AD4F8F80080ED3A
:104BE000230A10BD380100203C01002040010020B4
:104BF0004401002048010020E80E002000401C462F
:104C000010B52DED068BF0EE408AB0EE60AAB0EE46
:104C1000419AB0EE618AF0EE429A01203A4908705A
:104C20000846C0ED6C8A80ED6DAA80ED6E9A9FED0E
:104C3000370A80ED730A002081F838010A46C2F86D
:104C40004001C2F844010021C2F84811C2F84C11D9
:104C5000B7EE000AB4EEC08AF1EE10FA03DDB7EE4B
:104C6000000AB0EE408A284880ED748AC0ED649A4C
:104C7000032300220621001D00F0A8FE244B012280
:104C80001146A3F10800FBF747FBB7EE000A1E48E8
:104C9000D0F8EC0080ED000A9FED1E0A1A48D0F80B
:104CA000EC0080ED010A9FED1B0A1748D0F8EC00DC
:104CB00080ED020A9FED170A1348D0F8EC0080ED52
:104CC000030A15491048C0F8D0101449C0F8D41090
:104CD0001349C0F8D8101349C0F8DC10012180F83E
:104CE0002E1080F82F1001469022D1F804010E49B1
:104CF000FBF75AFF04499022D1F8FC000B49FBF75F
:104D000053FFBDEC068B10BDE80E002077CC2B3294
:104D1000B010002000000000314D0008C949000813
:104D2000654D0008C55400084C820008980000201A
:104D300010B5044654F8F81F90220748FBF734FFDB
:104D400048220648616AFBF72FFF6169F83C482258
:104D50000348FBF729FF10BD98000020C810002071
:104D60001011002010B5044654F8EC0F90ED000A25
:104D7000F0EE000A20EE200A3F4880ED000A20688D
:104D800090ED010AF0EE000A20EE200A3B4880ED8B
:104D9000000A206890ED020AF0EE000A20EE200AD8
:104DA000374880ED000A206890ED030AF0EE000A13
:104DB00020EE200A334880ED000A14F8DE2C324B36
:104DC0001B885A4314F8E03C02FB03F1206AFBF70E
:104DD00004FF2B4890ED000AB1EE400A206A80EDF6
:104DE000000A284890ED000A206A80ED010A224856
:104DF00090ED000AB1EE400A206A80ED020A1F48D9
:104E000090ED000A206A80ED030A1C4890ED000A2C
:104E1000206A80ED060A184890ED000A206A80EDAD
:104E2000070A184890ED000A206A80ED080A144825
:104E300090ED000A206A80ED090A0F4890ED000A03
:104E4000206A80ED0C0A0D4890ED000AB1EE400A90
:104E5000206A80ED0D0A0A4890ED000AB1EE400A82
:104E6000206A80ED0E0A074890ED000A206AEC3CAB
:104E700080ED0F0A10BD00004C0100205001002001
:104E800054010020580100209200002010B52DEDA3
:104E9000088BB0EE40AAF0EE60AAB0EE41BAF0EE98
:104EA000618AB0EE429AF0EE629AB0EE438AFE4812
:104EB000007858B99FEDFD2AF7EE001A9FEDFC1A15
:104EC000DFEDFC0AB2EE040AFFF79AFEF64880ED29
:104ED0006F8A90ED580A3AEE400A80ED5B0A90ED39
:104EE000590A3AEEC00A80ED5C0A90ED5A0A3BEE90
:104EF000400A80ED5D0A90ED5B0AF6EE000A20EEB6
:104F0000200A20EE080AEC4880ED000AE64890ED01
:104F10005C0AF6EE000A20EE200A20EE080AE748B6
:104F200080ED000AE04890ED5D0AF6EE000A20EE02
:104F3000200A20EE080AE24880ED000ADA499022B1
:104F4000D1F80401DF49FBF72FFEDB4890ED000AA2
:104F5000B1EE400AD448D0F8040180ED010AD748E8
:104F600090ED000AB1EE400ACF48D0F8040180ED80
:104F7000020AD34890ED000AB1EE400ACA48D0F8C0
:104F8000040180ED030ACC4890ED000AC648D0F831
:104F9000040180ED060ACA4890ED000AC248D0F824
:104FA000040180ED080AC54890ED000AB1EE400A00
:104FB000BD48D0F8040180ED090AC04890ED000A10
:104FC000B948D0F8040180ED0C0ABD4890ED000A04
:104FD000B1EE400AB448D0F8040180ED0D0AB6489D
:104FE00090ED000AB048D0F8040180ED0F0AB448F3
:104FF00090ED000AAC48D0F8040180ED120AAF48E9
:1050000090ED000AA848D0F8040180ED130AAA48E0
:1050100090ED000AB1EE400AA348D0F8040180EDFB
:10502000140AA148D0F84811D0F84C010023594087
:105030005840014306D19C48C0ED5E8A80ED5F9ADE
:10504000C0ED609A984890ED5E0AD0ED640A60EE7B
:10505000200A90ED6F0A90ED641A30EE011A80EE8E
:10506000810AD0ED6F0A90ED641A70EE810A90ED1E
:105070006F1A21EE281AC1EE201A30EE210A80EDB7
:105080005E0A90ED5F0AD0ED640A60EE200A90EDB2
:105090006F0A90ED641A30EE011A80EE810AD0EDAD
:1050A0006F0A90ED641A70EE810A90ED6F1A21EE8E
:1050B000091AC1EE201A30EE210A80ED5F0A90ED48
:1050C000600AD0ED640A60EE200A90ED6F0A90ED60
:1050D000641A30EE011A80EE810AD0ED6F0A90ED6D
:1050E000641A70EE810A90ED6F1A21EE291AC1EE52
:1050F000201A30EE210A80ED600AD0ED5E0A60EEE3
:10510000A00A90ED5F1AD0ED5F1A41EE210A90EDF2
:10511000601AD0ED601A41EE210AB0EE600A02F08A
:105120004BFE694880ED000A002011E0674901EB61
:10513000800191ED000A6449D1ED000A20EE200AB9
:105140005949896801EB800181ED000A411CC8B210
:105150000328EBDB5448D0ED5B0A60EEA00A90ED2B
:105160005C1AD0ED5C1A41EE210A90ED5D1AD0ED8B
:105170005D1A41EE210AB0EE600A02F01DFEF7EE64
:10518000000A80EE801A484880ED651A4E4890ED7E
:10519000000AF7EE000A80EE801A434880ED661A96
:1051A00090ED650ADFED4A0AB4EEE00AF1EE10FA7E
:1051B00016D290ED660ADFED470AB4EEE00AF1EE92
:1051C00010FA0DDD90ED660ADFED430AB4EEE00A59
:1051D000F1EE10FA04D20120334981F8390103E0DD
:1051E0000020314981F839012F4890ED6C0AD0ED4B
:1051F0006F0A20EE200AD0F8180180ED000A2A4834
:1052000090ED6C0AD0ED6F0A20EE200AD0F818015C
:1052100080ED070A244890ED6C0AD0ED6F0A20EE6D
:10522000200AD0F8180180ED0E0A1F4890ED6C0A94
:10523000D0ED6F0A20EE200AD0F8180180ED150A93
:10524000194890ED6D0AD0ED6F0A20EE200AD0F8D3
:10525000180180ED1C0A144890ED6D0AD0ED6F0A1C
:1052600020EE200AD0F8180180ED230A0E4890EDB8
:105270006E0AD0F81C0180ED000A0B4890ED6E0A12
:10528000D0F81C0180ED040A074890ED6E0AD0F8B2
:105290001C0180ED080A0448001D01F017F80248BF
:1052A000406890ED000A19E0E80E002000000000C0
:1052B0008096184B6F12833A280100202C010020A1
:1052C000300100204C8200083401002060100020D2
:1052D0009A99993ECDCC1441CDCC2441744880EDAF
:1052E000540A406890ED010A714880ED550A406803
:1052F00090ED020AB1EE400A6D4880ED560A406812
:1053000090ED030A6A4880ED570A406890ED040A60
:10531000674880ED580A406890ED050A644880EDC2
:10532000590A1FED1E0A80ED5A0A90ED561A21EE19
:10533000011AD0ED571A90ED572A01EE821AF7EEB6
:10534000001AB8EE002A42EE011AF0EE610A90ED62
:10535000541AD0ED571A21EE211AD0ED551A90EDBE
:10536000562A01EE821AF0EE001A21EE211AB0EE52
:10537000410A02F0D3F8DFED4F0A20EE200A4C4834
:1053800080ED6A0A90ED551A21EE011AD0ED561AF9
:1053900090ED562A01EE821AF7EE001AB8EE002AB6
:1053A00042EE011AF0EE610A90ED541AD0ED551A52
:1053B00021EE211AD0ED561A90ED572A01EE821AED
:1053C000F0EE001A21EE211AB0EE410A02F0A6F822
:1053D000DFED380A20EE200A354880ED690AD0ED6D
:1053E000550A90ED571A60EE810A90ED541AD0EDEF
:1053F000561A41EE610AB8EE001A60EE810AB0EE6C
:10540000600A01F0F5FFDFED2B0A20EE200A2848A4
:1054100080ED680A90ED6A0AD0ED760A30EE600AF7
:10542000DFED250AB4EEE00AF1EE10FA07DDB0F880
:10543000D401401E00B21E49A1F8D40114E01C485A
:1054400090ED6A0AD0ED760A30EE600ADFED1B0AB5
:10545000B4EEE00AF1EE10FA06D2B0F8D401401C26
:1054600000B21349A1F8D401114890ED6A0AB0F9CD
:10547000D40100EE900AF8EEE00A9FED111A01EE59
:10548000200A0B4880ED6B0A90ED6A0A80ED760ADF
:10549000D0F84831D0F84C015A1C40F100000449C2
:1054A000C1F84821C1F84C01BDEC088B10BD0000CB
:1054B000E80E0020E12E654200003443000034C3B2
:1054C0000000B44370B52DED028B044604F1800159
:1054D00004F17800FBF7DEFA84F8C800B4F878002D
:1054E000A4F8A8005A20015BAA20015304F1A802E5
:1054F00004F1580104F17800FBF7AAF984F8C80018
:10550000B4F8A800A4F8B0008220015BB2200153D7
:1055100004F1B00204F1800104F1A800FBF798F94E
:1055200084F8C800B4F89000A4F8A0009220015BB1
:10553000A220015304F1A00204F1900104F1B00093
:10554000FAF766FE84F8C80004F1B00104F1A00087
:10555000FAF7E6FEAC342077206C90ED000AFE48A6
:1055600080ED000A206C90ED010AFC4880ED000AF5
:10557000206C90ED020AFA4880ED000A206C90ED54
:10558000030AF84880ED000A34F8340CA081AC3CE2
:105590000121BA200153F14890ED000AF148D0ED05
:1055A000000A20EE200AEC48D0ED000AEC4890ED0D
:1055B000001A00EEC10AF0EE000A20EE200AD4F82C
:1055C0002C0180ED000AE44890ED000AE348D0ED9C
:1055D000000A20EE200AE248D0ED000AE14890EDF2
:1055E000001A00EE810AF0EE000A20EE200AD4F83C
:1055F0002C0180ED010AD84890ED000A20EE000A47
:10560000D648D0ED000A90ED001A00EEC10AD44849
:10561000D0ED000A90ED001A00EEC10AD148D0ED9D
:10562000000A90ED001A00EE810AD4F82C0180EDFA
:10563000020A002512E0D4F82C0100EB850090ED61
:10564000000AB0EEC00AB0EE408A01F045FEC6483E
:1056500000EB850080ED000A681CC5B2032DEADB73
:10566000B4F84800A4F8C0000121C220015304F19D
:10567000C00204F1B80104F14800FBF787F984F88F
:10568000C800B4F8C000A4F8A8000121AA20015362
:1056900004F1A80204F1C00104F1B000FBF7D8F84E
:1056A000B8342074012020802189B83CBA200153ED
:1056B00004F1B80104F1C000FBF7ECF984F8C8006C
:1056C000A94A3C3204F1A80104F1B800FBF7C0F884
:1056D00084F8C800A54890ED720AD0ED730AB6EEC2
:1056E000001A60EE810AB4EEE00AF1EE10FA03D27D
:1056F00001209E4981F838019C4890ED720AD0ED56
:10570000730AB4EEE00AF1EE10FA46DD90F83801C3
:10571000002842D0954890F8390168B19348D0F8F4
:105720004011D0F84401491C40F100008F4AC2F8F2
:105730004011C2F8440105E000208C4AC2F8400143
:10574000C2F844018948D0F84031D0F84421002003
:10575000D3F13201904106D20020844981F838010A
:1057600084F82C004AE0237B814D2D8803FB05F251
:10577000D4E93A01FBF718FA237B7D4D2D886B4362
:10578000257B03FB05F2D4E93E01FBF70DFA01206E
:1057900084F82C00BDEC028B70BD744890ED720A49
:1057A000D0ED730A9FED731A60EE810AB4EEE00A41
:1057B000F1EE10FA14DD90F8380188B16B4890EDE5
:1057C000730AD0ED720A30EE600AD0ED730A9FEDD5
:1057D0006A1A60EE810A80EE201A80ED671A04E0F2
:1057E000B7EE000A614880ED670A00215F4AC2F8FF
:1057F0004011C2F84411002084F82C00B4F858007D
:10580000A4F8A8008220015BAA20015304F1A80299
:1058100004F1800104F15800FBF71AF884F8C8007D
:1058200004F1980204F1B00104F1A800FBF710F8AC
:1058300084F8C800002012E0D4F81C1101EB8001AC
:1058400091ED000A4949D1ED670A20EE200AD4F80B
:105850001C1101EB800181ED000A411CC8B2B4F8B3
:1058600098109A22125B51438142E5DC042025E026
:1058700000211FE0021F3C4B03EB8202D2ED000A25
:105880009FED3E1A80EE810A00EB40030B44D4F8F2
:105890001C2102EB8302D2ED000A20EE200A00EB6D
:1058A00040030B44D4F81C2102EB830282ED000A72
:1058B0004A1CD1B20329DDDB411CC8B20628D7DB64
:1058C000B4F89800A4F8B8000121BA20015304F1FB
:1058D000B80204F1C00104F19800FAF7B9FF84F8A6
:1058E000C800224890F83801A0B3042058E0BC2139
:1058F000095901EB800191ED000A1C49D1ED6F0AB5
:105900009FED1F1A60EE810AB4EEE00AF1EE10FA84
:105910000BDD91ED6F0ADFED1A0A20EE200ABC21A3
:10592000095901EB800181ED000ABC21095901EB05
:10593000800191ED000A0D49D1ED6F0A9FED111A1A
:1059400060EE810AB4EEE00AF1EE10FA26D291ED93
:105950006F0A19E026E000005C01002060010020D1
:1059600064010020680100206C100020E80E002077
:1059700092000020CDCCCC3D6666663FDA0FC93F71
:105980000AD7233C0AD723BC5FED020A20EE200A87
:10599000BC21095901EB800181ED000A411CC8B20C
:1059A0000628A4DB9FED080ABC20005980ED030AFD
:1059B00004F1300204F1B80104F13800FAF728FCD0
:1059C00084F8C80000BFE5E6000000000FB583B012
:1059D0000420FE4908800820FD490880DDE9031005
:1059E00008730399059848730399069888730021F2
:1059F000039801740698029002F07CFA03994861BA
:105A0000069802900398406901900299FBF7E5F827
:105A1000EE48008806994843029002F06BFA039919
:105A20008861EA4800880699484302900398806993
:105A300001900299FBF7D1F8E448008806994843A1
:105A4000029002F057FA0399C861E048008806996D
:105A5000484302900398C06901900299FBF7BDF892
:105A6000DA48008804994843029002F043FA039907
:105A70000862D64800880499484302900398006A57
:105A800001900299FBF7A9F80698029002F032FA09
:105A900003994862069802900398406A019002991F
:105AA000FBF79BF8C948008804994843029002F02C
:105AB00021FA03990860C548008804994843029078
:105AC0000398006801900299FBF787F8BF480088A7
:105AD00006994843029002F00DFA03994860BB48CA
